:100000000C9401020C9429020C9429020C94802077
:100010000C9480200C9480200C94F8200C942902DD
:100020000C9429020C9429020C9429020C942902A4
:100030000C9429020C9429020C9429020C94290294
:100040000C9436200C9429020C9404200C94DE1F8E
:100050000C9429020C9429020C9429020C94290274
:100060000C9429020C9429025A444100565447002A
:10007000524D4300475356004753540047534100E5
:10008000474C4C004747410024504D544B313631CA
:100090002C302A3238007B5457537D20007B4D4949
:1000A0004E7D20526573657474696E6720475053A6
:1000B000007B4D494E7D43616E206E6F74207374DA
:1000C000617274205753505220426561636F6E0015
:1000D0007B4D494E7D43616C6C205369676E206E89
:1000E0006F7420736574007B4D494E7D5472616E50
:1000F0006D697373696F6E206973206E6F7420650C
:100100006E65626C6564206F6E20616E792062613D
:100110006E64007B4D50537D2030007B4D50537DED
:1001200020007B5446517D20007B4C50497D2000AF
:100130007B4D56437D20007B5443437D007B544FD1
:100140004E7D2046007B544F4E7D2054007B54460C
:10015000517D20007B474C437D2046007B474C432C
:100160007D2054003A003A007B47544D7D20007BAF
:10017000474C347D20007B544F4E7D2054007B54EF
:100180004F4E7D2046007B544F4E7D2046007B43E2
:10019000434D7D20007B4753497D20000000000037
:1001A000240027002A0000000008000201000003CC
:1001B0000407000000000000000042657461200098
:1001C0007B4D494E7D204669726D77617265207660
:1001D000657273696F6E20007B4D494E7D205A61B8
:1001E000636854656B2057535052204D696E6920E7
:1001F0007472616E736D6974746572007B4D494EE3
:100200007D204E6F20757365722064617461207764
:10021000617320666F756E642C2073657474696EEB
:10022000672064656661756C742076616C756573B2
:10023000007B4D494E7D20596F75206E65656420A9
:10024000746F2072756E20666163746F72792073AB
:100250006574757020746F20636F6D706C65746564
:1002600020636F6E66696775726174696F6E2C20AA
:100270006775657373696E67206F6E2063616C6963
:1002800062726174696F6E2076616C756573206649
:100290006F72206E6F77007B4D494E7D204E6F2030
:1002A000666163746F7279206461746120666F7532
:1002B0006E642021007B4D494E7D20466163746F42
:1002C00072792064617461207361766564007B4695
:1002D00052467D20007B464C507D204420007B46CA
:1002E0004C507D204320007B464C507D2042200016
:1002F0007B464C507D204120007B464C507D204168
:10030000203035007B464C507D2041203039007B29
:10031000464C507D2041203038007B4653527D2092
:10032000007B4653567D20007B4648527D20007B53
:100330004648567D20007B46504E7D20007B44473A
:10034000467D20007B4450447D20007B444E4D7D03
:1003500020007B444C347D20007B4443537D2000AF
:100360007B4F50577D20007B4F4C437D20007B4FBF
:1003700042447D20007B4F534D7D20007B4F5450E5
:100380007D20007B4D494E7D20436F6E6669677509
:10039000726174696F6E207361766564007B4D498C
:1003A0004E7D20526573657474696E6720475053A3
:1003B00000840080007C007800740070006C00688D
:1003C0000000000000230026002900000000002596
:1003D0000028002B000404040404040404020202A4
:1003E0000202020303030303030102040810204076
:1003F00080010204081020010204081020000221DC
:10040000F02A11241FBECFEFD8E0DEBFCDBF12E02F
:10041000A0E0B1E0EEE7FAE602C005900D92A0354B
:10042000B107D9F725E0A0E5B2E001C01D92A23ADC
:10043000B207E1F711E0C0E0D2E004C02197FE016D
:100440000E941B2FCF3FD107C9F70E94E4220C94D2
:1004500032350C940000FC018091780581111AC09E
:10046000118210821382128280917A0582608093B9
:100470007A051092790591E06D3209F090E0809153
:100480007A0590FB80F980937A056D3209F06EC091
:1004900080E008956C3299F580917905811103C04F
:1004A00081E08093790582819381892B99F05AE0CC
:1004B0008091790591E0980F90937905481750F055
:1004C00022813381529FC001539F900D1124938349
:1004D0008283EECF90917A05892F817090FF44C07E
:1004E0002281338131952195310933832283208103
:1004F00031813195219531093183208308956E3200
:1005000021F481E080937905C3CF80917905811131
:1005100012C0208131814AE0429FC001439F900D6B
:100520001124062E000C770B60537109680F791F98
:1005300071836083ADCF91E0980F90937905481750
:1005400008F4A6CF228133814AE0429FC001439F35
:10055000900D1124062E000C770B60537109680F63
:10056000791F7383628394CF81E008956C3209F41C
:1005700097CF6E3271F6C5CF813311F0813421F4FB
:1005800083E08093740508C0803321F08E3411F02D
:10059000863541F4109274058091750581608093D1
:1005A00075050895823311F0843411F484E0E9CFA5
:1005B000833311F487E0E5CF843311F486E0E1CF93
:1005C000853311F485E0DDCF863311F0853449F7AA
:1005D00081E0D7CFE0917805E930F0F4F0E0ED501C
:1005E000FD4F0C941B2FFC020E0313031B0320036F
:1005F00028032D0335033F03109273058C3261F0FD
:1006000090917A05926090937A0580539AE0899F41
:10061000802D112480936E0581E0089590916E05E0
:100620009053890FF7CF80539AE0899F802D112432
:1006300080936D05F1CF90916D059053890FF8CFA0
:1006400080539AE0899F802D112480936C05E4CF1C
:1006500090916C059053890FF8CF8C32E9F6809118
:100660007505846080937505D7CF8C32C1F38053B4
:100670009AE0899F802D112480937305CDCF8C3211
:1006800071F3909173059053890F80937305E7CFB1
:10069000FC0180917A058E7F80937A0580917805A0
:1006A000811106C06C3269F06053608381E0089567
:1006B0006C32E1F3808160539AE0899F600D1124D0
:1006C000F4CF80E00895282F082E000C330B205320
:1006D00031092A30310510F480530895803231F009
:1006E0009FEB980F9A3120F48753089584E2089580
:1006F0008FEF0895EF92FF920F931F93CF93DF93A5
:100700008C017B01D0E0C0E0F701EC0FFD1F64918C
:10071000662361F0D801ED91FC910190F081E02D0C
:10072000C8010995892B11F02196EECFCE01DF91FA
:10073000CF911F910F91FF90EF900895AF92BF92CC
:10074000CF92DF92EF92FF920F931F93CF93DF939D
:100750006C017B018B01040F151FEB015E01AE18CC
:10076000BF08C017D10759F06991D601ED91FC91EE
:100770000190F081E02DC6010995892B79F7C5011B
:10078000DF91CF911F910F91FF90EF90DF90CF906D
:10079000BF90AF900895FC01538D448D252F30E01C
:1007A000842F90E0821B930B541710F0CF9608957E
:1007B00001970895FC01918D828D981761F0A28DAB
:1007C000AE0FBF2FB11D5D968C91928D9F5F9F7371
:1007D000928F90E008958FEF9FEF0895FC01918D27
:1007E000828D981731F0828DE80FF11D858D90E094
:1007F00008958FEF9FEF0895FC01918D228D892F31
:1008000090E0805C9F4F821B91098F739927089518
:100810008BEF93E00E94FC0321E0892B09F420E098
:10082000822F089580E090E0892B29F00E9408042F
:1008300081110C9400000895FC01A48DA80FB92F1C
:10084000B11DA35ABF4F2C91848D90E001968F73F8
:100850009927848FA689B7892C93A089B1898C9117
:10086000837080648C93938D848D981306C0028866
:10087000F389E02D80818F7D80830895EF92FF9230
:100880000F931F93CF93DF93EC0181E0888F9B8DB3
:100890008C8D98131AC0E889F989808185FF15C06D
:1008A0009FB7F894EE89FF896083E889F989808190
:1008B0008370806480839FBF81E090E0DF91CF915F
:1008C0001F910F91FF90EF900895F62E0B8D10E081
:1008D0000F5F1F4F0F731127E02E8C8D8E110CC0F0
:1008E0000FB607FCFACFE889F989808185FFF5CF3B
:1008F000CE010E941C04F1CFEB8DEC0FFD2FF11DFA
:10090000E35AFF4FF0829FB7F8940B8FEA89FB8977
:1009100080818062CFCFCF93DF93EC01888D8823D5
:10092000B9F0AA89BB89E889F9898C9185FD03C052
:10093000808186FD0DC00FB607FCF7CF8C9185FF37
:10094000F2CF808185FFEDCFCE010E941C04E9CF5C
:10095000DF91CF91089590E0FC01EA55FE4F24917C
:10096000FC01E751FC4F3491FC01EB52FC4FE49148
:10097000EE23C9F0222339F0233001F1A8F421300D
:1009800019F1223029F1F0E0EE0FFF1FE553FC4F83
:10099000A591B4918FB7F894EC91611126C0309570
:1009A0003E233C938FBF08952730A9F02830C9F02B
:1009B000243049F7809180008F7D03C080918000B2
:1009C0008F7780938000DFCF84B58F7784BDDBCFB6
:1009D00084B58F7DFBCF8091B0008F778093B0007E
:1009E000D2CF8091B0008F7DF9CF3E2BDACFCF935D
:1009F000DF9390E0FC01E751FC4F24918B529C4F18
:100A0000FC0184918823D1F090E0880F991FFC01AC
:100A1000E456FE4FA591B491FC01E553FC4FC591FE
:100A2000D49161110EC09FB7F8948C91E22FE0959C
:100A30008E238C932881E223E8839FBFDF91CF919F
:100A400008958FB7F894EC91E22BEC938FBFF6CF1B
:100A50003FB7F8948091A9029091AA02A091AB02AD
:100A6000B091AC0226B5A89B05C02F3F19F00196A6
:100A7000A11DB11D3FBFBA2FA92F982F8827BC01F8
:100A8000CD01620F711D811D911D43E0660F771F1F
:100A9000881F991F4A95D1F708958F929F92AF9220
:100AA000BF92CF92DF92EF92FF924B015C010E94C6
:100AB00028056B017C010E9428056C197D098E09AF
:100AC0009F09683E734081059105A8F321E0821AD1
:100AD0009108A108B10888EEC80E83E0D81EE11C79
:100AE000F11C81149104A104B10429F7FF90EF9047
:100AF000DF90CF90BF90AF909F908F9008958F928E
:100B00009F92AF92BF92CF92DF92EF92FF926B01D2
:100B10007C01BC01A60182E07695679557954795C3
:100B20008A95D1F7D701C60124E0B695A795979588
:100B300087952A95D1F7840F951FA61FB71F4C01E3
:100B40005D0134E0B694A794979487943A95D1F7D1
:100B5000880D991DAA1DBB1D892E9A2EAB2EBB2474
:100B6000880E991EAA1EBB1EC501AA27BB27880E88
:100B7000991EAA1EBB1EA3E0B0E0A50194010E942D
:100B80005B2DA7019601261B370B480B590BABE0D9
:100B9000B0E00E945B2DE5E0969587957795679587
:100BA000EA95D1F7680D791D8A1D9B1DFF90EF9086
:100BB000DF90CF90BF90AF909F908F900895CF928D
:100BC000DF92EF92FF921F93CF93DF93EC01162FEA
:100BD0008091780581110BC0188219821A821B82BC
:100BE0001092790580917A05826080937A051E3291
:100BF00091F11C3209F064C080917905882359F184
:100C000080917905843009F07CC0288139814A813E
:100C10005B81A4E6B0E00E945B2D688379838A83C0
:100C20009B83C880D980EA80FB80C701B601660F2C
:100C3000771F881F991F6F5F7F4F8F4F9F4F0E94B5
:100C40007F05C60ED71EE81EF91EC882D982EA8229
:100C5000FB8281E02AC081E0809379052981822F7F
:100C600082958F702F703AE0839F200D11248A8126
:100C700081112C598881982F92959F708F703AE03E
:100C8000939F800D11249CE3299F90011124820FD2
:100C9000932F911D092E000CAA0BBB0B88839983FF
:100CA000AA83BB831E3249F480E0DF91CF911F916C
:100CB000FF90EF90DF90CF9008951C3209F4A0CF01
:100CC00080917905811143C088819981AA81BB8176
:100CD00034E0880F991FAA1FBB1F3A95D1F7412F07
:100CE000110F550B40535109052E000C660B770B65
:100CF000842B952BA62BB72B88839983AA83BB8340
:100D0000D3CF853039F4288139814A815B81AAE0CB
:100D1000B0E081CF863009F484CF08F09ACF2881E3
:100D200039814A815B81A8EEB3E0833009F473CF47
:100D3000823019F4A0E1B7E26ECF813009F071CFB3
:100D400060EA76E881E090E00E940A2D66CF8F5F2E
:100D5000809379058730C0F4288139814A815B818D
:100D6000AAE0B0E00E945B2D212F110F330B20531E
:100D700031096901330FEE08FF08DC01CB018C0D4E
:100D80009D1DAE1DBF1DB8CF873009F08DCFC88027
:100D9000D980EA80FB80C701B601660F771F881FE4
:100DA000991F6F5F7F4F8F4F9F4F0E947F056C0D84
:100DB0007D1D8E1D9F1D19334CF06E5F7F4F8F4F31
:100DC0009F4F688379838A839B836ECF1433CCF3E0
:100DD0006F5F7F4F8F4F9F4FF4CF1F93CF93DF9362
:100DE0001F92CDB7DEB7682F1091E504153009F4D6
:100DF00084C0163009F403C1113009F025C1E09117
:100E00007705E150E93008F01FC1F0E0E65FF84FE8
:100E10000C941B2F130712082007430726085507B9
:100E20005D0724086A07862F0E94EA020F90DF916F
:100E3000CF911F91089587E595E00E94DF0504C1D9
:100E400080917A0582FF00C1809178058111FCC0F4
:100E5000633509F0F9C08091570590915805A0912C
:100E60005905B0915A05B095A095909581959F4FE1
:100E7000AF4FBF4F8093570590935805A0935905E6
:100E8000B0935A05E1C06C3249F480917805811124
:100E900005C080917A058B7F80937A0580917A05D1
:100EA00082FFD2C08BE595E0C8CF80917805811193
:100EB000CBC0862F0E94BC02C7C08BE695E00E9483
:100EC0004803909175059068882309F4BDC09093FC
:100ED0007505ACCF42E08FE595E00E942B02882398
:100EE00009F4B2C021E090917805911101C020E091
:100EF0009091750520FB94F9EACF809156058431D5
:100F000008F0A2C020917705243008F49DC0482F36
:100F100050E02370223079F02330E9F1819FC00145
:100F20001124213029F08E509B4F0E9448038CC021
:100F30008D509B4FFACF149FF001159FF00D112497
:100F40006C3201F180917A058E7F80937A05409111
:100F50007805862F90E0EB51FB4F411104C0C097FC
:100F6000908B878771C0278530894AE0429FB00106
:100F7000439F700D112460537109680F791F708BA6
:100F8000678762C0EA50FB4F90819F7790838F5FA5
:100F90008093560559C041505109149FF001159F87
:100FA000F00D1124EA50FB4F6C32F1F080818F7705
:100FB0008983CE0101960E94480380915605815095
:100FC000990B189FF001199FF00D1124EA50FB4F67
:100FD00099819F7780818078892B808380917A05A1
:100FE000826080937A0530C091E08091780581110C
:100FF00001C090E0808190FB87F9808325C0E0915B
:101000007705E150E93000F5F0E0E75FF74F0C9429
:101010001B2F1307550712082007430726085008FF
:10102000620875088091780581110AC091E06C32E0
:1010300009F490E080917A0590FB82F980937A051B
:1010400080917A0582FDF7CE81E0F0CE90917A050D
:1010500092FB882780F992FFF7CF90917805911144
:10106000F3CF90917505986090937505673561F79A
:1010700040915B0550915C0560915D0570915E0546
:1010800070956095509541955F4F6F4F7F4F40939E
:101090005B0550935C0560935D0570935E05C6CE5D
:1010A00043E083E695E00E942B02882369F221E069
:1010B00090917805911101C020E09091750520FB79
:1010C00095F905CF42E087E695E00E942B02882340
:1010D00009F4BACF21E090917805911101C020E088
:1010E0009091750520FB96F9F2CE809178058230BB
:1010F00041F150F48823D1F0813009F0A5CF8091DF
:1011000070058053680F1AC0843041F110F18530AA
:1011100009F09ACF809172058053680F6093720531
:10112000809175058260809375058ECF6C3209F4CD
:101130008BCF60538AE0689F602D11246093700507
:1011400083CF60538AE0689F602D112460937105FE
:101150007BCF809171058053680FF8CF60538AE090
:10116000689F602D1124609372056ECF2091F70265
:101170003091F8022817390771F49091F5028091A7
:10118000F602981741F0E091F502F0E0EC59FD4FBE
:10119000808190E008958FEF9FEF08950895EF927A
:1011A000FF920F931F93CF93DF93DC015C96ED903A
:1011B000FC905D97E114F10479F481E090E01396DE
:1011C0009C938E93129790E080E0DF91CF911F91D6
:1011D0000F91FF90EF9008955196ED91FC915297E9
:1011E00050968C915097982F90950FB75E962C91B2
:1011F0005E97122F127021FD6095F89420811123C3
:1012000019F1282B2083E7012197F1F728E0462FD9
:1012100050E0308160FF1AC0382B3083E7012197FE
:10122000F1F7BA0175956795215089F7112381F07F
:101230008081892380830FBF5C968D919C9101975B
:10124000F1F781E090E0C1CF2923DCCF3923E5CF4E
:101250009081892BEFCF2091F7023091F802281767
:10126000390771F48091F6022091F50290E0805CDC
:101270009F4F821B910960E470E00E94072F089540
:1012800090E080E008952091F7023091F80228174D
:101290003907B9F49091F5028091F602981789F018
:1012A000E091F502F0E0EC59FD4F80812091F502CC
:1012B00030E02F5F3F4F2F7333272093F50290E0EC
:1012C00008958FEF9FEF08959F92AF92BF92CF92B4
:1012D000DF92EF92FF920F931F93CF93DF9311E072
:1012E000D1E003E092E0F92E88E994E00E942B0916
:1012F000892B09F4CEC188E994E00E944309C82FE4
:101300008091EE049091EF04A091F004B091F1046B
:101310000196A11DB11D8093EE049093EF04A0935C
:10132000F004B093F104C432B9F480917A0584FFDB
:1013300005C08F7E80937A0510925605109276052F
:101340001092E504D0937B051092780580917A0580
:101350008D7F80937A05C8CF80917B05823079F5A7
:10136000CA3229F400937B0510927805BDCF80EE38
:101370008C0F8F3550F4809176058C2780937605FD
:101380008C2F0E94ED06811107C0109275051092F6
:10139000E50410927B05A8CFCC3259F480917A05F0
:1013A0008D7F80937A05809177058F5F8093770595
:1013B000DBCF809178058F5F8093780595CF813062
:1013C00009F061C0909176059C2790937605CC3208
:1013D00069F49091E5049923D1F2109275058093F8
:1013E000770510927805F0927B057ECFE090780526
:1013F00081E08E1508F05EC18EEFB82EBE0C809194
:10140000E504882309F43DC08150E82FF0E0EE0F99
:10141000FF1FEF54FC4F2591349150E040E0CB2C5E
:10142000D12C61E0680F70E0F901EC0DFD1DE49135
:10143000CE1709F43CC1CE170CF4A9CFAA24A3946B
:10144000A80E873009F4A3CFFB01E40FF51FEE0FC0
:10145000FF1FEF54FC4FA591B49190E080E08B15F5
:1014600058F4F901E80FF91F9490FD01E80FF91FF6
:10147000E49101969E1699F34F5F5F4F8A2D9D016F
:10148000D3CF80E0C2CF833009F0F3C0C0628FE9D0
:101490008C0F863038F5C755909178058091760588
:1014A000911122C0D093780590E024E0959587951E
:1014B0002A95E1F7C817190609F416CF8091EA04B6
:1014C0009091EB04A091EC04B091ED040196A11D64
:1014D000B11D8093EA049093EB04A093EC04B093C5
:1014E000ED0453CFC053D8CF8F7021E08C1301C0CF
:1014F00020E08C13E3C080917A0581FF09C08D7FC5
:1015000080937A059F5F909378058CE20E94ED06A8
:101510008091E6049091E704A091E804B091E90479
:101520000196A11DB11D8093E6049093E704A0935A
:10153000E804B093E9049091E50421E0963009F0C5
:1015400020E080917A0520FB84F980937A0510923F
:101550007B0520919B05211191C08091750580FF2D
:101560000CC02091740530919A0530FF04C0309171
:101570009905321710F42093990581FF0CC0209132
:101580007005209395052091710520939605209173
:1015900072052093970582FF10C020916E0520935D
:1015A000930520916D052093920520916C05209361
:1015B0009105209173052093980583FF09C088E069
:1015C000E7E5F5E0ACE7B5E001900D928A95E1F72B
:1015D0008091750584FF10C040915F0550916005B2
:1015E0006091610570916205409384055093850573
:1015F000609386057093870586FF10C0409167054C
:10160000509168056091690570916A0540938C0559
:1016100050938D0560938E0570938F0585FF10C0E4
:101620004091630550916405609165057091660570
:10163000409388055093890560938A0570938B05C4
:1016400087FF04C080916B0580939005809175059C
:1016500020919A05822B80939A05963009F044CE0A
:1016600010929D0580919B0581113ECE10939B05A4
:101670003BCE811139CE1092E50436CE886080933E
:101680007A0510929C0580919B05815080939B0563
:1016900064CF80919B05DF91CF911F910F91FF90B7
:1016A000EF90DF90CF90BF90AF909F9008958F5FA5
:1016B0008093E504E394E092780516CE2111FECEE6
:1016C00013CEE091F702F091F802E817F90769F4F8
:1016D000A389B4899C918589809589238C931092E4
:1016E000F8021092F70281E0089580E008951092C8
:1016F000B3041092B2041092B1041092B00410928C
:10170000AF041092AE048DEC90E09093B5048093FA
:10171000B4049091A404963108F046C025E530E069
:101720003093AF042093AE042BEC30E03093B1043F
:101730002093B00420E930E03093B3042093B20446
:101740002091680084E0983048F031E09E3008F441
:1017500030E081E001C0880F3A95EAF7822B809350
:1017600068002DE630E0983050F02BE630E09E30F7
:1017700030F02CE630E0963110F030E020E030938D
:10178000AC042093AB04292F30E09830C0F581E001
:1017900001C0880F9A95EAF78093AD048091B40454
:1017A0009091B5040197F1F78091B2049091B30440
:1017B000892B21F18091F7029091F80224E0883979
:1017C0009207E1F0009711F00E94610B8091B6043E
:1017D0008E7F8093B6041092F6021092F50288E98B
:1017E00094E09093F8028093F702E091AB04F091BB
:1017F000AC0480819091AD04892B808308959E3044
:1018000040F42850310981E001C0880F2A95EAF799
:10181000C3CF2E503109F7CF90E080E0089540917A
:10182000B60250E0481303C01092BA0251E0309162
:10183000B702381304C091E09093BA0251E02091AE
:10184000B802281304C092E09093BA0251E090913C
:10185000B902981304C083E08093BA02089551112D
:101860002FC0833688F4481303C01092BA0208953B
:10187000381302C081E0F0CF281302C082E0ECCF21
:10188000981749F38F5FEDCF8336D1F482E648177E
:1018900049F0381759F0281771F0981751F0815016
:1018A000B1F7842F1092BA02381303C031E030939D
:1018B000BA02281303C022E02093BA02981759F203
:1018C00008958093BB0084E88093BC008091BC00A5
:1018D00087FFFCCF8091B900887F0895CF93DF9375
:1018E00094EA9093BC009091BC0097FFFCCF90913C
:1018F000B900987F9830E1F4C62FD82F80EC0E9471
:10190000610C8831B9F48D2F0E94610C8832A1F4EA
:101910008C2F0E94610C883289F484E98093BC008A
:101920008091BC0084FDFCCF80E0DF91CF910895D1
:1019300081E0FBCF82E0F9CF83E0F7CF84E0F5CF01
:101940004F925F926F927F928F929F92AF92BF92CF
:10195000CF92DF92EF92FF92CF93DF9300D000D02F
:10196000CDB7DEB74B015C01CA01B90120E030E020
:1019700044E353E40E94B52D2B013C0120E030E00C
:1019800040EA51E40E94212E0E94932E6B0120E038
:1019900030E044EB52E4C501B4010E94B52D4B0187
:1019A0005C0120E030E040E251E40E94212E0E94E0
:1019B000932E69837A838B839C8381E48C0D80933F
:1019C000D70389818F5B8093D803B601DD0C880B28
:1019D000990B0E94D72B20E030E040EA51E40E94AE
:1019E000362C9B01AC01C301B2010E94B42D20E052
:1019F00030E040E05FE30E94362C0E94932E605D51
:101A00006093D90329813A81B901330F880B990B6F
:101A10000E94D72B20E030E040E251E40E94362CB7
:101A20009B01AC01C501B4010E94B42D0E94932E0C
:101A3000605D6093DA031092DB030F900F900F90BC
:101A40000F90DF91CF91FF90EF90DF90CF90BF90FC
:101A5000AF909F908F907F906F905F904F90089580
:101A60005F926F927F928F929F92AF92BF92CF922E
:101A7000DF92EF92FF920F931F93CF93DF934C016E
:101A8000DC0114966D907C90D0E0C0E020E030E066
:101A900040E050E060E070E080E090E0C615D705DF
:101AA00071F1D401ED91FC91512C309719F0EC0FAC
:101AB000FD1F5080E0EDE50DEA3008F5EAE0AE2EBE
:101AC000B12CC12CD12CE12CF12C00E010E00E94B3
:101AD000212F59016A017B018C01852D550C990B31
:101AE000C097E92FEE0FEE0B9C014E2F5E2F6E2F4D
:101AF0007E2F8E2F9E2F0E942B302196CFCFDF91ED
:101B0000CF911F910F91FF90EF90DF90CF90BF90FA
:101B1000AF909F908F907F906F905F900895FC01A1
:101B20001482158216821782108211821282138209
:101B300011861086138612861586148617861686D9
:101B4000118A108A138A128A148A168A178A158AA9
:101B500081E0818F828F138E87E0808F148E158EA7
:101B6000168E0895CF93DF93EC010E948F0D809124
:101B70009B058823B9F0815080939B0580919C053B
:101B80002FE1289FC0011124FC01E458FA4FDE0127
:101B900001900D922A95E1F784589A4F0E948F0D7B
:101BA00010929C05CE01DF91CF910895CF93DF93E2
:101BB000EC0188819981009711F00E94003119820F
:101BC00018821D821C821B821A82DF91CF91089598
:101BD000FC0180819181009711F00C9400310895EF
:101BE0002F923F924F925F926F927F928F929F922D
:101BF000AF92BF92CF92DF92EF92FF920F931F931B
:101C0000CF93DF93CDB7DEB7CB55D1400FB6F89465
:101C1000DEBF0FBECDBF182F6EEC73E0CE01805B30
:101C20009E4F0E947B3267ED73E0CE01895A9E4F32
:101C30000E947B32CF5ADE4F8881C155D1408053FC
:101C40008A30B8F4CE5ADE4F8881C255D1408053D5
:101C50008A3078F045E050E0BE01605B7E4FCB01FA
:101C600001960E94623280E2C05BDE4F8883C055DD
:101C7000D140CE5ADE4F8881C255D14080538A3040
:101C800030F080E3CE5ADE4F8883C255D140AE019A
:101C9000405B5E4F7A016A0156E0C50ED11C00E23E
:101CA000D7018C91082E000C990B0E945132F7013C
:101CB00081937F01082E000C990B9C012053310960
:101CC0002A30310538F00E944632892B19F4F70189
:101CD00031970083CE14DF0419F786E0FE01E05B44
:101CE000FE4FA9EBB4E001900D928A95E1F7AE01A9
:101CF000495A5E4F7A016A0154E0C50ED11CD701E2
:101D00008D917D01082E000C990B0E945132F70134
:101D100031978083282F082E000C330B2053310974
:101D20002A30310568F08154823150F085E0E3E2D9
:101D3000F2E0DE01A95ABE4F01900D928A95E1F7BB
:101D4000CE14DF04E1F684E0FE01E95AFE4FA0EC78
:101D5000B4E001900D928A95E1F7812F1D3308F0D0
:101D60008CE393E1EAE0F1E0DE01119601900D923F
:101D70009A95E1F71091C504FE0131969E012C5E03
:101D80003F4FDF019D91891301C0182F2A173B0790
:101D9000C9F721E030E02C0F3D1F2E5E3F4F9181AF
:101DA000891720F49081891708F0192F31962E1782
:101DB0003F07A9F71093C5048091B9040E946303FB
:101DC000282F30E0A4E2B0E00E94A52D6B017C0139
:101DD0008091BA040E946303A7019601280F311D68
:101DE000411D511DAAE0B0E00E945B2D6B017C01FA
:101DF0008091BB040E946303A7019601280F311D47
:101E0000411D511DABE1B0E00E945B2D6B017C01D7
:101E10008091BC040E946303E82FEA50FF0B9F01EE
:101E2000032E000C440B550B2C0D3D1D4E1D5F1D4C
:101E3000ABE1B0E00E945B2D6B017C018091BD04A1
:101E40000E946303482F4A50550B9A01032E000C41
:101E5000440B550B2C0D3D1D4E1D5F1DABE1B0E03D
:101E60000E945B2D6B017C018091BE040E94630384
:101E70008A50990B092E000CAA0BBB0B8C0D9D1DD3
:101E8000AE1DBF1D4091C004042E000C550B4154E3
:101E9000510966EF64039001659F300D1124409154
:101EA000C204241B310947FD33952D513F4F64EB8C
:101EB000629FA001639F500D11242091C104022E46
:101EC000000C330B21543109EAE0E29FB001E39F9B
:101ED000700D1124460F571F2091C304022E000CD1
:101EE000330B20533109420F531F052E000C660B94
:101EF000770B07E0440F551F661F771F0A95D1F730
:101F0000405C5F4F6F4F7F4F410F511D611D711D31
:101F10008C019D01E4E03695279517950795EA9584
:101F2000D1F7C95BDE4F0883C754D1408C019D01B6
:101F3000FCE03695279517950795FA95D1F7CA5B7A
:101F4000DE4F0883C654D1408C019D01A4E1369533
:101F5000279517950795AA95D1F7CB5BDE4F088398
:101F6000C554D140242F2295220F220F207CC55B1F
:101F7000DE4F2883CB54D1408A019B01B2E03695D5
:101F8000279517950795BA95D1F7C65BDE4F08835D
:101F9000CA54D1408A019B019AE03695279517953E
:101FA00007959A95D1F7C75BDE4F0883C954D14096
:101FB00022E176956795579547952A95D1F74F7009
:101FC0008295807F482BC85BDE4F4883C854D14040
:101FD000C45BDE4F1882CC54D140C35BDE4F188205
:101FE000CD54D140C25BDE4F1882CE54D140C15B8C
:101FF000DE4F1882CF54D140FE01EB5BFE4F7F01D4
:102000005BE0E50EF11C20E040E050E0BA01CE01BB
:102010008D559F4F019110E0312C212C4A015B011D
:10202000880C991CAA1CBB1CB801022C02C0660FAC
:10203000771F0A94E2F7660F672F661F770B6170B0
:102040002401462AB501A2014A0131E5832233E584
:10205000932230EDA32232EFB322A0E2DA2E712CCC
:10206000A82DA1707A26B694A79497948794DA94B1
:10207000D110F6CF6C01C20ED11CD6017C92CC24BB
:10208000C394C20E4A015B01B7E48B22BCE39B22DE
:10209000B1E6AB22B4EEBB22B0E2DB2E30E0A82DDD
:1020A000A1703A27B694A79497948794DA94D110A4
:1020B000F6CFC80ED92ED11CD6013C932E5F223A02
:1020C00040F4BFEF2B1A3B0A38E02316310409F025
:1020D000A5CFEE16FF0609F09DCF30E020E001E02D
:1020E00010E0622F47E050E0E0E0A62FB0E060FF94
:1020F00007C0B801042E01C0660F0A94EAF7E62B68
:10210000BD01759567954150510978F7E23A68F439
:10211000A1E0B0E0AC0FBD1FAE0FB11DFD01DC01B1
:10212000A30FB11D4C9140833F5F323A18F42F5FEB
:102130002F3FB9F622EAFE013196DC0101900D92A3
:102140002A95E1F722EAEDE1F1E0DE011196019036
:102150000D922A95E1F7FE013196AC0169EF72E02C
:102160003191DA012D91AD01220F230FDB012D9367
:10217000BD018E179F07A1F7C55ADE4F0FB6F89421
:10218000DEBF0FBECDBFDF91CF911F910F91FF90AA
:10219000EF90DF90CF90BF90AF909F908F907F9007
:1021A0006F905F904F903F902F9008950F931F93E3
:1021B000CF93DF93EC0188819981009759F02A81B0
:1021C0003B812617370730F081E0DF91CF911F91D7
:1021D0000F9108958B016F5F7F4F0E9489310097A7
:1021E00059F0998388831B830A832C813D81232B9B
:1021F00059F7FC011082E8CF80E0E7CFEF92FF9221
:102200000F931F93CF93DF93EC017B018A01BA01F7
:102210000E94D61081110BC0CE010E94D60DCE01B6
:10222000DF91CF911F910F91FF90EF9008951D8343
:102230000C83B701888199810E947B32F0CFCF93C4
:10224000DF93EC01FB018617970749F060817181EC
:102250006115710541F0448155810E94FE10CE0147
:10226000DF91CF9108950E94D60DF9CFFC01118224
:1022700010821382128215821482FB0101900020C9
:10228000E9F73197AF01461B570B0C94FE10FB0189
:1022900001900020E9F73197AF01461B570BDC0195
:1022A000ED91FC910280F381E02D09948F929F9231
:1022B000AF92BF920F931F93CF93DF93CDB7DEB74B
:1022C000A1970FB6F894DEBF0FBECDBF19A2423062
:1022D00008F44AE08E010F5D1F4F842E912CB12C23
:1022E000A12CA50194010E941A2DE62FB901CA0163
:1022F000EA3004F5E05DD801EE938D01232B242B09
:10230000252B79F790E080E0109729F0BD018BEF45
:1023100093E00E944711A1960FB6F894DEBF0FBE5E
:10232000CDBFDF91CF911F910F91BF90AF909F9044
:102330008F900895E95CDFCFCF92DF92EF92FF920A
:10234000CF93DF9397FF1BC06B017C016DE28BEF96
:1023500093E00E943E04EC0166277727CB016C19BD
:102360007D098E099F094AE00E9456118C0F9D1F1E
:10237000DF91CF91FF90EF90DF90CF9008954AE0EA
:10238000DF91CF91FF90EF90DF90CF900C9456119A
:10239000BC018BEF93E00C94471186E292E00C9421
:1023A000C81168E272E00C944711CF93DF93682F55
:1023B00070E090E080E04AE00E945611EC018BEF63
:1023C00093E00E94D1118C0F9D1FDF91CF91089552
:1023D000EFEDF3E081E09191911180E093E0EC3E2C
:1023E000F907C9F7E091AD02882389F010925802ED
:1023F0001092590210925A0210925B0210925C02E3
:1024000010925D0210925E0210925F020895EF5FDB
:10241000ED3008F0E0E0AE2FB0E0AC55BC4FDB96FD
:102420008C918823A1F3E093AD02E150EC3088F465
:10243000F0E0E35EFD4E0C941B2F50125D1268120B
:1024400073127E12891294129F12AA12B512C01230
:10245000D01280EF809358028EEC8093590281ED68
:1024600080935A0210925B0210925C0210925D02FD
:1024700010925E0210925F028BE292E00E94C811FD
:102480008091AD028A3020F486E292E00E94C81169
:102490008091AD020E94D5118091AD020C940F0C79
:1024A00080E5809358028CED8093590285ED8093EE
:1024B0005A0282E080935B02D7CF80ED809358026E
:1024C00087EB8093590284EF80935A028AE0F2CF1F
:1024D00080E5809358028AE88093590287E48093CC
:1024E0005A0285E1E7CF80E18093580287E5809327
:1024F000590286EF80935A0289E2DCCF80EA80930A
:10250000580287EB8093590280E780935A028CE34C
:10251000D1CF80EB8093580287E78093590286E001
:1025200080935A0284E5C6CF80E58093580287EBFA
:10253000809359028BEE80935A028BE6BBCF80E1E9
:102540008093580288E1809359028EEB80935A025F
:102550008DE7B0CF80ED8093580285E380935902D8
:1025600082E980935A0284E9A5CF80ED80935802D6
:1025700085E08093590285EA80935A0287EA9ACFD0
:1025800080E18093580281E58093590287EC809323
:102590005A028BE280935B0281E080935C0266CFFB
:1025A00080ED809358028AEA8093590288EC8093E8
:1025B0005A0281EAEFCFCF93DF93FC01448155812A
:1025C000608171818BEF93E00E949E03EC018BEFA1
:1025D00093E00E94D1118C0F9D1FDF91CF91089540
:1025E0000F931F93CF93DF93EC010E9447118C014F
:1025F000CE010E94D111800F911FDF91CF911F91C9
:102600000F91089560E372E088E994E00E94F0126F
:1026100064E670E080E090E00C944D050F931F930A
:10262000CF93DF93EC010E947A038C01CE010E94CC
:10263000D111800F911FDF91CF911F910F910895BC
:10264000CF92DF92FF920F931F93CF93DF93F12CE2
:10265000D5E080915605F81608F07EC065E971E076
:102660008BEF93E00E947A030F2D10E0D09FF001D2
:10267000D19FF00D1124EB51FB4F85858A3010F46A
:102680000E94CD11D09FC001D19F900D11249C01BB
:102690002B513B4F6901F901658570E090E080E0C6
:1026A0004AE00E94561180E392E00E94C811F601B0
:1026B000878590898436910510F40E94CD11D09FB2
:1026C000F001D19FF00D1124EB51FB4F87859089CC
:1026D0000A9710F40E94CD11D09FC001D19F900D98
:1026E00011249C012B513B4F6901F90167857089C9
:1026F00090E080E04AE00E94561180E392E00E9460
:10270000C811F60186858A3010F40E94CD11D09F41
:102710006001D19FD00C1124F601EB51FB4F66856F
:1027200070E090E080E04AE00E94561180E392E081
:102730000E94C811F601EA50FB4FC081C7FF0AC0D2
:10274000CF77CA3010F40E94CD118C2F0E94D51182
:10275000F3947FCFC0E0F7CF8BEF93E0DF91CF9181
:102760001F910F91FF90DF90CF900C94D1114F9259
:102770005F926F927F928F929F92AF92BF92CF9211
:10278000DF92EF92FF92CF93DF93CDB7DEB7A3979F
:102790000FB6F894DEBF0FBECDBF4B015C012FB763
:1027A000F8948091A5029091A602A091A702B09101
:1027B000A8022FBFA5019B01280F391F4A1F5B1FCD
:1027C00028A339A34AA35BA388EE482E83E0582EA2
:1027D000612C712C0E946409882371F0CE0101964E
:1027E0000E94B20D8FE1FE013196A6ECB4E001909B
:1027F0000D928A95E1F7EECF2FB7F8948091A5025C
:102800009091A602A091A702B091A8022FBFC8A0E4
:10281000D9A0EAA0FBA0C81AD90AEA0AFB0A31EA41
:10282000C3163FE0D306E104F10414F16BE171E05B
:102830008BEF93E00E947A03C701B601A3019201D6
:102840000E943C2DCA01B9010E949C118BEF93E0BC
:102850000E94D11168EE73E080E090E00E944D0587
:102860008BEF93E00E94FC03892B09F4B3CF05C0E2
:102870001C141D041E041F049CF341EA84164FE03F
:102880009406A104B104D0F063E171E08BEF93E012
:10289000A3960FB6F894DEBF0FBECDBFDF91CF91E8
:1028A000FF90EF90DF90CF90BF90AF909F908F9070
:1028B0007F906F905F904F900C940E13A3960FB67D
:1028C000F894DEBF0FBECDBFDF91CF91FF90EF90A8
:1028D000DF90CF90BF90AF909F908F907F906F9040
:1028E0005F904F9008950F931F93CF93DF938C01C8
:1028F000D0E0C0E061E08091AE020E94AB0462E3F0
:1029000070E080E090E00E94B71360E08091AE023A
:102910000E94AB0462E370E080E090E00E94B71395
:1029200021960C171D0731F7DF91CF911F910F9161
:1029300008954F925F926F927F928F929F92AF9283
:10294000BF92EF92FF920F931F93CF93DF93CDB778
:10295000DEB7C054D1090FB6F894DEBF0FBECDBFAD
:1029600090E4EFEBF1E0DE01119601900D929A9563
:10297000E1F781116CC087E590E030E020E0032FA3
:10298000122F44244A94542C32017801E80EF91E87
:102990000E151F050CF060C0C8010E94F42C9201B6
:1029A0002827D301C9018F709927AA27BB27880F31
:1029B000991F880F991F41E050E04C0F5D1F840F55
:1029C000951FFC0180809180A280B38034E07694D2
:1029D0006794579447943A95D1F784249524A62474
:1029E000B724C8010E94F42C90E044E095958795A7
:1029F0004A95E1F7092E000CAA0BBB0B88259925F7
:102A0000AA25BB258F709927AA27BB27880F991F56
:102A1000880F991F21E030E02C0F3D1F820F931F7C
:102A2000FC01408051806280738064E0B694A7947A
:102A3000979487946A95D1F7482459246A247B2473
:102A400040945094609470940F5F1F4FA1CF8AE020
:102A500090E030E921E093CFC301B201C05CDF4FC9
:102A60000FB6F894DEBF0FBECDBFDF91CF911F919F
:102A70000F91FF90EF90BF90AF909F908F907F90BD
:102A80006F905F904F9008958F929F92AF92BF92F8
:102A9000CF92DF92EF92FF920F931F93CF93DF932A
:102AA00000D000D0CDB7DEB7882309F44DC090EB3D
:102AB000E92E92E0F92E00E911E0C8010E94F42C01
:102AC000F70181937F010F5F1F4F0A39F1E01F0764
:102AD000A1F781E00E9499144B015C010AE010E02B
:102AE00080E991E0080F191F6E01F5E0CF0ED11CAF
:102AF000CE0101967C01081B190BC8018E0D9F1D8C
:102B00000E94F42CF70181937F01CE16DF06A9F70E
:102B100081E049815A816B817C81481559056A059C
:102B20007B0509F080E00F900F900F900F90DF91E0
:102B3000CF911F910F91FF90EF90DF90CF90BF90BA
:102B4000AF909F908F90089584EAE82E83E0F82E4E
:102B500010E000E0C8010E94F42CF70181937F018E
:102B60000F5F1F4F07351105A9F780E00E949914E8
:102B70004B015C0107E510E090E080E0B3CF2F92BD
:102B80003F924F925F926F927F928F929F92AF92FD
:102B9000BF92CF92DF92EF92FF920F931F93CF934A
:102BA000DF93CDB7DEB7A0970FB6F894DEBF0FBEA8
:102BB000CDBF4C01180129014C8F5D8F6E8F7F8F27
:102BC000E8A26AE272E00E94361190E4A92E22E4A3
:102BD000B22E3FE0C32ED12CE12CF12C00E010E00E
:102BE0009101A2016C8D7D8D8E8D9F8D0E94B52FE0
:102BF0009F938F937F936F935F934F933F932F9305
:102C000082E392E09F938F933E01BEE06B0E711CB6
:102C10007F926F920E9491329101A2016C8D7D8D05
:102C20008E8D9F8D0E94B32F9F938F937F936F9371
:102C30005F934F933F932F93E2E3F2E0FF93EF9381
:102C40002E0185E1480E511C5F924F920E949132F5
:102C5000F30101900020E9F73197AF0146195709B8
:102C6000B301C4010E94FE101A8219821C821B82C9
:102C70001E821D82B4018E010F5F1F4FC8010E948A
:102C80001F11F20101900020E9F73197E419F509CD
:102C90000FB6F894DEBF0FBECDBFB1F06D807E8061
:102CA0006E0E7F1EB301C8010E94D610882309F45E
:102CB0005CC029813A818D819E81B201820F931F70
:102CC0000E947B327E826D82B801C4010E941F1176
:102CD000C8010E94E80DB8A1B1112DC0F4016480B3
:102CE00075806114710409F044C01982F801CE01A5
:102CF0000D9620E23191303331F4DF0111972C939E
:102D00008E179F07B9F7F80101900020E9F7319776
:102D1000AF01401B510BB801C4010E94FE10F40129
:102D2000208031802114310431F0648075802101CC
:102D30006114710491F5C401A0960FB6F894DEBF3A
:102D40000FBECDBFDF91CF911F910F91FF90EF90FC
:102D5000DF90CF90BF90AF909F908F907F906F90BB
:102D60005F904F903F902F900895C8010E94D60D1C
:102D7000ABCFFCE06F16710418F08CE0682E712C5C
:102D8000D4016D917C91A301C8010E948232F801A7
:102D9000E60DF71D1082AACF280182010F5F1F4F99
:102DA000D2018C91082E000C990B0E94BC2B892B10
:102DB00099F7B1E06B1A7108620C731CF301808102
:102DC000082E000C990B0E94BC2B892B39F064143F
:102DD000750420F0F1E06F1A7108F0CFA3014F5F86
:102DE0005F4F44195509D40115965C934E9314977F
:102DF0002414350420F4B201C1010E945932D401D7
:102E0000ED91FC91119714968D919C91E80FF91F0B
:102E1000108291CFEF920F931F93CF93DF9300D047
:102E200000D000D0CDB7DEB782508A3080F4E82FD2
:102E3000F0E0E35EF84E0C941B2F61176E17D61767
:102E4000D917DC17001803183618091806186EE889
:102E500071E08BEF93E00E947A038091F3029091EE
:102E6000F4028130910521F1D0F0029761F468E31A
:102E700072E08BEF93E00E94F01266E871E08BEF56
:102E800093E00E940E1326960FB6F894DEBF0FBE95
:102E9000CDBFDF91CF911F910F91EF9008956AE31D
:102EA00072E08BEF93E00E94F0126EE771E0E7CFE3
:102EB0006CE372E08BEF93E00E94F01266E771E042
:102EC000DECF6FE671E08BEF93E00E947A0367ED4F
:102ED00073E08BEF93E00E94F012D5CF8091DD0478
:102EE00090E090936302809362028091DC0490E012
:102EF00090936102809360028091DB0490E0909354
:102F0000F0028093EF0268E671E08BEF93E00E949D
:102F10007A0380916202909163020A9724F486E218
:102F200092E00E94C8116091620270916302072EC4
:102F3000000C880B990B0E949C1166E671E08BEFE8
:102F400093E00E947A0380916002909161020A9757
:102F500024F486E292E00E94C811609160027091B0
:102F60006102072E000C880B990B0E949C1164E6ED
:102F700071E08BEF93E00E947A038091EF029091D1
:102F8000F0020A9724F486E292E00E94C811609150
:102F9000EF027091F002072E000C880B990B0E9433
:102FA0009C118BEF93E00E94D1116DCF6CE571E025
:102FB00066CF64E571E063CF6DE471E08BEF93E081
:102FC0000E947A03009158021091590220915A02EE
:102FD00030915B0240915C0250915D0260915E0213
:102FE00070915F02E12CCE0101960E94BF15CE01C7
:102FF00001960E94DB12CE0101960E94E80D43CF9C
:1030000065E471E03CCF6DE371E039CF67E371E0D7
:1030100036CF60E371E08BEF93E00E947A038EE499
:1030200080937C0062E070E080E090E00E944D05BB
:1030300080917A00806480937A0080917A0086FD86
:10304000FCCF8091780020917900322F282F032E19
:10305000000C440B550B64EB7BE281E190E00E9495
:103060003C2DB901330F880B990B99CF69E271E0C0
:103070008BEF93E00E947A038091BA02811106C01F
:103080006EE372E08BEF93E00E94F0128091BA023F
:10309000813031F460E472E08BEF93E00E94F01233
:1030A0008091BA02823031F462E472E08BEF93E0F7
:1030B0000E94F0128091BA02833009F0E4CE6AE4F3
:1030C00072E007CF60E880E10E946E0C60E088E06B
:1030D0000E94AB0488E00C940A1760E081E10E9432
:1030E000AB0464E670E080E090E00E944D058CE562
:1030F0008093B8001092B9008FEF8093BB001092BC
:1031000064000C9462180E9402130E946D1882E001
:1031100090E09093F4028093F30260E08091AE021D
:103120000E94AB040E94621881E00C940A172F924F
:103130003F924F925F926F927F928F929F92AF9247
:10314000BF92CF92DF92EF92FF920F931F93CF9394
:10315000DF93CDB7DEB76F970FB6F894DEBF0FBE23
:10316000CDBF2F83388749875A876B877C878D87A8
:103170009E878090B2029090B302A090B402B0906B
:10318000B502A4E6B0E0A50194010E945B2D7B018D
:103190008C0120E030E0A9016F87F88A898B1A8BB7
:1031A0002B8B3C8B4D8B5E8BC501B4010E94D52BC4
:1031B0006C8F7D8F8E8F9F8F2F81388549855A85A3
:1031C0006B857C858D859E85211501EE300705EF89
:1031D000400705E05007610571058105910509F07B
:1031E00008F455C159016A017B018C0120E034E0EB
:1031F0004BE654EF64E170E080E090E00E94B52F70
:103200002F8B388F498F5A8F0E94212F19012A0145
:103210003B014C01AF84B888C988DA88E12CF12CD5
:1032200000E010E00E94B52F2B8F9101A201B301A5
:10323000C4010E94B32FB901CA010E94D52B20EF0F
:103240003FEF4FE759E40E94362C2C8D3D8D4E8D7B
:103250005F8D0E94212E0E949A2E24E630E040E0ED
:1032600050E00E941A2D49015A01C501B4010E9483
:10327000D52B20EF3FEF4FE759E40E94212E20E0AD
:1032800030E040E053E40E94362C0E949A2E9B01CD
:10329000AC018B8D482E512C712C612C87E0440C95
:1032A000551C661C771C8A95D1F7E2E05E1A61080E
:1032B0007108420E531E641E751E97E0880C991CFF
:1032C000AA1CBB1C9A95D1F76FEF7FEF8FE090E0BF
:1032D0000E940A2D861A970AA80AB90A6FEF8AE196
:1032E0000E946E0C6FEF8BE10E946E0C662D637076
:1032F0008CE10E946E0C9927872D762D652D8DE12E
:103300000E946E0C642D8EE10E946E0C6A2D606F1F
:103310008FE10E946E0C99278B2D7A2D692D80E20A
:103320000E946E0C682D81E20E946E0C8F88988C32
:10333000A98CBA8C04E0801A9108A1080EEFB00A9B
:1033400047E0880C991CAA1CBB1C4A95D1F760E089
:103350008AE20E946E0C61E08BE20E946E0C6A2D84
:103360006370612B8CE20E946E0C99278B2D7A2D55
:10337000692D8DE20E946E0C682D8EE20E946E0C0B
:1033800060E08FE20E946E0C60E080E30E946E0CB1
:1033900060E081E30E946E0C809150029091510296
:1033A000A0915202B09153022F81388549855A85E8
:1033B000281B390B4A0B5B0BDA01C901B7FF07C0A9
:1033C000B095A095909581959F4FAF4FBF4F813A93
:1033D0009648A140B10524F060EA81EB0E946E0C92
:1033E0006FE480E10E946E0C4F814093500258853B
:1033F00050935102898580935202EA85E0935302EB
:10340000EB84E0925402FC84F09255020D85009307
:1034100056021E851093570261E088E00E94AB04BB
:1034200062E271E08BEF93E00E947A03E12C0F815E
:10343000188529853A854B855C856D857E85CE010D
:1034400001960E94BF15CE0101960E94DB12CE01AB
:1034500001960E94E80D87E00E940A176F960FB64A
:10346000F894DEBF0FBECDBFDF91CF911F910F91BA
:10347000FF90EF90DF90CF90BF90AF909F908F9094
:103480007F906F905F904F903F902F9008952F8185
:10349000388549855A856B857C858D859E8507E0B5
:1034A0000E94123059016A017B018C0120E034E056
:1034B0004BE654EF64E170E080E090E00E94B52FAD
:1034C0002F8B388F498F5A8F60E070E080E090E05A
:1034D0000E94212F19012A013B014C01AF84B888B9
:1034E000C988DA88E12CF12C00E010E00E94B52FA9
:1034F0002B8F9101A201B301C4010E94B32FB90126
:10350000CA010E94D52B20EF3FEF4FE759E40E94FC
:10351000362C2C8D3D8D4E8D5F8D0E94212E0E946C
:103520009A2E24E630E040E050E00E941A2D490136
:103530005A0110E79ACE2F923F924F925F926F926C
:103540007F928F929F92AF92BF92CF92DF92EF9233
:10355000FF920F931F93CF93DF93CDB7DEB7A19761
:103560000FB6F894DEBF0FBECDBF1092F4021092DA
:10357000F302EFEDF3E081E09191911180E093E0AF
:10358000EC3EF907C9F7882309F445C067EE70E0FF
:103590008BEF93E00E940E1381E09091CE03913463
:1035A000E1F59091CF039134C1F59091D003903320
:1035B000A1F59091D103913481F59091D20391348A
:1035C00061F59091D303913441F560ED70E08BEF9C
:1035D00093E00E940E1361EB70E08BEF93E00E948A
:1035E0000E13A1960FB6F894DEBF0FBECDBFDF91CC
:1035F000CF911F910F91FF90EF90DF90CF90BF90F0
:10360000AF909F908F907F906F905F904F903F9082
:103610002F900C94831880E0C0CF8111DCCF1092E2
:10362000AD020E94E8110E94462B28EC30E040E0F9
:1036300050E00E943C2D645671098109910924E6ED
:1036400030E040E050E00E94792FA0905802B09006
:103650005902C0905A02D0905B02E0905C02F09058
:103660005D0200915E0210915F020E942B30209358
:1036700058023093590240935A0250935B02609370
:103680005C0270935D0280935E0290935F020E94E1
:10369000621881E00E940A17712C612C8BEF93E075
:1036A0000E94FC03892B09F0EBC20E946409882365
:1036B00009F4CEC2CE0101960E94B20D8FE1FE0147
:1036C0003196A6ECB4E001900D928A95E1F783E083
:1036D0000E940A178BEF93E00E94FC033C01892BA8
:1036E00009F0CEC28091E40483FFA4C282FB882447
:1036F00080F882FF9FC28091DD0490E09093630286
:1037000080936202F090DC048F2D90E09093610230
:10371000809360020091DB0410E01093F0020093AC
:10372000EF028091D5039091D603019731F5609116
:10373000CA047091CB048091CC049091CD040E9476
:10374000D72B25E93FEB46ED53E30E94362C1B01B6
:103750002C016091C6047091C7048091C8049091B7
:10376000C9040E94D72B25E93FEB46ED53E30E94A5
:10377000362CA20191010E94A00C0115110509F03F
:1037800045C2F0FC46C28091DC039091DD030197B5
:1037900079F56091D0047091D104072E000C880B4C
:1037A000990B0E94D72B2AE037ED43E25CE30E949D
:1037B000362C6B017C016091CE047091CF04072EF2
:1037C000000C880B990B0E94D72B9B01AC01C70101
:1037D000B6010E94B52D20E030E046E953E40E9496
:1037E000212E0E949A2E6D3308F08FC06093DE0365
:1037F000E9EFF2E08BEA11928A95E9F78091DE0316
:103800000E94F00D68E870E088E994E00E940E13D1
:1038100061E08091AE020E94AB048FB7F8942090D3
:10382000A5023090A6024090A7025090A8028FBF38
:10383000E9EFF2E0F9A3E8A3FBEA2F0EF2E03F1E66
:10384000411C511C912CE8A1F9A14191F9A3E8A3D5
:10385000F2E94F9FA0011124952F990F990B9A011E
:10386000492F592F692F792F892FA0905802B09096
:103870005902C0905A02D0905B02E0905C02F09036
:103880005D0200915E0210915F020E942B300E9447
:1038900097182FB7F8948091A5029091A602A09155
:1038A000A702B091A8022FBF82159305A405B50504
:1038B00030F48BEF93E00E94FC03892B51F366E90F
:1038C00070E08BEF93E00E947A038091AD028A3022
:1038D00020F486E292E00E94C8116091AD0270E08F
:1038E00090E080E04AE00E94561180E392E00E945E
:1038F000C81189E0891568F086E292E00E94C8113B
:1039000086E292E00E94C81107C0ECE3E093DE0378
:103910006FCF93E69915A0F7892D0E94D51106E087
:1039200010E0F090AE0261E08F2D0E94AB0465E0E4
:1039300070E080E090E00E944D0560E08F2D0E94D5
:10394000AB0462E370E080E090E00E944D0501501E
:10395000110939F78BEF93E00E94FC038C01892B4E
:1039600009F0F9C09394EBEA2E0EE2E03E1E411CF2
:10397000511CF2EA9F1267CF0E94621860E08091AA
:10398000AE020E94AB040115110509F079C1E09166
:10399000AD02EC3079F0F0E0EC55FC4F84AD8111D4
:1039A000812C3196CF01845A93400C97BCF3882028
:1039B00009F4E8C02091EF033091F0034091F10346
:1039C0005091F2032D3331054105510508F419C119
:1039D0008091EE02811115C168E572E080E090E00F
:1039E0000E944D0561E081E10E94AB046091EF030C
:1039F0007091F0036A507109072E000C880B990B27
:103A00000E94D72B2DEC3CEC4CE051E40E94212E7F
:103A10000E94932E4B0188E994E00E94610B61E0C3
:103A20008EE00E94F70460E08EE00E94AB0461E04B
:103A300084E10E94F70460E084E10E94AB0461E04D
:103A400085E10E94F70460E085E10E94AB0461E03B
:103A50008AE00E94F70460E08AE00E94AB0461E023
:103A60008BE00E94F70460E08BE00E94AB0461E011
:103A70008CE00E94F70460E08CE00E94AB0461E0FF
:103A80008DE00E94F70460E08DE00E94AB0461E0ED
:103A900084E00E94F70460E084E00E94AB0461E0EF
:103AA00085E00E94F70460E085E00E94AB0461E0DD
:103AB00086E00E94F70460E086E00E94AB0461E0CB
:103AC00087E00E94F70460E087E00E94AB0461E0B9
:103AD00088E00E94F70460E088E00E94AB0461E0A7
:103AE00089E00E94F70460E089E00E94AB048091C5
:103AF0007A008F7780937A0088E18093600091E26A
:103B0000909360008091600080648093600083B730
:103B1000846083BF83B7816083BF08151905F4F4FF
:103B200085B7806685BF85B78F79806485BF8895A6
:103B3000F090AE0261E08F2D0E94AB046EE170E068
:103B400080E090E00E944D0560E08F2D0E94AB0464
:103B50000F5F1F4FE2CF01E010E00ECF80917A009F
:103B6000806880937A000E94770B0E9402130E9463
:103B70006D1860ED77E080E090E00E94B7138BE075
:103B80000E940A170E9402130E94E8110E94462B0D
:103B900028EC30E040E050E00E943C2D6456710972
:103BA0008109910924E630E040E050E00E94792F3D
:103BB000A0905802B0905902C0905A02D0905B0277
:103BC000E0905C02F0905D0200915E0210915F0255
:103BD0000E942B30209358023093590240935A028E
:103BE00050935B0260935C0270935D0280935E026F
:103BF00090935F0268EB7BE080E090E00E94B71357
:103C000054CDA8EEB3E00E945B2DB7CF0933110568
:103C100044F484E00E940A1782E00E940A170E947E
:103C2000201382E090E00E94731468EC70E080E062
:103C300090E0E4CF0E94201381E090E00E94731492
:103C400085E00E940A1760E971E080E090E0D6CF3D
:103C5000EFEF6E1A7E0AF1E36F16F5E77F060CF4BC
:103C60001DCD6DE970E08BEF93E00E940E130E9472
:103C7000021360ED77E080E090E00E94B7130CCD76
:103C8000A1960FB6F894DEBF0FBECDBFDF91CF91E6
:103C90001F910F91FF90EF90DF90CF90BF90AF906A
:103CA0009F908F907F906F905F904F903F902F905C
:103CB00008957F928F929F92AF92BF92CF92DF92A0
:103CC000EF92FF920F931F93CF93DF9381E090E0E9
:103CD0009093F4028093F3027090F3038090F403C6
:103CE0009090F503A090F603B090F7030091F803CD
:103CF0001091F903D091FA03709258028092590200
:103D000090925A02A0925B02B0925C0200935D0214
:103D100010935E02D0935F02272D382D492D5A2D26
:103D20006B2D702F812F9D2F0E94C92E6B017C015E
:103D30002CE336E241E351E50E94D02BCEE087FF31
:103D4000CFE024E838ED4CE650E5C701B6010E940B
:103D5000D02B87FDCDE027EF37EC45EE5FE4C701C0
:103D6000B6010E94D02B87FDCCE024ED30EE44EA72
:103D70005FE4C701B6010E94D02B87FDCBE02AEBA0
:103D800038E648E35FE4C701B6010E94D02B87FD07
:103D9000CAE022EA3DE643E25FE4C701B6010E94C1
:103DA000D02B87FDC9E02BE131E54AE05FE4C70194
:103DB000B6010E94D02B87FDC8E02AEF3CE64DEE0D
:103DC0005EE4C701B6010E94D02B87FDC7E027E063
:103DD0003BED48EB5EE4C701B6010E94D02B87FDA6
:103DE000C6E02AEF37EF44E85EE4C701B6010E945F
:103DF000D02B87FDC5E02CE432EA48E35EE4C7013E
:103E0000B6010E94D02B87FDC4E02AE532E44BEBDB
:103E10005DE4C701B6010E94D02B87FDC3E02AE014
:103E200033ED40E45DE4C701B6010E94D02B87FD6D
:103E3000C2E026E93CE947E45CE4C701B6010E9420
:103E4000D02B87FDC1E028E03AEC46E65BE4C701F1
:103E5000B6010E94D02B87FDC0E08C2F0E940F0C72
:103E6000272D382D492D5A2D6B2D702F812F9D2FE9
:103E70000E94971861E08091AE020E94AB0481E03D
:103E80000E940A1786E0DF91CF911F910F91FF905A
:103E9000EF90DF90CF90BF90AF909F908F907F90EA
:103EA0000C940A17FF920F931F93CF93DF93EC01AB
:103EB000F62E08811981C8010E94F42CF81621F011
:103EC0006F2DC8010E94FC2CCE01DF91CF911F9174
:103ED0000F91FF900895CF92DF92EF92FF920F9390
:103EE0001F93CF93DF9300D000D000D0CDB7DEB7C3
:103EF000D82E24EAE22E23E0F22E10E000E0882300
:103F0000D9F030EBE32E32E0F32E00E911E01A8312
:103F10000983F70161917F01CE0101960E94521F32
:103F20000F5F1F4F0A39F1E01F0789F78AE0E82E7B
:103F3000F12C00E911E013C01A830983F7016191A4
:103F40007F01CE0101960E94521F0F5F1F4F073560
:103F5000110591F797E5E92EF12C10E000E08D2D89
:103F60000E94991469837A838B839C83E00EF11EEF
:103F70006E01F5E0CF0ED11C8E010F5F1F4FE01ACE
:103F8000F10AC701800F911F9E838D83F801619113
:103F90008F01C6010E94521FC016D10691F72696C6
:103FA0000FB6F894DEBF0FBECDBFDF91CF911F914A
:103FB0000F91FF90EF90DF90CF9008951F920F9296
:103FC0000FB60F9211242F933F934F935F936F93EC
:103FD0007F938F939F93AF93BF93EF93FF938BEF59
:103FE00093E00E941C04FF91EF91BF91AF919F91CC
:103FF0008F917F916F915F914F913F912F910F9092
:104000000FBE0F901F9018951F920F920FB60F9230
:1040100011242F938F939F93EF93FF93E0910B04C1
:10402000F0910C048081E0911104F091120482FD62
:104030001BC09081809114048F5F8F7320911504B1
:10404000821741F0E0911404F0E0E550FC4F958FA9
:1040500080931404FF91EF919F918F912F910F9076
:104060000FBE0F901F9018958081F4CF1F920F9272
:104070000FB60F9211242F933F938F939F93AF937B
:10408000BF938091A5029091A602A091A702B09142
:10409000A8023091A40226E0230F2D3758F502968E
:1040A000A11DB11D2093A4028093A5029093A602A6
:1040B000A093A702B093A8028091A9029091AA02AE
:1040C000A091AB02B091AC020196A11DB11D8093ED
:1040D000A9029093AA02A093AB02B093AC02BF9145
:1040E000AF919F918F913F912F910F900FBE0F90A5
:1040F0001F90189529E8230F0396A11DB11DD2CF5B
:104100001F920F920FB60F9211242F933F934F934C
:104110005F936F937F938F939F93AF93BF93EF932F
:10412000FF93E091F702F091F802309749F0A685ED
:10413000B7858585968D91FF14C09C918923A1F444
:10414000FF91EF91BF91AF919F918F917F916F916F
:104150005F914F913F912F910F900FBE0F901F9045
:1041600018959C91892361F7A389B4899C918589CD
:10417000809589238C93868997890197F1F7608DC3
:10418000718DA685B785558538E020E0CB01019774
:10419000F1F7822F90E095958795282F4C91452334
:1041A00009F02068315091F7868D81FD209580912E
:1041B000F60290E001968F7399273091F502381737
:1041C00099F0A091F602B0E0AC59BD4F2C938093CA
:1041D000F602828D938D0197F1F7A389B4898C91B2
:1041E0009589892B8C93ACCF868D8160868FF1CF9A
:1041F0001F920F920FB60F9211240F900FBE0F90C7
:104200001F901895CF92DF92EF92FF920F931F931A
:10421000CF93DF931092FE031092FD0388EE93E09C
:10422000A0E0B0E08093FF0390930004A09301040A
:10423000B093020483E092E09093FC038093FB032D
:1042400085EC90E0909308048093070484EC90E060
:1042500090930A048093090480EC90E090930C04FE
:1042600080930B0481EC90E090930E0480930D04F6
:1042700082EC90E09093100480930F0486EC90E021
:104280009093120480931104109214041092150458
:10429000109216041092170487E595E00E948F0D86
:1042A0008CE795E00E948F0D1092E6041092E704CF
:1042B0001092E8041092E9041092EA041092EB04C0
:1042C0001092EC041092ED041092EE041092EF04A0
:1042D0001092F0041092F10487E595E00E948F0D92
:1042E0001092560510927B0586EC94E00E948F0D8B
:1042F00064E170E081E090E00E944830EC01892B9D
:10430000C9F086E090E0998388838FE390E09B83F7
:104310008A831B8A1A8A80E490E00E9464308C01B0
:104320009D838C83892B09F07EC0CE010E940031D1
:10433000D0E0C0E0D093B804C093B70410929B04BF
:1043400010929A0488EE93E0A0E0B0E080939C0481
:1043500090939D04A0939E04B0939F0485E192E006
:1043600090939904809398041092AF041092AE0435
:104370001092B1041092B0041092B3041092B204DF
:104380001092B5041092B4046091B6046E7F6D7FF4
:104390006093B6046695617081E0682783E00E94AF
:1043A000AB0461E083E00E94F704ECEEF3E0E491FB
:1043B000E093A804E8EDF3E0E491F0E0EE0FFF1FD6
:1043C000E553FC4F859194919093AA048093A9049E
:1043D00060E082E00E94F7048091B60481FD04C091
:1043E00061E082E00E94AB0482E08093A404EBEEE3
:1043F000F3E0E491E093A504E7EDF3E0E491F0E06D
:10440000EE0FFF1FEF53FC4F859194919093A704FB
:104410008093A604DF91CF911F910F91FF90EF90B1
:10442000DF90CF90089580E490E00E9464309F83F5
:104430008E83009721F4C8010E94003176CF2FE3CC
:10444000DC012C93F80117AE01E010E090E080E071
:104450002A813B8182179307B4F4EE81FF81E00F3C
:10446000F11F8083EC81FD81E80FF91F0083000FAD
:10447000111F06FF02C0F3E40F272A813B810223AC
:1044800013230196E5CF0130110539F08C819D8110
:104490000E9400318E819F81CFCF84E390E00E9403
:1044A000643099878887009789F323E030E03D875F
:1044B0002C871F870E8723E330E03B872A87198BE1
:1044C000088B21E0DC012C9343E050E061E09A018D
:1044D00023503109E885F985E40FF51F3297608391
:1044E000E885F9852115310591F1E20FF31FF08080
:1044F000CF010197DC017C91FF2039F10C811D81F6
:104500008E819F81DC01AF0DB11D8C91840F952FA1
:10451000911DAA81BB818A179B0774F08A1B9B0B94
:104520007C01088002C0F594E7940A94E2F78A239C
:104530009B238E0D9F1DEFCF800F911FDC018C916F
:104540008727808321503109CBCF7083FBCFCC806C
:10455000DD8080810E811F81800F912F911DDC01F4
:104560008C91840F952F911D0A811B8180179107D3
:1045700074F0801B910B7C01088002C0F594E794D5
:104580000A94E2F7802391238E0D9F1DEFCFD60171
:10459000A80FB91F8C9180834F5F5F4F4633510541
:1045A00009F095CFE885F985E20FF31FA0818E8190
:1045B0009F81A80FB92FB11D8C9180832F5F3F4F32
:1045C0002433310579F7B6CECF93DF93CDB7DEB77D
:1045D000C556D1090FB6F894DEBF0FBECDBF789493
:1045E00084B5826084BD84B5816084BD85B58260F8
:1045F00085BD85B5816085BD80916E0081608093A9
:104600006E00109281008091810082608093810011
:104610008091810081608093810080918000816021
:10462000809380008091B10084608093B10080917C
:10463000B00081608093B00080917A0084608093A4
:104640007A0080917A00826080937A0080917A006B
:104650008E7F80937A0080917A00806880937A00C0
:104660001092C1001092EE02E0910B04F0910C0444
:1046700082E08083E0910704F09108041082E091C9
:104680000904F0910A0487E6808310921304E091F4
:104690000F04F091100486E08083E0910D04F09106
:1046A0000E04808180618083E0910D04F0910E04FE
:1046B000808188608083E0910D04F0910E048081F8
:1046C00080688083E0910D04F0910E0480818F7DDD
:1046D000808380ED97E0A0E0B0E08093FF039093AB
:1046E0000004A0930104B09302040E94770B81E0C0
:1046F0000E944415811128C081E08093B00285E0BA
:104700008093B10280E498E7ADE7B1E08093B20214
:104710009093B302A093B402B093B50282E6809363
:10472000B60283E68093B7028093B8028093B90201
:1047300067E972E08BEF93E00E940E1361E372E091
:104740008BEF93E00E940E1380E00E9444158823B3
:1047500009F40FC18091CC039091CD039093F402A2
:104760008093F3021092D4031092DB0384E090E074
:104770009093AF028093AE0268ED71E08BEF93E00F
:104780000E940E1380E190E09093AF028093AE02FE
:1047900061E081E10E94F70460E081E10E94AB04E6
:1047A00061E080E10E94F70461E088E00E94F70484
:1047B00060EC71E08BEF93E00E947A036AEB71E0AA
:1047C0008BEF93E00E947A034AE060E070E0CB0157
:1047D0000E94561184E492E00E94C81186E50E946E
:1047E000D51180E190E00E94731480E4EFEBF1E0DA
:1047F000DE01119601900D928A95E1F724E630E0F2
:1048000088248A94982C5401E0E4E0937C00809101
:104810007A00806480937A0080917A0086FDFCCFD4
:104820008091780090917900B501A40148274F70DC
:10483000552766277727440F551F440F551F61E002
:1048400070E06C0F7D1F460F571FDA014D915D918F
:104850006D917C91F4E0B694A79497948794FA951F
:10486000D1F7482559256A257B25A4E0959587959C
:10487000AA95E1F78F709927092E000CAA0BBB0BA4
:1048800084279527A627B7278F709927AA27BB27A4
:10489000880F991F880F991FA1E0B0E0AC0FBD1FD2
:1048A0008A0F9B1FDC018D909D90AD90BC9014E011
:1048B00076956795579547951A95D1F7842695264D
:1048C000A626B72680949094A094B09421503109E4
:1048D00009F09BCF89288A288B2811F00E94462B4B
:1048E0000E9402130E946D188091F3029091F402CD
:1048F0008130910509F4B5C008F4B6C0029709F4F7
:10490000B8C05E01BAE0AB0EB11C4E01EDE08E0EF8
:10491000911CCC24C394D12C8BEF93E00E94FC0318
:10492000892B09F4BBC581E08093EE0282E0282E3A
:10493000312C92E0F92E8BEF93E00E94FC031816C5
:1049400019060CF0ABC58BEF93E00E94DA038A30B6
:1049500009F492C08D3079F3E091ED02E13358F71C
:1049600091E09E0F9093ED02F0E0E554FD4F8083BF
:10497000E2CF21E030E03093F4022093F30287E5A8
:104980008093A40383E58093A50380E58093A60329
:1049900082E58093A70380E28093A80384E5809357
:1049A000A90388E58093AA031092AB0382E090E00C
:1049B0009093CD038093CC0381E48093CE038093C6
:1049C000CF0390E39093D0038093D1038093D203DD
:1049D0008093D3031092D4033093D6032093D5034E
:1049E0008093D7038093D8039093D9039093DA03ED
:1049F0001092DB031092DD031092DC038DE08093B4
:104A0000DE03EFEDF3E0119223E0E03FF207D9F788
:104A100081E08093E50388E790E0A0E0B0E0809338
:104A2000EF039093F003A093F103B093F20310927D
:104A3000F3038EE48093F40382E78093F50383E528
:104A40008093F6031092F7031092F8031092F90383
:104A50001092FA036CEF71E08BEF93E00E940E135B
:104A600085CE0E94591E4DCF1092AD020E949B1A16
:104A700048CF0E94831845CFE091ED02F0E0E55465
:104A8000FD4F10828091BB028B3509F0A6C2809148
:104A9000BF028D3509F0A1C28091BC02833409F0B8
:104AA00047C08091BD028334D9F48091BE028D3419
:104AB000B9F48091C102833509F092C28091C3029A
:104AC000833511F40E94591E8091C302873511F479
:104AD0000E949B1A8091C3028E3411F40E948318A5
:104AE0008091BD02833589F48091BE02853469F4DA
:104AF0008091C102833549F480E00E946B1F63E816
:104B000073E08BEF93E00E940E138091BD0283351A
:104B100079F48091BE028C3459F48091C1028335BE
:104B200039F48091C302813409F05EC21092BA0256
:104B30008091BC028F3409F0A1C08091BD02843500
:104B400099F58091BE02803579F58091C102833557
:104B500009F05CC28091C30289838091C4028A8378
:104B60008091C5028B838091C6028C838091C7029D
:104B70008D831E82BE016F5F7F4FCE018F5B9F4F83
:104B80000E943611CE018F5B9F4F0E94300D209303
:104B9000EF033093F0034093F1035093F203CE01FF
:104BA0008F5B9F4F0E94E80D8091BD02833591F489
:104BB0008091BE028D3471F48091C102833509F079
:104BC0008DC28091C302833509F079C2D092CD03A2
:104BD000C092CC038091BD02823421F58091BE0247
:104BE0008434B1F58091C1020FED13E0412C512CBA
:104BF0003201833509F090C28091C302898380918C
:104C0000C4028A831B821C82CE0101960E949E2BC5
:104C1000FC01EC55FC4F91E08091C602853409F00F
:104C200090E093AF8091BD028C3491F48091BE02EC
:104C3000833471F48091C102833509F0A0C2809160
:104C4000C302873409F093C2D092D603C092D50331
:104C50008091BD02803591F48091BE02873571F458
:104C60008091C102833509F0A7C28091C3028E34BE
:104C700009F09AC21092DD031092DC038091BC020D
:104C8000843409F0BCC08091BD02833419F5809151
:104C9000BE028335F9F48091C102833509F0A1C2C7
:104CA0008091C3028093CE038091C4028093CF038E
:104CB0008091C5028093D0038091C6028093D10376
:104CC0008091C7028093D2038091C8028093D3035E
:104CD0001092D4038091BD028C34D9F48091BE022D
:104CE0008433B9F48091C102833509F087C2809181
:104CF000C3028093D7038091C4028093D80380912C
:104D0000C5028093D9038091C6028093DA03109282
:104D1000DB038091BD028E34B1F48091BE028D34EC
:104D200091F48091C102833509F075C2A3ECB2E021
:104D3000E4EAF3E08D9181936BEC73E06E177F07EB
:104D4000C9F71092CB038091BD028035B9F48091F0
:104D5000BE02843499F48091C102833509F068C29F
:104D60008091C30289838091C4028A831B821C8242
:104D7000CE0101960E949E2B8093DE038091BD029E
:104D80008734E9F58091BE028634C9F58091C1026D
:104D9000833509F060C2A3ECB2E0FE0131968D913B
:104DA00081938E169F06D9F71D86BE016F5F7F4FD8
:104DB000CE018F5B9F4F0E943611CE018F5B9F4FBC
:104DC0000E94300D2093F3033093F4034093F503D6
:104DD0005093F6036093F7037093F8038093F903FD
:104DE0009093FA03CE018F5B9F4F0E94E80D809154
:104DF000F3029091F402019711F40E94591E8091E0
:104E0000BC02863409F0E9C08091BD028035E9F426
:104E10008091BE028E34C9F48091C1028734A9F416
:104E200066E373E08BEF93E00E947A0386E292E000
:104E30000E94C8114AE069EF73E080E090E00E94B0
:104E400056118BEF93E00E94D1118091BD028834FE
:104E5000C9F48091BE028635A9F48091C1028335E0
:104E600009F021C28091C30289838091C4028A83A0
:104E70008091C5028B831C82CE0101960E949E2BDD
:104E80008093B0028091BD028834C9F48091BE0243
:104E90008235A9F48091C102833509F01FC2809147
:104EA000C30289838091C4028A838091C5028B8367
:104EB0001C82CE0101960E949E2B8093B1028091AC
:104EC000BD02833589F48091BE02863569F48091F4
:104ED000C102873449F461E273E08BEF93E00E94F2
:104EE0007A0380E00E94D5118091BD02833589F458
:104EF0008091BE02823569F48091C102873449F401
:104F00006AE173E08BEF93E00E947A0386E50E94EA
:104F1000D5118091BD028C34D1F48091BE028035D0
:104F2000B1F48091C102833509F014C28091C502A9
:104F300089838091C6028A831B828091C302823456
:104F400009F4FAC10CF0E5C1813409F4EEC1809195
:104F5000BD02823569F58091BE02863449F58091A3
:104F6000C102833509F079C2A3ECB2E0FE013196AB
:104F70008D918193EA15FB05D9F71A86BE016F5F03
:104F80007F4FCE018F5B9F4F0E943611CE018F5B0A
:104F90009F4F0E94300D2093B2023093B302409392
:104FA000B4025093B502CE018F5B9F4F0E94E80D73
:104FB0008091BD02833589F48091BE02853469F405
:104FC0008091C102833549F481E00E946B1F65EB3B
:104FD00072E08BEF93E00E940E131092ED02ABCCC7
:104FE00081E00E940A177CCD823421F481E0809315
:104FF000BA029ECD833419F4F092BA0299CD84346A
:1050000009F096CDF3E0F093BA0292CD6CE773E02D
:105010008BEF93E00E947A038091EF039091F0036D
:10502000A091F103B091F20380319742A105B1053F
:1050300020F486E292E00E94C8118091EF039091E3
:10504000F003A091F103B091F203883E9340A105D3
:10505000B10520F486E292E00E94C8118091EF032E
:105060009091F003A091F103B091F2038436910581
:10507000A105B10520F486E292E00E94C81180915A
:10508000EF039091F003A091F103B091F2030A971E
:10509000A105B10520F486E292E00E94C81160915A
:1050A000EF037091F0038091F1039091F2034AE0D5
:1050B0000E9456118BEF93E00E94D11175CD873578
:1050C00029F41092CD031092CC0384CD8E3409F0D4
:1050D00081CD3092CD032092CC037CCD65E773E087
:1050E0008BEF93E00E947A038091CC039091CD03E3
:1050F0008130910571F050F068E372E0029709F099
:1051000069CD8BEF93E00E94F01264CD6AE372E008
:10511000F8CF6CE372E0F5CF6EE673E08BEF93E0CF
:105120000E947A037AE04716510424F486E292E062
:105130000E94C811C301B2010E949C11D8018D9137
:105140008D0166E472E0811102C069E472E08BEFC8
:1051500093E00E94F012BFEF4B1A5B0A6B0A7B0AC6
:10516000E0E14E16510461047104B1F65BCD8D345B
:1051700009F06ECD1092D6031092D50369CD67E683
:1051800073E08BEF93E00E947A038091D5039091B6
:10519000D6036CE472E0019711F06EE472E08BEFDD
:1051A00093E00E94F01254CD813409F067CDD09283
:1051B000DD03C092DC0362CD60E673E08BEF93E029
:1051C0000E947A038091DC039091DD0368E372E032
:1051D000892B11F06EE372E08BEF93E00E94F012E6
:1051E0004DCD69E573E08BEF93E00E947A036EEC9E
:1051F00073E08BEF93E00E94F0126CCD62E573E0F8
:105200008BEF93E00E947A0367ED73E08BEF93E0FE
:105210000E94F0127ECD6BE473E08BEF93E00E946E
:105220007A0364EA73E08BEF93E00E94F0128BCD77
:1052300064E473E08BEF93E00E947A038091DE03D5
:105240008A3020F486E292E00E94C8118091DE0349
:105250000E94D51193CD6DE373E08BEF93E00E9434
:105260007A030091F3031091F4032091F503309138
:10527000F6034091F7035091F8036091F9037091A0
:10528000FA03EE24E394CE018F5B9F4F0E94BF157B
:10529000CE018F5B9F4F0E94DB12CE018F5B9F4F31
:1052A0000E94E80DACCD6FE273E08BEF93E00E94BB
:1052B0007A038091B002843620F486E292E00E9464
:1052C000C8118091B0028A3020F486E292E00E94F8
:1052D000C8118091B0020E94D511D4CD68E273E06C
:1052E0008BEF93E00E947A038091B102843620F420
:1052F00086E292E00E94C8118091B1028A3020F4C7
:1053000086E292E00E94C8118091B1020E94D511FC
:10531000D6CD8334C1F0843409F019CECE01019684
:105320000E949E2B8093B90212CECE0101960E945C
:105330009E2B8093B6020BCECE0101960E949E2B2F
:105340008093B70204CECE0101960E949E2B8093DB
:10535000B802FDCD8091B0028130B1F58091B102EB
:105360008A3090F18091B6028A3061F08091B70264
:105370008A3041F08091B8028A3021F08091B902E0
:105380008A3061F46FE073E08BEF93E00E940E13BC
:1053900064E073E08BEF93E00E940E138091B602FD
:1053A000863061F08091B702863041F08091B8027A
:1053B000863021F08091B902863031F469EF72E0D5
:1053C0008BEF93E00E940E1360EF72E08BEF93E09F
:1053D0000E947A038091B6028A3020F486E292E03D
:1053E0000E94C8118091B6020E94D51167EE72E04A
:1053F0008BEF93E00E947A038091B7028A3020F409
:1054000086E292E00E94C8118091B7020E94D511F5
:105410006EED72E08BEF93E00E947A038091B80208
:105420008A3020F486E292E00E94C8118091B8028E
:105430000E94D51165ED72E08BEF93E00E947A0334
:105440008091B9028A3020F486E292E00E94C8116D
:105450008091B9020E94D5117ACD6EEC72E08BEF8B
:1054600093E00E947A034091B2025091B30260919E
:10547000B4027091B502EE24E3948A019B0140E0EE
:1054800050E060E070E0CE018F5B9F4F0E94BF153F
:10549000CE018F5B9F4F0E94DB1285CD8091F3027E
:1054A0009091F402892B11F40E949B1A0E946409C6
:1054B000882309F468C0CE01895B9F4F0E94B20D1A
:1054C0008FE1FE01E95BFF4FA6ECB4E001900D9285
:1054D0008A95E1F783E00E940A171092F202109277
:1054E000F1028091EF029091F00283709927892B4D
:1054F00009F040C00E9420138AE00E940A1781E050
:105500000E940A178091E40483FF3BC082FF39C0E8
:1055100084E00E940A178091D5039091D6030197E9
:1055200031F56091CA047091CB048091CC049091C4
:10553000CD040E94D72B25E93FEB46ED53E30E94B3
:10554000362C2B013C016091C6047091C7048091F8
:10555000C8049091C9040E94D72B25E93FEB46ED82
:1055600053E30E94362CA30192010E94A00C82E01A
:105570000E940A1768EC70E080E090E00E94B71388
:1055800095CF85E0F5CF8091F1029091F2020196DE
:1055900081367AEE970788F49093F2028093F102B5
:1055A00080E090E0892B09F4B7C90E9408048823A1
:1055B00009F4AFC90E940000ACC91092F202109227
:1055C000F1026DE973E08BEF93E00E940E130E94ED
:1055D000021360ED77E080E090E00E94B713E0CF27
:1055E00085E192E0909399048093980488E994E08F
:1055F0000C94610B8F929F92AF92BF92CF92DF92E9
:10560000EF92FF92CF93DF93EC01688179818A81D9
:105610009B81611571058105910521F464E279EDA5
:105620008BE597E02DE133EF41E050E00E943C2D07
:1056300049015A019B01AC01A7EAB1E40E945B2D2C
:105640006B017C01ACEEB4EFA50194010E94692DC1
:10565000C60ED71EE81EF91EF7FE06C081E0C81A66
:10566000D108E10880E8F80AC882D982EA82FB8280
:10567000C701B6019F77DF91CF91FF90EF90DF9048
:10568000CF90BF90AF909F908F9008958F929F92F0
:10569000AF92BF92CF92DF92EF92FF9260910001A2
:1056A00070910101809102019091030161157105D2
:1056B0008105910521F464E279ED8BE597E02DE118
:1056C00033EF41E050E00E943C2D49015A019B011B
:1056D000AC01A7EAB1E40E945B2D6B017C01ACEE4A
:1056E000B4EFA50194010E94692DC60ED71EE81ED5
:1056F000F91EF7FE06C081E0C81AD108E10880E86B
:10570000F80AC0920001D0920101E0920201F092E9
:105710000301C701B6019F77FF90EF90DF90CF9014
:10572000BF90AF909F908F90089560930001709309
:10573000010180930201909303010895FC018827E1
:105740009927E89421912032E9F3293010F02E3086
:10575000C8F32B3241F02D3239F4689404C00E9412
:10576000C52B820F911D219120532A30C0F31EF4C6
:10577000909581959F4F089591110C94CD2B803277
:1057800019F089508550C8F708957AE0979F902DB9
:10579000879F802D910D11240895992788270895BA
:1057A0000E94122C08F481E00895E89409C097FB48
:1057B0003EF490958095709561957F4F8F4F9F4FE8
:1057C0009923A9F0F92F96E9BB279395F69587952C
:1057D00077956795B795F111F8CFFAF4BB0F11F4EF
:1057E00060FF1BC06F5F7F4F8F4F9F4F16C0882396
:1057F00011F096E911C0772321F09EE8872F762FCC
:1058000005C0662371F096E8862F70E060E02AF00C
:105810009A95660F771F881FDAF7880F96958795F8
:1058200097F90895990F0008550FAA0BE0E8FEEFCD
:1058300016161706E807F907C0F012161306E40754
:10584000F50798F0621B730B840B950B39F40A264D
:1058500061F0232B242B252B21F408950A2609F42B
:10586000A140A6958FEF811D811D08950E94492CAE
:105870000C94BA2C0E94AC2C38F00E94B32C20F06F
:10588000952311F00C94A32C0C94A92C11240C94A6
:10589000EE2C0E94CB2C70F3959FC1F3950F50E036
:1058A000551F629FF001729FBB27F00DB11D639FD2
:1058B000AA27F00DB11DAA1F649F6627B00DA11D78
:1058C000661F829F2227B00DA11D621F739FB00D1E
:1058D000A11D621F839FA00D611D221F749F33278E
:1058E000A00D611D231F849F600D211D822F762F27
:1058F0006A2F11249F5750409AF0F1F088234AF004
:10590000EE0FFF1FBB1F661F771F881F915050406F
:10591000A9F79E3F510580F00C94A32C0C94EE2C1B
:105920005F3FE4F3983ED4F3869577956795B795F6
:10593000F795E7959F5FC1F7FE2B880F911D969510
:10594000879597F9089597F99F6780E870E060E080
:1059500008959FEF80EC089500240A941616170608
:1059600018060906089500240A9412161306140650
:1059700005060895092E0394000C11F4882352F0B3
:10598000BB0F40F4BF2B11F460FF04C06F5F7F4F6B
:105990008F4F9F4F089557FD9058440F551F59F052
:1059A0005F3F71F04795880F97FB991F61F09F3F0C
:1059B00079F087950895121613061406551FF2CF35
:1059C0004695F1DF08C0161617061806991FF1CF85
:1059D00086957105610508940895E894BB276627AC
:1059E0007727CB0197F90895F999FECF92BD81BD34
:1059F000F89A992780B50895262FF999FECF1FBAF6
:105A000092BD81BD20BD0FB6F894FA9AF99A0FBEE7
:105A100001960895DB018F939F930E945B2DBF91A8
:105A2000AF91A29F800D911DA39F900DB29F900DED
:105A300011240895A1E21A2EAA1BBB1BFD010DC063
:105A4000AA1FBB1FEE1FFF1FA217B307E407F5072E
:105A500020F0A21BB30BE40BF50B661F771F881F0A
:105A6000991F1A9469F760957095809590959B01A0
:105A7000AC01BD01CF010895052E97FB1EF40094E3
:105A80000E94532D57FD07D00E941A2D07FC03D00A
:105A90004EF40C94532D50954095309521953F4FE1
:105AA0004F4F5F4F089590958095709561957F4F0A
:105AB0008F4F9F4F08950E94A52DA59F900DB49FD5
:105AC000900DA49F800D911D11240895B7FF0C9493
:105AD0005B2D0E945B2D821B930B08952F923F92AA
