:100000000C941C020C9444020C9444020C940A1BA1
:100010000C940A1B0C940A1B0C949A1B0C9444021B
:100020000C9444020C9444020C9444020C94440238
:100030000C9444020C9444020C9444020C94440228
:100040000C945C1A0C9444020C945C190C943619B0
:100050000C9444020C9444020C9444020C94440208
:100060000C9444020C9444029602A102AC02B70222
:10007000C202CD02D802E302EE02F9020803130322
:10008000C208F408FD085F096209650989098C093D
:10009000C2098F0920122412211144113B12591157
:1000A0006111D1126D112012591124122111441124
:1000B0003B1266127A129012C41ED41EDB1EE11E81
:1000C000E81EEE1EF51EF81E031F24504D544B3142
:1000D00036312C302A3238007B4D494E7D20536515
:1000E0007420796F75722043616C6C7369676E2040
:1000F000746F20656E61626C65207472616E736DE1
:10010000697373696F6E007B4D494E7D2043616C4E
:100110006C7369676E206973206E6F742063686109
:100120006E6765642066726F6D2074686520646513
:100130006661756C74206F6E652C205472616E73ED
:100140006D69742069732064697361626C65640011
:100150007B4D494E7D205761726E696E672C20631E
:100160006F6E66696775726174696F6E2065727211
:100170006F722C207472616E6D697373696F6E207B
:100180006973206E6F7420656E61626C6564206FA8
:100190006E20616E792062616E6421007B4D505348
:1001A0007D2030007B4D50537D20007B5446517D97
:1001B00020007B4C50497D20007B4D56437D200024
:1001C0007B544F4E7D2046007B544F4E7D20540083
:1001D0007B5446517D20007B474C437D2046007B6D
:1001E000474C437D2054003A003A007B47544D7DF4
:1001F00020007B474C347D20007B544F4E7D2054A3
:10020000007B544F4E7D2046007B544F4E7D204650
:10021000007B43434D7D20007B4D494E7D204E6F3A
:100220002075736572206461746120776173206644
:100230006F756E642C2073657474696E67206465D5
:100240006661756C742076616C756573007B4D49D1
:100250004E7D204E6F20666163746F7279206461F9
:10026000746120666F756E6420666F72204D6F64D6
:10027000656C202320616E64205265666572656E30
:100280006365206672657175656E63792C2067758C
:10029000657373696E67206F6E2076616C75657328
:1002A000004265746120007B4D494E7D2046697295
:1002B0006D776172652076657273696F6E20007B61
:1002C0004D494E7D205A61636854656B20575350E9
:1002D00052204D696E69207472616E736D69747419
:1002E0006572007B4D494E7D20466163746F727963
:1002F0002064617461207361766564007B465246B8
:100300007D20007B464C507D204420007B464C5095
:100310007D204320007B464C507D204220007B46C0
:100320004C507D204120007B4653527D20007B466F
:1003300053567D20007B4648527D20007B46485620
:100340007D20007B46504E7D20007B4447467D202B
:10035000007B4450447D20007B444E4D7D20007B3B
:10036000444C347D20007B4443537D20007B4F4C24
:10037000437D20007B4F42447D20007B4F534D7DC9
:1003800020007B4F54507D20007B4D494E7D204303
:100390006F6E66696775726174696F6E20736176DE
:1003A0006564005A44410056544700524D4300478B
:1003B0005356004753540047534100474C4C0047A5
:1003C000474100BF03BB03B703B303AF03AB03A7AE
:1003D00003A3037B4753497D200000000000240055
:1003E00027002A00000000080002010000030407A3
:1003F00000000000000000000000000025002800B0
:100400002B0000000000230026002900040404043F
:1004100004040404020202020202030303030303AE
:10042000010204081020408001020408102001028B
:100430000408102095268B2611241FBECFEFD8E08C
:10044000DEBFCDBF12E0A0E0B1E0EAE4F4E602C016
:1004500005900D92AC38B107D9F725E0ACE8B2E0D1
:1004600001C01D92AC3DB207E1F712E0CBE1D2E052
:1004700004C02197FE010E94E62BCA31D107C9F7BB
:100480000E94321F0C9418320C9400008093BB0021
:1004900084E88093BC008091BC0087FFFCCF8091F2
:1004A000B900887F0895E2E9F3E081E0919191112C
:1004B00080E093E0EF39F907C9F7882389F01092BB
:1004C0003F03109240031092410310924203109296
:1004D000430310924403109245031092460308957B
:1004E0008091AF038F5F8D3008F080E0E82FF0E05F
:1004F000E75AFC4F91AD9923A9F38093AF03482F9E
:1005000050E0FA013197EC30F10520F4EC5CFF4F3C
:100510000C94E62B90EF90933F039EEC9093400356
:1005200091ED90934103109242036FC090E5909338
:100530003F039CED9093400395ED9093410392E02F
:1005400062C090ED90933F0397EB9093400394EF3C
:10055000909341039AE057C090E590933F039AE847
:100560009093400397E49093410395E14CC090E150
:1005700090933F0397E59093400396EF9093410348
:1005800099E241C090EA90933F0397EB9093400328
:1005900090E7909341039CE336C090EB90933F0328
:1005A00097E79093400396E09093410394E52BC026
:1005B00090E590933F0397EB909340039BEE9093CD
:1005C00041039BE620C090E190933F0398E1909314
:1005D00040039EEB909341039DE715C090ED9093EF
:1005E0003F0395E39093400392E99093410394E98C
:1005F0000AC090ED90933F0395E09093400395EAF5
:100600009093410397EA90934203109243031AC0D8
:1006100090E190933F0391E59093400397EC909382
:1006200041039BE20AC090ED90933F039AEA9093B6
:10063000400398EC9093410391EA9093420391E038
:100640009093430310924403109245031092460383
:100650000C947D1C4F925F926F927F928F929F922B
:10066000AF92BF92CF92DF92EF92FF920F931F93C0
:10067000CF93DF93CDB7DEB7CB55D1400FB6F8940B
:10068000DEBF0FBECDBF8BEAECE8F2E0DF011D92CA
:100690008A95E9F7F09091038E01005B1E4F63E8A5
:1006A00073E0C8010E94612F5E01B9EAAB1ABEEF88
:1006B000BB0A6CE873E0C5010E94612FF8018181DB
:1006C00080538A3070F4828180538A3050F045E044
:1006D00050E0B801C80101960E94482F80E2D8017D
:1006E0008C93F801828180538A3010F080E38283FA
:1006F000680180E2882E96E0992E900ED6018C91AA
:10070000082E000C990B0E94372FE82E082E000CA3
:10071000990B9C01205331092A30310518F4F60158
:10072000E08206C00E942C2F892BC9F7D6018C923B
:10073000BFEFCB1ADB0A9C10E1CF86E0F801A3EFF4
:10074000B4E001900D928A95E1F78501A5E0DA2EDB
:10075000B4E0EB2EEA0CF8018081082E000C990B16
:100760000E94372FD8018D938D01282F082E000C61
:10077000330B205331092A30310558F0815482312E
:1007800040F0E3E6F2E0D5018D2D01900D928A95BF
:10079000E1F7E012E0CFF50180819181A281B38180
:1007A0008093FA049093FB04A093FC04B093FD049F
:1007B0008F2D8D3308F08CE393E1EAE0F1E08E01B8
:1007C0000F5F1F4FD80101900D929A95E1F7F090BD
:1007D000FF04F80193E1900F2191821301C0F82EDC
:1007E0009E13FACFFE0132969E012C5E3F4F9191EF
:1007F000891730F4DF0112979C91891708F0F92EC0
:10080000E217F307A1F7F092FF048091F3040E942E
:10081000ED14282F30E0A4E2B0E00E94AE2A4B0194
:100820005C018091F4040E94ED14A5019401280F4D
:10083000311D411D511DAAE0B0E00E94642A4B0108
:100840005C018091F5040E94ED14A5019401280F2C
:10085000311D411D511DABE1B0E00E94642A4B01E6
:100860005C018091F6040E94ED1490E00A97092E35
:10087000000CAA0BBB0BA5019401280F391F4A1FBE
:100880005B1FABE1B0E00E94642A4B015C018091E8
:10089000F7040E94ED1490E00A97092E000CAA0BB1
:1008A000BB0BA5019401280F391F4A1F5B1FABE149
:1008B000B0E00E94642A4B015C018091F8040E9420
:1008C000ED14282F30E0C9010A97092E000CAA0B5D
:1008D000BB0B880D991DAA1DBB1D4091FA0421E494
:1008E00030E0241B310947FD3395EAE0E29FB00177
:1008F000E39F700D11249B012D543F4F4091FC0448
:1009000060E370E0641B710947FD7395620F731F0C
:1009100044EB469F9001479F300D11246091FB04EA
:10092000062E000C770B61547109E69FA001E79F2A
:10093000500D1124420F531FE091FD040E2E000CA8
:10094000FF0BF0979A012E0F3F1F4F2D50E060E0F4
:1009500070E06A017B01F0E4CF0ED11CE11CF11CB8
:10096000A901330F660B770B27E0440F551F661F55
:10097000771F2A95D1F74C0D5D1D6E1D7F1D6C01F3
:100980007D0134E0F694E794D794C7943A95D1F773
:10099000C95BDE4FC882C754D140CA5BDE4FD882E4
:1009A000C654D140CB5BDE4FE882C554D140242FE2
:1009B0002295220F220F207CC55BDE4F2883CB546B
:1009C000D140E2E07695679557954795EA95D1F73E
:1009D000C65BDE4F4883CA54D140C75BDE4F5883A5
:1009E000C954D1408295807F962F9F70892BC85B18
:1009F000DE4F8883C854D140C45BDE4F1882CC548C
:100A0000D140C35BDE4F1882CD54D140C25BDE4F74
:100A10001882CE54D140C15BDE4F1882CF54D140F2
:100A2000AE014B5B5E4F2A01F12C80E090E0DC01CF
:100A3000FBE0EF2EE40EF20141912F01642E712CA8
:100A400020E030E04C015D01880C991CAA1CBB1C05
:100A5000B301022E02C0660F771F0A94E2F7660FF9
:100A6000672F661F770B7195CB01A0E0B0E0817016
:100A70009927AA27BB2788299929AA29BB294C018C
:100A80005D0151E5852253E5952250EDA52252EFF7
:100A9000B52270E260E0E82DE1706E27B694A7946D
:100AA000979487947150B9F753EAC52ED12CCC0E88
:100AB000DD1ECF0CD11CF6016083DD24D394DF0C46
:100AC0004C015D01F7E48F22FCE39F22F1E6AF22A7
:100AD000F4EEBF2270E260E0482D41706427B694C6
:100AE000A794979487947150B9F7E3EAF0E0EC0F7C
:100AF000FD1FED0DF11D6083F394F394F1EAFF15F2
:100B000038F4E41098CF90E040E061E070E027C056
:100B10002F5F3F4F2830310509F094CFF2CF50FFBF
:100B200007C0FB01022E01C0EE0F0A94EAF78E2BDC
:100B300056952150310998F7823A60F4F801E80F90
:100B4000F11DA3EAB0E0AC0FBD1FA40FB11D8C9145
:100B500080834F5F423A40F49F5F9F3F29F0592FB7
:100B600027E030E080E0DBCF82EAF801DE01AD551E
:100B7000BF4F01900D928A95E1F782EAEDE1F1E035
:100B8000D80101900D928A95E1F7BE016D557F4F16
:100B90002CE832E0F80142EA400F9191DB018D919F
:100BA000BD01880F890FD9018D939D014E13F5CF9B
:100BB000C55ADE4F0FB6F894DEBF0FBECDBFDF9132
:100BC000CF911F910F91FF90EF90DF90CF90BF904A
:100BD000AF909F908F907F906F905F904F9008950F
:100BE000EF92FF920F931F93CF93DF931F92CDB796
:100BF000DEB77C01FC0100811181C80169830E947C
:100C0000FD296981681719F0C8010E94052AC701EA
:100C10000F90DF91CF911F910F91FF90EF9008956A
:100C20004F925F926F927F928F929F92AF92BF92FC
:100C3000EF92FF920F931F93CF93DF93CDB7DEB761
:100C4000C054D1090FB6F894DEBF0FBECDBF90E4FB
:100C5000EFEBF1E0DE01119601900D929A95E1F72C
:100C6000811104C005E510E090E004C00AE010E046
:100C700090E981E0E92EF82E44244A94542C320164
:100C80000E0D1F1DE016F1060CF05CC0C7010E949E
:100C9000FD29A30192012827DA01C9018F70992744
:100CA000AA27BB27880F991F880F991FE1E0F0E062
:100CB000EC0FFD1FE80FF91F80809180A280B380A8
:100CC00034E076946794579447943A95D1F7842406
:100CD0009524A624B724C7010E94FD29482F50E07F
:100CE00064E0559547956A95E1F7052E000C660B73
:100CF000770B482559256A257B254F705527662790
:100D00007727440F551F440F551FE1E0F0E0EC0F2B
:100D1000FD1FE40FF51F4080518062807380E4E086
:100D2000B694A79497948794EA95D1F748245924C8
:100D30006A247B2440945094609470943FEFE31AAB
:100D4000F30AA0CFC301B201C05CDF4F0FB6F89425
:100D5000DEBF0FBECDBFDF91CF911F910F91FF90EE
:100D6000EF90BF90AF909F908F907F906F905F902B
:100D70004F900895CF92DF92EF92FF920F931F93BF
:100D8000CF93DF9300D000D000D0CDB7DEB7D82E00
:100D90008823E1F02DE4E22E23E0F22E00E911E0B9
:100DA000F70161917F011A830983CE0101960E94A8
:100DB000F0050F5F1F4F0A39F1E01F0789F70AE0BE
:100DC00010E090E9E92EFF24F39418C089E5E82E9D
:100DD00083E0F82E00E010E0F70161917F011A83B3
:100DE0000983CE0101960E94F0050F5F1F4F053564
:100DF000110591F705E510E0E12CF12C8D2D0E94F5
:100E0000100669837A838B839C83E00EF11E6E014A
:100E1000F5E0CF0ED11C8E010F5F1F4FE01AF10AD3
:100E2000C701800F911FF80161918F019E838D830F
:100E3000C6010E94F0050C151D0591F726960FB608
:100E4000F894DEBF0FBECDBFDF91CF911F910F9100
:100E5000FF90EF90DF90CF900895CF93DF9394EAC7
:100E60009093BC009091BC0097FFFCCF9091B9008B
:100E7000987F9830D9F4C62FD82F80EC0E94460274
:100E80008831B1F48D2F0E944602883299F48C2F5C
:100E90000E944602883281F484E98093BC009091DC
:100EA000BC00892F807194FDFACF07C081E005C096
:100EB00082E003C083E001C084E0DF91CF91089518
:100EC0002F923F924F925F926F927F928F929F925A
:100ED000AF92BF92CF92DF92EF92FF920F931F9348
:100EE000CF93DF93CDB7DEB7A0970FB6F894DEBFF0
:100EF0000FBECDBF4C01180129014C8F5D8F6E8F45
:100F00007F8FE8A268E872E00E94C01890E4A92EE2
:100F100022E4B22E3FE0C32ED12CE12CF12C00E0D4
:100F200010E09101A2016C8D7D8D8E8D9F8D0E94B0
:100F3000812C9F938F937F936F935F934F933F93F6
:100F40002F93A8E6B2E0BF93AF933E01F5E16F0E99
:100F5000711C7F926F920E94772F9101A2016C8D7C
:100F60007D8D8E8D9F8D0E947F2C9F938F937F937D
:100F70006F935F934F933F932F93A8E6B2E0BF9395
:100F8000AF932E01FEE04F0E511C5F924F920E94D4
:100F9000772FF30101900020E9F73197AF0146194F
:100FA0005709B301C4010E9483181A8219821C8256
:100FB0001B821E821D82B4018E010F5F1F4FC8016C
:100FC0000E94A418F20101900020E9F73197E4197A
:100FD000F5096D807E800FB6F894DEBF0FBECDBFE1
:100FE0003097A1F06E0E7F1EB301C8010E944A180F
:100FF000882309F494C029813A818D819E81B201B0
:10100000820F931F0E94612F7E826D82B801C401FE
:101010000E94A418C8010E94BB1898A1911183C016
:10102000D40114966D907C9015976114710431F47D
:101030001982F80190E28CE0800F16C0BCE06B16BC
:10104000710418F08CE0682E712CF40160817181BC
:10105000A301C8010E94682FF801E60DF71D108258
:10106000E8CF91938E1719F020812033D1F3F80146
:1010700001900020E9F73197AF01401B510BB801F7
:10108000C4010E948318D4014D905C904114510416
:1010900009F449C0F401648075806114710409F495
:1010A00042C0820118010F5F1F4FD1018C91082EA1
:1010B000000C990B0E94EE28892BA1F7B1E06B1A66
:1010C0007108640C751CD3018C91082E000C990BCF
:1010D0000E94EE28892B81F4A3014F5F5F4F4219D4
:1010E0005309F401558344834214530460F4B1015D
:1010F000C2010E943F2F07C06214730468F3E1E04D
:101100006E1A7108E0CFD401ED91FC9111971496FD
:101110008D919C911597E80FF91F108204C0C801AA
:101120000E94711873CFC401A0960FB6F894DEBF69
:101130000FBECDBFDF91CF911F910F91FF90EF9028
:10114000DF90CF90BF90AF909F908F907F906F90E7
:101150005F904F903F902F900895EF920F931F93C1
:10116000CF93DF9300D000D000D0CDB7DEB790E0B2
:10117000FC013197EA30F10508F032C1E05CFF4F25
:101180000C94E62B61E172E085E394E00E94D518AF
:10119000809157039091580381309105C1F08230BE
:1011A000910561F0892B09F01BC160E772E085E3CE
:1011B00094E00E94121961E072E011C06EE672E0E4
:1011C00085E394E00E94121969E072E008C062E7CA
:1011D00072E085E394E00E94121969EF71E085E303
:1011E00094E00E942419FCC062EF71E085E394E072
:1011F0000E94D5186CE873E0EFC08091170590E06D
:1012000090934A03809349038091160590E0909350
:101210004803809347038091150590E09093B103B4
:101220008093B0036BEE71E085E394E00E94D518E3
:101230008091490390914A030A9724F486E692E04C
:101240000E948E156091490370914A03072E000C8D
:10125000880B990B0E94471569EE71E085E394E0D5
:101260000E94D51880914703909148030A9724F46F
:1012700086E692E00E948E156091470370914803C4
:10128000072E000C880B990B0E94471567EE71E042
:1012900085E394E00E94D5188091B0039091B1034A
:1012A0000A9724F486E692E00E948E156091B003BE
:1012B0007091B103072E000C880B990B5CC06FED89
:1012C00071E08DCF67ED71E08ACF60ED71E085E36D
:1012D00094E00E94D51800913F03109140032091A3
:1012E0004103309142034091430350914403609184
:1012F000450370914603E12CCE0101960E946007E0
:10130000CE0101960E947915CE0101960E94BB186C
:1013100067C068EC71E063CF60EC71E060CF69EBAF
:1013200071E085E394E00E94D5188EE480937C0000
:1013300062E070E080E090E00E94161A80917A00EE
:10134000806480937A0080917A0086FDFCCF2091A2
:1013500078008091790030E0382B032E000C440B8C
:10136000550B64EB7BE281E190E00E94452AB901D4
:10137000330F880B990B0E94471585E394E00E9478
:101380000E192EC062EB71E085E394E00E94D5183F
:101390008091AE03811106C064E772E085E394E0BA
:1013A0000E9412198091AE03813031F466E772E039
:1013B00085E394E00E9412198091AE03823031F4EB
:1013C00068E772E085E394E00E9412198091AE0311
:1013D000833031F460E872E085E394E00E941219F2
:1013E00026960FB6F894DEBF0FBECDBFDF91CF912A
:1013F0001F910F91EF9008954F925F926F927F929D
:101400008F929F92AF92BF92CF92DF92EF92FF9214
:101410001F93CF93DF93CDB7DEB7A3970FB6F894A2
:10142000DEBF0FBECDBF4B015C010E94501A9B0175
:10143000AC01280D391D4A1D5B1D28A339A34AA301
:101440005BA388EE482E83E0582E612C712C1FE19F
:101450000E94D712882371F0CE0101960E944A168D
:10146000FE013196A0E0B5E0812F01900D928A95A2
:10147000E1F7EECF0E94501AC8A0D9A0EAA0FBA0C5
:10148000C61AD70AE80AF90A39EEC31633E0D306BA
:10149000E104F104C4F064EA71E085E394E00E94A1
:1014A000D518C701B601A30192010E94452ACA01BD
:1014B000B9010E94471585E394E00E940E1983E06C
:1014C0000E94AD0805C01C141D041E041F043CF43A
:1014D00085E394E00E94CB16892B09F4B9CF49EE3D
:1014E000841643E09406A104B104D8F06CE971E0DD
:1014F00085E394E0A3960FB6F894DEBF0FBECDBF90
:10150000DF91CF911F91FF90EF90DF90CF90BF9030
:10151000AF909F908F907F906F905F904F900C94C2
:101520002419A3960FB6F894DEBF0FBECDBFDF918E
:10153000CF911F91FF90EF90DF90CF90BF90AF9031
:101540009F908F907F906F905F904F9008950E9432
:10155000591C0E94431C82E090E0909358038093B2
:10156000570360E080914B030E948E190E949315EF
:1015700081E00C94AD082F923F924F925F926F9250
:101580007F928F929F92AF92BF92CF92DF92EF9213
:10159000FF920F931F93CF93DF93CDB7DEB76F9773
:1015A0000FB6F894DEBF0FBECDBF2B873C874D87AB
:1015B0005E876F87788B898B9A8BE0904F03F090D2
:1015C00050030091510310915203EB8EFC8E0D8F4E
:1015D0001E8F211501EE300705EF400705E050078B
:1015E000610571058105910509F008F464C0590190
:1015F0006A017B018C0120E034E04BE654EF64E1AA
:1016000070E080E090E00E94812C2F83388749872A
:101610005A870E94EC2B2B8B3C8B4D8B5E8B6F8BF8
:10162000788F898F9A8FA4E6B0E02B8D3C8D4D8DFD
:101630005E8D0E94642A1B012C015B016201E12C7A
:10164000F12C00E010E02B893C894D895E896F897F
:10165000788D898D9A8D0E94812C2F8F2B893C89C2
:101660004D895E896F89788D898D9A8D0E947F2C36
:10167000B901CA010E94022920EF3FEF4FE759E468
:101680000E943F294B015C016B8D7C8D8D8D9E8D61
:101690000E9402299B01AC01C501B4010E942A2BC2
:1016A0000E94A32B24E630E040E050E00E94232A71
:1016B00029013A0173C02B853C854D855E856F8578
:1016C000788989899A8907E00E94DE2C59016A018C
:1016D0007B018C0120E034E04BE654EF64E170E0E4
:1016E00080E090E00E94812C2F83388749875A87B9
:1016F00060E070E080E090E00E94EC2B2B8B3C8B54
:101700004D8B5E8B6F8B788F898F9A8FA4E6B0E0BC
:101710002B8D3C8D4D8D5E8D0E94642A1B012C010A
:101720005B016201E12CF12C00E010E02B893C8987
:101730004D895E896F89788D898D9A8D0E94812C63
:101740002F8F2B893C894D895E896F89788D898D92
:101750009A8D0E947F2CB901CA010E94022920EFB4
:101760003FEF4FE759E40E943F294B015C016B8D2D
:101770007C8D8D8D9E8D0E9402299B01AC01C5013F
:10178000B4010E942A2B0E94A32B24E630E040E003
:1017900050E00E94232A29013A0110E7C301B20157
:1017A0000E94022920EF3FEF4FE759E40E942A2BC5
:1017B00020E030E040E053E40E943F290E94A32B48
:1017C0009B01AC018F8D882E912CA12CB12C87E030
:1017D000880C991CAA1CBB1C8A95D1F7E2E09E1AC2
:1017E000A108B108820E931EA41EB51E97E0440CFA
:1017F000551C661C771C9A95D1F76FEF7FEF8FE031
:1018000090E00E94132A461A570A680A790A6FEF75
:101810008AE10E942D076FEF8BE10E942D07D50111
:10182000C40188279927A370BB27BD018827992762
:101830008CE10E942D07692D8DE10E942D07682DF6
:101840008EE10E942D07D301C20188279927AF702E
:10185000BB276A2F606F8FE10E942D07652D80E204
:101860000E942D07642D81E20E942D078F809884AD
:10187000A984BA8437E0880C991CAA1CBB1C3A9531
:10188000D1F702E0901AA108B10860E08AE20E9454
:101890002D0761E08BE20E942D07D501C401882746
:1018A0009927A370BB27612F6A2B8CE20E942D071A
:1018B000692D8DE20E942D07682D8EE20E942D0772
:1018C00060E08FE20E942D0760E080E30E942D0718
:1018D00060E081E30E942D076FE480E10E942D0704
:1018E0001B85109337038C8580933803ED85E09337
:1018F0003903EE84E0923A03FF84F0923B030889B7
:1019000000933C03198910933D038A8980933E0319
:1019100061E088E00E948E196BEA71E085E394E053
:101920000E94D518E12C0B851C852D853E854F85A1
:10193000588969897A89CE0101960E946007CE0193
:1019400001960E947915CE0101960E94BB1887E08E
:101950000E94AD086F960FB6F894DEBF0FBECDBFE4
:10196000DF91CF911F910F91FF90EF90DF90CF907B
:10197000BF90AF909F908F907F906F905F904F90AF
:101980003F902F9008952F923F924F925F926F92C7
:101990007F928F929F92AF92BF92CF92DF92EF92FF
:1019A000FF920F931F93CF93DF93CDB7DEB7A3972B
:1019B0000FB6F894DEBF0FBECDBF0E94591C0E9427
:1019C000431C1092580310925703E2E9F3E081E0C0
:1019D0009191911180E023E0EF39F207C9F7882354
:1019E00039F060E571E085E394E00E9424199CC120
:1019F0000E945302A0903F03B0904003C090410367
:101A0000D0904203E0904303F090440300914503DB
:101A1000109146030E94C22828EC30E040E050E0DC
:101A20000E94452A645671098109910924E630E033
:101A300040E050E00E94452C0E94F72C20933F0389
:101A40003093400340934103509342036093430318
:101A50007093440380934503909346030E9493152B
:101A600081E00E94AD088CE892E022EA222E280E46
:101A700075C180911E0583FF7CC281FF7AC282FFFF
:101A800078C28091170590E090934A0380934903B0
:101A900030901605832D90E0909348038093470380
:101AA0000091150510E01093B1030093B0038091ED
:101AB0008A0390918B03019709F086C06091040519
:101AC0007091050580910605909107050E940429F3
:101AD00025E93FEB46ED53E30E943F2920E030E04B
:101AE00044E353E40E94BE2A2B013C0120E030E095
:101AF00040EA51E40E942A2B0E949C2B6B017C013E
:101B00006091000570910105809102059091030597
:101B10000E94042925E93FEB46ED53E30E943F294B
:101B200020E030E044EB52E40E94BE2A4B015C010D
:101B300020E030E040E251E40E942A2B0E949C2BDE
:101B400068A379A38AA39BA381E48C0D80938C0363
:101B500088A18F5B80938D03B601DD0C880B990BF8
:101B60000E94042920E030E040EA51E40E943F292D
:101B70009B01AC01C301B2010E94BD2A20E030E00C
:101B800040E05FE30E943F290E949C2B605D6093D0
:101B90008E03E8A1F9A1BF01FF0F880B990B0E94EA
:101BA000042920E030E040E251E40E943F299B01FB
:101BB000AC01C501B4010E94BD2A0E949C2B605D4E
:101BC00060938F0310929003012B09F0B8C130FC91
:101BD000B6C10E942A036AEC70E082ED94E00E9494
:101BE0002419F1E0F093EB0380918303813409F031
:101BF000D1C180918403813409F0CCC180918503E7
:101C0000803309F0C7C180918603813409F0C2C1D5
:101C100080918703813409F0BDC1809188038134AC
:101C200009F0B8C167E071E085E394E00E942419EF
:101C300068ED70E085E394E00E94241901E010E073
:101C40000E94931560E080914B030E948E19012B36
:101C500009F06AC08091AF0390E08C30910509F4DF
:101C600084C021E00196FC01E75AFC4F31AD3111EF
:101C700020E08C309105B4F3211177C00E94591CEB
:101C80000E945302A0903F03B0904003C0904103D4
:101C9000D0904203E0904303F09044030091450349
:101CA000109146030E94C22828EC30E040E050E04A
:101CB0000E94452A645671098109910924E630E0A1
:101CC00040E050E00E94452C0E94F72C20933F03F7
:101CD0003093400340934103509342036093430386
:101CE00070934403809345039093460368EB7BE035
:101CF00080E090E00E94FC090E94D712882371F1D5
:101D0000CE0101960E944A16FE013196A0E0B5E090
:101D10008FE101900D928A95E1F785E394E00E94AE
:101D2000CB16892B09F4A5CEA3960FB6F894DEBF87
:101D30000FBECDBFDF91CF911F910F91FF90EF901C
:101D4000DF90CF90BF90AF909F908F907F906F90DB
:101D50005F904F903F902F900C94A70A85E394E0FA
:101D60000E94CB16892B41F2DFCF2091A203309144
:101D7000A3034091A4035091A5032D3331054105E0
:101D8000510508F4D5C068E572E080E090E00E945B
:101D9000161A61E081E10E948E198091A203909150
:101DA000A3038C010E51110917FF02C0095F1F4FD9
:101DB00093E0159507959A95E1F782ED94E00E94DE
:101DC000841B61E08EE00E94DA1960E08EE00E94E0
:101DD0008E1961E08FE00E94DA1960E08FE00E94C6
:101DE0008E1961E084E10E94DA1960E084E10E94CA
:101DF0008E1961E085E10E94DA1960E085E10E94B8
:101E00008E1961E08AE00E94DA1960E08AE00E949F
:101E10008E1961E08BE00E94DA1960E08BE00E948D
:101E20008E1961E08CE00E94DA1960E08CE00E947B
:101E30008E1961E08DE00E94DA1960E08DE00E9469
:101E40008E1961E084E00E94DA1960E084E00E946B
:101E50008E1961E085E00E94DA1960E085E00E9459
:101E60008E1961E086E00E94DA1960E086E00E9447
:101E70008E1961E087E00E94DA1960E087E00E9435
:101E80008E1961E088E00E94DA1960E088E00E9423
:101E90008E1961E089E00E94DA1960E089E00E9411
:101EA0008E1980917A008F7780937A0038E1309391
:101EB000600081E280936000809160008064809384
:101EC000600083B7846083BF83B7816083BFE12CE8
:101ED000F12CE016F106E4F485B7806685BF85B77E
:101EE0008F79806485BF889561E080914B030E9463
:101EF0008E196EE170E080E090E00E94161A60E0BA
:101F000080914B030E948E199FEFE91AF90AE1CFE5
:101F100080917A00806880937A000E949E150E94CA
:101F2000591C0E94431C60ED77E080E090E004C003
:101F3000A8EEB3E00E94642A0E94FC099FCE83E0D1
:101F40000E94AD088091B0039091B103C99744F409
:101F500084E00E94AD0882E00E94AD080E94A41BAC
:101F600082E090E00E94CF1C68EC70E080E090E09E
:101F7000C1CE0E94A41B81E090E00E94CF1C85E0AE
:101F80000E94AD0883E00E94AD0860E971E080E046
:101F900090E0B0CE61E080914B030E948E190E94C8
:101FA000501A2B013C01EBEA4E0EE2E05E1E611C72
:101FB000711C8CE8882E82E0982EF40141914F012B
:101FC000F2E94F9FA0011124952F990F990B9A01C7
:101FD000492F592F692F792F892FA0903F03B09057
:101FE0004003C0904103D0904203E0904303F0903F
:101FF000440300914503109146030E94F72C0E9470
:10200000BB0A0E94501A641575058605970530F4C1
:1020100085E394E00E94CB16892B99F385E394E045
:102020000E94CB16892B59F42BEA420E22E0521E55
:10203000611C711C2810C1CF00E010E001CE02E04D
:1020400010E0FECD81E090E0909358038093570319
:102050000E94671C0E947D1CE6EAF3E0208131812A
:1020600042815381648175818681978120933F03EA
:1020700030934003409341035093420360934303E2
:102080007093440380934503909346030E94BB0AD8
:1020900061E080914B030E948E1981E00E94AD089F
:1020A00086E00C94AD082F923F924F925F926F9210
:1020B0007F928F929F92AF92BF92CF92DF92EF92D8
:1020C000FF920F931F93CF93DF9300D000D01F9206
:1020D000CDB7DEB79B838A83FC0124803580A0E0E6
:1020E000B0E020E030E040E050E060E070E080E010
:1020F00090E0A215B30509F444C0EA81FB81008198
:1021000011810115110531F0F801EA0FFB1F108153
:102110001D8301C01D82FD81F053FA3090F501E06E
:102120000E94DE2CE22F432E542E652E762E872E13
:10213000982E9C8302E00E94DE2C59016A017B01EB
:102140008C012E2F342D452D562D672D782D892D60
:102150009C810E94F72C59016A017B018C018D81C1
:10216000E82F880FFF0BF0979F2F990F990B9F0176
:10217000492F592F692F792F892F0E94F72C1196FB
:10218000B8CF0F900F900F900F900F90DF91CF91DD
:102190001F910F91FF90EF90DF90CF90BF90AF9085
:1021A0009F908F907F906F905F904F903F902F9077
:1021B0000895FC0110820895FC0114821582168294
:1021C0001782108211821282138211861086138662
:1021D00012861586148617861686118A108A138A27
:1021E000128A148A168A178A158A81E0818F828F53
:1021F000138E87E0808F148E158ECF014E960C942F
:10220000D9101F93CF93DF931F92CDB7DEB7A82FBE
:1022100010911F05153009F474C0163009F402C17D
:10222000113009F0BEC1E091B1054E2F50E0FA0126
:102230003197E930F10508F0B4C1E65BFF4F0C942B
:10224000E62B8091B40582FFACC18091B20581116B
:10225000A8C1A33509F0A5C180919105909192057F
:10226000A0919305B0919405B095A0959095819516
:102270009F4FAF4FBF4F8093910590939205A093CE
:102280009305B09394058DC1AC3249F48091B205A9
:10229000811105C08091B4058B7F8093B405809136
:1022A000B40582FF7EC16A2F85E995E00E947F1DFB
:1022B00078C18091B205811174C18A2F0E94881E55
:1022C00070C1682F85EA95E00E94121F882309F4E7
:1022D00068C19091AF05906820C142E0682F89E9FC
:1022E00095E00E94F61C882309F45BC121E09091DF
:1022F000B205911101C020E09091AF0520FB94F947
:102300000CC190919005943108F04BC18091B105BA
:10231000843008F446C18370292F30E08230C9F040
:10232000833009F449C0813049F0129FC001139FE6
:10233000900D11246A2F845D9A4F08C0129FC0012E
:10234000139F900D11246A2F835D9A4F0E94121FD4
:1023500028C1AC3219F18091B4058E7F8093B40509
:102360008091B205129FF001139FF00D11246A2F86
:1023700070E0E15EFA4F811103C0605371090BC038
:10238000278530894AE0429FC001439F900D112468
:10239000C097680F791F708B678703C1129FF00188
:1023A000139FF00D1124E05DFA4F80818F778083B9
:1023B0009F5F90939005F5C021503109129FF00165
:1023C000139FF00D1124E05DFA4FAC3201F18081D2
:1023D0008F7789836A2FCE0101960E94121F809108
:1023E000900590E00197189FF001199FF00D1124BE
:1023F000E05DFA4F8981982F9F7780818078892BC3
:1024000080838091B40582608093B405CAC091E056
:102410008091B205811101C090E0808190FB87F925
:102420008083BFC0E091B1054E2F50E0FA01319793
:10243000E930F10508F0B5C0ED5AFF4F0C94E62BDA
:102440008A2F0E94B71EAEC08091B205882341F04A
:102450008091B40582FFA5C06A2F81E995E026CF5F
:1024600091E0AC3209F490E08091B40590FB82F9E0
:102470008093B405EDCF9091B40592FB882780F945
:1024800092FF8FC09091B20591118BC09091AF05D2
:1024900098609093AF05A73509F083C040919505EA
:1024A000509196056091970570919805709560958B
:1024B000509541955F4F6F4F7F4F409395055093D7
:1024C000960560939705709398056CC043E0682F5C
:1024D0008DE995E00E94F61C882309F462C021E092
:1024E0009091B205911101C020E09091AF0520FBC1
:1024F00095F913C042E0682F81EA95E00E94F61C2E
:10250000882309F44EC021E09091B205911101C0D9
:1025100020E09091AF0520FB96F99093AF0542C063
:102520009091B205923031F140F49923B9F0913095
:10253000C1F56091AA05605319C0943049F108F1C2
:10254000953079F56091AC056053680F6093AC05E8
:102550008091AF0582608093AF0523C08C3209F172
:10256000682F660F6056A62FAA0FAA0F6A0F6093F6
:10257000AA0517C0682F660F6056A62FAA0FAA0FCC
:1025800003C06091AB0560536A0F6093AB0509C04F
:10259000682F660F6056A62FAA0FAA0F6A0F6093C6
:1025A000AC0581E00F90DF91CF911F9108958F923C
:1025B0009F92AF92BF92CF92DF92EF92FF920F93D2
:1025C0001F93CF93DF931F92CDB7DEB701E0F8E002
:1025D000FF2E88248394A3E0EA2E12E0E091D20437
:1025E000F091D3040084F185E02D82ED94E009950B
:1025F000892B09F4D9C1E091D204F091D30402846B
:10260000F385E02D82ED94E00995982E80912805C0
:1026100090912905A0912A05B0912B050196A11D45
:10262000B11D8093280590932905A0932A05B093A6
:102630002B0584E2981217C08091B40584FF05C071
:102640008F7E8093B405109290051092B005109281
:102650001F058092B5051092B2058091B4058D7F5B
:102660008093B405BBCF2091B505223061F5EAE235
:102670009E1203C0E092B5051DC080EE890D8F3516
:1026800008F0FCC08091B00589258093B005892DA4
:102690000E940111882309F4F1C0FCE29F120DC0D1
:1026A0008091B4058D7F8093B4058091B1058F5FD3
:1026B0008093B1051092B20591CF8091B2058F5FE2
:1026C0008093B2058BCF213009F062C08091B005B4
:1026D00089258093B0058CE2981212C080911F0565
:1026E000882309F475C18FEA95E029830E94D910E7
:1026F00029812093B1051092B2051093B5056ECFD4
:102700009091B205923008F45FC1EEEFBE2EB90E83
:1027100080911F05882319F08150883008F080E0EF
:10272000E82FF0E0EE0FFF1FED53FC4F25913491A1
:102730004B2D50E0F901E40FF51FE4919E1204C007
:102740008F5F80931F0540C19E160CF441C18F5FBF
:10275000883009F43DC1E82FF0E0EE0FFF1FED5384
:10276000FC4FA591B491B9016D01C21AD30AE62FAD
:10277000E21BEB1510F09D01DDCFFB01A490F601EB
:10278000E60FF71FE4916F5F7F4FAE1681F3F3CF33
:10279000233009F078C0992D90628FE9890F863037
:1027A00010F4975501C090534091B2052091B005A7
:1027B000892F90E041110DC08092B20530E044E0D5
:1027C000359527954A95E1F72817390709F406CF7B
:1027D00042C02F7030E028173907E9F58091B40521
:1027E00081FF09C08D7F8093B4054F5F4093B20590
:1027F0008CE20E9401118091200590912105A09109
:102800002205B09123050196A11DB11D80932005DD
:1028100090932105A0932205B093230591E0809128
:102820001F05863009F090E08091B40590FB84F993
:102830008093B4051092B5052091D505222341F16E
:1028400088608093B4051092D6058091D50581509B
:102850008093D5051DC08091240590912505A091F8
:102860002605B09127050196A11DB11D8093240571
:1028700090932505A0932605B09327058FEA95E050
:102880000E94D910A5C02111A9CE10921F05A6CE75
:102890008091AF0580FF0CC03091D4052091AE052A
:1028A00030FF04C03091D305321710F42093D305C4
:1028B00081FF0CC02091AA052093CF052091AB0584
:1028C0002093D0052091AC052093D10582FF10C044
:1028D0002091A8052093CD052091A7052093CC0534
:1028E0002091A6052093CB052091AD052093D2051C
:1028F00083FF09C0E1E9F5E0A6EBB5E08F2D01907B
:102900000D928A95E1F78091AF0584FF10C0409148
:10291000990550919A0560919B0570919C05409393
:10292000BE055093BF056093C0057093C10586FF37
:1029300010C04091A1055091A2056091A30570912E
:10294000A4054093C6055093C7056093C8057093CE
:10295000C90585FF10C040919D0550919E0560916D
:102960009F057091A0054093C2055093C3056093E5
:10297000C4057093C50587FF04C08091A5058093A9
:10298000CA052091D4058091AF05822B8093D40590
:10299000992309F423CE1092D7058091D505811192
:1029A0001DCE0093D50519CE8091D5050F90DF91EE
:1029B000CF911F910F91FF90EF90DF90CF90BF903C
:1029C000AF909F908F9008959F5F9093B20506CE31
:1029D00010921F051092B50501CE282F082E000C6D
:1029E000330B205331092A30310510F480530895F8
:1029F000803231F09FEB980F9A3120F4875308957D
:102A000084E208958FEF08958F929F92AF92BF92C4
:102A10000F931F93CF93DF93CDB7DEB7A1970FB678
:102A2000F894DEBF0FBECDBF19A2423008F44AE0D1
:102A30008E010F5D1F4F842E912CA12CB12CA5016E
:102A400094010E94232AE62FB901CA0101501109FD
:102A5000EA3014F4E05D01C0E95CD801EC93232B6B
:102A6000242B252B61F7B80185E394E00E94F91827
:102A7000A1960FB6F894DEBF0FBECDBFDF91CF9108
:102A80001F910F91BF90AF909F908F900895CF921C
:102A9000DF92EF92FF92CF93DF9397FF21C06B01FC
:102AA0007C01E0913504F09136040190F081E02D35
:102AB0006DE285E394E00995EC0166277727CB0169
:102AC0006C197D098E099F094AE00E9404158C0F3C
:102AD0009D1FDF91CF91FF90EF90DF90CF900895F1
:102AE0004AE0DF91CF91FF90EF90DF90CF900C9470
:102AF0000415CF93DF93FC0144815581608171817E
:102B000085E394E00E946F16EC0185E394E00E9457
:102B10000E198C0F9D1FDF91CF910895BC0185E3A5
:102B200094E00C94F91860E880E10E942D0760E0C1
:102B300088E00E948E1988E00C94AD081092ED0494
:102B40001092EC041092EB041092EA041092E90443
:102B50001092E8048DEC90E09093EF048093EE04E3
:102B60009091DE04963108F057C025E530E03093AF
:102B7000E9042093E8042BEC30E03093EB0420933D
:102B8000EA0420E930E03093ED042093EC04209136
:102B90006800983050F031E09E3008F430E081E079
:102BA00001C0880F3A95EAF701C084E0822B809338
:102BB0006800983038F09E3040F0963148F020E0C0
:102BC00030E008C02DE630E005C02BE630E002C062
:102BD0002CE630E03093E6042093E504983030F49E
:102BE00081E001C0880F9A95EAF70EC0292F30E0E6
:102BF0009E3018F42850310902C02E50310981E06E
:102C000001C0880F2A95EAF78093E7048091EE04CB
:102C10009091EF040197F1F78091EC049091ED040D
:102C2000892B21F18091E9039091EA0324E0823D10
:102C30009207E1F0009711F00E94841B8091F0044C
:102C40008E7F8093F0041092E8031092E70382EDE8
:102C500094E09093EA038093E903E091E504F09116
:102C6000E60490818091E704892B80830895CF93B7
:102C7000DF93682F70E080E090E04AE00E94041546
:102C8000EC0185E394E00E940E198C0F9D1FDF91EB
:102C9000CF910895CF93DF93EC010E94DC109091C7
:102CA000D5059923C1F091509093D5052091D60573
:102CB0008FE1829F90011124F901EA54FA4FDE015D
:102CC00001900D928A95E1F7C9018A549A4F0E94AA
:102CD000DC101092D605CE01DF91CF910895CF92EE
:102CE000DF92EF92FF920F931F93CF93DF936C01CC
:102CF0007A018B01C0E0D0E0CE15DF0589F0D80164
:102D00006D918D01D601ED91FC910190F081E02D46
:102D1000C6010995892B11F47E0102C02196ECCFE2
:102D2000C701DF91CF911F910F91FF90EF90DF903E
:102D3000CF900895FC01538D448D252F30E0842FD2
:102D400090E0821B930B541710F0CF9608950197D3
:102D50000895FC01918D828D981761F0828DDF01BD
:102D6000A80FB11D5D968C91928D9F5F9F73928F7E
:102D700090E008958FEF9FEF0895FC01918D828D73
:102D8000981731F0828DE80FF11D858D90E0089540
:102D90008FEF9FEF0895FC01918D228D892F90E098
:102DA000805C9F4F821B91098F739927089585E35B
:102DB00094E00E94CB1621E0892B09F420E0822FB9
:102DC0000895FC01848DDF01A80FB11DA35ABF4FE8
:102DD0002C91848D90E001968F739927848FA6891A
:102DE000B7892C93A089B1898C9180648C93938D41
:102DF000848D981306C00288F389E02D80818F7D31
:102E000080830895EF92FF920F931F93CF93DF93E8
:102E1000EC0181E0888F9B8D8C8D981305C0E8892B
:102E2000F989808185FD24C0F62E0B8D10E00F5F9F
:102E30001F4F0F731127E02E8C8DE8120CC00FB6B8
:102E400007FCFACFE889F989808185FFF5CFCE01AB
:102E50000E94E116F1CF8B8DFE01E80FF11DE35AC0
:102E6000FF4FF0820B8FEA89FB898081806207C067
:102E7000EE89FF896083E889F98980818064808395
:102E800081E090E0DF91CF911F910F91FF90EF9043
:102E90000895CF93DF93EC01888D8823C9F0EA89E8
:102EA000FB89808185FD05C0A889B9898C9186FD43
:102EB0000FC00FB607FCF5CF808185FFF2CFA88940
:102EC000B9898C9185FFEDCFCE010E94E116E7CF45
:102ED000DF91CF91089580E090E0892B29F00E9446
:102EE000D71681110C94000008953FB7F894809193
:102EF000310490913204A0913304B091340426B58A
:102F0000A89B05C02F3F19F00196A11DB11D3FBF21
:102F1000BA2FA92F982F8827820F911DA11DB11DAF
:102F2000BC01CD0143E0660F771F881F991F4A95AA
:102F3000D1F708952091E9033091EA032817390762
:102F400071F49091E7038091E803981741F0E091C4
:102F5000E703F0E0E451FC4F808190E008958FEFAB
:102F60009FEF089508951F93CF93DF93DC015C9644
:102F70002D913C915D972115310539F481E090E068
:102F800013969C938E9312973DC05196ED91FC91B0
:102F9000529750969C915097892F80951FB75E96B7
:102FA0004C915E9741FB772770F941FD6095F8944D
:102FB0004081772311F0492B01C048234083E90168
:102FC0002197F1F748E0508160FF02C0592B01C002
:102FD00058235083E9012197F1F76695415099F7FD
:102FE000772321F090818923808303C08081982BEF
:102FF00090831FBF5C968D919C915D970197F1F72F
:1030000021E030E0C901DF91CF911F910895209117
:10301000E9033091EA032817390771F48091E80336
:103020002091E70390E0805C9F4F821B910960E450
:1030300070E00E94D22B089580E090E008952091E6
:10304000E9033091EA0328173907B9F49091E703AF
:103050008091E803981789F0E091E703F0E0E451EC
:10306000FC4F80812091E70330E02F5F3F4F2F73AB
:1030700033272093E70390E008958FEF9FEF0895A3
:10308000089580E090E008950E94272F86E692E060
:103090000C948E150F931F93CF93DF93EC018881CF
:1030A0009981009729F02A813B812617370788F4F8
:1030B0008B016F5F7F4F0E945D2E009761F09983B7
:1030C00088831B830A832C813D81232B11F4FC010F
:1030D000108281E001C080E0DF91CF911F910F91BC
:1030E0000895CF93DF93EC0188819981009711F0C7
:1030F0000E94C52D198218821D821C821B821A8291
:10310000DF91CF910895EF92FF920F931F93CF938A
:10311000DF93EC017B018A01BA010E944A188111F8
:1031200004C0CE010E94711807C01D830C83B70133
:10313000888199810E94612FCE01DF91CF911F91EB
:103140000F91FF90EF900895CF93DF93EC01FB0177
:103150008617970761F0608171816115710529F00B
:10316000448155810E94831802C00E947118CE01CB
:10317000DF91CF910895FC01808191810C94C52D40
:10318000FC01118210821382128215821482611551
:10319000710551F0FB0101900020E9F73197AF0173
:1031A000461B570B0C9483180895EF92FF920F93D0
:1031B0001F93CF93DF938C017B01C0E0D0E0F70138
:1031C000EC0FFD1F6491662361F0D801ED91FC9135
:1031D0000190F081E02DC8010995892B11F021960D
:1031E000EECFCE01DF91CF911F910F91FF90EF9025
:1031F00008956115710579F0FB0101900020E9F750
:103200003197AF01461B570BDC01ED91FC91028019
:10321000F381E02D099480E090E0089566E872E083
:103220000C94F9180F931F93CF93DF93EC010E9436
:10323000F9188C01CE010E940E19800F911FDF91A9
:10324000CF911F910F9108950F931F93CF93DF9309
:10325000EC010E94D5188C01CE010E940E19800F3E
:10326000911FDF91CF911F910F9108951F920F929F
:103270000FB60F9211242F933F934F935F936F9349
:103280007F938F939F93AF93BF93EF93FF9385E3C8
:1032900094E00E94E116FF91EF91BF91AF919F9151
:1032A0008F917F916F915F914F913F912F910F90EF
:1032B0000FBE0F901F9018951F920F920FB60F928E
:1032C00011242F938F939F93EF93FF93E0914504E5
:1032D000F09146048081E0914B04F0914C0482FD12
:1032E00012C0908180914E048F5F8F7320914F04A4
:1032F000821751F0E0914E04F0E0EB5CFB4F958FAC
:1033000080934E0401C08081FF91EF919F918F9136
:103310002F910F900FBE0F901F90189590E0FC0119
:10332000EC51FC4F3491FC01E05EFB4F2491FC0119
:10333000E45FFB4FE491EE2309F43BC0332339F102
:10334000333091F038F43130A9F0323001F584B5E2
:103350008F7D12C0373091F03830A1F03430B9F49D
:10336000809180008F7D03C0809180008F77809353
:1033700080000DC084B58F7784BD09C08091B000F6
:103380008F7703C08091B0008F7D8093B000F0E014
:10339000EE0FFF1FE850FC4FA591B4918FB7F89442
:1033A000EC91611103C020952E2301C02E2B2C938C
:1033B0008FBF0895CF93DF9390E0FC01E05EFB4F59
:1033C0002491FC01E45FFB4F8491882361F190E03C
:1033D000880F991FFC01E652FC4FC591D491FC0166
:1033E000E850FC4FA591B491611109C09FB7F894C2
:1033F0008881209582238883EC912E230BC0623034
:1034000061F49FB7F8943881822F80958323888355
:10341000EC912E2B2C939FBF06C08FB7F894E881B8
:103420002E2B28838FBFDF91CF9108958F929F928B
:10343000AF92BF92CF92DF92EF92FF926B017C012D
:103440000E9475174B015C01C114D104E104F10421
:10345000F1F00E947517DC01CB0188199909AA09BE
:10346000BB09883E9340A105B10570F321E0C21A63
:10347000D108E108F10888EE880E83E0981EA11CAF
:10348000B11CC114D104E104F10419F7DDCFFF90A0
:10349000EF90DF90CF90BF90AF909F908F90089566
:1034A0002FB7F89460912D0470912E0480912F0411
:1034B000909130042FBF08951F920F920FB60F9274
:1034C00011242F933F938F939F93AF93BF9380913A
:1034D0002D0490912E04A0912F04B09130043091CE
:1034E0002C0426E0230F2D3720F40296A11DB11DD8
:1034F00005C029E8230F0396A11DB11D20932C04BC
:1035000080932D0490932E04A0932F04B093300445
:103510008091310490913204A0913304B09134042D
:103520000196A11DB11D8093310490933204A093A4
:103530003304B0933404BF91AF919F918F913F9129
:103540002F910F900FBE0F901F9018958F929F9202
:10355000AF92BF92CF92DF92EF92FF924B015C014C
:103560006B017C0184E0F694E794D794C7948A9524
:10357000D1F7D501C40122E0B695A7959795879517
:103580002A95D1F7C80ED91EEA1EFB1ED701C60127
:1035900034E0B695A795979587953A95D1F7C80EDB
:1035A000D91EEA1EFB1EBB27AF2D9E2D8D2DC80EEA
:1035B000D91EEA1EFB1EC701AA27BB27C80ED91EAB
:1035C000EA1EFB1EA3E0B0E0A70196010E94642A58
:1035D000A5019401261B370B480B590BABE0B0E05B
:1035E0000E94642ADC01CB0165E0B695A79597950A
:1035F00087956A95D1F7BC01CD016C0D7D1D8E1D9F
:103600009F1DFF90EF90DF90CF90BF90AF909F9065
:103610008F9008951F920F920FB60F9211242F933F
:103620003F934F935F936F937F938F939F93AF934A
:10363000BF93EF93FF93E091E903F091EA03309792
:1036400009F451C0968DA685B785858591FF04C084
:103650009C91892329F447C09C91892309F043C098
:10366000A389B4899C918589809589238C938689C7
:1036700097890197F1F7608D718DA685B78555857E
:1036800038E020E0CB010197F1F7822F90E095958B
:103690008795282F4C91452309F02068315091F7E8
:1036A000868D81FD20958091E80390E001968F73CF
:1036B00099273091E703381749F0A091E803B0E06B
:1036C000A451BC4F2C938093E80303C0868D816086
:1036D000868F828D938D0197F1F7A389B4899C9190
:1036E0008589892B8C93FF91EF91BF91AF919F9129
:1036F0008F917F916F915F914F913F912F910F909B
:103700000FBE0F901F901895E091E903F091EA0326
:10371000E817F90769F4A389B4899C918589809594
:1037200089238C931092EA031092E90381E00895B3
:1037300080E008951F920F920FB60F9211240F9000
:103740000FBE0F901F901895CF92DF92EF92FF92CD
:103750000F931F93CF93DF931F92CDB7DEB7D12C7A
:1037600085E0C82E80919005D81608F07FC063EDE3
:1037700073E085E394E00E94D5180D2D10E0C09E03
:10378000F001C19EF00D1124E15EFA4F85858A306B
:1037900010F40E944618C09EC001C19E900D1124D5
:1037A0009C01215E3A4F7901F901658570E080E066
:1037B00090E04AE00E94041589E892E00E948E158C
:1037C000F701878590898436910510F40E94461888
:1037D000C09EF001C19EF00D1124E15EFA4F878575
:1037E00090890A9710F40E944618C09EC001C19E9D
:1037F000900D11249C01215E3A4F7901F9016785F2
:10380000708980E090E04AE00E94041589E892E027
:103810000E948E15F70186858A3010F40E944618A2
:10382000C09E7001C19EF00C1124F701E15EFA4FB9
:10383000668570E080E090E04AE00E94041589E827
:1038400092E00E948E15F701E05DFA4F808187FFBC
:1038500004C08F778A3030F401C080E089830E94F1
:10386000461889810E943716D3947CCF85E394E073
:103870000F90DF91CF911F910F91FF90EF90DF900C
:10388000CF900C940E1960E081E10E948E1964E6DD
:1038900070E080E090E00E94161A8CE58093B800FA
:1038A0001092B9008FEF8093BB00109264000C94CB
:1038B000931569E872E082ED94E00E94121910926B
:1038C000EB0364E670E080E090E00C94161A8091BF
:1038D000530320915403309155034091560392E6CF
:1038E000981751F0921739F0931729F0941719F09F
:1038F0009150B1F70895892F08950F931F93CF9397
:10390000DF9300915303081304C01092AE0391E0BB
:1039100001C090E010915403181303C091E09093FC
:10392000AE03D0915503D81304C092E09093AE0338
:1039300091E0C0915603C817E1F0992321F02AC005
:103940008C17B9F08F5F8336C0F0833619F50E946B
:10395000671C081302C01092AE03181303C091E055
:103960009093AE03D81303C092E09093AE03C813B4
:1039700011C083E08093AE030DC0801303C010928A
:10398000AE0308C0811302C081E0F4CF8D13D8CFFD
:1039900082E0F0CFDF91CF911F910F9108950F93A7
:1039A0001F93CF93DF938C01C0E0D0E0C017D10705
:1039B000C4F461E080914B030E948E1962E370E0D1
:1039C00080E090E00E94FC0960E080914B030E943F
:1039D0008E1962E370E080E090E00E94FC0921967D
:1039E000E5CFDF91CF911F910F910895FC01809158
:1039F000B205882321F06C3209F04CC018C0118246
:103A00001082138212828091B40582608093B40583
:103A10001092B30581E06D3209F080E09091B40519
:103A200080FB90F99093B405882329F366C08091B8
:103A3000B305811103C081E08093B3058281938136
:103A4000892B99F48091B40580FF22C082819381F3
:103A5000919581959109938382838081918191953C
:103A6000819591099183808313C02AE08091B305E9
:103A700091E0980F9093B305481720F3628173810A
:103A8000269FC001279F900D112493838283EECF40
:103A900081E008956E3221F481E08093B3052DC05A
:103AA0008091B305811112C0208131814AE0429F8B
:103AB000C001439F900D1124062E000C770B60531C
:103AC0007109680F791F7183608317C091E0980FA7
:103AD0009093B305481788F0228133814AE0429FD2
:103AE000C001439F900D1124062E000C770B6053EC
:103AF0007109680F791F7383628380E00895CF9204
:103B0000DF92EF92FF921F93CF93DF93EC01162F7A
:103B10008091B20581110BC0188219821A821B8212
:103B20001092B3058091B40582608093B4051E3273
:103B300091F01C3209F07FC08091B305882359F0C1
:103B40008091B305843099F5288139814A815B8160
:103B5000A4E6B0E046C081E08093B3052981822FBE
:103B600082958F702F703AE0839F200D11248A81F7
:103B700081112C598881982F92959F708F703AE00F
:103B8000939F800D112490E03CE3239F800D911DB5
:103B90001124092E000CAA0BBB0B88839983AA83DE
:103BA000BB831E3209F4A9C01C3251F244C08530D7
:103BB00039F4288139814A815B81AAE0B0E011C0E3
:103BC0008630F1F008F09BC0288139814A815B8101
:103BD000833019F4A8EEB3E004C0823029F4A0E1E8
:103BE000B7E20E94642A08C0813051F460EA76E8A6
:103BF00081E090E00E94132A688379838A839B8303
:103C0000C880D980EA80FB80D701C601880F991F40
:103C1000AA1FBB1FBC01CD016F5F7F4F8F4F9F4F0E
:103C20000E94A61AC60ED71EE81EF91EC882D982A7
:103C3000EA82FB8264C08091B305811118C0812F94
:103C4000110F990BC097092E000CAA0BBB0B4881D2
:103C500059816A817B8134E0440F551F661F771FAD
:103C60003A95D1F7842B952BA62BB72B42C08F5FAB
:103C70008093B3058730C0F4288139814A815B8104
:103C8000AAE0B0E00E94642A212F110F330B2053C9
:103C900031096901330FEE08FF08DC01CB018C0DFF
:103CA0009D1DAE1DBF1D25C0873039F5C880D98048
:103CB000EA80FB80D701C601880F991FAA1FBB1F8E
:103CC000BC01CD016F5F7F4F8F4F9F4F0E94A61A9F
:103CD000DC01CB018C0D9D1DAE1DBF1D193324F0E1
:103CE0000296A11DB11D05C014331CF00196A11D43
:103CF000B11D88839983AA83BB8380E001C081E0E2
:103D0000DF91CF911F91FF90EF90DF90CF900895BA
:103D1000813311F0813411F483E020C0803321F02D
:103D20008E3411F0863519F41092AE0519C0823325
:103D300011F0843411F484E011C0833311F487E06E
:103D40000DC0843311F486E009C0853311F485E099
:103D500005C0863311F0853441F481E08093AE05CF
:103D60008091AF0581608093AF0580E00895E09178
:103D7000B2054E2F50E04930510508F051C0FA010C
:103D8000E45AFF4F0C94E62B1092AD058C3209F4E7
:103D900047C09091B40592609093B405880F805607
:103DA000982F990F990F03C09091A8059053890FF0
:103DB0008093A80535C0880F8056982F990F990FCA
:103DC00003C09091A7059053890F8093A70528C041
:103DD000880F8056982F990F990F03C09091A605D0
:103DE0009053890F8093A6051BC08C32C9F413C071
:103DF0008C3289F0880F8056982F990F990F890F70
:103E00008093AD050DC08C3231F09091AD0590538B
:103E1000890F8093AD058091AF0584608093AF05D5
:103E200081E00895FC018091B4058E7F8093B405F4
:103E300081E06C3209F080E09091B205911104C0EC
:103E400081110CC0605308C081110AC06053808189
:103E50009AE0899F600D1124608302C080E008957C
:103E600081E00895CF93DF93CDB7DEB7C756D10970
:103E70000FB6F894DEBF0FBECDBF789484B58260D4
:103E800084BD84B5816084BD85B5826085BD85B5FE
:103E9000816085BD80916E00816080936E0010927C
:103EA00081008091810082608093810080918100F7
:103EB0008160809381008091800081608093800088
:103EC0008091B10084608093B1008091B0008160E6
:103ED0008093B00080917A00846080937A00809112
:103EE0007A00826080937A0080917A008E7F80933E
:103EF0007A0080917A00806880937A001092C100E5
:103F00001092B3031092B203E0914504F09146047D
:103F100082E08083E0914104F09142041082E091BC
:103F20004304F091440487E6808310924D04E091AD
:103F30004904F0914A0486E08083E0914704F091BF
:103F40004804808180618083E0914704F0914804B7
:103F5000808188608083E0914704F09148048081EB
:103F600080688083E0914704F091480480818F7DD0
:103F7000808380ED97E0A0E0B0E0809339049093D7
:103F80003A04A0933B04B0933C040E949E1584E045
:103F900090E090934C0380934B036FEB72E085E3CA
:103FA00094E00E94241980E190E090934C03809368
:103FB0004B0361E081E10E94DA1960E081E10E9437
:103FC0008E1961E080E10E94DA1961E088E00E94C8
:103FD000DA1967EA72E085E394E00E94D51861EA95
:103FE00072E085E394E00E94D5184AE060E070E05A
:103FF000CB010E9404158AE792E00E948E158BE4A3
:104000000E9437168DE4C82E83E0D82E00E911E017
:10401000C8010E94FD29F60181936F010F5F1F4FB8
:104020000A39F1E01F07A1F781E00E9410062B0179
:104030003C01CE0101965C016C01C8010E94FD2982
:10404000F50181935F010F5F1F4F0E39F1E01F07EC
:10405000A1F789819A81AB81BC8184159505A6055C
:10406000B70509F181E080934D0387E080934E030B
:1040700080EC9CEFABE9B1E080934F039093500349
:10408000A0935103B093520383E68093530380932C
:10409000540380935503809356036DE472E085E3E7
:1040A00094E00E94241909E513E0A12CB12CC5016C
:1040B0000E94FD29F80181938F01FFEFAF1ABF0A1B
:1040C00025E5A216B10499F780E00E9410062B01A5
:1040D0003C018601C5010E94FD29F80181938F01F1
:1040E000FFEFAF1ABF0A29E5A216B10499F789813B
:1040F0009A81AB81BC8184159505A605B70569F445
:104100008091810390918203909358038093570389
:10411000109289031092900373C021E030E0309335
:1041200058032093570387E58093590383E58093D1
:104130005A0380E580935B0382E580935C0380E211
:1041400080935D0384E580935E0388E580935F033D
:104150001092600382E090E0909382038093810349
:1041600081E4809383038093840390E39093850399
:10417000809386038093870380938803109289033A
:1041800030938B0320938A0380938C0380938D0359
:1041900090938E0390938F03109290038DE0809301
:1041A0009103E2E9F3E0119283E0E33AF807D9F7EB
:1041B00081E08093980388E790E0A0E0B0E08093EE
:1041C000A2039093A303A093A403B093A50310921A
:1041D000A60384E98093A70385E38093A80387E778
:1041E0008093A9031092AA031092AB031092AC0320
:1041F0001092AD0368E172E085E394E00E94241917
:1042000080E190E00E94CF1C80E4EFEFF1E0D60166
:1042100001900D928A95E1F724E630E088248A9493
:10422000982C5401E0E4E0937C0080917A00806453
:1042300080937A0080917A0086FDFCCF809178008F
:104240004091790090E0942BB501A40148274F706C
:10425000552766277727440F551F440F551FD60152
:10426000A40FB51F4D915D916D917C91F4E0B694D2
:10427000A79497948794FA95D1F7482559256A25EC
:104280007B259927A4E095958795AA95E1F7092EB6
:10429000000CAA0BBB0B84279527A627B7278F7086
:1042A0009927AA27BB27880F991F880F991FD60126
:1042B000A80FB91F8D909D90AD90BC9014E076959D
:1042C0006795579547951A95D1F784269526A62682
:1042D000B72680949094A094B0942150310909F0AD
:1042E000A2CF89288A288B2811F00E94C2280E9418
:1042F000591C0E94431C80915703909158038130B0
:10430000910551F08230910551F0892B51F41092B2
:10431000AF030E94C30C05C00E94221002C00E947D
:10432000A70A4E019AE0890E911CFE013D96A896BF
:10433000FFAFEEAFA89785E394E00E94CB16892BE0
:1043400011F41FE1D7C4AA24A394B12C93E0F92E51
:1043500022E0322E85E394E00E94CB16181619064F
:1043600084F785E394E00E94A9168A3019F08D3015
:1043700089F38AC4E091E603F0E0EC54FC4F10822C
:104380008091B4038B3509F07CC48091B8038D35DE
:1043900009F077C48091B503833409F05BC0809144
:1043A000B603833401F58091B7038D34E1F4809135
:1043B000BA038335A9F48091BC03833511F40E94BC
:1043C00022108091BC03873521F41092AF030E9424
:1043D000C30C8091BC038E3431F40E94A70A03C041
:1043E00081E00E94AD088091B603833589F4809105
:1043F000B703853469F48091BA03833549F480E0CA
:104400000E94BA0669E873E085E394E00E942419EB
:104410008091B6038335F1F48091B7038C34D1F4E5
:104420008091BA038335B1F48091BC03813419F4CF
:104430001092AE030FC0823421F481E08093AE036A
:1044400009C0833419F43092AE0304C0843411F4EB
:10445000F092AE038091B5038F3409F047C180918B
:10446000B603843509F081C08091B703803509F027
:104470007CC08091BA03833501F58091BC038983A8
:104480008091BD038A838091BE038B838091BF039B
:104490008C838091C0038D831E82C6010E94D02828
:1044A000092E000CAA0BBB0B8093A2039093A303CD
:1044B000A093A403B093A50358C062E873E085E31A
:1044C00094E00E94D5188091A2039091A303A0913B
:1044D000A403B091A50380319742A105B10520F452
:1044E00086E692E00E948E158091A2039091A3032C
:1044F000A091A403B091A503883E9340A105B10506
:1045000020F486E692E00E948E158091A20390919D
:10451000A303A091A403B091A50384369105A1053E
:10452000B10520F486E692E00E948E158091A203E8
:104530009091A303A091A403B091A5030A97A105AC
:10454000B10520F486E692E00E948E156091A203E8
:104550007091A3038091A4039091A5034AE00E9467
:10456000041585E394E00E940E198091B60383350B
:10457000B9F58091B7038D3499F58091BA038335ED
:1045800089F48091BC03833529F4B0928203A09210
:10459000810326C0873509F0B4C3109282031092BC
:1045A00081031EC06BE773E085E394E00E94D51899
:1045B00080918103909182038130910559F082307E
:1045C000910529F0892B61F460E772E005C06EE681
:1045D00072E002C062E772E085E394E00E94121983
:1045E0008091B603823409F050C08091B7038434BF
:1045F00009F04BC08091BA038335B1F48091BC03BC
:1046000089838091BD038A831B821C82C6010E941C
:10461000D028FC01E75AFC4F91E08091BF0385341C
:1046200009F090E091AF31C0412C512C320164E788
:1046300073E085E394E00E94D5189AE0491651048E
:104640006104710420F486E692E00E948E15C30195
:10465000B2010E944715F201E75AFC4F81AD882351
:1046600019F06CE772E002C06FE772E085E394E056
:104670000E941219EFEF4E1A5E0A6E0A7E0AF0E1EE
:104680004F1651046104710491F68091B6038C3485
:1046900069F58091B703833449F58091BA03833576
:1046A00081F48091BC03873429F4B0928B03A092EB
:1046B0008A031CC08D34D1F410928B0310928A03AC
:1046C00015C06DE673E085E394E00E94D5188091F3
:1046D0008A0390918B03019719F462E872E002C09B
:1046E00064E872E085E394E00E9412198091B503BA
:1046F000843409F01CC18091B603833479F580912C
:10470000B703833559F58091BA038335D9F4809185
:10471000BC03809383038091BD03809384038091C5
:10472000BE03809385038091BF03809386038091AD
:10473000C003809387038091C10380938803109204
:1047400089030CC066E673E085E394E00E94D51807
:1047500063E873E085E394E00E9412198091B60348
:104760008C3439F58091B703843319F58091BA03FD
:10477000833599F48091BC0380938C038091BD03B1
:1047800080938D038091BE0380938E038091BF033D
:1047900080938F03109290030CC06FE573E085E364
:1047A00094E00E94D5186CE873E085E394E00E94E1
:1047B00012198091B6038E3409F58091B7038D34B8
:1047C000E9F48091BA03833569F4ACEBB3E0E9E531
:1047D000F3E08D91819323E0E038F207D1F7109256
:1047E00080030CC068E573E085E394E00E94D5186F
:1047F00069E573E085E394E00E9412198091B603A5
:10480000803541F58091B703843421F58091BA0356
:10481000833571F48091BC0389838091BD038A83C1
:104820001B821C82C6010E94D0288093910312C073
:1048300061E573E085E394E00E94D51880919103CF
:104840008A3020F486E692E00E948E1580919103D2
:104850000E9437168091B603873409F068C08091B2
:10486000B703863409F063C08091BA038335C1F57C
:10487000ACEBB3E0F6018D918193A8968EAD9FAD20
:10488000A897E817F907B9F71D86BE016F5F7F4F3C
:10489000CE018F5B9F4F0E94C018CE018F5B9F4F50
:1048A0000E9453102093A6033093A7034093A803BC
:1048B0005093A9036093AA037093AB038093AC0356
:1048C0009093AD03CE018F5B9F4F0E94BB188091E8
:1048D000570390915803019751F50E94221027C069
:1048E0006AE473E085E394E00E94D5180091A60382
:1048F0001091A7032091A8033091A9034091AA0326
:104900005091AB036091AC037091AD03EE24E3943E
:10491000CE018F5B9F4F0E946007CE018F5B9F4F40
:104920000E947915CE018F5B9F4F0E94BB1880912A
:10493000B503863409F0A5C18091B6038035E9F44A
:104940008091B7038E34C9F48091BA038734A9F4F7
:1049500063E473E085E394E00E94D51886E692E074
:104960000E948E154AE069EF73E080E090E00E94BB
:10497000041585E394E00E940E198091B6038834F3
:1049800091F58091B703863571F58091BA0383352F
:1049900081F48091BC0389838091BD038A838091D7
:1049A000BE038B831C82C6010E94D02880934D03D6
:1049B0001AC06CE373E085E394E00E94D5188091FF
:1049C0004D03843620F486E692E00E948E15809195
:1049D0004D038A3020F486E692E00E948E15809185
:1049E0004D030E9437168091B603883491F580916B
:1049F000B703823571F58091BA03833581F48091D4
:104A0000BC0389838091BD038A838091BE038B831D
:104A10001C82C6010E94D02880934E031AC065E311
:104A200073E085E394E00E94D51880914E038436AC
:104A300020F486E692E00E948E1580914E038A3023
:104A400020F486E692E00E948E1580914E030E942B
:104A500037168091B603833589F48091B703863584
:104A600069F48091BA03873449F46EE273E085E318
:104A700094E00E94D51880E00E9437168091B6031A
:104A8000833589F48091B703823569F48091BA0344
:104A9000873449F467E273E085E394E00E94D51817
:104AA0008BE40E9437168091B6038C3409F081C0E4
:104AB0008091B703803509F07CC08091BA038335BB
:104AC00081F58091BE0389838091BF038A831B8215
:104AD0008091BC038234B9F054F4813409F069C088
:104AE000CE0101960E94D0288093530362C0833484
:104AF00089F0843409F05DC0CE0101960E94D0286F
:104B00008093560356C0CE0101960E94D028809310
:104B100054034FC0CE0101960E94D02880935503C4
:104B200048C06EE173E085E394E00E94D51880915F
:104B300053038A3020F486E692E00E948E1580911D
:104B400053030E94371665E173E085E394E00E9409
:104B5000D518809154038A3020F486E692E00E94B2
:104B60008E15809154030E9437166CE073E085E344
:104B700094E00E94D518809155038A3020F486E68F
:104B800092E00E948E15809155030E94371663E0D3
:104B900073E085E394E00E94D518809156038A3033
:104BA00020F486E692E00E948E15809156030E94C2
:104BB00037168091B603823509F04EC08091B70355
:104BC000863409F049C08091BA03833501F5ACEB16
:104BD000B3E0FE0131968D918193E815F905D9F77F
:104BE0001A86BE016F5F7F4FCE018F5B9F4F0E9481
:104BF000C018CE018F5B9F4F0E94531020934F032C
:104C000030935003409351035093520320C06CEFF4
:104C100072E085E394E00E94D51840914F035091D3
:104C200050036091510370915203EE24E3948A0182
:104C30009B0140E050E060E070E0CE018F5B9F4F51
:104C40000E946007CE018F5B9F4F0E947915CE01B5
:104C50008F5B9F4F0E94BB188091B603833589F408
:104C60008091B703853469F48091BA03833549F4A0
:104C700081E00E94BA0663EE72E085E394E00E9450
:104C800024191092E60366CBE091E603E13308F0C5
:104C900061CB91E09E0F9093E603F0E0EC54FC4F63
:104CA000808358CBCE01895B9F4F0E944A16FE013C
:104CB000E95BFF4FA0E0B5E0812F01900D928A954E
:104CC000E1F783E00E94AD0884E00E94AD08809186
:104CD000B0039091B10383709927892B29F40E9426
:104CE000A41B8AE00E94AD0868EC70E080E090E0D0
:104CF0000E94FC090E94D7128111D4CF0E946B1729
:104D00001ACB8E3409F0C1CC82E090E090938203FC
:104D10008093810365CC85E592E09093D3048093E2
:104D2000D20482ED94E00C94841BEF92FF920F93D7
:104D30001F93CF93DF93109238041092370488EEBC
:104D400093E0A0E0B0E08093390490933A04A093FC
:104D50003B04B0933C0483E492E090933604809348
:104D6000350485EC90E0909342048093410484ECF8
:104D700090E0909344048093430480EC90E09093FF
:104D800046048093450481EC90E09093480480931E
:104D9000470482EC90E090934A048093490486ECA7
:104DA00090E090934C0480934B0410924E04109228
:104DB0004F04109250041092510481E995E00E9432
:104DC000DC1086EB95E00E94DC101092200510921A
:104DD00021051092220510922305109224051092AD
:104DE000250510922605109227051092280510928D
:104DF000290510922A0510922B0581E995E00E9461
:104E0000DC10109290051092B50580E095E00E94AC
:104E1000DC1064E170E081E090E00E94142DEC0170
:104E2000892B09F4EAC086E090E0998388838FE3B8
:104E300090E09B838A831B8A1A8A80E490E00E9418
:104E4000302D8C019D838C83892B09F441C080E433
:104E500090E00E94302D9F838E83009711F4C8014B
:104E600035C02FE3FC012083F80117AE01E010E00C
:104E700080E090E02A813B8182179307B4F4EE81B1
:104E8000FF81E00FF11F8083EC81FD81E80FF91FA6
:104E90000083000F111F06FF02C0F3E40F272A81D1
:104EA0003B81022313230196E5CF0130110541F424
:104EB00084E390E00E94302D99878887009771F4F1
:104EC0008C819D810E94C52D8E819F810E94C52D60
:104ED000CE010E94C52DC0E0D0E08FC023E030E0BD
:104EE0003D872C871F870E8723E330E03B872A8787
:104EF000198B088B21E0FC01208323E030E041E0A6
:104F0000E885F985E20FF31F32974083B9016450B9
:104F10007109E885F9856F3F8FEF780799F1DB011B
:104F20001196AE0FBF1F8C91E60FF71F882329F152
:104F300050810C811D81EE81FF81E80FF11D808180
:104F4000F901E80FF11DCF01EA81FB818E179F0760
:104F500074F08E1B9F0B7C01088002C0F594E794CF
:104F60000A94E2F78E239F238E0D9F1DEFCFF80149
:104F7000E80FF91F8081852701C080818C936150E3
:104F80007109C7CF0C811D818081AE81BF81A80FBF
:104F9000B11D8C91B901680F711DCB016A817B81B4
:104FA0008617970774F0861B970BDC01088002C0F8
:104FB000B595A7950A94E2F7862397238A0F9B1F3E
:104FC000EFCFD801A80FB91F8C9180832F5F3F4F7F
:104FD0002633310509F094CF80E090E0E885F9852B
:104FE000E80FF91F2081AE81BF81A20FB11D2C9166
:104FF000208301968433910589F7D093F204C093FE
:10500000F1041092D5041092D40488EE93E0A0E04D
:10501000B0E08093D6049093D704A093D804B093C3
:10502000D90485E592E09093D3048093D204109242
:10503000E9041092E8041092EB041092EA04109232
:10504000ED041092EC041092EF041092EE046091C3
:10505000F0046E7F6D7F6093F0046695617081E06F
:10506000682783E00E948E1961E083E00E94DA19CC
:10507000E3E2F4E0E491E093E204EFE0F4E0E491B1
:10508000F0E0EE0FFF1FE850FC4F85919491909354
:10509000E4048093E30460E082E00E94DA198091E6
:1050A000F00481FD04C061E082E00E948E1982E07C
:1050B0008093DE04E2E2F4E0E491E093DF04EEE0CA
:1050C000F4E0E491F0E0EE0FFF1FEE5FFB4F8591FF
:1050D00094919093E1048093E004DF91CF911F912C
:1050E0000F91FF90EF9008958F929F92AF92BF9291
:1050F000CF92DF92EF92FF92CF93DF93EC01688122
:1051000079818A819B81611571058105910521F461
:1051100064E279ED8BE597E02DE133EF41E050E07B
:105120000E94452A49015A019B01AC01A7EAB1E45A
:105130000E94642A6B017C01ACEEB4EFA5019401DE
:105140000E94722ADC01CB018C0D9D1DAE1DBF1D7E
:10515000B7FF03C00197A109B04888839983AA8348
:10516000BB83BC01CD019F77DF91CF91FF90EF9082
:10517000DF90CF90BF90AF909F908F9008950E9446
:105180007428089580E091E00E9474280895609347
:10519000000170930101809302019093030108952F
:1051A000FC0188279927E89421912032E9F32930DE
:1051B00010F02E30C8F32B3241F02D3239F46894C0
:1051C00004C00E94F728820F911D219120532A309C
:1051D000C0F31EF4909581959F4F089591110C9402
:1051E000FF28803219F089508550C8F708957AE079
:1051F000979F902D879F802D910D112408959927B9
:1052000088270895E89409C097FB3EF4909580950F
:10521000709561957F4F8F4F9F4F9923A9F0F92F7C
:1052200096E9BB279395F695879577956795B795FA
:10523000F111F8CFFAF4BB0F11F460FF1BC06F5FE0
:105240007F4F8F4F9F4F16C0882311F096E911C0F2
:10525000772321F09EE8872F762F05C0662371F013
:1052600096E8862F70E060E02AF09A95660F771F27
:10527000881FDAF7880F9695879597F908950E9409
:1052800052290C94C3290E94B52938F00E94BC29E8
:1052900020F0952311F00C94AC290C94B229112420
:1052A0000C94F7290E94D42970F3959FC1F3950FB0
:1052B00050E0551F629FF001729FBB27F00DB11D9A
:1052C000639FAA27F00DB11DAA1F649F6627B00D2A
:1052D000A11D661F829F2227B00DA11D621F739F13
:1052E000B00DA11D621F839FA00D611D221F749F21
:1052F0003327A00D611D231F849F600D211D822F68
:10530000762F6A2F11249F5750409AF0F1F088238E
:105310004AF0EE0FFF1FBB1F661F771F881F9150BB
:105320005040A9F79E3F510580F00C94AC290C9495
:10533000F7295F3FE4F3983ED4F386957795679518
:10534000B795F795E7959F5FC1F7FE2B880F911DE5
:105350009695879597F9089597F99F6780E870E08B
:1053600060E008959FEF80EC089500240A941616DB
:10537000170618060906089500240A941216130643
:10538000140605060895092E0394000C11F48823D1
:1053900052F0BB0F40F4BF2B11F460FF04C06F5FED
:1053A0007F4F8F4F9F4F089557FD9058440F551FC3
:1053B00059F05F3F71F04795880F97FB991F61F097
:1053C0009F3F79F087950895121613061406551F0E
:1053D000F2CF4695F1DF08C0161617061806991F7A
:1053E000F1CF86957105610508940895E894BB276F
:1053F00066277727CB0197F90895F999FECF92BDDB
:1054000081BDF89A992780B50895262FF999FECF86
:105410001FBA92BD81BD20BD0FB6F894FA9AF99AD1
:105420000FBE01960895DB018F939F930E94642A1B
:10543000BF91AF91A29F800D911DA39F900DB29F30
:10544000900D11240895A1E21A2EAA1BBB1BFD0189
:105450000DC0AA1FBB1FEE1FFF1FA217B307E40753
:10546000F50720F0A21BB30BE40BF50B661F771FAB
:10547000881F991F1A9469F760957095809590958B
:105480009B01AC01BD01CF010895052E97FB1EF4D1
:1054900000940E945C2A57FD07D00E94232A07FC33
:1054A00003D04EF40C945C2A50954095309521958C
:1054B0003F4F4F4F5F4F0895909580957095619540
:1054C0007F4F8F4F9F4F08950E94AE2AA59F900D4A
:1054D000B49F900DA49F800D911D11240895B7FFD6
:1054E0000C94642A0E94642A821B930B08952F92C5
:1054F0003F924F925F926F927F928F929F92AF9264
:10550000BF92CF92DF92EF92FF920F931F93CF93B0
:10551000DF93CDB7DEB7CA1BDB0B0FB6F894DEBF47
:105520000FBECDBF09942A88398848885F846E846D
:105530007D848C849B84AA84B984C884DF80EE80B7
:10554000FD800C811B81AA81B981CE0FD11D0FB6C0
:10555000F894DEBF0FBECDBFED010895A29FB0014C
:10556000B39FC001A39F700D811D1124911DB29F97
:10557000700D811D1124911D08955058BB27AA2735
:105580000E94D52A0C94C3290E94B52938F00E94A4
:10559000BC2920F039F49F3F19F426F40C94B22969
:1055A0000EF4E095E7FB0C94AC29E92F0E94D42976
:1055B00058F3BA17620773078407950720F079F448
:1055C000A6F50C94F6290EF4E0950B2EBA2FA02D1B
:1055D0000B01B90190010C01CA01A0011124FF27A0
:1055E000591B99F0593F50F4503E68F11A16F0409B
:1055F000A22F232F342F4427585FF3CF469537959A
:105600002795A795F0405395C9F77EF41F16BA0B5E
:10561000620B730B840BBAF09150A1F0FF0FBB1F0C
:10562000661F771F881FC2F70EC0BA0F621F731F55
:10563000841F48F4879577956795B795F7959E3FB2
:1056400008F0B0CF9395880F08F09927EE0F979543
:10565000879508950E943E2B0C94C3290E94BC2973
:1056600058F00E94B52940F029F45F3F29F00C94CE
:10567000AC2951110C94F7290C94B2290E94D42919
:1056800068F39923B1F3552391F3951B550BBB2771
:10569000AA2762177307840738F09F5F5F4F220FB6
:1056A000331F441FAA1FA9F335D00E2E3AF0E0E8AD
:1056B00032D091505040E695001CCAF72BD0FE2FF7
:1056C00029D0660F771F881FBB1F2617370748078B
:1056D000AB07B0E809F0BB0B802DBF01FF27935843
:1056E0005F4F3AF09E3F510578F00C94AC290C9432
:1056F000F7295F3FE4F3983ED4F386957795679555
:10570000B795F7959F5FC9F7880F911D9695879577
:1057100097F90895E1E0660F771F881FBB1F621796
:1057200073078407BA0720F0621B730B840BBA0B54
:10573000EE1F88F7E09508950E94A32B6894B1119D
:105740000C94F72908950E94DC2988F09F5798F05F
:10575000B92F9927B751B0F0E1F0660F771F881F76
:10576000991F1AF0BA95C9F714C0B13091F00E9490
:10577000F629B1E008950C94F629672F782F882731
:10578000B85F39F0B93FCCF3869577956795B395B7
:10579000D9F73EF490958095709561957F4F8F4F26
:1057A0009F4F089597FB072E16F4009407D077FDBE
:1057B00009D00E94002D07FC05D03EF490958195FC
:1057C0009F4F0895709561957F4F0895EE0FFF1FCD
:1057D0000590F491E02D0994DF93CF931F930F93DD
:1057E0009A9DF02D219FF00D8B9DF00D8A9DE02D4F
:1057F000F10D039FF00D029FE00DF11D4E9DE00D98
:10580000F11D5E9DF00D4F9DF00D7F936F93BF9244
:10581000AF925F934F93D5010E94AE2A8B01AC01EA
:10582000D7010E94AE2AEB01E80FF91FD6010E94B2
:105830003C2C2F913F91D6010E94AE2AC60FD71F54
:10584000E81FF91FAF91BF910E943C2C2F913F910F
:105850000E94AE2AC60FD71FE81FF91FD6010E946B
:10586000AE2AE60FF71F9801BE01CF0111240F9158
:105870001F91CF91DF9108950E94AE2A460F571FC6
:10588000C81FD91F08F43196089597FB57FF0C9451
:10589000552C9F938F930E94552C6E1B7F0BAF91BD
:1058A000BF918A0B9B0B0895E894DF93CF93FC0183
:1058B000DB010E94AE2A7F936F93E9019A01AC014C
:1058C000BF93AF933F932F93DF010E94AE2A26F43C
:1058D0006C1B7D0B820B930B9E01EB01FC010E9464
:1058E0003C2CAF91BF912F913F910E943C2CBE0167
:1058F000CF01F9012F913F91CF91DF9108956894E5
:1059000001C0E8948F929F92CF93DF930E948D2CD9
:10591000DF91CF919F908F90089588249924F4016E
:10592000E401B0E49F93AA279A158B049C04ED052B
:10593000FE05CF05D007A10798F4AD2FDC2FCF2FA0
:10594000FE2FE92D982C892E982F872F762F652FE3
:10595000542F432F322F2227B85031F7BF9127C041
:105960001B2EBF91BB27220F331F441F551F661FDD
:10597000771F881F991F881C991CEE1FFF1FCC1FC3
:10598000DD1FAA1FBB1F8A149B04EC05FD05CE0575
:10599000DF05A007B10748F08A189B08EC09FD094C
:1059A000CE09DF09A00BB10B21601A94E1F62EF4A9
:1059B0009401AF01BE01CD01000C08950F93083092
:1059C00090F0982F872F762F652F542F432F322F4B
:1059D00022270850F4CF220F331F441F551F661F84
:1059E000771F881F991F0A95B2F70F9108952A0D06
:1059F0003B1D4C1D5D1D6E1D7F1D801F911F089559
:105A0000AA1BBB1B51E107C0AA1FBB1FA617B707E4
:105A100010F0A61BB70B881F991F5A95A9F7809500
:105A20009095BC01CD0108950F931F93CF93DF9301
:105A3000869F8001879F100D969F100D1124C8012D
:105A40000E94302DEC01009729F0A80160E070E081
:105A50000E945A2FCE01DF91CF911F910F9108958F
:105A6000CF93DF938230910510F482E090E0E091D3
:105A7000DA05F091DB0520E030E0C0E0D0E03097BF
:105A800011F14081518148175907C0F04817590753
:105A900061F482819381209719F09B838A832BC0C4
:105AA0009093DB058093DA0526C02115310519F0A6
:105AB0004217530718F49A01BE01DF01EF0102807B
:105AC000F381E02DDCCF2115310509F1281B390BBD
:105AD0002430310590F412968D919C9113976115A5
