:100000000C940D020C9435020C9435020C94BF1420
:100010000C94BF140C94BF140C944F150C9435021F
:100020000C9435020C9435020C9435020C94350274
:100030000C9435020C9435020C9435020C94350264
:100040000C9411140C9435020C9411130C94EB12B3
:100050000C9435020C9435020C9435020C94350244
:100060000C9435020C943502870292029D02A8027C
:10007000B302BE02C902D402DF02EA02F90204039B
:10008000480970097709D309D609D909FB09FE097E
:10009000300A010A06180A1807172A1721183F17ED
:1000A0004717B718531706183F170A1807172A17C4
:1000B00021184C1860187618D01DE01DE71DED1DA5
:1000C000F41DFA1D011E041E0F1E7B4D494E7D437B
:1000D000616E206E6F742073746172742057535078
:1000E0005220426561636F6E007B4D494E7D4361D6
:1000F0006C6C205369676E206E6F7420736574009A
:100100007B4D494E7D5472616E6D697373696F6E7C
:10011000206973206E6F7420656E65626C65642063
:100120006F6E20616E792062616E64007B4D50536A
:100130007D2030007B4D50537D20007B5446517D07
:1001400020007B4C50497D20007B4D56437D200094
:100150007B544F4E7D2046007B544F4E7D205400F3
:100160007B5446517D20007B474C437D2046007BDD
:10017000474C437D2054003A003A007B47544D7D64
:1001800020007B474C347D20007B544F4E7D205413
:10019000007B544F4E7D2046007B544F4E7D2046C1
:1001A000007B43434D7D20004265746120007B4D00
:1001B000494E7D204669726D776172652076657261
:1001C00073696F6E20007B4D494E7D205A616368D4
:1001D00054656B2057535052205069636F207472DE
:1001E000616E736D6974746572007B4D494E7D203C
:1001F0004E6F20757365722064617461207761733E
:1002000020666F756E642C2073657474696E672048
:1002100064656661756C742076616C756573007BCE
:100220004D494E7D20596F75206E65656420746F51
:100230002072756E20666163746F727920736574C5
:10024000757020746F20636F6D706C6574652063CA
:100250006F6E66696775726174696F6E2C20677561
:10026000657373696E67206F6E2063616C6962727B
:100270006174696F6E2076616C75657320666F724C
:10028000206E6F77007B4D494E7D204E6F2066615A
:1002900063746F7279206461746120666F756E6437
:1002A0002021007B4D494E7D20466163746F727939
:1002B0002064617461207361766564007B465246F8
:1002C0007D20007B464C507D204420007B464C50D6
:1002D0007D204320007B464C507D204220007B4601
:1002E0004C507D204120007B464C507D20412030E9
:1002F00035007B464C507D2041203039007B464CF8
:10030000507D2041203038007B4653527D20007BB9
:100310004653567D20007B4648527D20007B464850
:10032000567D20007B46504E7D20007B4447467D15
:1003300020007B4450447D20007B444E4D7D2000B6
:100340007B444C347D20007B4443537D20007B4F15
:100350004C437D20007B4F42447D20007B4F534D1A
:100360007D20007B4F54507D20007B4D494E7D20E9
:10037000436F6E66696775726174696F6E20736131
:10038000766564007B4753497D200000000000240F
:100390000027002A000000000800020100000304FA
:1003A0000700000000000000005A44410056544776
:1003B00000524D43004753560047535400475341A2
:1003C00000474C4C0047474100C503C103BD03B97A
:1003D00003B503B103AD03A9030000000025002805
:1003E000002B000000000023002600290004040464
:1003F00004040404040202020202020303030303CE
:1004000003010204081020408001020408102001AA
:100410000204081020007226682611241FBECFEFA8
:10042000D8E0DEBFCDBF12E0A0E0B1E0E4E0F4E64A
:1004300002C005900D92AC38B107D9F725E0ACE8C1
:10044000B2E001C01D92AB3DB207E1F712E0CCE093
:10045000D2E004C02197FE010E94C32BCB30D1070C
:10046000C9F70E943E1E0C94F5310C940000809355
:10047000BB0084E88093BC008091BC0087FFFCCF68
:100480008091B900887F0895E8E9F3E081E09191D7
:10049000911180E093E0E53AF907C9F7882389F0E4
:1004A00010923F03109240031092410310924203B6
:1004B0001092430310924403109245031092460396
:1004C000089580915C038F5F8D3008F080E0E82F05
:1004D000F0E0E15AFC4F91AD9923A9F380935C03BE
:1004E000482F50E0FA013197EC30F10520F4EC5C34
:1004F000FF4F0C94C32B90EF90933F039EEC90938F
:10050000400391ED90934103109242036FC090E538
:1005100090933F039CED9093400395ED909341039E
:1005200092E062C090ED90933F0397EB909340036D
:1005300094EF909341039AE057C090E590933F0366
:100540009AE89093400397E49093410395E14CC05F
:1005500090E190933F0397E59093400396EF90933B
:10056000410399E241C090EA90933F0397EB909347
:10057000400390E7909341039CE336C090EB909347
:100580003F0397E79093400396E09093410394E5EF
:100590002BC090E590933F0397EB909340039BEE25
:1005A000909341039BE620C090E190933F0398E134
:1005B000909340039EEB909341039DE715C090ED0F
:1005C00090933F0395E39093400392E99093410306
:1005D00094E90AC090ED90933F0395E09093400317
:1005E00095EA9093410397EA909342031092430354
:1005F0001AC090E190933F0391E59093400397ECEC
:10060000909341039BE20AC090ED90933F039AEAD6
:100610009093400398EC9093410391EA90934203A6
:1006200091E090934303109244031092450310927B
:1006300046030C9494164F925F926F927F928F9222
:100640009F92AF92BF92CF92DF92EF92FF920F9361
:100650001F93CF93DF93CDB7DEB7CB55D1400FB605
:10066000F894DEBF0FBECDBF8BEAECE8F2E0DF010D
:100670001D928A95E9F7F09097038E01005B1E4F5B
:1006800069E873E0C8010E943E2F5E01B9EAAB1A27
:10069000BEEFBB0A62E973E0C5010E943E2FF8017C
:1006A000818180538A3070F4828180538A3050F087
:1006B00045E050E0B801C80101960E94252F80E274
:1006C000D8018C93F801828180538A3010F080E346
:1006D0008283680180E2882E96E0992E900ED601E2
:1006E0008C91082E000C990B0E94142FE82E082ED6
:1006F000000C990B9C01205331092A30310518F464
:10070000F601E08206C00E94092F892BC9F7D601A5
:100710008C92BFEFCB1ADB0A9C10E1CF86E0F80188
:10072000A2EFB4E001900D928A95E1F78501A5E072
:10073000DA2EB4E0EB2EEA0CF8018081082E000CD2
:10074000990B0E94142FD8018D938D01282F082E0C
:10075000000C330B205331092A30310558F08154F5
:10076000823140F0E3E6F2E0D5018D2D01900D924B
:100770008A95E1F7E012E0CFF50180819181A281B5
:10078000B3818093F9049093FA04A093FB04B0938F
:10079000FC048F2D8D3308F08CE393E1EAE0F1E067
:1007A0008E010F5F1F4FD80101900D929A95E1F7CE
:1007B000F090FE04F80193E1900F2191821301C0A3
:1007C000F82E9E13FACFFE0132969E012C5E3F4F0B
:1007D0009191891730F4DF0112979C91891708F0E5
:1007E000F92EE217F307A1F7F092FE048091F204CC
:1007F0000E94E51A282F30E0A4E2B0E00E948B2A84
:100800004B015C018091F3040E94E51AA50194015B
:10081000280F311D411D511DAAE0B0E00E94412A60
:100820004B015C018091F4040E94E51AA50194013A
:10083000280F311D411D511DABE1B0E00E94412A3E
:100840004B015C018091F5040E94E51A90E00A9743
:10085000092E000CAA0BBB0BA5019401280F391F10
:100860004A1F5B1FABE1B0E00E94412A4B015C01D3
:100870008091F6040E94E51A90E00A97092E000C78
:10088000AA0BBB0BA5019401280F391F4A1F5B1F40
:10089000ABE1B0E00E94412A4B015C018091F7047A
:1008A0000E94E51A282F30E0C9010A97092E000C92
:1008B000AA0BBB0B880D991DAA1DBB1D4091F90405
:1008C00021E430E0241B310947FD3395EAE0E29F43
:1008D000B001E39F700D11249B012D543F4F4091B7
:1008E000FB0460E370E0641B710947FD7395620FC0
:1008F000731F44EB469F9001479F300D1124609178
:10090000FA04062E000C770B61547109E69FA001D2
:10091000E79F500D1124420F531FE091FC040E2E4F
:10092000000CFF0BF0979A012E0F3F1F4F2D50E048
:1009300060E070E06A017B01F0E4CF0ED11CE11CA5
:10094000F11CA901330F660B770B27E0440F551FED
:10095000661F771F2A95D1F74C0D5D1D6E1D7F1DFB
:100960006C017D0134E0F694E794D794C7943A95EE
:10097000D1F7C95BDE4FC882C754D140CA5BDE4F96
:10098000D882C654D140CB5BDE4FE882C554D140FB
:10099000242F2295220F220F207CC55BDE4F288357
:1009A000CB54D140E2E07695679557954795EA9507
:1009B000D1F7C65BDE4F4883CA54D140C75BDE4FD8
:1009C0005883C954D1408295807F962F9F70892B80
:1009D000C85BDE4F8883C854D140C45BDE4F1882A9
:1009E000CC54D140C35BDE4F1882CD54D140C25BA2
:1009F000DE4F1882CE54D140C15BDE4F1882CF54F7
:100A0000D140AE014B5B5E4F2A01F12C80E090E0BB
:100A1000DC01FBE0EF2EE40EF20141912F01642E88
:100A2000712C20E030E04C015D01880C991CAA1C5F
:100A3000BB1CB301022E02C0660F771F0A94E2F7B7
:100A4000660F672F661F770B7195CB01A0E0B0E0B2
:100A500081709927AA27BB2788299929AA29BB2908
:100A60004C015D0151E5852253E5952250EDA5220B
:100A700052EFB52270E260E0E82DE1706E27B69487
:100A8000A794979487947150B9F753EAC52ED12C47
:100A9000CC0EDD1ECF0CD11CF6016083DD24D39477
:100AA000DF0C4C015D01F7E48F22FCE39F22F1E6AD
:100AB000AF22F4EEBF2270E260E0482D417064275F
:100AC000B694A794979487947150B9F7E3EAF0E04D
:100AD000EC0FFD1FED0DF11D6083F394F394F1EA2B
:100AE000FF1538F4E41098CF90E040E061E070E04A
:100AF00027C02F5F3F4F2830310509F094CFF2CF48
:100B000050FF07C0FB01022E01C0EE0F0A94EAF766
:100B10008E2B56952150310998F7823A60F4F801EE
:100B2000E80FF11DA3EAB0E0AC0FBD1FA40FB11D8B
:100B30008C9180834F5F423A40F49F5F9F3F29F042
:100B4000592F27E030E080E0DBCF82EAF801DE01B8
:100B5000AD55BF4F01900D928A95E1F782EAEDE124
:100B6000F1E0D80101900D928A95E1F7BE016D5533
:100B70007F4F2CE832E0F80142EA400F9191DB010F
:100B80008D91BD01880F890FD9018D939D014E1361
:100B9000F5CFC55ADE4F0FB6F894DEBF0FBECDBFFE
:100BA000DF91CF911F910F91FF90EF90DF90CF9049
:100BB000BF90AF909F908F907F906F905F904F907D
:100BC0000895EF92FF920F931F93CF93DF931F929D
:100BD000CDB7DEB77C01FC0100811181C8016983BA
:100BE0000E94DA296981681719F0C8010E94E22978
:100BF000C7010F90DF91CF911F910F91FF90EF9060
:100C000008954F925F926F927F928F929F92AF92D0
:100C1000BF92EF92FF920F931F93CF93DF93CDB7C5
:100C2000DEB7C054D1090FB6F894DEBF0FBECDBFFA
:100C300090E4EFEBF1E0DE01119601900D929A95B0
:100C4000E1F7811104C005E510E090E004C00AE07E
:100C500010E090E981E0E92EF82E44244A94542CC7
:100C600032010E0D1F1DE016F1060CF05CC0C7012D
:100C70000E94DA29A30192012827DA01C9018F70A5
:100C80009927AA27BB27880F991F880F991FE1E092
:100C9000F0E0EC0FFD1FE80FF91F80809180A2802B
:100CA000B38034E076946794579447943A95D1F79B
:100CB00084249524A624B724C7010E94DA29482F4A
:100CC00050E064E0559547956A95E1F7052E000CD4
:100CD000660B770B482559256A257B254F705527CC
:100CE00066277727440F551F440F551FE1E0F0E0BA
:100CF000EC0FFD1FE40FF51F408051806280738070
:100D0000E4E0B694A79497948794EA95D1F74824A1
:100D100059246A247B2440945094609470943FEF4B
:100D2000E31AF30AA0CFC301B201C05CDF4F0FB6D4
:100D3000F894DEBF0FBECDBFDF91CF911F910F9111
:100D4000FF90EF90BF90AF909F908F907F906F90AB
:100D50005F904F900895CF92DF92EF92FF920F93A2
:100D60001F93CF93DF9300D000D000D0CDB7DEB774
:100D7000D82E8823E1F021E5E22E23E0F22E00E9CF
:100D800011E0F70161917F011A830983CE01019679
:100D90000E94E1050F5F1F4F0A39F1E01F0789F735
:100DA0000AE010E090E9E92EFF24F39418C08FE5E3
:100DB000E82E83E0F82E00E010E0F70161917F015A
:100DC0001A830983CE0101960E94E1050F5F1F4F30
:100DD0000535110591F705E510E0E12CF12C8D2D7D
:100DE0000E94010669837A838B839C83E00EF11E47
:100DF0006E01F5E0CF0ED11C8E010F5F1F4FE01A80
:100E0000F10AC701800F911FF80161918F019E8344
:100E10008D83C6010E94E1050C151D0591F72696EC
:100E20000FB6F894DEBF0FBECDBFDF91CF911F91FB
:100E30000F91FF90EF90DF90CF900895CF93DF93C5
:100E400094EA9093BC009091BC0097FFFCCF9091E6
:100E5000B900987F9830D9F4C62FD82F80EC0E9423
:100E600037028831B1F48D2F0E943702883299F40D
:100E70008C2F0E943702883281F484E98093BC0071
:100E80009091BC00892F807194FDFACF07C081E05A
:100E900005C082E003C083E001C084E0DF91CF9110
:100EA00008954F925F926F927F928F929F92AF922E
:100EB000BF92CF92DF92EF92FF920F931F93CF9347
:100EC000DF9300D000D0CDB7DEB74B015C01CA0183
:100ED000B90120E030E044E353E40E949B2A2B0157
:100EE0003C0120E030E040EA51E40E94072B0E94E0
:100EF000792B6B017C0120E030E044EB52E4C5012A
:100F0000B4010E949B2A4B015C0120E030E040E2EA
:100F100051E40E94072B0E94792B69837A838B838B
:100F20009C830FE513E081E48C0DF80183AB89818C
:100F30008F5B84ABB601DD0C880B990B0E94E12816
:100F400020E030E040EA51E40E941C299B01AC0102
:100F5000C301B2010E949A2A20E030E040E05FE342
:100F60000E941C290E94792B605DF80165AB2981E4
:100F70003A81B901330F880B990B0E94E12820E0D8
:100F800030E040E251E40E941C299B01AC01C50104
:100F9000B4010E949A2A0E94792B605DF80166AB29
:100FA00017AA0F900F900F900F90DF91CF911F9184
:100FB0000F91FF90EF90DF90CF90BF90AF909F90F8
:100FC0008F907F906F905F904F9008952F923F92F7
:100FD0004F925F926F927F928F929F92AF92BF9249
:100FE000CF92DF92EF92FF920F931F93CF93DF93F5
:100FF000CDB7DEB7A0970FB6F894DEBF0FBECDBF5A
:101000004C01180129014C8F5D8F6E8F7F8FE8A2F4
:101010006AE872E00E94D61290E4A92E22E4B22E71
:101020003FE0C32ED12CE12CF12C00E010E0910127
:10103000A2016C8D7D8D8E8D9F8D0E945E2C9F9365
:101040008F937F936F935F934F933F932F93A8E674
:10105000B2E0BF93AF933E01F5E16F0E711C7F923A
:101060006F920E94542F9101A2016C8D7D8D8E8D07
:101070009F8D0E945C2C9F938F937F936F935F93C0
:101080004F933F932F93A8E6B2E0BF93AF932E0107
:10109000FEE04F0E511C5F924F920E94542FF301BD
:1010A00001900020E9F73197AF0146195709B301C4
:1010B000C4010E9499121A8219821C821B821E820C
:1010C0001D82B4018E010F5F1F4FC8010E94BA122A
:1010D000F20101900020E9F73197E419F5096D80DC
:1010E0007E800FB6F894DEBF0FBECDBF3097A1F063
:1010F0006E0E7F1EB301C8010E946012882309F49E
:1011000094C029813A818D819E81B201820F931F03
:101110000E943E2F7E826D82B801C4010E94BA12E5
:10112000C8010E94D11298A1911183C0D4011496D4
:101130006D907C9015976114710431F41982F80157
:1011400090E28CE0800F16C0BCE06B16710418F0C2
:101150008CE0682E712CF40160817181A301C801BB
:101160000E94452FF801E60DF71D1082E8CF9193FC
:101170008E1719F020812033D1F3F801019000205F
:10118000E9F73197AF01401B510BB801C4010E9430
:101190009912D4014D905C904114510409F449C056
:1011A000F401648075806114710409F442C0820105
:1011B00018010F5F1F4FD1018C91082E000C990B65
:1011C0000E94CB28892BA1F7B1E06B1A7108640C3F
:1011D000751CD3018C91082E000C990B0E94CB2812
:1011E000892B81F4A3014F5F5F4F42195309F4012A
:1011F000558344834214530460F4B101C2010E9438
:101200001C2F07C06214730468F3E1E06E1A7108C2
:10121000E0CFD401ED91FC91119714968D919C91A2
:101220001597E80FF91F108204C0C8010E948712A9
:1012300073CFC401A0960FB6F894DEBF0FBECDBF2A
:10124000DF91CF911F910F91FF90EF90DF90CF90A2
:10125000BF90AF909F908F907F906F905F904F90D6
:101260003F902F900895EF920F931F93CF93DF93AA
:1012700000D000D000D0CDB7DEB790E0FC013197B0
:10128000EA30F10508F010C1E05CFF4F0C94C32B6D
:1012900081EA91E00E940C1B80915D0390915E03B6
:1012A00081309105A1F08230910551F0892B09F030
:1012B000FBC080E792E00E94001B81E991E00DC035
:1012C0008EE692E00E94001B89E991E006C082E769
:1012D00092E00E94001B89E891E00E94A01BE4C0FC
:1012E00082E891E00E940C1B82E993E0DBC08091D0
:1012F000160590E090934A03809349038091150569
:1013000090E090934803809347038091140590E008
:101310009093B5038093B4038BE791E00E940C1B7C
:101320008091490390914A030A9724F486E692E05B
:101330000E94BF1B6091490370914A03072E000C65
:10134000880B990B0E946E1B89E791E00E940C1B91
:1013500080914703909148030A9724F486E692E02F
:101360000E94BF1B6091470370914803072E000C39
:10137000880B990B0E946E1B87E791E00E940C1B63
:101380008091B4039091B5030A9724F486E692E025
:101390000E94BF1B6091B4037091B503072E000C2F
:1013A000880B990B58C08FE691E097CF87E691E0C4
:1013B00094CF80E691E00E940C1B00913F031091B6
:1013C00040032091410330914203409143035091E7
:1013D00044036091450370914603E12CCE010196D0
:1013E0000E94E607CE0101960E94AC1BCE01019639
:1013F0000E94D11259C088E591E06FCF80E591E05D
:101400006CCF89E491E00E940C1B8EE480937C00F9
:1014100062E070E080E090E00E94CB1380917A005F
:10142000806480937A0080917A0086FDFCCF2091C1
:1014300078008091790030E0382B032E000C440BAB
:10144000550B64EB7BE281E190E00E94222AB90116
:10145000330F880B990B0E946E1B0E94FC1A24C04C
:1014600082E491E00E940C1B80915B03811104C017
:1014700084E792E00E94001B80915B03813021F49D
:1014800086E792E00E94001B80915B03823021F48A
:1014900088E792E00E94001B80915B03833021F477
:1014A00080E892E00E94001B26960FB6F894DEBFFB
:1014B0000FBECDBFDF91CF911F910F91EF90089597
:1014C0003F924F925F926F927F928F929F92AF92D4
:1014D000BF92CF92DF92EF92FF920F931F93CF9321
:1014E000DF93CDB7DEB7A3970FB6F894DEBF0FBE7C
:1014F000CDBF4B015C010E9405146B017C01C80C3F
:10150000D91CEA1CFB1C88EE482E83E0582E612C67
:10151000712C9FE1392E0E94CF18882371F0CE01E3
:1015200001960E94DD1BFE013196AFEFB4E0832DE2
:1015300001900D928A95E1F7EECF0E940514970174
:101540008601061B170B280B390BB901A801493E70
:1015500013E0510761057105E4F084E391E048A3CD
:1015600059A36AA37BA30E940C1B48A159A16AA19D
:101570007BA1CB01BA01A30192010E94222ACA01D8
:10158000B9010E946E1B0E94FC1A83E00E9433097D
:1015900005C014161506160617063CF484E394E0FD
:1015A0000E94E110892B09F4B6CF29EE821623E0C0
:1015B0009206A104B104D8F08CE291E0A3960FB694
:1015C000F894DEBF0FBECDBFDF91CF911F910F9179
:1015D000FF90EF90DF90CF90BF90AF909F908F9053
:1015E0007F906F905F904F903F900C94A01BA396BC
:1015F0000FB6F894DEBF0FBECDBFDF91CF911F9124
:101600000F91FF90EF90DF90CF90BF90AF909F90A1
:101610008F907F906F905F904F903F9008950F93C1
:101620001F93CF93DF938C01C0E0D0E0C017D107A8
:10163000C4F461E080914F030E94431362E370E0C1
:1016400080E090E00E94600A60E080914F030E9479
:10165000431362E370E080E090E00E94600A21960C
:10166000E5CFDF91CF911F910F9108950E940A1647
:101670000E94F41582E090E090935E0380935D03F6
:1016800060E080914F030E9443130E94C11B81E0E0
:101690000C9433092F923F924F925F926F927F92F8
:1016A0008F929F92AF92BF92CF92DF92EF92FF9272
:1016B0000F931F93CF93DF93CDB7DEB76F970FB61E
:1016C000F894DEBF0FBECDBF2B873C874D875E876A
:1016D0006F87788B898B9A8BE0905303F09054033B
:1016E0000091550310915603EB8EFC8E0D8F1E8FCB
:1016F000211501EE300705EF400705E050076105B1
:1017000071058105910509F008F464C059016A0169
:101710007B018C0120E034E04BE654EF64E170E0A3
:1017200080E090E00E945E2C2F83388749875A879B
:101730000E94C92B2B8B3C8B4D8B5E8B6F8B788FD4
:10174000898F9A8FA4E6B0E02B8D3C8D4D8D5E8DF8
:101750000E94412A1B012C015B016201E12CF12C4A
:1017600000E010E02B893C894D895E896F89788D76
:10177000898D9A8D0E945E2C2F8F2B893C894D89F3
:101780005E896F89788D898D9A8D0E945C2CB90154
:10179000CA010E94DF2820EF3FEF4FE759E40E9483
:1017A0001C294B015C016B8D7C8D8D8D9E8D0E9463
:1017B000DF289B01AC01C501B4010E94072B0E94E8
:1017C000802B24E630E040E050E00E94002A29010E
:1017D0003A0173C02B853C854D855E856F85788980
:1017E00089899A8907E00E94BB2C59016A017B0113
:1017F0008C0120E034E04BE654EF64E170E080E0DF
:1018000090E00E945E2C2F83388749875A8760E0DA
:1018100070E080E090E00E94C92B2B8B3C8B4D8BBD
:101820005E8B6F8B788F898F9A8FA4E6B0E02B8DBB
:101830003C8D4D8D5E8D0E94412A1B012C015B0168
:101840006201E12CF12C00E010E02B893C894D89EC
:101850005E896F89788D898D9A8D0E945E2C2F8F7D
:101860002B893C894D895E896F89788D898D9A8D08
:101870000E945C2CB901CA010E94DF2820EF3FEFD3
:101880004FE759E40E941C294B015C016B8D7C8D54
:101890008D8D9E8D0E94DF289B01AC01C501B40196
:1018A0000E94072B0E94802B24E630E040E050E0AD
:1018B0000E94002A29013A0110E7C301B2010E94E7
:1018C000DF2820EF3FEF4FE759E40E94072B20E08D
:1018D00030E040E053E40E941C290E94802B9B01D1
:1018E000AC018F8D882E912CA12CB12C87E0880C17
:1018F000991CAA1CBB1C8A95D1F7E2E09E1AA1088C
:10190000B108820E931EA41EB51E97E0440C551C10
:10191000661C771C9A95D1F76FEF7FEF8FE090E010
:101920000E94F029461A570A680A790A6FEF8AE17D
:101930000E941E076FEF8BE10E941E07D501C401B4
:1019400088279927A370BB27BD01882799278CE199
:101950000E941E07692D8DE10E941E07682D8EE1F1
:101960000E941E07D301C20188279927AF70BB27A9
:101970006A2F606F8FE10E941E07652D80E20E9432
:101980001E07642D81E20E941E078F809884A9841F
:10199000BA8437E0880C991CAA1CBB1C3A95D1F775
:1019A00002E0901AA108B10860E08AE20E941E07D6
:1019B00061E08BE20E941E07D501C40188279927A8
:1019C000A370BB27612F6A2B8CE20E941E07692D32
:1019D0008DE20E941E07682D8EE20E941E0760E0C5
:1019E0008FE20E941E0760E080E30E941E0760E015
:1019F00081E30E941E076FE480E10E941E071B85A1
:101A0000109337038C8580933803ED85E093390379
:101A1000EE84E0923A03FF84F0923B03088900933E
:101A20003C03198910933D038A8980933E0361E04A
:101A300088E00E9443138BE391E00E940C1BE12C91
:101A40000B851C852D853E854F85588969897A8946
:101A5000CE0101960E94E607CE0101960E94AC1BC2
:101A6000CE0101960E94D11287E00E9433096F9641
:101A70000FB6F894DEBF0FBECDBFDF91CF911F919F
:101A80000F91FF90EF90DF90CF90BF90AF909F901D
:101A90008F907F906F905F904F903F902F90089520
:101AA0002F923F924F925F926F927F928F929F926E
:101AB000AF92BF92CF92DF92EF92FF920F931F935C
:101AC000CF93DF93CDB7DEB76F970FB6F894DEBF35
:101AD0000FBECDBF0E940A160E94F41510925E033D
:101AE00010925D03E8E9F3E081E09191911180E0CB
:101AF00023E0E53AF207C9F7882331F080E091E06E
:101B00000E94A01B81E001C080E090918903913484
:101B1000C9F490918A039134A9F490918B03903386
:101B200089F490918C03913469F490918D039134F0
:101B300049F490918E03913429F489EE90E00E944B
:101B4000A01B02C0882329F08AEC90E00E94A01B11
:101B50007BC10E944402A0903F03B0904003C0901C
:101B60004103D0904203E0904303F090440300917E
:101B70004503109146030E949F2828EC30E040E086
:101B800050E00E94222A645671098109910924E6D5
:101B900030E040E050E00E94222C0E94D42C2093A0
:101BA0003F033093400340934103509342036093BB
:101BB00043037093440380934503909346030E942C
:101BC000C11B81E00E9433098CE892E022EA722E68
:101BD000780E54C180911D0583FF7CC182FF7AC1BC
:101BE0008091160590E090934A03809349031091E9
:101BF0001505812F90E090934803809347038091CF
:101C0000140590E09093B5038093B4038091900302
:101C100090919103019731F560910305709104054E
:101C200080910505909106050E94E12825E93FEB8A
:101C300046ED53E30E941C296B017C016091FF0477
:101C40007091000580910105909102050E94E128A4
:101C500025E93FEB46ED53E30E941C29A7019601BD
:101C60000E9451078091B4039091B503892B09F02C
:101C700017C110FD15C10E941B0361E08FE00E9497
:101C80008F1360E08FE00E94431361E080914F0367
:101C90000E9443130E9405141B012C01EBEA2E0E37
:101CA000E2E03E1E411C511C9CE8892E92E0992ED8
:101CB000F40141914F01F2E94F9FA0011124952FAA
:101CC000990F990B9A01492F592F692F792F892F35
:101CD000A0903F03B0904003C0904103D0904203D6
:101CE000E0904303F09044030091450310914603B4
:101CF0000E94D42C0E944A0B0E94051462157305A1
:101D00008405950508F4C4C005E010E061E0809109
:101D10004F030E9443136AE070E080E090E00E946D
:101D2000CB1360E080914F030E94431362E370E0A5
:101D300080E090E00E94CB130150110939F784E351
:101D400094E00E94E110892B09F0D5C02BEA220E05
:101D500022E0321E411C511C7810AACF00E010E096
:101D60000E94C11B60E080914F030E944313012B2E
:101D700009F0D3C080915C0390E08C30910509F4A8
:101D8000BDC021E00196FC01E15AFC4F31AD31119B
:101D900020E08C309105B4F32111B0C00E940A16E6
:101DA0000E944402A0903F03B0904003C0904103C2
:101DB000D0904203E0904303F09044030091450328
:101DC000109146030E949F2828EC30E040E050E04C
:101DD0000E94222A645671098109910924E630E0A3
:101DE00040E050E00E94222C0E94D42C20933F031C
:101DF0003093400340934103509342036093430365
:101E000070934403809345039093460368EB7BE013
:101E100080E090E00E94600A0E94CF18882371F150
:101E2000CE0101960E94DD1BFE013196AFEFB4E0BA
:101E3000862D01900D928A95E1F784E394E00E944B
:101E4000E110892B09F4C6CE6F960FB6F894DEBF69
:101E50000FBECDBFDF91CF911F910F91FF90EF90FB
:101E6000DF90CF90BF90AF909F908F907F906F90BA
:101E70005F904F903F902F900C94360B84E394E04A
:101E80000E94E110892B09F048C08FE1682EC4CF71
:101E900084E394E00E94E110892B09F42DCF34CF24
:101EA00083E00E9433098091B4039091B503C997F0
:101EB00044F484E00E94330982E00E9433090E94C6
:101EC000591582E090E00E940F0B68EC70E080E012
:101ED00090E0A0CF0E94591581E090E00E940F0B86
:101EE00085E00E94330983E00E94330960E971E0D4
:101EF00080E090E08FCF01E010E032CF2091A80386
:101F00003091A9034091AA035091AB03A8EEB3E02E
:101F10000E94412A0E94600A41CF6F960FB6F89442
:101F2000DEBF0FBECDBFDF91CF911F910F91FF900C
:101F3000EF90DF90CF90BF90AF909F908F907F9069
:101F40006F905F904F903F902F90089581E090E0C8
:101F500090935E0380935D030E9414160E94941672
:101F6000ECEAF3E020813181428153816481758103
:101F70008681978120933F03309340034093410330
:101F8000509342036093430370934403809345034B
:101F9000909346030E944A0B61E080914F030E9498
:101FA000431381E00E94330986E00C9433092F9299
:101FB0003F924F925F926F927F928F929F92AF92D9
:101FC000BF92CF92DF92EF92FF920F931F93CF9326
:101FD000DF9300D000D01F92CDB7DEB79B838A83FA
:101FE000FC0124803580A0E0B0E020E030E040E05B
:101FF00050E060E070E080E090E0A215B30509F4E5
:1020000044C0EA81FB81008111810115110531F085
:10201000F801EA0FFB1F10811D8301C01D82FD81A5
:10202000F053FA3090F501E00E94BB2CE22F432ED2
:10203000542E652E762E872E982E9C8302E00E94C9
:10204000BB2C59016A017B018C012E2F342D452DAB
:10205000562D672D782D892D9C810E94D42C5901F5
:102060006A017B018C018D81E82F880FFF0BF097AF
:102070009F2F990F990B9F01492F592F692F792F66
:10208000892F0E94D42C1196B8CF0F900F900F90EB
:102090000F900F90DF91CF911F910F91FF90EF90D4
:1020A000DF90CF90BF90AF909F908F907F906F9078
:1020B0005F904F903F902F900895FC0110820895FB
:1020C000FC011482158216821782108211821282FC
:1020D000138211861086138612861586148617863B
:1020E0001686118A108A138A128A148A168A178A07
:1020F000158A81E0818F828F138E87E0808F148E06
:10210000158ECF014E960C945D10CF92DF92EF9218
:10211000FF920F931F93CF93DF936C017A018B0192
:10212000C0E0D0E0CE15DF0589F0D8016D918D01BA
:10213000D601ED91FC910190F081E02DC601099549
:10214000892B11F47E0102C02196ECCFC701DF91EB
:10215000CF911F910F91FF90EF90DF90CF90089556
:10216000FC01538D448D252F30E0842F90E0821B9D
:10217000930B541710F0CF96089501970895FC0122
:10218000918D828D981761F0828DDF01A80FB11DAE
:102190005D968C91928D9F5F9F73928F90E00895D2
:1021A0008FEF9FEF0895FC01918D828D981731F08C
:1021B000828DE80FF11D858D90E008958FEF9FEFE0
:1021C0000895FC01918D228D892F90E0805C9F4FB6
:1021D000821B91098F739927089584E394E00E94EC
:1021E000E11021E0892B09F420E0822F0895FC0101
:1021F000848DDF01A80FB11DA35ABF4F2C91848D90
:1022000090E001968F739927848FA689B7892C93C4
:10221000A089B1898C9180648C93938D848D98135F
:1022200006C00288F389E02D80818F7D8083089528
:10223000EF92FF920F931F93CF93DF93EC0181E016
:10224000888F9B8D8C8D981305C0E889F9898081D2
:1022500085FD24C0F62E0B8D10E00F5F1F4F0F730E
:102260001127E02E8C8DE8120CC00FB607FCFACFB8
:10227000E889F989808185FFF5CFCE010E94F710AA
:10228000F1CF8B8DFE01E80FF11DE35AFF4FF08275
:102290000B8FEA89FB898081806207C0EE89FF8904
:1022A0006083E889F98980818064808381E090E09F
:1022B000DF91CF911F910F91FF90EF900895CF93F1
:1022C000DF93EC01888D8823C9F0EA89FB8980813E
:1022D00085FD05C0A889B9898C9186FD0FC00FB610
:1022E00007FCF5CF808185FFF2CFA889B9898C9151
:1022F00085FFEDCFCE010E94F710E7CFDF91CF91A0
:10230000089580E090E0892B29F00E94ED10811162
:102310000C94000008953FB7F89480913004909198
:102320003104A0913204B091330426B5A89B05C0B6
:102330002F3F19F00196A11DB11D3FBFBA2FA92F44
:10234000982F8827820F911DA11DB11DBC01CD01C1
:1023500043E0660F771F881F991F4A95D1F70895AC
:1023600020914D0330914E032817390771F4909155
:102370004B0380914C03981741F0E0914B03F0E040
:10238000E551FC4F808190E008958FEF9FEF089515
:1023900008951F93CF93DF93DC015C962D913C91C0
:1023A0005D972115310539F481E090E013969C93F7
:1023B0008E9312973DC05196ED91FC915297509695
:1023C0009C915097892F80951FB75E964C915E9790
:1023D00041FB772770F941FD6095F89440817723A0
:1023E00011F0492B01C048234083E9012197F1F7FF
:1023F00048E0508160FF02C0592B01C05823508330
:10240000E9012197F1F76695415099F7772321F07B
:1024100090818923808303C08081982B90831FBF84
:102420005C968D919C915D970197F1F721E030E0EA
:10243000C901DF91CF911F91089520914D033091F3
:102440004E032817390771F480914C0320914B03F8
:1024500090E0805C9F4F821B910960E470E00E94D5
:10246000AF2B089580E090E0089520914D033091C6
:102470004E0328173907B9F490914B0380914C0310
:10248000981789F0E0914B03F0E0E551FC4F808113
:1024900020914B0330E02F5F3F4F2F733327209362
:1024A0004B0390E008958FEF9FEF0895089580E02B
:1024B00090E008950E94042F86E692E00C94BF1BE2
:1024C0000F931F93CF93DF93EC018881998100973D
:1024D00029F02A813B812617370788F48B016F5F2B
:1024E0007F4F0E943A2E009761F0998388831B8367
:1024F0000A832C813D81232B11F4FC01108281E0A1
:1025000001C080E0DF91CF911F910F910895CF938B
:10251000DF93EC0188819981009711F00E94A22D30
:10252000198218821D821C821B821A82DF91CF9130
:102530000895EF92FF920F931F93CF93DF93EC01D7
:102540007B018A01BA010E946012811104C0CE0190
:102550000E94871207C01D830C83B701888199816F
:102560000E943E2FCE01DF91CF911F910F91FF90DE
:10257000EF900895CF93DF93EC01FB018617970747
:1025800061F0608171816115710529F04481558187
:102590000E94991202C00E948712CE01DF91CF9152
:1025A0000895FC01808191810C94A22DFC0111827F
:1025B000108213821282158214826115710551F006
:1025C000FB0101900020E9F73197AF01461B570B43
:1025D0000C94991208951F920F920FB60F92112426
:1025E0002F933F934F935F936F937F938F939F931B
:1025F000AF93BF93EF93FF9384E394E00E94F710AF
:10260000FF91EF91BF91AF919F918F917F916F91CA
:102610005F914F913F912F910F900FBE0F901F90A0
:1026200018951F920F920FB60F9211242F938F932C
:102630009F93EF93FF93E0914404F09145048081D0
:10264000E0914A04F0914B0482FD12C09081809188
:102650004D048F5F8F7320914E04821751F0E091EB
:102660004D04F0E0EC5CFB4F958F80934D0401C06E
:102670008081FF91EF919F918F912F910F900FBECD
:102680000F901F90189590E0FC01EB56FC4F349191
:10269000FC01EF5FFB4F2491FC01E351FC4FE491FF
:1026A000EE2309F43BC0332339F1333091F038F491
:1026B0003130A9F0323001F584B58F7D12C037304A
:1026C00091F03830A1F03430B9F4809180008F7DE2
:1026D00003C0809180008F77809380000DC084B507
:1026E0008F7784BD09C08091B0008F7703C080913F
:1026F000B0008F7D8093B000F0E0EE0FFF1FE75237
:10270000FC4FA591B4918FB7F894EC91611103C07F
:1027100020952E2301C02E2B2C938FBF0895CF938D
:10272000DF9390E0FC01EF5FFB4F2491FC01E3514C
:10273000FC4F8491882361F190E0880F991FFC0180
:10274000E557FC4FC591D491FC01E752FC4FA59190
:10275000B491611109C09FB7F894888120958223B4
:102760008883EC912E230BC0623061F49FB7F894FC
:102770003881822F809583238883EC912E2B2C9394
:102780009FBF06C08FB7F894E8812E2B28838FBF98
:10279000DF91CF9108958F929F92AF92BF92CF9287
:1027A000DF92EF92FF926B017C010E948B114B0133
:1027B0005C01C114D104E104F104F1F00E948B1119
:1027C000DC01CB0188199909AA09BB09883E93400D
:1027D000A105B10570F321E0C21AD108E108F108A2
:1027E00088EE880E83E0981EA11CB11CC114D10490
:1027F000E104F10419F7DDCFFF90EF90DF90CF9067
:10280000BF90AF909F908F9008952FB7F8946091EC
:102810002C0470912D0480912E0490912F042FBFD1
:1028200008951F920F920FB60F9211242F933F938A
:102830008F939F93AF93BF9380912C0490912D041D
:10284000A0912E04B0912F0430912B0426E0230F89
:102850002D3720F40296A11DB11D05C029E8230FD4
:102860000396A11DB11D20932B0480932C049093FB
:102870002D04A0932E04B0932F04809130049091E6
:102880003104A0913204B09133040196A11DB11D11
:102890008093300490933104A0933204B0933304B6
:1028A000BF91AF919F918F913F912F910F900FBE4C
:1028B0000F901F9018958F929F92AF92BF92CF92D8
:1028C000DF92EF92FF924B015C016B017C0184E08F
:1028D000F694E794D794C7948A95D1F7D501C401AB
:1028E00022E0B695A795979587952A95D1F7C80EBA
:1028F000D91EEA1EFB1ED701C60134E0B695A79586
:10290000979587953A95D1F7C80ED91EEA1EFB1EFA
:10291000BB27AF2D9E2D8D2DC80ED91EEA1EFB1E86
:10292000C701AA27BB27C80ED91EEA1EFB1EA3E0BB
:10293000B0E0A70196010E94412AA5019401261B3F
:10294000370B480B590BABE0B0E00E94412ADC0189
:10295000CB0165E0B695A795979587956A95D1F7D0
:10296000BC01CD016C0D7D1D8E1D9F1DFF90EF9054
:10297000DF90CF90BF90AF909F908F9008951F925F
:102980000F920FB60F9211242F933F934F935F93A3
:102990006F937F938F939F93AF93BF93EF93FF9327
:1029A000E0914D03F0914E03309709F451C0968D9C
:1029B000A685B785858591FF04C09C91892329F45C
:1029C00047C09C91892309F043C0A389B4899C9195
:1029D0008589809589238C93868997890197F1F75A
:1029E000608D718DA685B785558538E020E0CB01D7
:1029F0000197F1F7822F90E095958795282F4C91BC
:102A0000452309F02068315091F7868D81FD20958E
:102A100080914C0390E001968F73992730914B037E
:102A2000381749F0A0914C03B0E0A551BC4F2C934E
:102A300080934C0303C0868D8160868F828D938D39
:102A40000197F1F7A389B4899C918589892B8C938F
:102A5000FF91EF91BF91AF919F918F917F916F9176
:102A60005F914F913F912F910F900FBE0F901F904C
:102A70001895E0914D03F0914E03E817F90769F4BA
:102A8000A389B4899C918589809589238C93109220
:102A90004E0310924D0381E0089580E008951F9247
:102AA0000F920FB60F9211240F900FBE0F901F9030
:102AB0001895CF92DF92EF92FF920F931F93CF93CF
:102AC000DF931F92CDB7DEB7D12C85E0C82E809161
:102AD0008F05D81608F07DC084E893E00E940C1B97
:102AE0000D2D10E0C09EF001C19EF00D1124E25E9C
:102AF000FA4F85858A3010F40E945C12C09EC00196
:102B0000C19E900D11249C01225E3A4F7901F9017A
:102B1000658570E080E090E04AE00E942D1B86E829
:102B200092E00E94BF1BF70187859089843691054A
:102B300010F40E945C12C09EF001C19EF00D1124A1
:102B4000E25EFA4F878590890A9710F40E945C1222
:102B5000C09EC001C19E900D11249C01225E3A4F7F
:102B60007901F9016785708980E090E04AE00E9470
:102B70002D1B86E892E00E94BF1BF70186858A30F4
:102B800010F40E945C12C09E7001C19EF00C1124D2
:102B9000F701E25EFA4F668570E080E090E04AE07F
:102BA0000E942D1B86E892E00E94BF1BF701E15DA9
:102BB000FA4F808187FF04C08F778A3030F401C0DC
:102BC00080E089830E945C1289810E94CC1BD3948F
:102BD0007ECF0F90DF91CF911F910F91FF90EF90DB
:102BE000DF90CF900C94FC1A60E081E10E944313C7
:102BF00064E670E080E090E00E94CB138CE5809367
:102C0000B8001092B9008FEF8093BB00109264005F
:102C10000C94C11B60E08FE00E948F1364E670E0AB
:102C200080E090E00C94CB138091570320915803DF
:102C30003091590340915A0392E6981751F0921738
:102C400039F0931729F0941719F09150B1F70895BE
:102C5000892F089589E00E94330990915103809152
:102C60005B039130E1F5909152039430C1F58130CE
:102C700059F028F08230C1F08330F9F0089560E017
:102C800085E00E948F1308C061E085E00E948F13E9
:102C900060E085E00E94431360E086E00E948F13AD
:102CA00060E087E00C948F1360E085E00E948F1352
:102CB00060E086E00E948F130CC060E085E00E9417
:102CC0008F1361E086E00E948F1360E086E00E942F
:102CD000431361E087E00E948F1360E022C08130DF
:102CE00041F028F0823071F0833091F0089560E077
:102CF00001C061E085E00E94431360E086E00E942D
:102D00004313EBCF60E085E00E94431360E005C011
:102D100060E085E00E94431361E086E00E94431377
:102D200061E087E00C9443130F931F93CF93DF93DD
:102D300000915703081304C010925B0391E001C097
:102D400090E010915803181303C091E090935B0337
:102D5000D0915903D81304C092E090935B0391E0A3
:102D6000C0915A03C817E1F0992321F02AC08C17AB
:102D7000B9F08F5F8336C0F0833619F50E941416C0
:102D8000081302C010925B03181303C091E09093E4
:102D90005B03D81303C092E090935B03C81311C088
:102DA00083E080935B030DC0801303C010925B032C
:102DB00008C0811302C081E0F4CF8D13D8CF82E028
:102DC000F0CFDF91CF911F910F910C942A161F9392
:102DD000CF93DF931F92CDB7DEB7A82F10911E05BA
:102DE000153009F474C0163009F402C1113009F02D
:102DF000BEC1E091B0054E2F50E0FA013197E930A5
:102E0000F10508F0B4C1E65BFF4F0C94C32B809131
:102E1000B30582FFACC18091B1058111A8C1A33572
:102E200009F0A5C18091900590919105A09192051E
:102E3000B0919305B095A095909581959F4FAF4F18
:102E4000BF4F8093900590939105A0939205B09306
:102E500093058DC1AC3249F48091B105811105C053
:102E60008091B3058B7F8093B3058091B30582FF7A
:102E70007EC16A2F84E995E00E948B1C78C1809105
:102E8000B105811174C18A2F0E94941D70C1682FF1
:102E900084EA95E00E941E1E882309F468C190917F
:102EA000AE05906820C142E0682F88E995E00E9455
:102EB000021C882309F45BC121E09091B1059111B6
:102EC00001C020E09091AE0520FB94F90CC19091D7
:102ED0008F05943108F04BC18091B005843008F41F
:102EE00046C18370292F30E08230C9F0833009F465
:102EF00049C0813049F0129FC001139F900D1124E9
:102F00006A2F855D9A4F08C0129FC001139F900DD4
:102F100011246A2F845D9A4F0E941E1E28C1AC3274
:102F200019F18091B3058E7F8093B3058091B1052F
:102F3000129FF001139FF00D11246A2F70E0E25EE2
:102F4000FA4F811103C0605371090BC02785308986
:102F50004AE0429FC001439F900D1124C097680F23
:102F6000791F708B678703C1129FF001139FF00DCB
:102F70001124E15DFA4F80818F7780839F5F90936A
:102F80008F05F5C021503109129FF001139FF00DFC
:102F90001124E15DFA4FAC3201F180818F77898392
:102FA0006A2FCE0101960E941E1E80918F0590E02F
:102FB0000197189FF001199FF00D1124E15DFA4F60
:102FC0008981982F9F7780818078892B8083809159
:102FD000B30582608093B305CAC091E08091B105CA
:102FE000811101C090E0808190FB87F98083BFC090
:102FF000E091B0054E2F50E0FA013197E930F1052C
:1030000008F0B5C0ED5AFF4F0C94C32B8A2F0E94D5
:10301000C31DAEC08091B105882341F08091B305F6
:1030200082FFA5C06A2F80E995E026CF91E0AC32FF
:1030300009F490E08091B30590FB82F98093B30589
:10304000EDCF9091B30592FB882780F992FF8FC056
:103050009091B10591118BC09091AE0598609093BD
:10306000AE05A73509F083C04091940550919505B0
:103070006091960570919705709560955095419572
:103080005F4F6F4F7F4F409394055093950560932A
:103090009605709397056CC043E0682F8CE995E026
:1030A0000E94021C882309F462C021E09091B105BE
:1030B000911101C020E09091AE0520FB95F913C05D
:1030C00042E0682F80EA95E00E94021C882309F400
:1030D0004EC021E09091B105911101C020E0909186
:1030E000AE0520FB96F99093AE0542C09091B105D4
:1030F000923031F140F49923B9F09130C1F56091EB
:10310000A905605319C0943049F108F1953079F55B
:103110006091AB056053680F6093AB058091AE057D
:1031200082608093AE0523C08C3209F1682F660F50
:103130006056A62FAA0FAA0F6A0F6093A90517C0A1
:10314000682F660F6056A62FAA0FAA0F03C06091C2
:10315000AA0560536A0F6093AA0509C0682F660F1D
:103160006056A62FAA0FAA0F6A0F6093AB0581E0E5
:103170000F90DF91CF911F910895009769F0FC01A6
:1031800001900020E9F73197AF01481B590BBC01B2
:1031900084E394E00C94851080E090E008958F9291
:1031A0009F92AF92BF92CF92DF92EF92FF920F93D6
:1031B0001F93CF93DF931F92CDB7DEB701E0F8E006
:1031C000FF2E88248394A3E0EA2E12E0E091D1043C
:1031D000F091D2040084F185E02D81ED94E0099511
:1031E000892B09F4D9C1E091D104F091D204028471
:1031F000F385E02D81ED94E00995982E80912705C7
:1032000090912805A0912905B0912A050196A11D4C
:10321000B11D8093270590932805A0932905B093AD
:103220002A0584E2981217C08091B30584FF05C077
:103230008F7E8093B30510928F051092AF05109288
:103240001E058092B4051092B1058091B3058D7F63
:103250008093B305BBCF2091B405223061F5EAE23B
:103260009E1203C0E092B4051DC080EE890D8F351B
:1032700008F0FCC08091AF0589258093AF05892DAA
:103280000E94E716882309F4F1C0FCE29F120DC0EA
:103290008091B3058D7F8093B3058091B0058F5FDA
:1032A0008093B0051092B10591CF8091B1058F5FE9
:1032B0008093B1058BCF213009F062C08091AF05BA
:1032C00089258093AF058CE2981212C080911E056B
:1032D000882309F475C18EEA95E029830E945D1068
:1032E00029812093B0051092B1051093B4056ECFDB
:1032F0009091B105923008F45FC1EEEFBE2EB90E89
:1033000080911E05882319F08150883008F080E0F4
:10331000E82FF0E0EE0FFF1FE753FC4F25913491AB
:103320004B2D50E0F901E40FF51FE4919E1204C00B
:103330008F5F80931E0540C19E160CF441C18F5FC4
:10334000883009F43DC1E82FF0E0EE0FFF1FE7538E
:10335000FC4FA591B491B9016D01C21AD30AE62FB1
:10336000E21BEB1510F09D01DDCFFB01A490F601EF
:10337000E60FF71FE4916F5F7F4FAE1681F3F3CF37
:10338000233009F078C0992D90628FE9890F86303B
:1033900010F4975501C090534091B1052091AF05AD
:1033A000892F90E041110DC08092B10530E044E0DA
:1033B000359527954A95E1F72817390709F406CF7F
:1033C00042C02F7030E028173907E9F58091B30526
:1033D00081FF09C08D7F8093B3054F5F4093B10596
:1033E0008CE20E94E71680911F0590912005A09124
:1033F0002105B09122050196A11DB11D80931F05E5
:1034000090932005A0932105B093220591E080912F
:103410001E05863009F090E08091B30590FB84F999
:103420008093B3051092B4052091D405222341F175
:1034300088608093B3051092D5058091D4058150A2
:103440008093D4051DC08091230590912405A091FF
:103450002505B09126050196A11DB11D8093230578
:1034600090932405A0932505B09326058EEA95E058
:103470000E945D10A5C02111A9CE10921E05A6CEF6
:103480008091AE0580FF0CC03091D3052091AD0531
:1034900030FF04C03091D205321710F42093D205CA
:1034A00081FF0CC02091A9052093CE052091AA058B
:1034B0002093CF052091AB052093D00582FF10C04B
:1034C0002091A7052093CC052091A6052093CB053C
:1034D0002091A5052093CA052091AC052093D10524
:1034E00083FF09C0E0E9F5E0A5EBB5E08F2D019081
:1034F0000D928A95E1F78091AE0584FF10C040914E
:1035000098055091990560919A0570919B0540939B
:10351000BD055093BE056093BF057093C00586FF3F
:1035200010C04091A0055091A1056091A205709135
:10353000A3054093C5055093C6056093C7057093D6
:10354000C80585FF10C040919C0550919D05609174
:103550009E0570919F054093C1055093C2056093ED
:10356000C3057093C40587FF04C08091A4058093B0
:10357000C9052091D3058091AE05822B8093D30598
:10358000992309F423CE1092D6058091D405811198
:103590001DCE0093D40519CE8091D4050F90DF91F4
:1035A000CF911F910F91FF90EF90DF90CF90BF9040
:1035B000AF909F908F9008959F5F9093B10506CE36
:1035C00010921E051092B40501CE282F082E000C73
:1035D000330B205331092A30310510F480530895FC
:1035E000803231F09FEB980F9A3120F48753089581
:1035F00084E208958FEF089588E892E00C94BD1856
:10360000CF93DF930E94BD18EC010E94FC1A8C0F2F
:103610009D1FDF91CF9108950F931F93CF93DF9359
:103620008C01C0E0D0E0F801EC0FFD1F649166232F
:1036300071F0E0913404F09135040190F081E02DB7
:1036400084E394E00995892B11F02196ECCFCE010B
:10365000DF91CF911F910F9108958F929F92AF921A
:10366000BF920F931F93CF93DF93CDB7DEB7A19790
:103670000FB6F894DEBF0FBECDBF19A2423008F4DA
:103680004AE08E010F5D1F4F842E912CA12CB12C8E
:10369000A50194010E94002AE62FB901CA01015038
:1036A0001109EA3014F4E05D01C0E95CD801EC9343
:1036B000232B242B252B61F7C8010E94BD18A1964E
:1036C0000FB6F894DEBF0FBECDBFDF91CF911F9133
:1036D0000F91BF90AF909F908F900895CF92DF92FF
:1036E000EF92FF92CF93DF9397FF21C06B017C0194
:1036F000E0913404F09135040190F081E02D6DE209
:1037000084E394E00995EC0166277727CB016C19D7
:103710007D098E099F094AE00E942D1B8C0F9D1F79
:10372000DF91CF91FF90EF90DF90CF9008954AE026
:10373000DF91CF91FF90EF90DF90CF900C942D1BF5
:10374000CF93DF930E940C1BEC010E94FC1A8C0F9C
:103750009D1FDF91CF910895CF93DF93FC014481AA
:1037600055816081718184E394E00E948510EC01B1
:103770000E94FC1A8C0F9D1FDF91CF9108950C942D
:10378000BD1860E880E10E941E0760E088E00E94AA
:10379000431388E00C943309CF93DF93682F70E0D4
:1037A00080E090E04AE00E942D1BEC010E94FC1A90
:1037B0008C0F9D1FDF91CF910895CF93DF93EC0184
:1037C0000E9460109091D4059923C1F0915090937C
:1037D000D4052091D5058FE1829F90011124F90134
:1037E000EB54FA4FDE0101900D928A95E1F7C90181
:1037F0008B549A4F0E9460101092D505CE01DF9134
:10380000CF910895FC018091B105882321F06C329D
:1038100009F04CC018C0118210821382128280916C
:10382000B30582608093B3051092B20581E06D32DA
:1038300009F080E09091B30580FB90F99093B30577
:10384000882329F366C08091B205811103C081E00D
:103850008093B20582819381892B99F48091B3057D
:1038600080FF22C0828193819195819591099383F4
:103870008283808191819195819591099183808343
:1038800013C02AE08091B20591E0980F9093B205A1
:10389000481720F362817381269FC001279F900DF6
:1038A000112493838283EECF81E008956E3221F458
:1038B00081E08093B2052DC08091B205811112C0C4
:1038C000208131814AE0429FC001439F900D112425
:1038D000062E000C770B60537109680F791F7183F6
:1038E000608317C091E0980F9093B205481788F055
:1038F000228133814AE0429FC001439F900D1124F1
:10390000062E000C770B60537109680F791F7383C3
:10391000628380E00895CF92DF92EF92FF921F932F
:10392000CF93DF93EC01162F8091B10581110BC06D
:10393000188219821A821B821092B2058091B305F7
:1039400082608093B3051E3291F01C3209F07FC073
:103950008091B205882359F08091B205843099F5A1
:10396000288139814A815B81A4E6B0E046C081E0CC
:103970008093B2052981822F82958F702F703AE053
:10398000839F200D11248A8181112C598881982FC1
:1039900092959F708F703AE0939F800D112490E074
:1039A0003CE3239F800D911D1124092E000CAA0BCE
:1039B000BB0B88839983AA83BB831E3209F4A9C0F9
:1039C0001C3251F244C0853039F4288139814A8152
:1039D0005B81AAE0B0E011C08630F1F008F09BC036
:1039E000288139814A815B81833019F4A8EEB3E0E4
:1039F00004C0823029F4A0E1B7E20E94412A08C045
:103A0000813051F460EA76E881E090E00E94F0298C
:103A1000688379838A839B83C880D980EA80FB800E
:103A2000D701C601880F991FAA1FBB1FBC01CD017A
:103A30006F5F7F4F8F4F9F4F0E945B14C60ED71E44
:103A4000E81EF91EC882D982EA82FB8264C0809196
:103A5000B205811118C0812F110F990BC097092E43
:103A6000000CAA0BBB0B488159816A817B8134E031
:103A7000440F551F661F771F3A95D1F7842B952B5E
:103A8000A62BB72B42C08F5F8093B2058730C0F45E
:103A9000288139814A815B81AAE0B0E00E94412AF5
:103AA000212F110F330B205331096901330FEE0819
:103AB000FF08DC01CB018C0D9D1DAE1DBF1D25C077
:103AC000873039F5C880D980EA80FB80D701C601EC
:103AD000880F991FAA1FBB1FBC01CD016F5F7F4FCD
:103AE0008F4F9F4F0E945B14DC01CB018C0D9D1DFD
:103AF000AE1DBF1D193324F00296A11DB11D05C0D6
:103B000014331CF00196A11DB11D88839983AA83EB
:103B1000BB8380E001C081E0DF91CF911F91FF90D6
:103B2000EF90DF90CF900895813311F0813411F43C
:103B300083E020C0803321F08E3411F0863519F4F3
:103B40001092AD0519C0823311F0843411F484E071
:103B500011C0833311F487E00DC0843311F486E083
:103B600009C0853311F485E005C0863311F0853432
:103B700041F481E08093AD058091AE058160809332
:103B8000AE0580E00895E091B1054E2F50E0493038
:103B9000510508F051C0FA01E45AFF4F0C94C32BB1
:103BA0001092AC058C3209F447C09091B305926035
:103BB0009093B305880F8056982F990F990F03C0E3
:103BC0009091A7059053890F8093A70535C0880F62
:103BD0008056982F990F990F03C09091A605905386
:103BE000890F8093A60528C0880F8056982F990FBB
:103BF000990F03C09091A5059053890F8093A50557
:103C00001BC08C32C9F413C08C3289F0880F8056E7
:103C1000982F990F990F890F8093AC050DC08C32A6
:103C200031F09091AC059053890F8093AC05809151
:103C3000AE0584608093AE0581E00895FC0180911B
:103C4000B3058E7F8093B30581E06C3209F080E08C
:103C50009091B105911104C081110CC0605308C04E
:103C600081110AC0605380819AE0899F600D112400
:103C7000608302C080E0089581E00895CF93DF93D0
:103C8000CDB7DEB7C756D1090FB6F894DEBF0FBE69
:103C9000CDBF789484B5826084BD84B5816084BDD5
:103CA00085B5826085BD85B5816085BD80916E00DA
:103CB000816080936E00109281008091810082600B
:103CC0008093810080918100816080938100809148
:103CD00080008160809380008091B1008460809337
:103CE000B1008091B00081608093B00080917A0033
:103CF000846080937A0080917A00826080937A0059
:103D000080917A008E7F80937A0080917A0080681B
:103D100080937A001092C1001092B7031092B603FC
:103D2000E0914404F091450482E08083E0914004F6
:103D3000F09141041082E0914204F091430487E63F
:103D4000808310924C04E0914804F091490486E08D
:103D50008083E0914604F0914704808180618083F4
:103D6000E0914604F0914704808188608083E0916F
:103D70004604F0914704808180688083E091460486
:103D8000F091470480818F7D808380ED97E0A0E0F3
:103D9000B0E08093380490933904A0933A04B09330
:103DA0003B041092EC041092EB041092EA0410927F
:103DB000E9041092E8041092E7048DEC90E09093EF
:103DC000EE048093ED049091DD04963108F057C025
:103DD00025E530E03093E8042093E7042BEC30E055
:103DE0003093EA042093E90420E930E03093EC04B6
:103DF0002093EB0420916800983050F031E09E3021
:103E000008F430E081E001C0880F3A95EAF701C07C
:103E100084E0822B80936800983038F09E3040F028
:103E2000963148F020E030E008C02DE630E005C0D3
:103E30002BE630E002C02CE630E03093E50420931E
:103E4000E404983030F481E001C0880F9A95EAF7D5
:103E50000EC0292F30E09E3018F42850310902C0DE
:103E60002E50310981E001C0880F2A95EAF780932E
:103E7000E6048091ED049091EE040197F1F78091B2
:103E8000EB049091EC04892B21F180914D039091EA
:103E90004E0324E0813D9207E1F0009711F00E946B
:103EA00039158091EF048E7F8093EF0410924C03BC
:103EB00010924B0381ED94E090934E0380934D0359
:103EC000E091E404F091E50490818091E604892B6F
:103ED000808381E5C82E83E0D82E00E911E0C80177
:103EE0000E94DA29F60181936F010F5F1F4F0A3993
:103EF000F1E01F07A1F781E00E9401062B013C01C0
:103F0000CE0101965C016C01C8010E94DA29F5011D
:103F100081935F010F5F1F4F0E39F1E01F07A1F77B
:103F200089819A81AB81BC8184159505A605B70569
:103F300019F181E08093510386E08093520380EC75
:103F40009CEFABE9B1E08093530390935403A093AB
:103F50005503B093560383E6809357038093580329
:103F60008093590380935A0385E892E00E94A01B36
:103F70008FE192E00E94A01B0FE513E0A12CB12C71
:103F8000C5010E94DA29F80181938F01FFEFAF1A72
:103F9000BF0A25E5A216B10499F780E00E94010648
:103FA0002B013C018601C5010E94DA29F8018193A9
:103FB0008F01FFEFAF1ABF0A29E5A216B10499F7E6
:103FC00089819A81AB81BC8184159505A605B705C9
:103FD00069F4809187039091880390935E038093A6
:103FE0005D0310928F031092960371C021E030E0C0
:103FF00030935E0320935D0387E580935F0383E541
:104000008093600380E58093610382E5809362037F
:1040100080E28093630384E58093640388E5809362
:1040200065031092660382E090E09093880380938A
:10403000870381E48093890380938A0390E39093BC
:104040008B0380938C0380938D0380938E03109257
:104050008F03309391032093900380939203809376
:1040600093039093940390939503109296038DE09D
:1040700080939703E8E9F3E0119283E0E93AF807C7
:10408000D9F781E080939E0388E790E0A0E0B0E05C
:104090008093A8039093A903A093AA03B093AB03C2
:1040A0001092AC0384E98093AD0385E38093AE0363
:1040B00087E78093AF031092B0031092B103109280
:1040C000B2031092B3038AEE91E00E94A01B84E039
:1040D00090E09093500380934F0386EC91E00E9410
:1040E000A01B80E190E09093500380934F0361E028
:1040F0000E948F1361E088E00E948F138EEA91E0A6
:104100000E940C1B88EA91E00E940C1B4AE060E0D0
:1041100070E0CB010E942D1B8AE792E00E94BF1B3A
:104120008FE40E94CC1B10925E0310925D0380E12D
:1041300090E00E940F0B80E4EFEFF1E0D6010190D8
:104140000D928A95E1F724E630E088248A94982C31
:104150005401E0E4E0937C0080917A0080648093D5
:104160007A0080917A0086FDFCCF809178004091A2
:10417000790090E0942BB501A40148274F70552792
:1041800066277727440F551F440F551FD601A40FEC
:10419000B51F4D915D916D917C91F4E0B694A7941B
:1041A00097948794FA95D1F7482559256A257B2558
:1041B0009927A4E095958795AA95E1F7092E000C1B
:1041C000AA0BBB0B84279527A627B7278F709927A3
:1041D000AA27BB27880F991F880F991FD601A80F00
:1041E000B91F8D909D90AD90BC9014E07695679529
:1041F000579547951A95D1F784269526A626B72672
:1042000080949094A094B0942150310909F0A2CFE9
:1042100089288A288B2811F00E949F280E940A165C
:104220000E94F41580915D0390915E0381309105A9
:1042300051F08230910551F0892B51F410925C03BA
:104240000E94500D05C00E94A60F02C00E94360BAE
:104250004E019AE0890E911CFE013D96A896FFAF93
:10426000EEAFA89784E394E00E94E110892B11F44B
:104270001FE1D4C4AA24A394B12C93E0F92E22E028
:10428000322E84E394E00E94E1101816190684F798
:1042900084E394E00E94BF108A3019F08D3089F3D6
:1042A0008FC4E091EA03F0E0E854FC4F1082809163
:1042B000B8038B3509F081C48091BC038D3509F0BA
:1042C0007CC48091B903833409F05BC08091BA0348
:1042D000833401F58091BB038D34E1F48091BE03FA
:1042E0008335A9F48091C003833511F40E94A60F91
:1042F0008091C003873521F410925C030E94500D19
:104300008091C0038E3431F40E94360B03C081E0EB
:104310000E9433098091BA03833579F48091BB03FD
:10432000853459F48091BE03833539F480E00E94CE
:10433000AB068AE693E00E94A01B8091BA03833506
:1043400001F58091BB038C34E1F48091BE03833589
:10435000C1F48091C003813419F410925B030FC043
:10436000823421F481E080935B0309C0833419F423
:1043700030925B0304C0843411F4F0925B030E941A
:104380002A168091B9038F3409F040C18091BA0395
:10439000843509F086C08091BB03803509F081C067
:1043A0008091BE03833549F58091C0038983809154
:1043B000C1038A838091C2038B838091C3038C8362
:1043C0008091C4038D831E82B601CE018F5B9F4F07
:1043D0000E94D612CE018F5B9F4F0E94D70F209371
:1043E000A8033093A9034093AA035093AB03CE01D3
:1043F0008F5B9F4F0E94D11254C083E693E00E94CE
:104400000C1B8091A8039091A903A091AA03B091DD
:10441000AB0380319742A105B10520F486E692E016
:104420000E94BF1B8091A8039091A903A091AA03A9
:10443000B091AB03883E9340A105B10520F486E618
:1044400092E00E94BF1B8091A8039091A903A091C4
:10445000AA03B091AB0384369105A105B10520F400
:1044600086E692E00E94BF1B8091A8039091A90369
:10447000A091AA03B091AB030A97A105B10520F45E
:1044800086E692E00E94BF1B6091A8037091A90389
:104490008091AA039091AB034AE00E942D1B0E94D9
:1044A000FC1A8091BA03833599F58091BB038D3452
:1044B00079F58091BE03833589F48091C0038335FB
:1044C00029F4B0928803A092870322C0873509F0AF
:1044D000F5C310928803109287031AC08CE593E00D
:1044E0000E940C1B80918703909188038130910575
:1044F00059F08230910529F0892B51F480E792E040
:1045000005C08EE692E002C082E792E00E94001BA6
:104510008091BA03823409F04CC08091BB0384348B
:1045200009F047C08091BE038335B1F48091C00388
:1045300089838091C1038A831B821C82C6010E94E9
:10454000AD28FC01E15AFC4F91E08091C303853412
:1045500009F090E091AF2DC0412C512C320185E53E
:1045600093E00E940C1B9AE0491651046104710407
:1045700020F486E692E00E94BF1BC301B2010E94B4
:104580006E1BF201E15AFC4F81AD882319F08CE7D4
:1045900092E002C08FE792E00E94001BEFEF4E1AFC
:1045A0005E0A6E0A7E0AF0E14F165104610471043E
:1045B000B1F68091BA038C3449F58091BB03833402
:1045C00029F58091BE03833581F48091C00387343F
:1045D00029F4B0929103A092900318C08D34B1F4E5
:1045E000109291031092900311C08EE493E00E9408
:1045F0000C1B8091900390919103019719F482E82C
:1046000092E002C084E892E00E94001B8091B9030E
:10461000843409F00CC18091BA03833459F5809138
:10462000BB03833539F58091BE038335D9F480917E
:10463000C003809389038091C10380938A03809192
:10464000C20380938B038091C30380938C0380917A
:10465000C40380938D038091C50380938E031092D1
:104660008F0308C087E493E00E940C1B89E893E065
:104670000E94001B8091BA038C3419F58091BB0312
:104680008433F9F48091BE03833599F48091C0039B
:10469000809392038091C103809393038091C2031E
:1046A000809394038091C3038093950310929603A3
:1046B00008C080E493E00E940C1B82E993E00E9412
:1046C000001B8091BA038E34E9F48091BB038D34D2
:1046D000C9F48091BE03833569F4A0ECB3E0EFE543
:1046E000F3E08D91819323E0E638F207D1F7109241
:1046F000860308C089E393E00E940C1B8FE593E0DA
:104700000E94001B8091BA03803531F58091BB0374
:10471000843411F58091BE03833571F48091C00318
:1047200089838091C1038A831B821C82C6010E94F7
:10473000AD288093970310C082E393E00E940C1B86
:10474000809197038A3020F486E692E00E94BF1B96
:10475000809197030E94CC1B8091BA03873409F0A3
:1047600066C08091BB03863409F061C08091BE03AE
:104770008335C1F5A0ECB3E0F6018D918193A89645
:104780008EAD9FADA897E817F907B9F71D86BE0152
:104790006F5F7F4FCE018F5B9F4F0E94D612CE017D
:1047A0008F5B9F4F0E94D70F2093AC033093AD03D4
:1047B0004093AE035093AF036093B0037093B10383
:1047C0008093B2039093B303CE018F5B9F4F0E94FF
:1047D000D11280915D0390915E03019741F50E9493
:1047E000A60F25C08BE293E00E940C1B0091AC0346
:1047F0001091AD032091AE033091AF034091B0030F
:104800005091B1036091B2037091B303EE24E3942D
:10481000CE018F5B9F4F0E94E607CE018F5B9F4FBB
:104820000E94AC1BCE018F5B9F4F0E94D1128091E2
:10483000B903863409F0C1C18091BA038035C9F447
:104840008091BB038E34A9F48091BE03873489F430
:1048500084E293E00E940C1B86E692E00E94BF1B5C
:104860004AE064E074E080E090E00E942D1B0E942A
:10487000FC1A8091BA03883481F58091BB03863598
:1048800061F58091BE03833581F48091C0038983F3
:104890008091C1038A838091C2038B831C82C601ED
:1048A0000E94AD288093510318C08DE193E00E94CF
:1048B0000C1B80915103843620F486E692E00E941E
:1048C000BF1B809151038A3020F486E692E00E945B
:1048D000BF1B809151030E94CC1B8091BA03883486
:1048E00081F58091BB03823561F58091BE038335EC
:1048F00081F48091C00389838091C1038A83809170
:10490000C2038B831C82C6010E94AD288093520390
:1049100018C086E193E00E940C1B809152038436FC
:1049200020F486E692E00E94BF1B809152038A30F9
:1049300020F486E692E00E94BF1B809152030E9401
:10494000CC1B8091BA03833579F48091BB03863503
:1049500059F48091BE03873439F48FE093E00E94CC
:104960000C1B80E00E94CC1B8091BA03833579F444
:104970008091BB03823559F48091BE03873439F4AA
:1049800088E093E00E940C1B8FE40E94CC1B809176
:10499000BA038C3409F0ADC08091BB03803509F0B7
:1049A000A8C08091BE03833581F58091C2038983BD
:1049B0008091C3038A831B828091C0038234B9F043
:1049C00054F4813409F095C0CE0101960E94AD28BF
:1049D000809357038EC0833489F0843409F089C0F2
:1049E000CE0101960E94AD2880935A0382C0CE0169
:1049F00001960E94AD28809358037BC0CE0101969A
:104A00000E94AD288093590374C0809152038A306C
:104A100080F180915103813061F5809157038A3094
:104A200061F0809158038A3041F0809159038A30B7
:104A300021F080915A038A3041F48DEF92E00E9478
:104A4000A01B82EF92E00E94A01B8091570386304A
:104A500061F080915803863041F08091590386308F
:104A600021F080915A03863021F487EE92E00E9473
:104A7000A01B8EED92E00E940C1B809157038A30A0
:104A800020F486E692E00E94BF1B809157030E94AB
:104A9000CC1B85ED92E00E940C1B809158038A305C
:104AA00020F486E692E00E94BF1B809158030E948A
:104AB000CC1B8CEC92E00E940C1B809159038A3035
:104AC00020F486E692E00E94BF1B809159030E9469
:104AD000CC1B83EC92E00E940C1B80915A038A301D
:104AE00020F486E692E00E94BF1B80915A030E9448
:104AF000CC1B8091BA03823509F04CC08091BB0376
:104B0000863409F047C08091BE03833501F5A0ECDF
:104B1000B3E0FE0131968D918193E815F905D9F73F
:104B20001A86BE016F5F7F4FCE018F5B9F4F0E9441
:104B3000D612CE018F5B9F4F0E94D70F2093530355
:104B40003093540340935503509356031EC08CEB8F
:104B500092E00E940C1B40915303509154036091CA
:104B6000550370915603EE24E3948A019B0140E0C3
:104B700050E060E070E0CE018F5B9F4F0E94E6073F
:104B8000CE018F5B9F4F0E94AC1BCE018F5B9F4F6E
:104B90000E94D1128091BA03833579F48091BB03CE
:104BA000853459F48091BE03833539F481E00E9445
:104BB000AB0683EA92E00E94A01B1092EA0361CB4D
:104BC000E091EA03E13308F05CCB91E09E0F909313
:104BD000EA03F0E0E854FC4F808353CBCE01895BBD
:104BE0009F4F0E94DD1BFE01E95BFF4FAFEFB4E07A
:104BF000812F01900D928A95E1F783E00E9433099D
:104C00008091B4039091B50383709927892B59F053
:104C100068EC70E080E090E00E94600A0E94CF188B
:104C20008111DCCF40C00E9459158AE00E943309EF
:104C300080911D0583FF33C082FF31C084E00E9454
:104C400033098091900390919103019731F5609120
:104C500003057091040580910505909106050E9459
:104C6000E12825E93FEB46ED53E30E941C291B0197
:104C70002C016091FF0470910005809101059091D5
:104C800002050E94E12825E93FEB46ED53E30E942F
:104C90001C29A20191010E94510782E001C085E018
:104CA0000E943309B5CF80915D0390915E03892BFB
:104CB00011F40E94500D0E948111D4CA8E3409F063
:104CC00078CC82E090E0909388038093870320CC97
:104CD00085E592E09093D2048093D10481ED94E035
:104CE0000C943915EF92FF920F931F93CF93DF939C
:104CF000109237041092360488EE93E0A0E0B0E002
:104D00008093380490933904A0933A04B0933B0401
:104D100083E492E0909335048093340485EC90E032
:104D2000909341048093400484EC90E0909343047A
:104D30008093420480EC90E0909345048093440477
:104D400081EC90E0909347048093460482EC90E0DD
:104D5000909349048093480486EC90E090934B0430
:104D600080934A0410924D0410924E0410924F0406
:104D70001092500480E995E00E94601085EB95E068
:104D80000E94601010921F051092200510922105BC
:104D900010922205109223051092240510922505E9
:104DA00010922605109227051092280510922905C9
:104DB00010922A0580E995E00E94601010928F05FC
:104DC0001092B4058FEF94E00E94601064E170E0EF
:104DD00081E090E00E94F12CEC01892B09F4EAC0FB
:104DE00086E090E0998388838FE390E09B838A83B9
:104DF0001B8A1A8A80E490E00E940D2D8C019D830D
:104E00008C83892B09F441C080E490E00E940D2D31
:104E10009F838E83009711F4C80135C02FE3FC01F6
:104E20002083F80117AE01E010E080E090E02A81D5
:104E30003B8182179307B4F4EE81FF81E00FF11FED
:104E40008083EC81FD81E80FF91F0083000F111FA3
:104E500006FF02C0F3E40F272A813B8102231323BC
:104E60000196E5CF0130110541F484E390E00E9402
:104E70000D2D99878887009771F48C819D810E9400
:104E8000A22D8E819F810E94A22DCE010E94A22D73
:104E9000C0E0D0E08FC023E030E03D872C871F8743
:104EA0000E8723E330E03B872A87198B088B21E0AC
:104EB000FC01208323E030E041E0E885F985E20F42
:104EC000F31F32974083B90164507109E885F98571
:104ED0006F3F8FEF780799F1DB011196AE0FBF1F7F
:104EE0008C91E60FF71F882329F150810C811D81D9
:104EF000EE81FF81E80FF11D8081F901E80FF11DBE
:104F0000CF01EA81FB818E179F0774F08E1B9F0BE8
:104F10007C01088002C0F594E7940A94E2F78E239E
:104F20009F238E0D9F1DEFCFF801E80FF91F8081A1
:104F3000852701C080818C9361507109C7CF0C8196
:104F40001D818081AE81BF81A80FB11D8C91B901F7
:104F5000680F711DCB016A817B818617970774F0FA
:104F6000861B970BDC01088002C0B595A7950A94B3
:104F7000E2F7862397238A0F9B1FEFCFD801A80F54
:104F8000B91F8C9180832F5F3F4F2633310509F085
:104F900094CF80E090E0E885F985E80FF91F208143
:104FA000AE81BF81A20FB11D2C9120830196843365
:104FB000910589F7D093F104C093F0041092D404C2
:104FC0001092D30488EE93E0A0E0B0E08093D50483
:104FD0009093D604A093D704B093D80485E592E0CB
:104FE0009093D2048093D1041092E8041092E704C5
:104FF0001092EA041092E9041092EC041092EB046F
:105000001092EE041092ED046091EF046E7F6D7FBC
:105010006093EF046695617081E0682783E00E94E9
:10502000431361E083E00E948F13E4E0F4E0E49135
:10503000E093E104E0EFF3E0E491F0E0EE0FFF1F16
:10504000E752FC4F859194919093E3048093E2049E
:1050500060E082E00E948F138091EF0481FD04C024
:1050600061E082E00E94431382E08093DD04E3E08C
:10507000F4E0E491E093DE04EFEEF3E0E491F0E09D
:10508000EE0FFF1FED51FC4F859194919093E0043A
:105090008093DF04DF91CF911F910F91FF90EF90EC
:1050A00008958F929F92AF92BF92CF92DF92EF922C
:1050B000FF92CF93DF93EC01688179818A819B8194
:1050C000611571058105910521F464E279ED8BE5A7
:1050D00097E02DE133EF41E050E00E94222A4901A0
:1050E0005A019B01AC01A7EAB1E40E94412A6B017D
:1050F0007C01ACEEB4EFA50194010E944F2ADC01C3
:10510000CB018C0D9D1DAE1DBF1DB7FF03C00197C8
:10511000A109B04888839983AA83BB83BC01CD01D0
:105120009F77DF91CF91FF90EF90DF90CF90BF906E
:10513000AF909F908F9008950E945128089580E02D
:1051400091E00E945128089560930001709301013D
:1051500080930201909303010895FC018827992709
:10516000E89421912032E9F3293010F02E30C8F371
:105170002B3241F02D3239F4689404C00E94D428B7
:10518000820F911D219120532A30C0F31EF4909577
:1051900081959F4F089591110C94DC28803219F06D
:1051A00089508550C8F708957AE0979F902D879F82
:1051B000802D910D11240895992788270895E8944A
:1051C00009C097FB3EF490958095709561957F4F4F
:1051D0008F4F9F4F9923A9F0F92F96E9BB279395FD
:1051E000F695879577956795B795F111F8CFFAF40D
:1051F000BB0F11F460FF1BC06F5F7F4F8F4F9F4F3E
:1052000016C0882311F096E911C0772321F09EE89B
:10521000872F762F05C0662371F096E8862F70E001
:1052200060E02AF09A95660F771F881FDAF7880FDB
:105230009695879597F908950E942F290C94A02997
:105240000E94922938F00E94992920F0952311F0AC
:105250000C9489290C948F2911240C94D4290E9430
:10526000B12970F3959FC1F3950F50E0551F629FD0
:10527000F001729FBB27F00DB11D639FAA27F00DAF
:10528000B11DAA1F649F6627B00DA11D661F829FD6
:105290002227B00DA11D621F739FB00DA11D621FBB
:1052A000839FA00D611D221F749F3327A00D611DD8
:1052B000231F849F600D211D822F762F6A2F1124BA
:1052C0009F5750409AF0F1F088234AF0EE0FFF1FED
:1052D000BB1F661F771F881F91505040A9F79E3F44
:1052E000510580F00C9489290C94D4295F3FE4F394
:1052F000983ED4F3869577956795B795F795E7959A
:105300009F5FC1F7FE2B880F911D9695879597F9A2
:10531000089597F99F6780E870E060E008959FEF37
:1053200080EC089500240A9416161706180609063C
:10533000089500240A94121613061406050608950B
:10534000092E0394000C11F4882352F0BB0F40F493
:10535000BF2B11F460FF04C06F5F7F4F8F4F9F4FD3
:10536000089557FD9058440F551F59F05F3F71F055
:105370004795880F97FB991F61F09F3F79F08795BC
:105380000895121613061406551FF2CF4695F1DF45
:1053900008C0161617061806991FF1CF86957105D5
:1053A000610508940895E894BB2766277727CB0109
:1053B00097F90895F999FECF92BD81BDF89A992782
:1053C00080B50895262FF999FECF1FBA92BD81BDF1
:1053D00020BD0FB6F894FA9AF99A0FBE0196089577
:1053E000DB018F939F930E94412ABF91AF91A29FAF
:1053F000800D911DA39F900DB29F900D11240895D3
:10540000A1E21A2EAA1BBB1BFD010DC0AA1FBB1FC8
:10541000EE1FFF1FA217B307E407F50720F0A21B3A
:10542000B30BE40BF50B661F771F881F991F1A94A7
:1054300069F760957095809590959B01AC01BD01D1
:10544000CF010895052E97FB1EF400940E94392A7F
:1054500057FD07D00E94002A07FC03D04EF40C949D
:10546000392A50954095309521953F4F4F4F5F4FCA
:10547000089590958095709561957F4F8F4F9F4FC0
:1054800008950E948B2AA59F900DB49F900DA49F14
:10549000800D911D11240895B7FF0C94412A0E949C
:1054A000412A821B930B08952F923F924F925F9255
:1054B0006F927F928F929F92AF92BF92CF92DF9224
:1054C000EF92FF920F931F93CF93DF93CDB7DEB789
:1054D000CA1BDB0B0FB6F894DEBF0FBECDBF09941D
:1054E0002A88398848885F846E847D848C849B8474
:1054F000AA84B984C884DF80EE80FD800C811B8182
:10550000AA81B981CE0FD11D0FB6F894DEBF0FBEB0
:10551000CDBFED010895A29FB001B39FC001A39F2D
:10552000700D811D1124911DB29F700D811D1124DC
:10553000911D08955058BB27AA270E94B22A0C94A7
:10554000A0290E94922938F00E94992920F039F46C
:105550009F3F19F426F40C948F290EF4E095E7FB95
:105560000C948929E92F0E94B12958F3BA176207D0
:1055700073078407950720F079F4A6F50C94D329D6
:105580000EF4E0950B2EBA2FA02D0B01B90190015E
:105590000C01CA01A0011124FF27591B99F0593FA2
:1055A00050F4503E68F11A16F040A22F232F342FEA
:1055B0004427585FF3CF469537952795A795F04038
:1055C0005395C9F77EF41F16BA0B620B730B840B4D
:1055D000BAF09150A1F0FF0FBB1F661F771F881F05
:1055E000C2F70EC0BA0F621F731F841F48F487955D
:1055F00077956795B795F7959E3F08F0B0CF93954F
:10560000880F08F09927EE0F9795879508950E94C7
:105610001B2B0C94A0290E94992958F00E949229D2
:1056200040F029F45F3F29F00C94892951110C9422
:10563000D4290C948F290E94B12968F39923B1F3DE
:10564000552391F3951B550BBB27AA2762177307A8
:10565000840738F09F5F5F4F220F331F441FAA1F3C
:10566000A9F335D00E2E3AF0E0E832D091505040F8
:10567000E695001CCAF72BD0FE2F29D0660F771FA6
:10568000881FBB1F261737074807AB07B0E809F08C
:10569000BB0B802DBF01FF2793585F4F3AF09E3F11
:1056A000510578F00C9489290C94D4295F3FE4F3D8
:1056B000983ED4F3869577956795B795F7959F5F54
:1056C000C9F7880F911D9695879597F90895E1E0A0
:1056D000660F771F881FBB1F621773078407BA07FF
:1056E00020F0621B730B840BBA0BEE1F88F7E0955A
:1056F00008950E94802B6894B1110C94D4290895C8
:105700000E94B92988F09F5798F0B92F9927B7516F
:10571000B0F0E1F0660F771F881F991F1AF0BA9555
:10572000C9F714C0B13091F00E94D329B1E00895B7
:105730000C94D329672F782F8827B85F39F0B93FA9
:10574000CCF3869577956795B395D9F73EF4909508
:105750008095709561957F4F8F4F9F4F089597FB70
:10576000072E16F4009407D077FD09D00E94DD2C97
:1057700007FC05D03EF4909581959F4F0895709554
:1057800061957F4F0895EE0FFF1F0590F491E02D76
:105790000994DF93CF931F930F939A9DF02D219F30
:1057A000F00D8B9DF00D8A9DE02DF10D039FF00D06
:1057B000029FE00DF11D4E9DE00DF11D5E9DF00D6F
:1057C0004F9DF00D7F936F93BF92AF925F934F9376
:1057D000D5010E948B2A8B01AC01D7010E948B2A34
:1057E000EB01E80FF91FD6010E94192C2F913F9170
:1057F000D6010E948B2AC60FD71FE81FF91FAF9151
:10580000BF910E94192C2F913F910E948B2AC60FA5
:10581000D71FE81FF91FD6010E948B2AE60FF71F3A
:105820009801BE01CF0111240F911F91CF91DF91FB
:1058300008950E948B2A460F571FC81FD91F08F4CE
:105840003196089597FB57FF0C94322C9F938F93BA
:105850000E94322C6E1B7F0BAF91BF918A0B9B0B6A
:105860000895E894DF93CF93FC01DB010E948B2A1B
:105870007F936F93E9019A01AC01BF93AF933F937C
:105880002F93DF010E948B2A26F46C1B7D0B820B69
:10589000930B9E01EB01FC010E94192CAF91BF916B
:1058A0002F913F910E94192CBE01CF01F9012F9138
:1058B0003F91CF91DF910895689401C0E8948F9251
:1058C0009F92CF93DF930E946A2CDF91CF919F909C
:1058D0008F90089588249924F401E401B0E49F9303
:1058E000AA279A158B049C04ED05FE05CF05D00769
:1058F000A10798F4AD2FDC2FCF2FFE2FE92D982C88
:10590000892E982F872F762F652F542F432F322FD4
:105910002227B85031F7BF9127C01B2EBF91BB275C
:10592000220F331F441F551F661F771F881F991FA3
:10593000881C991CEE1FFF1FCC1FDD1FAA1FBB1F59
:105940008A149B04EC05FD05CE05DF05A007B10711
:1059500048F08A189B08EC09FD09CE09DF09A00B65
:10596000B10B21601A94E1F62EF49401AF01BE014F
:10597000CD01000C08950F93083090F0982F872FD9
:10598000762F652F542F432F322F22270850F4CF24
:10599000220F331F441F551F661F771F881F991F33
:1059A0000A95B2F70F9108952A0D3B1D4C1D5D1D00
:1059B0006E1D7F1D801F911F0895AA1BBB1B51E107
:1059C00007C0AA1FBB1FA617B70710F0A61BB70B6F
:1059D000881F991F5A95A9F780959095BC01CD0114
:1059E00008950F931F93CF93DF93869F8001879F26
:1059F000100D969F100D1124C8010E940D2DEC0171
:105A0000009729F0A80160E070E00E94372FCE01D6
:105A1000DF91CF911F910F910895CF93DF93823043
:105A2000910510F482E090E0E091D905F091DA055B
:105A300020E030E0C0E0D0E0309711F140815181AA
:105A400048175907C0F04817590761F482819381BC
:105A5000209719F09B838A832BC09093DA0580935B
:105A6000D90526C02115310519F04217530718F43E
:105A70009A01BE01DF01EF010280F381E02DDCCF4E
:105A80002115310509F1281B390B2430310590F41B
:105A900012968D919C9113976115710521F0FB0170
:105AA0009383828304C09093DA058093D905FD0126
:105AB000329644C0FD01E20FF31F8193919322506F
:105AC00031092D933C933AC02091D7053091D805E8
:105AD000232B41F420910601309107013093D80522
