:100000000C940D020C9435020C9435020C94A1153D
:100010000C94A1150C94A1150C9431160C94350276
:100020000C9435020C9435020C9435020C94350274
:100030000C9435020C9435020C9435020C94350264
:100040000C94F3140C9435020C94F3130C94CD130C
:100050000C9435020C9435020C9435020C94350244
:100060000C9435020C943502870292029D02A8027C
:10007000B302BE02C902D402DF02EA02F90204039B
:10008000480976097D09D909DC09DF09010A040A52
:10009000380A070AA818AC18A917CC17C318E11713
:1000A000E9175919F517A818E117AC18A917CC17B3
:1000B000C318EE1802191819F01D001E071E0D1E98
:1000C000141E1A1E211E241E2F1E7B4D494E7D43D9
:1000D000616E206E6F742073746172742057535078
:1000E0005220426561636F6E007B4D494E7D4361D6
:1000F0006C6C205369676E206E6F7420736574009A
:100100007B4D494E7D5472616E6D697373696F6E7C
:10011000206973206E6F7420656E65626C65642063
:100120006F6E20616E792062616E64007B4D50536A
:100130007D2030007B4D50537D20007B5446517D07
:1001400020007B4C50497D20007B4D56437D200094
:100150007B544F4E7D2046007B544F4E7D205400F3
:100160007B5446517D20007B474C437D2046007BDD
:10017000474C437D2054003A003A007B47544D7D64
:1001800020007B474C347D20007B544F4E7D205413
:10019000007B544F4E7D2046007B544F4E7D2046C1
:1001A000007B43434D7D20004265746120007B4D00
:1001B000494E7D204669726D776172652076657261
:1001C00073696F6E20007B4D494E7D205A616368D4
:1001D00054656B2057535052204D696E69207472DC
:1001E000616E736D6974746572007B4D494E7D203C
:1001F0004E6F20757365722064617461207761733E
:1002000020666F756E642C2073657474696E672048
:1002100064656661756C742076616C756573007BCE
:100220004D494E7D20596F75206E65656420746F51
:100230002072756E20666163746F727920736574C5
:10024000757020746F20636F6D706C6574652063CA
:100250006F6E66696775726174696F6E2C20677561
:10026000657373696E67206F6E2063616C6962727B
:100270006174696F6E2076616C75657320666F724C
:10028000206E6F77007B4D494E7D204E6F2066615A
:1002900063746F7279206461746120666F756E6437
:1002A0002021007B4D494E7D20466163746F727939
:1002B0002064617461207361766564007B465246F8
:1002C0007D20007B464C507D204420007B464C50D6
:1002D0007D204320007B464C507D204220007B4601
:1002E0004C507D204120007B464C507D20412030E9
:1002F00035007B464C507D2041203039007B464CF8
:10030000507D2041203038007B4653527D20007BB9
:100310004653567D20007B4648527D20007B464850
:10032000567D20007B46504E7D20007B4447467D15
:1003300020007B4450447D20007B444E4D7D2000B6
:100340007B444C347D20007B4443537D20007B4F15
:100350004C437D20007B4F42447D20007B4F534D1A
:100360007D20007B4F54507D20007B4D494E7D20E9
:10037000436F6E66696775726174696F6E20736131
:10038000766564007B4753497D200000000000240F
:100390000027002A000000000800020100000304FA
:1003A0000700000000000000005A44410056544776
:1003B00000524D43004753560047535400475341A2
:1003C00000474C4C0047474100C503C103BD03B97A
:1003D00003B503B103AD03A9030000000025002805
:1003E000002B000000000023002600290004040464
:1003F00004040404040202020202020303030303CE
:1004000003010204081020408001020408102001AA
:100410000204081020001327092711241FBECFEF64
:10042000D8E0DEBFCDBF12E0A0E0B1E0E6E4F5E643
:1004300002C005900D92AC38B107D9F725E0ACE8C1
:10044000B2E001C01D92AB3DB207E1F712E0CCE093
:10045000D2E004C02197FE010E94642CCB30D1076A
:10046000C9F70E94621F0C9496320C94000080938E
:10047000BB0084E88093BC008091BC0087FFFCCF68
:100480008091B900887F0895E4E9F3E081E09191DB
:10049000911180E093E0E13AF907C9F7882389F0E8
:1004A00010923F03109240031092410310924203B6
:1004B0001092430310924403109245031092460396
:1004C0000895809158038F5F8D3008F080E0E82F09
:1004D000F0E0E55AFC4F91AD9923A9F380935803BE
:1004E000482F50E0FA013197EC30F10520F4EC5C34
:1004F000FF4F0C94642C90EF90933F039EEC9093ED
:10050000400391ED90934103109242036FC090E538
:1005100090933F039CED9093400395ED909341039E
:1005200092E062C090ED90933F0397EB909340036D
:1005300094EF909341039AE057C090E590933F0366
:100540009AE89093400397E49093410395E14CC05F
:1005500090E190933F0397E59093400396EF90933B
:10056000410399E241C090EA90933F0397EB909347
:10057000400390E7909341039CE336C090EB909347
:100580003F0397E79093400396E09093410394E5EF
:100590002BC090E590933F0397EB909340039BEE25
:1005A000909341039BE620C090E190933F0398E134
:1005B000909340039EEB909341039DE715C090ED0F
:1005C00090933F0395E39093400392E99093410306
:1005D00094E90AC090ED90933F0395E09093400317
:1005E00095EA9093410397EA909342031092430354
:1005F0001AC090E190933F0391E59093400397ECEC
:10060000909341039BE20AC090ED90933F039AEAD6
:100610009093400398EC9093410391EA90934203A6
:1006200091E090934303109244031092450310927B
:1006300046030C9410174F925F926F927F928F92A5
:100640009F92AF92BF92CF92DF92EF92FF920F9361
:100650001F93CF93DF93CDB7DEB7CB55D1400FB605
:10066000F894DEBF0FBECDBF8BEAECE8F2E0DF010D
:100670001D928A95E9F7F09093038E01005B1E4F5F
:1006800065E873E0C8010E94DF2F5E01B9EAAB1A8A
:10069000BEEFBB0A6EE873E0C5010E94DF2FF801D0
:1006A000818180538A3070F4828180538A3050F087
:1006B00045E050E0B801C80101960E94C62F80E2D3
:1006C000D8018C93F801828180538A3010F080E346
:1006D0008283680180E2882E96E0992E900ED601E2
:1006E0008C91082E000C990B0E94B52FE82E082E35
:1006F000000C990B9C01205331092A30310518F464
:10070000F601E08206C00E94AA2F892BC9F7D60104
:100710008C92BFEFCB1ADB0A9C10E1CF86E0F80188
:10072000AEEEB4E001900D928A95E1F78501A5E067
:10073000DA2EB4E0EB2EEA0CF8018081082E000CD2
:10074000990B0E94B52FD8018D938D01282F082E6B
:10075000000C330B205331092A30310558F08154F5
:10076000823140F0E3E6F2E0D5018D2D01900D924B
:100770008A95E1F7E012E0CFF50180819181A281B5
:10078000B3818093F5049093F604A093F704B0939B
:10079000F8048F2D8D3308F08CE393E1EAE0F1E06B
:1007A0008E010F5F1F4FD80101900D929A95E1F7CE
:1007B000F090FA04F80193E1900F2191821301C0A7
:1007C000F82E9E13FACFFE0132969E012C5E3F4F0B
:1007D0009191891730F4DF0112979C91891708F0E5
:1007E000F92EE217F307A1F7F092FA048091EE04D4
:1007F0000E94751B282F30E0A4E2B0E00E942C2B51
:100800004B015C018091EF040E94751BA5019401CE
:10081000280F311D411D511DAAE0B0E00E94E22ABF
:100820004B015C018091F0040E94751BA5019401AD
:10083000280F311D411D511DABE1B0E00E94E22A9D
:100840004B015C018091F1040E94751B90E00A97B6
:10085000092E000CAA0BBB0BA5019401280F391F10
:100860004A1F5B1FABE1B0E00E94E22A4B015C0132
:100870008091F2040E94751B90E00A97092E000CEB
:10088000AA0BBB0BA5019401280F391F4A1F5B1F40
:10089000ABE1B0E00E94E22A4B015C018091F304DD
:1008A0000E94751B282F30E0C9010A97092E000C01
:1008B000AA0BBB0B880D991DAA1DBB1D4091F50409
:1008C00021E430E0241B310947FD3395EAE0E29F43
:1008D000B001E39F700D11249B012D543F4F4091B7
:1008E000F70460E370E0641B710947FD7395620FC4
:1008F000731F44EB469F9001479F300D1124609178
:10090000F604062E000C770B61547109E69FA001D6
:10091000E79F500D1124420F531FE091F8040E2E53
:10092000000CFF0BF0979A012E0F3F1F4F2D50E048
:1009300060E070E06A017B01F0E4CF0ED11CE11CA5
:10094000F11CA901330F660B770B27E0440F551FED
:10095000661F771F2A95D1F74C0D5D1D6E1D7F1DFB
:100960006C017D0134E0F694E794D794C7943A95EE
:10097000D1F7C95BDE4FC882C754D140CA5BDE4F96
:10098000D882C654D140CB5BDE4FE882C554D140FB
:10099000242F2295220F220F207CC55BDE4F288357
:1009A000CB54D140E2E07695679557954795EA9507
:1009B000D1F7C65BDE4F4883CA54D140C75BDE4FD8
:1009C0005883C954D1408295807F962F9F70892B80
:1009D000C85BDE4F8883C854D140C45BDE4F1882A9
:1009E000CC54D140C35BDE4F1882CD54D140C25BA2
:1009F000DE4F1882CE54D140C15BDE4F1882CF54F7
:100A0000D140AE014B5B5E4F2A01F12C80E090E0BB
:100A1000DC01FBE0EF2EE40EF20141912F01642E88
:100A2000712C20E030E04C015D01880C991CAA1C5F
:100A3000BB1CB301022E02C0660F771F0A94E2F7B7
:100A4000660F672F661F770B7195CB01A0E0B0E0B2
:100A500081709927AA27BB2788299929AA29BB2908
:100A60004C015D0151E5852253E5952250EDA5220B
:100A700052EFB52270E260E0E82DE1706E27B69487
:100A8000A794979487947150B9F753EAC52ED12C47
:100A9000CC0EDD1ECF0CD11CF6016083DD24D39477
:100AA000DF0C4C015D01F7E48F22FCE39F22F1E6AD
:100AB000AF22F4EEBF2270E260E0482D417064275F
:100AC000B694A794979487947150B9F7E3EAF0E04D
:100AD000EC0FFD1FED0DF11D6083F394F394F1EA2B
:100AE000FF1538F4E41098CF90E040E061E070E04A
:100AF00027C02F5F3F4F2830310509F094CFF2CF48
:100B000050FF07C0FB01022E01C0EE0F0A94EAF766
:100B10008E2B56952150310998F7823A60F4F801EE
:100B2000E80FF11DA3EAB0E0AC0FBD1FA40FB11D8B
:100B30008C9180834F5F423A40F49F5F9F3F29F042
:100B4000592F27E030E080E0DBCF82EAF801DE01B8
:100B5000AD55BF4F01900D928A95E1F782EAEDE124
:100B6000F1E0D80101900D928A95E1F7BE016D5533
:100B70007F4F2CE832E0F80142EA400F9191DB010F
:100B80008D91BD01880F890FD9018D939D014E1361
:100B9000F5CFC55ADE4F0FB6F894DEBF0FBECDBFFE
:100BA000DF91CF911F910F91FF90EF90DF90CF9049
:100BB000BF90AF909F908F907F906F905F904F907D
:100BC0000895EF92FF920F931F93CF93DF931F929D
:100BD000CDB7DEB77C01FC0100811181C8016983BA
:100BE0000E947B2A6981681719F0C8010E94832A34
:100BF000C7010F90DF91CF911F910F91FF90EF9060
:100C000008954F925F926F927F928F929F92AF92D0
:100C1000BF92EF92FF920F931F93CF93DF93CDB7C5
:100C2000DEB7C054D1090FB6F894DEBF0FBECDBFFA
:100C300090E4EFEBF1E0DE01119601900D929A95B0
:100C4000E1F7811104C005E510E090E004C00AE07E
:100C500010E090E981E0E92EF82E44244A94542CC7
:100C600032010E0D1F1DE016F1060CF05CC0C7012D
:100C70000E947B2AA30192012827DA01C9018F7003
:100C80009927AA27BB27880F991F880F991FE1E092
:100C9000F0E0EC0FFD1FE80FF91F80809180A2802B
:100CA000B38034E076946794579447943A95D1F79B
:100CB00084249524A624B724C7010E947B2A482FA8
:100CC00050E064E0559547956A95E1F7052E000CD4
:100CD000660B770B482559256A257B254F705527CC
:100CE00066277727440F551F440F551FE1E0F0E0BA
:100CF000EC0FFD1FE40FF51F408051806280738070
:100D0000E4E0B694A79497948794EA95D1F74824A1
:100D100059246A247B2440945094609470943FEF4B
:100D2000E31AF30AA0CFC301B201C05CDF4F0FB6D4
:100D3000F894DEBF0FBECDBFDF91CF911F910F9111
:100D4000FF90EF90BF90AF909F908F907F906F90AB
:100D50005F904F900895CF92DF92EF92FF920F93A2
:100D60001F93CF93DF9300D000D000D0CDB7DEB774
:100D7000D82E8823E1F02DE4E22E23E0F22E00E9C4
:100D800011E0F70161917F011A830983CE01019679
:100D90000E94E1050F5F1F4F0A39F1E01F0789F735
:100DA0000AE010E090E9E92EFF24F39418C08BE5E7
:100DB000E82E83E0F82E00E010E0F70161917F015A
:100DC0001A830983CE0101960E94E1050F5F1F4F30
:100DD0000535110591F705E510E0E12CF12C8D2D7D
:100DE0000E94010669837A838B839C83E00EF11E47
:100DF0006E01F5E0CF0ED11C8E010F5F1F4FE01A80
:100E0000F10AC701800F911FF80161918F019E8344
:100E10008D83C6010E94E1050C151D0591F72696EC
:100E20000FB6F894DEBF0FBECDBFDF91CF911F91FB
:100E30000F91FF90EF90DF90CF900895CF93DF93C5
:100E400094EA9093BC009091BC0097FFFCCF9091E6
:100E5000B900987F9830D9F4C62FD82F80EC0E9423
:100E600037028831B1F48D2F0E943702883299F40D
:100E70008C2F0E943702883281F484E98093BC0071
:100E80009091BC00892F807194FDFACF07C081E05A
:100E900005C082E003C083E001C084E0DF91CF9110
:100EA00008954F925F926F927F928F929F92AF922E
:100EB000BF92CF92DF92EF92FF920F931F93CF9347
:100EC000DF9300D000D0CDB7DEB74B015C01CA0183
:100ED000B90120E030E044E353E40E943C2B2B01B5
:100EE0003C0120E030E040EA51E40E94A82B0E943F
:100EF0001A2C6B017C0120E030E044EB52E4C50188
:100F0000B4010E943C2B4B015C0120E030E040E248
:100F100051E40E94A82B0E941A2C69837A838B8348
:100F20009C830BE513E081E48C0DF80183AB898190
:100F30008F5B84ABB601DD0C880B990B0E94822974
:100F400020E030E040EA51E40E94BD299B01AC0161
:100F5000C301B2010E943B2B20E030E040E05FE3A0
:100F60000E94BD290E941A2C605DF80165AB2981A1
:100F70003A81B901330F880B990B0E94822920E036
:100F800030E040E251E40E94BD299B01AC01C50163
:100F9000B4010E943B2B0E941A2C605DF80166ABE5
:100FA00017AA0F900F900F900F90DF91CF911F9184
:100FB0000F91FF90EF90DF90CF90BF90AF909F90F8
:100FC0008F907F906F905F904F9008952F923F92F7
:100FD0004F925F926F927F928F929F92AF92BF9249
:100FE000CF92DF92EF92FF920F931F93CF93DF93F5
:100FF000CDB7DEB7A0970FB6F894DEBF0FBECDBF5A
:101000004C01180129014C8F5D8F6E8F7F8FE8A2F4
:1010100068E872E00E948D1390E4A92E22E4B22EBB
:101020003FE0C32ED12CE12CF12C00E010E0910127
:10103000A2016C8D7D8D8E8D9F8D0E94FF2C9F93C4
:101040008F937F936F935F934F933F932F93A8E674
:10105000B2E0BF93AF933E01F5E16F0E711C7F923A
:101060006F920E94F52F9101A2016C8D7D8D8E8D66
:101070009F8D0E94FD2C9F938F937F936F935F931F
:101080004F933F932F93A8E6B2E0BF93AF932E0107
:10109000FEE04F0E511C5F924F920E94F52FF3011C
:1010A00001900020E9F73197AF0146195709B301C4
:1010B000C4010E9450131A8219821C821B821E8254
:1010C0001D82B4018E010F5F1F4FC8010E94711372
:1010D000F20101900020E9F73197E419F5096D80DC
:1010E0007E800FB6F894DEBF0FBECDBF3097A1F063
:1010F0006E0E7F1EB301C8010E941713882309F4E6
:1011000094C029813A818D819E81B201820F931F03
:101110000E94DF2F7E826D82B801C4010E9471138C
:10112000C8010E94881398A1911183C0D40114961C
:101130006D907C9015976114710431F41982F80157
:1011400090E28CE0800F16C0BCE06B16710418F0C2
:101150008CE0682E712CF40160817181A301C801BB
:101160000E94E62FF801E60DF71D1082E8CF91935B
:101170008E1719F020812033D1F3F801019000205F
:10118000E9F73197AF01401B510BB801C4010E9430
:101190005013D4014D905C904114510409F449C09E
:1011A000F401648075806114710409F442C0820105
:1011B00018010F5F1F4FD1018C91082E000C990B65
:1011C0000E946C29892BA1F7B1E06B1A7108640C9D
:1011D000751CD3018C91082E000C990B0E946C2970
:1011E000892B81F4A3014F5F5F4F42195309F4012A
:1011F000558344834214530460F4B101C2010E9438
:10120000BD2F07C06214730468F3E1E06E1A710821
:10121000E0CFD401ED91FC91119714968D919C91A2
:101220001597E80FF91F108204C0C8010E943E13F1
:1012300073CFC401A0960FB6F894DEBF0FBECDBF2A
:10124000DF91CF911F910F91FF90EF90DF90CF90A2
:10125000BF90AF909F908F907F906F905F904F90D6
:101260003F902F900895EF920F931F93CF93DF93AA
:1012700000D000D000D0CDB7DEB790E0FC013197B0
:10128000EA30F10508F020C1E05CFF4F0C94642CBB
:1012900081EA91E00E948C1B8091590390915A033E
:1012A00081309105C1F08230910561F0892B09F000
:1012B0000BC160E772E080E394E00E94BB1381E918
:1012C00091E011C06EE672E080E394E00E94BB13EF
:1012D00089E991E008C062E772E080E394E00E944F
:1012E000BB1389E891E00E945E1EEEC082E891E0A7
:1012F0000E948C1B6EE873E0E3C08091120590E0C1
:1013000090934A03809349038091110590E0909354
:101310004803809347038091100590E09093B103B8
:101320008093B0038BE791E00E948C1B809149036E
:1013300090914A030A9724F486E692E00E94811E67
:101340006091490370914A03072E000C880B990B9A
:101350000E94F01B89E791E00E948C1B809147035B
:10136000909148030A9724F486E692E00E94811E39
:101370006091470370914803072E000C880B990B6E
:101380000E94F01B87E791E00E948C1B8091B003C4
:101390009091B1030A9724F486E692E00E94811EA0
:1013A0006091B0037091B103072E000C880B990B6C
:1013B00058C08FE691E097CF87E691E094CF80E622
:1013C00091E00E948C1B00913F03109140032091FB
:1013D0004103309142034091430350914403609193
:1013E000450370914603E12CCE0101960E94E60769
:1013F000CE0101960E946C1ECE0101960E948813B8
:1014000063C088E591E06FCF80E591E06CCF89E41F
:1014100091E00E948C1B8EE480937C0062E070E07F
:1014200080E090E00E94AD1480917A008064809307
:101430007A0080917A0086FDFCCF2091780080911F
:10144000790030E0382B032E000C440B550B64EB75
:101450007BE281E190E00E94C32AB901330F880B3F
:10146000990B0E94F01B80E394E00E94B7132CC0FC
:1014700082E491E00E948C1B80915703811106C089
:1014800064E772E080E394E00E94BB13809157030D
:10149000813031F466E772E080E394E00E94BB1390
:1014A00080915703823031F468E772E080E394E082
:1014B0000E94BB1380915703833031F460E872E0DF
:1014C00080E394E00E94BB1326960FB6F894DEBF2B
:1014D0000FBECDBFDF91CF911F910F91EF90089577
:1014E0003F924F925F926F927F928F929F92AF92B4
:1014F000BF92CF92DF92EF92FF920F931F93CF9301
:10150000DF93CDB7DEB7A3970FB6F894DEBF0FBE5B
:10151000CDBF4B015C010E94E7146B017C01C80C3C
:10152000D91CEA1CFB1C88EE482E83E0582E612C47
:10153000712C9FE1392E0E945F19882371F0CE0132
:1015400001960E943D1FFE013196ABEFB4E0832D62
:1015500001900D928A95E1F7EECF0E94E714970172
:101560008601061B170B280B390BB901A801493E50
:1015700013E0510761057105F4F084E391E048A39D
:1015800059A36AA37BA30E948C1B48A159A16AA1FD
:101590007BA1CB01BA01A30192010E94C32ACA0117
:1015A000B9010E94F01B80E394E00E94B71383E02E
:1015B0000E94330905C014161506160617063CF4DA
:1015C00080E394E00E949811892B09F4B4CF29EEAE
:1015D000821623E09206A104B104D8F08CE291E0D7
:1015E000A3960FB6F894DEBF0FBECDBFDF91CF91AB
:1015F0001F910F91FF90EF90DF90CF90BF90AF9031
:101600009F908F907F906F905F904F903F900C9441
:101610005E1EA3960FB6F894DEBF0FBECDBFDF915E
:10162000CF911F910F91FF90EF90DF90CF90BF90DF
:10163000AF909F908F907F906F905F904F903F9072
:1016400008950E94EE160E94D81682E090E09093D2
:101650005A038093590360E080914B030E94251444
:101660000E94861E81E00C9433092F923F924F9284
:101670005F926F927F928F929F92AF92BF92CF9222
:10168000DF92EF92FF920F931F93CF93DF93CDB72B
:10169000DEB76F970FB6F894DEBF0FBECDBF2B87B6
:1016A0003C874D875E876F87788B898B9A8BE0901C
:1016B0004F03F09050030091510310915203EB8EB1
:1016C000FC8E0D8F1E8F211501EE300705EF4007B0
:1016D00005E05007610571058105910509F008F4E1
:1016E00064C059016A017B018C0120E034E04BE6C3
:1016F00054EF64E170E080E090E00E94FF2C2F83C3
:10170000388749875A870E946A2C2B8B3C8B4D8BDC
:101710005E8B6F8B788F898F9A8FA4E6B0E02B8DCC
:101720003C8D4D8D5E8D0E94E22A1B012C015B01D8
:101730006201E12CF12C00E010E02B893C894D89FD
:101740005E896F89788D898D9A8D0E94FF2C2F8FED
:101750002B893C894D895E896F89788D898D9A8D19
:101760000E94FD2CB901CA010E94802920EF3FEFA1
:101770004FE759E40E94BD294B015C016B8D7C8DC4
:101780008D8D9E8D0E9480299B01AC01C501B40105
:101790000E94A82B0E94212C24E630E040E050E07B
:1017A0000E94A12A29013A0173C02B853C854D85F1
:1017B0005E856F85788989899A8907E00E945C2D0A
:1017C00059016A017B018C0120E034E04BE654EFC3
:1017D00064E170E080E090E00E94FF2C2F83388766
:1017E00049875A8760E070E080E090E00E946A2CB0
:1017F0002B8B3C8B4D8B5E8B6F8B788F898F9A8F69
:10180000A4E6B0E02B8D3C8D4D8D5E8D0E94E22ACA
:101810001B012C015B016201E12CF12C00E010E0C6
:101820002B893C894D895E896F89788D898D9A8D48
:101830000E94FF2C2F8F2B893C894D895E896F89EF
:10184000788D898D9A8D0E94FD2CB901CA010E9464
:10185000802920EF3FEF4FE759E40E94BD294B015B
:101860005C016B8D7C8D8D8D9E8D0E9480299B01EE
:10187000AC01C501B4010E94A82B0E94212C24E6D2
:1018800030E040E050E00E94A12A29013A0110E72F
:10189000C301B2010E94802920EF3FEF4FE759E4D6
:1018A0000E94A82B20E030E040E053E40E94BD29D4
:1018B0000E94212C9B01AC018F8D882E912CA12C94
:1018C000B12C87E0880C991CAA1CBB1C8A95D1F707
:1018D000E2E09E1AA108B108820E931EA41EB51E56
:1018E00097E0440C551C661C771C9A95D1F76FEF56
:1018F0007FEF8FE090E00E94912A461A570A680A0B
:10190000790A6FEF8AE10E941E076FEF8BE10E9458
:101910001E07D501C40188279927A370BB27BD01E5
:10192000882799278CE10E941E07692D8DE10E946E
:101930001E07682D8EE10E941E07D301C201882771
:101940009927AF70BB276A2F606F8FE10E941E0737
:10195000652D80E20E941E07642D81E20E941E0711
:101960008F809884A984BA8437E0880C991CAA1CBB
:10197000BB1C3A95D1F702E0901AA108B10860E0CB
:101980008AE20E941E0761E08BE20E941E07D501D9
:10199000C40188279927A370BB27612F6A2B8CE28B
:1019A0000E941E07692D8DE20E941E07682D8EE29F
:1019B0000E941E0760E08FE20E941E0760E080E345
:1019C0000E941E0760E081E30E941E076FE480E131
:1019D0000E941E071B85109337038C858093380364
:1019E000ED85E0933903EE84E0923A03FF84F092B0
:1019F0003B03088900933C03198910933D038A89AE
:101A000080933E0361E088E00E9425148BE391E01F
:101A10000E948C1BE12C0B851C852D853E854F85F6
:101A2000588969897A89CE0101960E94E607CE011C
:101A300001960E946C1ECE0101960E94881387E0D9
:101A40000E9433096F960FB6F894DEBF0FBECDBF6C
:101A5000DF91CF911F910F91FF90EF90DF90CF908A
:101A6000BF90AF909F908F907F906F905F904F90BE
:101A70003F902F9008952F923F924F925F926F92D6
:101A80007F928F929F92AF92BF92CF92DF92EF920E
:101A9000FF920F931F93CF93DF93CDB7DEB76F976E
:101AA0000FB6F894DEBF0FBECDBF0E94EE160E94A7
:101AB000D81610925A0310925903E4E9F3E081E03A
:101AC0009191911180E023E0E13AF207C9F7882370
:101AD00031F080E091E00E945E1E81E001C080E074
:101AE000909185039134C9F4909186039134A9F4BF
:101AF00090918703903389F490918803913469F42D
:101B000090918903913449F490918A03913429F496
:101B100089EE90E00E945E1E02C0882329F08AECC4
:101B200090E00E945E1E73C10E944402A0903F0399
:101B3000B0904003C0904103D0904203E090430333
:101B4000F090440300914503109146030E94402900
:101B500028EC30E040E050E00E94C32A645671094E
:101B60008109910924E630E040E050E00E94C32C56
:101B70000E94752D20933F0330934003409341030F
:101B8000509342036093430370934403809345034F
:101B9000909346030E94861E81E00E9433098CE8E0
:101BA00092E032EA332E380E4CC18091190583FF42
:101BB00074C182FF72C18091120590E090934A0334
:101BC0008093490310911105812F90E09093480371
:101BD000809347038091100590E09093B103809328
:101BE000B00380918C0390918D03019731F5609142
:101BF000FF047091000580910105909102050E94FB
:101C0000822925E93FEB46ED53E30E94BD296B0194
:101C10007C016091FB047091FC048091FD04909123
:101C2000FE040E94822925E93FEB46ED53E30E9422
:101C3000BD29A70196010E9451078091B0039091A0
:101C4000B103892B09F00FC110FD0DC10E941B03C8
:101C500061E080914B030E9425140E94E7142B0140
:101C60003C01EBEA4E0EE2E05E1E611C711C2CE8AA
:101C7000822E22E0922EF40141914F01F2E94F9F12
:101C8000A0011124952F990F990B9A01492F592FD3
:101C9000692F792F892FA0903F03B0904003C09007
:101CA0004103D0904203E0904303F090440300913D
:101CB0004503109146030E94752D0E94350B0E942A
:101CC000E714641575058605970508F4C4C005E09A
:101CD00010E061E080914B030E9425146AE070E0FF
:101CE00080E090E00E94AD1460E080914B030E9480
:101CF000251462E370E080E090E00E94AD14015092
:101D0000110939F780E394E00E949811892B09F0BA
:101D1000D5C02BEA420E22E0521E611C711C381005
:101D2000AACF00E010E00E94861E60E080914B0385
:101D30000E942514012B09F0A7C18091580390E05F
:101D40008C30910509F4BDC021E00196FC01E55AF3
:101D5000FC4F31AD311120E08C309105B4F32111ED
:101D6000B0C00E94EE160E944402A0903F03B090C3
:101D70004003C0904103D0904203E0904303F090B1
:101D8000440300914503109146030E94402928EC2A
:101D900030E040E050E00E94C32A64567109810996
:101DA000910924E630E040E050E00E94C32C0E94FC
:101DB000752D20933F03309340034093410350938C
:101DC00042036093430370934403809345039093CD
:101DD000460368EB7BE080E090E00E94700A0E947E
:101DE0005F19882371F1CE0101960E943D1FFE010B
:101DF0003196ABEFB4E08FE101900D928A95E1F757
:101E000080E394E00E949811892B09F4CECE6F965E
:101E10000FB6F894DEBF0FBECDBFDF91CF911F91FB
:101E20000F91FF90EF90DF90CF90BF90AF909F9079
:101E30008F907F906F905F904F903F902F900C9479
:101E4000210B80E394E00E949811892B09F01CC1BA
:101E500081E2282EC4CF80E394E00E949811892B60
:101E600009F42DCF34CF83E00E9433098091B00371
:101E70009091B103C99744F484E00E94330982E051
:101E80000E9433090E943B1682E090E00E94621794
:101E900068EC70E080E090E0A0CF0E943B1681E00B
:101EA00090E00E94621785E00E94330983E00E945F
:101EB000330960E971E080E090E08FCF01E010E04D
:101EC00032CF2091A4033091A5034091A6035091F5
:101ED000A7032D3331054105510508F4CEC068E54F
:101EE00072E080E090E00E94AD1461E081E10E9428
:101EF00025148091A4039091A5034C01EEE18E1A64
:101F0000910897FE04C04C01F7E18F1A910893E005
:101F1000959487949A95E1F78DEC94E00E941B16B6
:101F200061E08EE00E94711460E08EE00E94251452
:101F300061E084E10E94711460E084E10E94251454
:101F400061E085E10E94711460E085E10E94251442
:101F500061E08AE00E94711460E08AE00E9425142A
:101F600061E08BE00E94711460E08BE00E94251418
:101F700061E08CE00E94711460E08CE00E94251406
:101F800061E08DE00E94711460E08DE00E942514F4
:101F900061E084E00E94711460E084E00E942514F6
:101FA00061E085E00E94711460E085E00E942514E4
:101FB00061E086E00E94711460E086E00E942514D2
:101FC00061E087E00E94711460E087E00E942514C0
:101FD00061E088E00E94711460E088E00E942514AE
:101FE00061E089E00E94711460E089E00E9425149C
:101FF00080917A008F7780937A0028E120936000A7
:10200000209260008091600080648093600083B7BC
:10201000846083BF83B7816083BF00E010E0081550
:102020001905DCF485B7806685BF85B78F79806434
:1020300085BF889561E080914B030E9425146EE175
:1020400070E080E090E00E94AD1460E080914B036E
:102050000E9425140F5F1F4FE2CF80917A008068A5
:1020600080937A000E94911E0E94EE160E94D8165C
:1020700060ED77E080E090E004C0A8EEB3E00E945D
:10208000E22A0E94700A6DCE6F960FB6F894DEBFFA
:102090000FBECDBFDF91CF911F910F91FF90EF90B9
:1020A000DF90CF90BF90AF909F908F907F906F9078
:1020B0005F904F903F902F90089581E090E0909333
:1020C0005A03809359030E94FA160E941017E8EAF7
:1020D000F3E0208131814281538164817581868161
:1020E000978120933F0330934003409341035093E3
:1020F000420360934303709344038093450390939A
:1021000046030E94350B61E080914B030E94251429
:1021100081E00E94330986E00C9433092F923F92AC
:102120004F925F926F927F928F929F92AF92BF92E7
:10213000CF92DF92EF92FF920F931F93CF93DF9393
:1021400000D000D01F92CDB7DEB79B838A83FC01FD
:1021500024803580A0E0B0E020E030E040E050E0B6
:1021600060E070E080E090E0A215B30509F444C09F
:10217000EA81FB81008111810115110531F0F8011F
:10218000EA0FFB1F10811D8301C01D82FD81F053EA
:10219000FA3090F501E00E945C2DE22F432E542E80
:1021A000652E762E872E982E9C8302E00E945C2D51
:1021B00059016A017B018C012E2F342D452D562D9E
:1021C000672D782D892D9C810E94752D59016A01FA
:1021D0007B018C018D81E82F880FFF0BF0979F2FDB
:1021E000990F990B9F01492F592F692F792F892F0B
:1021F0000E94752D1196B8CF0F900F900F900F90F1
:102200000F90DF91CF911F910F91FF90EF90DF9092
:10221000CF90BF90AF909F908F907F906F905F9086
:102220004F903F902F900895FC0110820895FC017B
:1022300014821582168217821082118212821382F2
:1022400011861086138612861586148617861686C2
:10225000118A108A138A128A148A168A178A158A92
:1022600081E0818F828F138E87E0808F148E158E90
:10227000CF014E960C941411CF92DF92EF92FF9201
:102280000F931F93CF93DF936C017A018B01C0E012
:10229000D0E0CE15DF0589F0D8016D918D01D60112
:1022A000ED91FC910190F081E02DC6010995892BFB
:1022B00011F47E0102C02196ECCFC701DF91CF91CE
:1022C0001F910F91FF90EF90DF90CF900895FC0148
:1022D000538D448D252F30E0842F90E0821B930B8B
:1022E000541710F0CF96089501970895FC01918D31
:1022F000828D981761F0828DDF01A80FB11D5D9668
:102300008C91928D9F5F9F73928F90E008958FEFD5
:102310009FEF0895FC01918D828D981731F0828D89
:10232000E80FF11D858D90E008958FEF9FEF0895E0
:10233000FC01918D228D892F90E0805C9F4F821B44
:1023400091098F739927089580E394E00E94981172
:1023500021E0892B09F420E0822F0895FC01848D6F
:10236000DF01A80FB11DA35ABF4F2C91848D90E0BF
:1023700001968F739927848FA689B7892C93A0899A
:10238000B1898C9180648C93938D848D981306C051
:102390000288F389E02D80818F7D80830895EF92FC
:1023A000FF920F931F93CF93DF93EC0181E0888F0F
:1023B0009B8D8C8D981305C0E889F989808185FDF6
:1023C00024C0F62E0B8D10E00F5F1F4F0F731127E7
:1023D000E02E8C8DE8120CC00FB607FCFACFE8890E
:1023E000F989808185FFF5CFCE010E94AE11F1CF32
:1023F0008B8DFE01E80FF11DE35AFF4FF0820B8F2A
:10240000EA89FB898081806207C0EE89FF89608349
:10241000E889F98980818064808381E090E0DF91A0
:10242000CF911F910F91FF90EF900895CF93DF937D
:10243000EC01888D8823C9F0EA89FB89808185FDBC
:1024400005C0A889B9898C9186FD0FC00FB607FC1D
:10245000F5CF808185FFF2CFA889B9898C9185FF5E
:10246000EDCFCE010E94AE11E7CFDF91CF9108955D
:1024700080E090E0892B29F00E94A41181110C9436
:10248000000008953FB7F89480912C0490912D049A
:10249000A0912E04B0912F0426B5A89B05C02F3F14
:1024A00019F00196A11DB11D3FBFBA2FA92F982F7A
:1024B0008827820F911DA11DB11DBC01CD0143E0F4
:1024C000660F771F881F991F4A95D1F708952091AD
:1024D000D5053091D6052817390771F49091D305A9
:1024E0008091D405981741F0E091D305F0E0E951CF
:1024F000FC4F808190E008958FEF9FEF089508953D
:102500001F93CF93DF93DC015C962D913C915D97F7
:102510002115310539F481E090E013969C938E9358
:1025200012973DC05196ED91FC91529750969C9117
:102530005097892F80951FB75E964C915E9741FB0F
:10254000772770F941FD6095F8944081772311F069
:10255000492B01C048234083E9012197F1F748E066
:10256000508160FF02C0592B01C058235083E901FC
:102570002197F1F76695415099F7772321F09081E3
:102580008923808303C08081982B90831FBF5C9632
:102590008D919C915D970197F1F721E030E0C901A1
:1025A000DF91CF911F9108952091D5053091D605E7
:1025B0002817390771F48091D4052091D30590E054
:1025C000805C9F4F821B910960E470E00E94502C58
:1025D000089580E090E008952091D5053091D605CA
:1025E00028173907B9F49091D3058091D40598172D
:1025F00089F0E091D305F0E0E951FC4F8081209112
:10260000D30530E02F5F3F4F2F7333272093D3053F
:1026100090E008958FEF9FEF0895089580E090E097
:1026200008950E94A52F86E692E00C94811E0F93D8
:102630001F93CF93DF93EC0188819981009729F054
:102640002A813B812617370788F48B016F5F7F4F04
:102650000E94DB2E009761F0998388831B830A8395
:102660002C813D81232B11F4FC01108281E001C0FB
:1026700080E0DF91CF911F910F910895CF93DF9369
:10268000EC0188819981009711F00E94432E1982F4
:1026900018821D821C821B821A82DF91CF910895BD
:1026A000EF92FF920F931F93CF93DF93EC017B0187
:1026B0008A01BA010E941713811104C0CE010E9441
:1026C0003E1307C01D830C83B701888199810E9446
:1026D000DF2FCE01DF91CF911F910F91FF90EF90EF
:1026E0000895CF93DF93EC01FB018617970761F004
:1026F000608171816115710529F0448155810E94C5
:10270000501302C00E943E13CE01DF91CF91089575
:10271000FC01808191810C94432EFC011182108276
:1027200013821282158214826115710551F0FB012A
:1027300001900020E9F73197AF01461B570B0C942D
:10274000501308956115710579F0FB010190002087
:10275000E9F73197AF01461B570BDC01ED91FC9176
:102760000280F381E02D099480E090E0089566E80E
:1027700072E00C94A2130F931F93CF93DF93EC019D
:102780000E94A2138C01CE010E94B713800F911FEB
:10279000DF91CF911F910F9108951F920F920FB665
:1027A0000F9211242F933F934F935F936F937F93D7
:1027B0008F939F93AF93BF93EF93FF9380E394E046
:1027C0000E94AE11FF91EF91BF91AF919F918F91B8
:1027D0007F916F915F914F913F912F910F900FBE1D
:1027E0000F901F9018951F920F920FB60F92112401
:1027F0002F938F939F93EF93FF93E0914004F09179
:1028000041048081E0914604F091470482FD12C0AA
:102810009081809149048F5F8F7320914A048217C1
:1028200051F0E0914904F0E0E05DFB4F958F80931B
:10283000490401C08081FF91EF919F918F912F9169
:102840000F900FBE0F901F90189590E0FC01EB5673
:10285000FC4F3491FC01EF5FFB4F2491FC01E351ED
:10286000FC4FE491EE2309F43BC0332339F13330BC
:1028700091F038F43130A9F0323001F584B58F7D14
:1028800012C0373091F03830A1F03430B9F4809173
:1028900080008F7D03C0809180008F7780938000BF
:1028A0000DC084B58F7784BD09C08091B0008F774B
:1028B00003C08091B0008F7D8093B000F0E0EE0FF8
:1028C000FF1FE752FC4FA591B4918FB7F894EC919C
:1028D000611103C020952E2301C02E2B2C938FBF96
:1028E0000895CF93DF9390E0FC01EF5FFB4F2491BD
:1028F000FC01E351FC4F8491882361F190E0880F43
:10290000991FFC01E557FC4FC591D491FC01E7529A
:10291000FC4FA591B491611109C09FB7F8948881CB
:10292000209582238883EC912E230BC0623061F4C2
:102930009FB7F8943881822F809583238883EC9108
:102940002E2B2C939FBF06C08FB7F894E8812E2BB7
:1029500028838FBFDF91CF9108958F929F92AF927E
:10296000BF92CF92DF92EF92FF926B017C010E94A7
:1029700042124B015C01C114D104E104F104F1F0F5
:102980000E944212DC01CB0188199909AA09BB09EE
:10299000883E9340A105B10570F321E0C21AD10829
:1029A000E108F10888EE880E83E0981EA11CB11C96
:1029B000C114D104E104F10419F7DDCFFF90EF90C9
:1029C000DF90CF90BF90AF909F908F9008952FB7DA
:1029D000F894609128047091290480912A049091C0
:1029E0002B042FBF08951F920F920FB60F92112440
:1029F0002F933F938F939F93AF93BF93809128041E
:102A000090912904A0912A04B0912B0430912704BD
:102A100026E0230F2D3720F40296A11DB11D05C01D
:102A200029E8230F0396A11DB11D2093270480934D
:102A3000280490932904A0932A04B0932B04809136
:102A40002C0490912D04A0912E04B0912F04019696
:102A5000A11DB11D80932C0490932D04A0932E04EE
:102A6000B0932F04BF91AF919F918F913F912F9180
:102A70000F900FBE0F901F9018958F929F92AF925C
:102A8000BF92CF92DF92EF92FF924B015C016B01FC
:102A90007C0184E0F694E794D794C7948A95D1F7A3
:102AA000D501C40122E0B695A795979587952A95FB
:102AB000D1F7C80ED91EEA1EFB1ED701C60134E0AD
:102AC000B695A795979587953A95D1F7C80ED91ED3
:102AD000EA1EFB1EBB27AF2D9E2D8D2DC80ED91EC5
:102AE000EA1EFB1EC701AA27BB27C80ED91EEA1E75
:102AF000FB1EA3E0B0E0A70196010E94E22AA50117
:102B00009401261B370B480B590BABE0B0E00E9439
:102B1000E22ADC01CB0165E0B695A79597958795EC
:102B20006A95D1F7BC01CD016C0D7D1D8E1D9F1DD9
:102B3000FF90EF90DF90CF90BF90AF909F908F90DD
:102B400008951F920F920FB60F9211242F933F9367
:102B50004F935F936F937F938F939F93AF93BF93A5
:102B6000EF93FF93E091D505F091D605309709F4E6
:102B700051C0968DA685B785858591FF04C09C912F
:102B8000892329F447C09C91892309F043C0A38974
:102B9000B4899C918589809589238C9386899789AE
:102BA0000197F1F7608D718DA685B785558538E061
:102BB00020E0CB010197F1F7822F90E09595879562
:102BC000282F4C91452309F02068315091F7868DCC
:102BD00081FD20958091D40590E001968F7399270F
:102BE0003091D305381749F0A091D405B0E0A95130
:102BF000BC4F2C938093D40503C0868D8160868F53
:102C0000828D938D0197F1F7A389B4899C91858971
:102C1000892B8C93FF91EF91BF91AF919F918F91F1
:102C20007F916F915F914F913F912F910F900FBEC8
:102C30000F901F901895E091D505F091D605E817F3
:102C4000F90769F4A389B4899C91858980958923C2
:102C50008C931092D6051092D50581E0089580E0FE
:102C600008951F920F920FB60F9211240F900FBE6E
:102C70000F901F901895CF92DF92EF92FF920F93D3
:102C80001F93CF93DF931F92CDB7DEB7D12C85E092
:102C9000C82E80918B05D81608F07DC084E893E09B
:102CA0000E948C1B0D2D10E0C09EF001C19EF00D06
:102CB0001124E65EFA4F85858A3010F40E941313C2
:102CC000C09EC001C19E900D11249C01265E3A4F0A
:102CD0007901F901658570E080E090E04AE00E94AA
:102CE000AD1B89E892E00E94811EF70187859089DB
:102CF0008436910510F40E941313C09EF001C19E0A
:102D0000F00D1124E65EFA4F878590890A9710F43A
:102D10000E941313C09EC001C19E900D11249C01FE
:102D2000265E3A4F7901F9016785708980E090E06D
:102D30004AE00E94AD1B89E892E00E94811EF701E3
:102D400086858A3010F40E941313C09E7001C19EC4
:102D5000F00C1124F701E65EFA4F668570E080E022
:102D600090E04AE00E94AD1B89E892E00E94811E3B
:102D7000F701E55DFA4F808187FF04C08F778A30C5
:102D800030F401C080E089830E94131389810E947E
:102D90002A1FD3947ECF80E394E00F90DF91CF91F0
:102DA0001F910F91FF90EF90DF90CF900C94B7138D
:102DB00060E081E10E94251464E670E080E090E02C
:102DC0000E94AD148CE58093B8001092B9008FEF8B
:102DD0008093BB00109264000C94861E69E872E038
:102DE0008DEC94E00E94BB1364E670E080E090E01C
:102DF0000C94AD14809153032091540330915503EA
:102E00004091560392E6981751F0921739F09317B4
:102E100029F0941719F09150B1F70895892F08956A
:102E20000F931F93CF93DF9300915303081304C0B4
:102E30001092570391E001C090E0109154031813D1
:102E400003C091E090935703D0915503D81304C069
:102E500092E09093570391E0C0915603C817E1F0B8
:102E6000992321F02AC08C17B9F08F5F8336C0F008
:102E7000833619F50E94FA16081302C01092570300
:102E8000181303C091E090935703D81303C092E046
:102E900090935703C81311C083E0809357030DC06C
:102EA000801303C01092570308C0811302C081E051
:102EB000F4CF8D13D8CF82E0F0CFDF91CF911F9167
:102EC0000F9108950F931F93CF93DF938C01C0E070
:102ED000D0E0C017D107C4F461E080914B030E9499
:102EE000251462E370E080E090E00E94700A60E0E8
:102EF00080914B030E94251462E370E080E090E033
:102F00000E94700A2196E5CFDF91CF911F910F911A
:102F100008951F93CF93DF931F92CDB7DEB7A82FED
:102F200010911A05153009F474C0163009F402C165
:102F3000113009F0BEC1E091AC054E2F50E0FA010E
:102F40003197E930F10508F0B4C1E65BFF4F0C940E
:102F5000642C8091AF0582FFACC18091AD058111D9
:102F6000A8C1A33509F0A5C180918C0590918D056C
:102F7000A0918E05B0918F05B095A0959095819503
:102F80009F4FAF4FBF4F80938C0590938D05A093BB
:102F90008E05B0938F058DC1AC3249F48091AD059B
:102FA000811105C08091AF058B7F8093AF05809123
:102FB000AF0582FF7EC16A2F80E995E00E94AB1CBD
:102FC00078C18091AD05811174C18A2F0E94B41D12
:102FD00070C1682F80EA95E00E943E1E882309F4A4
:102FE00068C19091AA05906820C142E0682F84E9E9
:102FF00095E00E94221C882309F45BC121E0909196
:10300000AD05911101C020E09091AA0520FB94F933
:103010000CC190918B05943108F04BC18091AC05A7
:10302000843008F446C18370292F30E08230C9F023
:10303000833009F449C0813049F0129FC001139FC9
:10304000900D11246A2F895D9A4F08C0129FC0010C
:10305000139F900D11246A2F885D9A4F0E943E1E87
:1030600028C1AC3219F18091AF058E7F8093AF05F6
:103070008091AD05129FF001139FF00D11246A2F6E
:1030800070E0E65EFA4F811103C0605371090BC016
:10309000278530894AE0429FC001439F900D11244B
:1030A000C097680F791F708B678703C1129FF0016B
:1030B000139FF00D1124E55DFA4F80818F77808397
:1030C0009F5F90938B05F5C021503109129FF0014D
:1030D000139FF00D1124E55DFA4FAC3201F18081B0
:1030E0008F7789836A2FCE0101960E943E1E8091C0
:1030F0008B0590E00197189FF001199FF00D1124A6
:10310000E55DFA4F8981982F9F7780818078892BA0
:1031100080838091AF0582608093AF05CAC091E043
:103120008091AD05811101C090E0808190FB87F90D
:103130008083BFC0E091AC054E2F50E0FA0131977B
:10314000E930F10508F0B5C0ED5AFF4F0C94642C3E
:103150008A2F0E94E31DAEC08091AD05882341F007
:103160008091AF0582FFA5C06A2F8CE895E026CF3D
:1031700091E0AC3209F490E08091AF0590FB82F9C8
:103180008093AF05EDCF9091AF0592FB882780F932
:1031900092FF8FC09091AD0591118BC09091AA05BF
:1031A00098609093AA05A73509F083C040919005D7
:1031B000509191056091920570919305709560957D
:1031C000509541955F4F6F4F7F4F409390055093BF
:1031D000910560939205709393056CC043E0682F4E
:1031E00088E995E00E94221C882309F462C021E04E
:1031F0009091AD05911101C020E09091AA0520FBAE
:1032000095F913C042E0682F8CE995E00E94221CDA
:10321000882309F44EC021E09091AD05911101C0C1
:1032200020E09091AA0520FB96F99093AA0542C050
:103230009091AD05923031F140F49923B9F091307D
:10324000C1F56091A505605319C0943049F108F1AA
:10325000953079F56091A7056053680F6093A705D5
:103260008091AA0582608093AA0523C08C3209F15F
:10327000682F660F6056A62FAA0FAA0F6A0F6093D9
:10328000A50517C0682F660F6056A62FAA0FAA0FB4
:1032900003C06091A60560536A0F6093A60509C03C
:1032A000682F660F6056A62FAA0FAA0F6A0F6093A9
:1032B000A70581E00F90DF91CF911F9108958F9224
:1032C0009F92AF92BF92CF92DF92EF92FF920F93B5
:1032D0001F93CF93DF931F92CDB7DEB701E0F8E0E5
:1032E000FF2E88248394A3E0EA2E12E0E091CD041F
:1032F000F091CE040084F185E02D8DEC94E00995E9
:10330000892B09F4D9C1E091CD04F091CE04028457
:10331000F385E02D8DEC94E00995982E809123059E
:1033200090912405A0912505B09126050196A11D37
:10333000B11D8093230590932405A0932505B09398
:10334000260584E2981217C08091AF0584FF05C05E
:103350008F7E8093AF0510928B051092AB05109273
:103360001A058092B0051092AD058091AF058D7F52
:103370008093AF05BBCF2091B005223061F5EAE222
:103380009E1203C0E092B0051DC080EE890D8F35FE
:1033900008F0FCC08091AB0589258093AB05892D91
:1033A0000E948917882309F4F1C0FCE29F120DC026
:1033B0008091AF058D7F8093AF058091AC058F5FC5
:1033C0008093AC051092AD0591CF8091AD058F5FD4
:1033D0008093AD058BCF213009F062C08091AB05A1
:1033E00089258093AB058CE2981212C080911A0552
:1033F000882309F475C18AEA95E029830E94141193
:1034000029812093AC051092AD051093B0056ECFC5
:103410009091AD05923008F45FC1EEEFBE2EB90E6B
:1034200080911A05882319F08150883008F080E0D7
:10343000E82FF0E0EE0FFF1FE753FC4F259134918A
:103440004B2D50E0F901E40FF51FE4919E1204C0EA
:103450008F5F80931A0540C19E160CF441C18F5FA7
:10346000883009F43DC1E82FF0E0EE0FFF1FE7536D
:10347000FC4FA591B491B9016D01C21AD30AE62F90
:10348000E21BEB1510F09D01DDCFFB01A490F601CE
:10349000E60FF71FE4916F5F7F4FAE1681F3F3CF16
:1034A000233009F078C0992D90628FE9890F86301A
:1034B00010F4975501C090534091AD052091AB0594
:1034C000892F90E041110DC08092AD0530E044E0BD
:1034D000359527954A95E1F72817390709F406CF5E
:1034E00042C02F7030E028173907E9F58091AF0509
:1034F00081FF09C08D7F8093AF054F5F4093AD057D
:103500008CE20E94891780911B0590911C05A09167
:103510001D05B0911E050196A11DB11D80931B05CF
:1035200090931C05A0931D05B0931E0591E080911A
:103530001A05863009F090E08091AF0590FB84F980
:103540008093AF051092B0052091D005222341F160
:1035500088608093AF051092D1058091D00581508D
:103560008093D0051DC080911F0590912005A091EA
:103570002105B09122050196A11DB11D80931F0563
:1035800090932005A0932105B09322058AEA95E047
:103590000E941411A5C02111A9CE10921A05A6CE21
:1035A0008091AA0580FF0CC03091CF052091A9051C
:1035B00030FF04C03091CE05321710F42093CE05B1
:1035C00081FF0CC02091A5052093CA052091A60576
:1035D0002093CB052091A7052093CC0582FF10C036
:1035E0002091A3052093C8052091A2052093C7052B
:1035F0002091A1052093C6052091A8052093CD0513
:1036000083FF09C0ECE8F5E0A1EBB5E08F2D019058
:103610000D928A95E1F78091AA0584FF10C0409130
:10362000940550919505609196057091970540938A
:10363000B9055093BA056093BB057093BC0586FF2E
:1036400010C040919C0550919D0560919E05709120
:103650009F054093C1055093C2056093C3057093C5
:10366000C40585FF10C0409198055091990560915F
:103670009A0570919B054093BD055093BE056093DC
:10368000BF057093C00587FF04C08091A00580939B
:10369000C5052091CF058091AA05822B8093CF0587
:1036A000992309F423CE1092D2058091D00581117F
:1036B0001DCE0093D00519CE8091D0050F90DF91DB
:1036C000CF911F910F91FF90EF90DF90CF90BF901F
:1036D000AF909F908F9008959F5F9093AD0506CE19
:1036E00010921A051092B00501CE282F082E000C5A
:1036F000330B205331092A30310510F480530895DB
:10370000803231F09FEB980F9A3120F4875308955F
:1037100084E208958FEF08950F931F93CF93DF9363
:103720008C01C0E0D0E0F801EC0FFD1F649166232E
:1037300071F0E0913004F09131040190F081E02DBE
:1037400080E394E00995892B11F02196ECCFCE010E
:10375000DF91CF911F910F9108958F929F92AF9219
:10376000BF920F931F93CF93DF93CDB7DEB7A1978F
:103770000FB6F894DEBF0FBECDBF19A2423008F4D9
:103780004AE08E010F5D1F4F842E912CA12CB12C8D
:10379000A50194010E94A12AE62FB901CA01015096
:1037A0001109EA3014F4E05D01C0E95CD801EC9342
:1037B000232B242B252B61F7B80180E394E00E9492
:1037C000A213A1960FB6F894DEBF0FBECDBFDF9156
:1037D000CF911F910F91BF90AF909F908F900895C0
:1037E000CF92DF92EF92FF92CF93DF9397FF21C0AA
:1037F0006B017C01E0913004F09131040190F08183
:10380000E02D6DE280E394E00995EC0166277727CF
:10381000CB016C197D098E099F094AE00E94AD1BFE
:103820008C0F9D1FDF91CF91FF90EF90DF90CF9095
:1038300008954AE0DF91CF91FF90EF90DF90CF9015
:103840000C94AD1BFC018091AD05882321F06C32F6
:1038500009F04CC018C0118210821382128280912C
:10386000AF0582608093AF051092AE0581E06D32A6
:1038700009F080E09091AF0580FB90F99093AF053F
:10388000882329F366C08091AE05811103C081E0D1
:103890008093AE0582819381892B99F48091AF0545
:1038A00080FF22C0828193819195819591099383B4
:1038B0008283808191819195819591099183808303
:1038C00013C02AE08091AE0591E0980F9093AE0569
:1038D000481720F362817381269FC001279F900DB6
:1038E000112493838283EECF81E008956E3221F418
:1038F00081E08093AE052DC08091AE05811112C08C
:10390000208131814AE0429FC001439F900D1124E4
:10391000062E000C770B60537109680F791F7183B5
:10392000608317C091E0980F9093AE05481788F018
:10393000228133814AE0429FC001439F900D1124B0
:10394000062E000C770B60537109680F791F738383
:10395000628380E00895CF92DF92EF92FF921F93EF
:10396000CF93DF93EC01162F8091AD0581110BC031
:10397000188219821A821B821092AE058091AF05BF
:1039800082608093AF051E3291F01C3209F07FC037
:103990008091AE05882359F08091AE05843099F569
:1039A000288139814A815B81A4E6B0E046C081E08C
:1039B0008093AE052981822F82958F702F703AE017
:1039C000839F200D11248A8181112C598881982F81
:1039D00092959F708F703AE0939F800D112490E034
:1039E0003CE3239F800D911D1124092E000CAA0B8E
:1039F000BB0B88839983AA83BB831E3209F4A9C0B9
:103A00001C3251F244C0853039F4288139814A8111
:103A10005B81AAE0B0E011C08630F1F008F09BC0F5
:103A2000288139814A815B81833019F4A8EEB3E0A3
:103A300004C0823029F4A0E1B7E20E94E22A08C063
:103A4000813051F460EA76E881E090E00E94912AAA
:103A5000688379838A839B83C880D980EA80FB80CE
:103A6000D701C601880F991FAA1FBB1FBC01CD013A
:103A70006F5F7F4F8F4F9F4F0E943D15C60ED71E21
:103A8000E81EF91EC882D982EA82FB8264C0809156
:103A9000AE05811118C0812F110F990BC097092E07
:103AA000000CAA0BBB0B488159816A817B8134E0F1
:103AB000440F551F661F771F3A95D1F7842B952B1E
:103AC000A62BB72B42C08F5F8093AE058730C0F422
:103AD000288139814A815B81AAE0B0E00E94E22A14
:103AE000212F110F330B205331096901330FEE08D9
:103AF000FF08DC01CB018C0D9D1DAE1DBF1D25C037
:103B0000873039F5C880D980EA80FB80D701C601AB
:103B1000880F991FAA1FBB1FBC01CD016F5F7F4F8C
:103B20008F4F9F4F0E943D15DC01CB018C0D9D1DD9
:103B3000AE1DBF1D193324F00296A11DB11D05C095
:103B400014331CF00196A11DB11D88839983AA83AB
:103B5000BB8380E001C081E0DF91CF911F91FF9096
:103B6000EF90DF90CF900895813311F0813411F4FC
:103B700083E020C0803321F08E3411F0863519F4B3
:103B80001092A90519C0823311F0843411F484E035
:103B900011C0833311F487E00DC0843311F486E043
:103BA00009C0853311F485E005C0863311F08534F2
:103BB00041F481E08093A9058091AA0581608093FA
:103BC000AA0580E00895E091AD054E2F50E0493000
:103BD000510508F051C0FA01E45AFF4F0C94642CCF
:103BE0001092A8058C3209F447C09091AF059260FD
:103BF0009093AF05880F8056982F990F990F03C0A7
:103C00009091A3059053890F8093A30535C0880F29
:103C10008056982F990F990F03C09091A205905349
:103C2000890F8093A20528C0880F8056982F990F7E
:103C3000990F03C09091A1059053890F8093A1051E
:103C40001BC08C32C9F413C08C3289F0880F8056A7
:103C5000982F990F990F890F8093A8050DC08C326A
:103C600031F09091A8059053890F8093A805809119
:103C7000AA0584608093AA0581E00895FC018091E3
:103C8000AF058E7F8093AF0581E06C3209F080E054
:103C90009091AD05911104C081110CC0605308C012
:103CA00081110AC0605380819AE0899F600D1124C0
:103CB000608302C080E0089581E00895CF93DF9390
:103CC0000E948C1BEC0180E394E00E94B7138C0FE0
:103CD0009D1FDF91CF910895CF93DF93FC01448125
:103CE00055816081718180E394E00E943C11EC0178
:103CF00080E394E00E94B7138C0F9D1FDF91CF915A
:103D00000895BC0180E394E00C94A21360E880E184
:103D10000E941E0760E088E00E94251488E00C9451
:103D200033091092E8041092E7041092E60410920E
:103D3000E5041092E4041092E3048DEC90E090937B
:103D4000EA048093E9049091D904963108F057C0B1
:103D500025E530E03093E4042093E3042BEC30E0DD
:103D60003093E6042093E50420E930E03093E80442
:103D70002093E70420916800983050F031E09E30A5
:103D800008F430E081E001C0880F3A95EAF701C0FD
:103D900084E0822B80936800983038F09E3040F0A9
:103DA000963148F020E030E008C02DE630E005C054
:103DB0002BE630E002C02CE630E03093E1042093A3
:103DC000E004983030F481E001C0880F9A95EAF75A
:103DD0000EC0292F30E09E3018F42850310902C05F
:103DE0002E50310981E001C0880F2A95EAF78093AF
:103DF000E2048091E9049091EA040197F1F780913F
:103E0000E7049091E804892B21F18091D5059091E8
:103E1000D60524E08D3C9207E1F0009711F00E9456
:103E20001B168091EB048E7F8093EB041092D405D7
:103E30001092D3058DEC94E09093D6058093D50530
:103E4000E091E004F091E10490818091E204892BFB
:103E500080830895CF93DF93682F70E080E090E037
:103E60004AE00E94AD1BEC0180E394E00E94B7138E
:103E70008C0F9D1FDF91CF910895CF93DF93EC01BD
:103E80000E9417119091D0059923C1F09150909301
:103E9000D0052091D1058FE1829F90011124F90175
:103EA000EF54FA4FDE0101900D928A95E1F7C901B6
:103EB0008F549A4F0E9417111092D105CE01DF91B5
:103EC000CF910895CF93DF93CDB7DEB7C756D10911
:103ED0000FB6F894DEBF0FBECDBF789484B5826074
:103EE00084BD84B5816084BD85B5826085BD85B59E
:103EF000816085BD80916E00816080936E0010921C
:103F00008100809181008260809381008091810096
:103F10008160809381008091800081608093800027
:103F20008091B10084608093B1008091B000816085
:103F30008093B00080917A00846080937A008091B1
:103F40007A00826080937A0080917A008E7F8093DD
:103F50007A0080917A00806880937A001092C10084
:103F60001092B3031092B203E0914004F091410427
:103F700082E08083E0913C04F0913D041082E09166
:103F80003E04F0913F0487E6808310924804E0915C
:103F90004404F091450486E08083E0914204F0916E
:103FA0004304808180618083E0914204F091430466
:103FB000808188608083E0914204F0914304808195
:103FC00080688083E0914204F091430480818F7D7A
:103FD000808380ED97E0A0E0B0E08093340490937C
:103FE0003504A0933604B09337040E94911E8DE4EB
:103FF000C82E83E0D82E00E911E0C8010E947B2A78
:10400000F60181936F010F5F1F4F0A39F1E01F071F
:10401000A1F781E00E9401062B013C01CE0101962F
:104020005C016C01C8010E947B2AF50181935F014C
:104030000F5F1F4F0E39F1E01F07A1F789819A81A9
:10404000AB81BC8184159505A605B70519F181E002
:1040500080934D0386E080934E0380EC9CEFABE9A8
:10406000B1E080934F0390935003A0935103B0931A
:10407000520383E680935303809354038093550344
:104080008093560385E892E00E945E1E8FE192E0E5
:104090000E945E1E0BE513E0A12CB12CC5010E940D
:1040A0007B2AF80181938F01FFEFAF1ABF0A25E544
:1040B000A216B10499F780E00E9401062B013C0191
:1040C0008601C5010E947B2AF80181938F01FFEFD1
:1040D000AF1ABF0A29E5A216B10499F789819A811E
:1040E000AB81BC8184159505A605B70569F480915F
:1040F00083039091840390935A0380935903109201
:104100008B031092920371C021E030E030935A0388
:104110002093590387E580935B0383E580935C03D9
:1041200080E580935D0382E580935E0380E2809367
:104130005F0384E58093600388E5809361031092B8
:10414000620382E090E0909384038093830381E490
:10415000809385038093860390E3909387038093F5
:1041600088038093890380938A0310928B03309392
:104170008D0320938C0380938E0380938F03909301
:10418000900390939103109292038DE08093930398
:10419000E4E9F3E0119283E0E53AF807D9F781E02A
:1041A00080939A0388E790E0A0E0B0E08093A403B6
:1041B0009093A503A093A603B093A7031092A8031E
:1041C00084E98093A90385E38093AA0387E780931A
:1041D000AB031092AC031092AD031092AE03109299
:1041E000AF038AEE91E00E945E1E84E090E090931F
:1041F0004C0380934B0386EC91E00E945E1E80E1AD
:1042000090E090934C0380934B0361E081E10E9426
:10421000711460E081E10E94251461E080E10E9458
:10422000711461E088E00E9471148EEA91E00E94AE
:104230008C1B88EA91E00E948C1B4AE060E070E0F1
:10424000CB010E94AD1B8AE792E00E94811E8FE4A1
:104250000E942A1F80E190E00E94621780E4EFEF45
:10426000F1E0D60101900D928A95E1F724E630E065
:1042700088248A94982C5401E0E4E0937C00809197
:104280007A00806480937A0080917A0086FDFCCF6A
:10429000809178004091790090E0942BB501A401C1
:1042A00048274F70552766277727440F551F440F1F
:1042B000551FD601A40FB51F4D915D916D917C9155
:1042C000F4E0B694A79497948794FA95D1F748258B
:1042D00059256A257B259927A4E095958795AA9568
:1042E000E1F7092E000CAA0BBB0B84279527A62704
:1042F000B7278F709927AA27BB27880F991F880F88
:10430000991FD601A80FB91F8D909D90AD90BC90BC
:1043100014E076956795579547951A95D1F78426B9
:104320009526A626B72680949094A094B094215008
:10433000310909F0A2CF89288A288B2811F00E9420
:1043400040290E94EE160E94D81680915903909140
:104350005A038130910551F08230910551F0892B3B
:1043600051F4109258030E943B0D05C00E945D104D
:1043700002C00E94210B4E019AE0890E911CFE01A1
:104380003D96A896FFAFEEAFA89780E394E00E9419
:104390009811892B11F41FE1E2C4AA24A394B12C33
:1043A00093E0F92E22E0322E80E394E00E949811EF
:1043B0001816190684F780E394E00E9476118A307B
:1043C00019F08D3089F39DC4E091E603F0E0EC54E0
:1043D000FC4F10828091B4038B3509F08FC480911B
:1043E000B8038D3509F08AC48091B503833409F090
:1043F00059C08091B603833401F58091B7038D34A1
:10440000E1F48091BA038335A9F48091BC0383352C
:1044100011F40E945D108091BC03873521F4109245
:1044200058030E943B0D8091BC038E3431F40E94EE
:10443000210B03C081E00E9433098091B6038335CC
:1044400079F48091B703853459F48091BA038335A8
:1044500039F480E00E94AB068AE693E00E945E1E7B
:104460008091B6038335F1F48091B7038C34D1F495
:104470008091BA038335B1F48091BC03813419F47F
:10448000109257030FC0823421F481E080935703C8
:1044900009C0833419F43092570304C0843411F4F2
:1044A000F09257038091B5038F3409F048C1809191
:1044B000B603843509F088C08091B703803509F0D0
:1044C00083C08091BA03833549F58091BC03898309
:1044D0008091BD038A838091BE038B838091BF034B
:1044E0008C838091C0038D831E82B601CE018F5BC9
:1044F0009F4F0E948D13CE018F5B9F4F0E948E10A5
:104500002093A4033093A5034093A6035093A703DD
:10451000CE018F5B9F4F0E94881356C083E693E0C5
:104520000E948C1B8091A4039091A503A091A603E7
:10453000B091A70380319742A105B10520F486E62A
:1045400092E00E94811E8091A4039091A503A09106
:10455000A603B091A703883E9340A105B10520F4BE
:1045600086E692E00E94811E8091A4039091A503AB
:10457000A091A603B091A70384369105A105B105CA
:1045800020F486E692E00E94811E8091A40390911F
:10459000A503A091A603B091A7030A97A105B105B1
:1045A00020F486E692E00E94811E6091A40370913F
:1045B000A5038091A6039091A7034AE00E94AD1B3A
:1045C00080E394E00E94B7138091B6038335A9F588
:1045D0008091B7038D3489F58091BA03833589F4CE
:1045E0008091BC03833529F4B0928403A0928303A5
:1045F00024C0873509F003C410928403109283030A
:104600001CC08CE593E00E948C1B809183039091E9
:1046100084038130910559F08230910529F0892B6E
:1046200061F460E772E005C06EE672E002C062E726
:1046300072E080E394E00E94BB138091B603823461
:1046400009F04EC08091B703843409F049C08091CD
:10465000BA038335B1F48091BC0389838091BD0393
:104660008A831B821C82C6010E944E29FC01E55AE6
:10467000FC4F91E08091BF03853409F090E091AF49
:104680002FC0412C512C320185E593E00E948C1BF8
:104690009AE0491651046104710420F486E692E020
:1046A0000E94811EC301B2010E94F01BF201E55A73
:1046B000FC4F81AD882319F06CE772E002C06FE710
:1046C00072E080E394E00E94BB13EFEF4E1A5E0AA3
:1046D0006E0A7E0AF0E14F16510461047104A1F6DE
:1046E0008091B6038C3459F58091B703833439F542
:1046F0008091BA03833581F48091BC03873429F417
:10470000B0928D03A0928C031AC08D34C1F4109224
:104710008D0310928C0313C08EE493E00E948C1BD7
:1047200080918C0390918D03019719F462E872E0F7
:1047300002C064E872E080E394E00E94BB138091C1
:10474000B503843409F012C18091B603833469F54E
:104750008091B703833549F58091BA038335D9F445
:104760008091BC03809385038091BD038093860371
:104770008091BE03809387038091BF038093880359
:104780008091C003809389038091C10380938A0341
:1047900010928B030AC087E493E00E948C1B65E8AB
:1047A00073E080E394E00E94BB138091B6038C34E5
:1047B00029F58091B703843309F58091BA038335D5
:1047C00099F48091BC0380938E038091BD03809304
:1047D0008F038091BE03809390038091BF038093E9
:1047E0009103109292030AC080E493E00E948C1B14
:1047F0006EE873E080E394E00E94BB138091B603FF
:104800008E34F9F48091B7038D34D9F48091BA03D2
:10481000833569F4ACEBB3E0EBE5F3E08D91819384
:1048200023E0E238F207D1F7109282030AC089E34D
:1048300093E00E948C1B6BE573E080E394E00E94A0
:10484000BB138091B603803531F58091B703843472
:1048500011F58091BA03833571F48091BC0389838B
:104860008091BD038A831B821C82C6010E944E294F
:104870008093930310C082E393E00E948C1B80918D
:1048800093038A3020F486E692E00E94811E809194
:1048900093030E942A1F8091B603873409F066C0F3
:1048A0008091B703863409F061C08091BA038335E3
:1048B000C1F5ACEBB3E0F6018D918193A8968EAD76
:1048C0009FADA897E817F907B9F71D86BE016F5F7E
:1048D0007F4FCE018F5B9F4F0E948D13CE018F5B68
:1048E0009F4F0E948E102093A8033093A9034093FA
:1048F000AA035093AB036093AC037093AD03809312
:10490000AE039093AF03CE018F5B9F4F0E9488133D
:104910008091590390915A03019741F50E945D10CF
:1049200025C08BE293E00E948C1B0091A80310919C
:10493000A9032091AA033091AB034091AC0350919D
:10494000AD036091AE037091AF03EE24E394CE010A
:104950008F5B9F4F0E94E607CE018F5B9F4F0E94A7
:104960006C1ECE018F5B9F4F0E9488138091B50310
:10497000863409F0C3C18091B6038035D9F48091A3
:10498000B7038E34B9F48091BA03873499F484E282
:1049900093E00E948C1B86E692E00E94811E4AE012
:1049A00069EF73E080E090E00E94AD1B80E394E04B
:1049B0000E94B7138091B603883481F58091B703C4
:1049C000863561F58091BA03833581F48091BC030B
:1049D00089838091BD038A838091BE038B831C826F
:1049E000C6010E944E2980934D0318C08DE193E0CB
:1049F0000E948C1B80914D03843620F486E692E061
:104A00000E94811E80914D038A3020F486E692E058
:104A10000E94811E80914D030E942A1F8091B6033F
:104A2000883481F58091B703823561F58091BA03AE
:104A3000833581F48091BC0389838091BD038A838F
:104A40008091BE038B831C82C6010E944E298093F5
:104A50004E0318C086E193E00E948C1B80914E03A8
:104A6000843620F486E692E00E94811E80914E03F7
:104A70008A3020F486E692E00E94811E80914E03E7
:104A80000E942A1F8091B603833579F48091B70381
:104A9000863559F48091BA03873439F48FE093E076
:104AA0000E948C1B80E00E942A1F8091B6038335F0
:104AB00079F48091B703823559F48091BA03873431
:104AC00039F488E093E00E948C1B8FE40E942A1F37
:104AD0008091B6038C3409F0ADC08091B703803566
:104AE00009F0A8C08091BA03833581F58091BE0397
:104AF00089838091BF038A831B828091BC038234A7
:104B0000B9F054F4813409F095C0CE0101960E94A9
:104B10004E29809353038EC0833489F0843409F086
:104B200089C0CE0101960E944E298093560382C00F
:104B3000CE0101960E944E29809354037BC0CE0182
:104B400001960E944E298093550374C080914E03B4
:104B50008A3080F180914D03813061F5809153035B
:104B60008A3061F0809154038A3041F0809155037E
:104B70008A3021F0809156038A3041F48DEF92E023
:104B80000E945E1E82EF92E00E945E1E809153039F
:104B9000863061F080915403863041F08091550356
:104BA000863021F080915603863021F487EE92E022
:104BB0000E945E1E8EED92E00E948C1B809153033A
:104BC0008A3020F486E692E00E94811E8091530391
:104BD0000E942A1F85ED92E00E948C1B8091540355
:104BE0008A3020F486E692E00E94811E8091540370
:104BF0000E942A1F8CEC92E00E948C1B809155032E
:104C00008A3020F486E692E00E94811E809155034E
:104C10000E942A1F83EC92E00E948C1B8091560315
:104C20008A3020F486E692E00E94811E809156032D
:104C30000E942A1F8091B603823509F04CC08091F2
:104C4000B703863409F047C08091BA03833501F574
:104C5000ACEBB3E0FE0131968D918193E815F90537
:104C6000D9F71A86BE016F5F7F4FCE018F5B9F4FD2
:104C70000E948D13CE018F5B9F4F0E948E10209358
:104C80004F033093500340935103509352031EC07F
:104C90008CEB92E00E948C1B40914F03509150038B
:104CA0006091510370915203EE24E3948A019B01B9
:104CB00040E050E060E070E0CE018F5B9F4F0E94CB
:104CC000E607CE018F5B9F4F0E946C1ECE018F5B6B
:104CD0009F4F0E9488138091B603833579F48091A9
:104CE000B703853459F48091BA03833539F481E0F0
:104CF0000E94AB0683EA92E00E945E1E1092E603D9
:104D000053CBE091E603E13308F04ECB91E09E0FE8
:104D10009093E603F0E0EC54FC4F808345CBCE014A
:104D2000895B9F4F0E943D1FFE01E95BFF4FABEF88
:104D3000B4E0812F01900D928A95E1F783E00E9403
:104D400033098091B0039091B10383709927892B27
:104D500059F068EC70E080E090E00E94700A0E94D8
:104D60005F198111DCCF40C00E943B168AE00E948F
:104D700033098091190583FF33C082FF31C084E07D
:104D80000E94330980918C0390918D03019731F536
:104D90006091FF04709100058091010590910205DA
:104DA0000E94822925E93FEB46ED53E30E94BD298D
:104DB0001B012C016091FB047091FC048091FD04A7
:104DC0009091FE040E94822925E93FEB46ED53E3D2
:104DD0000E94BD29A20191010E94510782E001C0F9
:104DE00085E00E943309B5CF8091590390915A0311
:104DF000892B11F40E943B0D0E943812C6CA8E34D2
:104E000009F06ECC82E090E090938403809383035A
:104E100014CC85E592E09093CE048093CD048DEC84
:104E200094E00C941B16EF92FF920F931F93CF9375
:104E3000DF93109233041092320488EE93E0A0E0E6
:104E4000B0E08093340490933504A0933604B0937B
:104E5000370483E492E0909331048093300485EC2E
:104E600090E090933D0480933C0484EC90E0909318
:104E70003F0480933E0480EC90E090934104809343
:104E8000400481EC90E0909343048093420482ECD0
:104E900090E0909345048093440486EC90E09093D6
:104EA0004704809346041092490410924A041092D9
:104EB0004B0410924C048CE895E00E94171181EB92
:104EC00095E00E94171110921B0510921C0510927C
:104ED0001D0510921E0510921F05109220051092BC
:104EE000210510922205109223051092240510929C
:104EF0002505109226058CE895E00E941711109266
:104F00008B051092B0058BEF94E00E94171164E1BD
:104F100070E081E090E00E94922DEC01892B09F471
:104F2000EAC086E090E0998388838FE390E09B83DA
:104F30008A831B8A1A8A80E490E00E94AE2D8C013D
:104F40009D838C83892B09F441C080E490E00E940A
:104F5000AE2D9F838E83009711F4C80135C02FE3D7
:104F6000FC012083F80117AE01E010E080E090E042
:104F70002A813B8182179307B4F4EE81FF81E00F11
:104F8000F11F8083EC81FD81E80FF91F0083000F82
:104F9000111F06FF02C0F3E40F272A813B81022381
:104FA00013230196E5CF0130110541F484E390E02D
:104FB0000E94AE2D99878887009771F48C819D811E
:104FC0000E94432E8E819F810E94432ECE010E941B
:104FD000432EC0E0D0E08FC023E030E03D872C8737
:104FE0001F870E8723E330E03B872A87198B088BC6
:104FF00021E0FC01208323E030E041E0E885F985F1
:10500000E20FF31F32974083B90164507109E885BC
:10501000F9856F3F8FEF780799F1DB011196AE0F9D
:10502000BF1F8C91E60FF71F882329F150810C8157
:105030001D81EE81FF81E80FF11D8081F901E80FEC
:10504000F11DCF01EA81FB818E179F0774F08E1B43
:105050009F0B7C01088002C0F594E7940A94E2F764
:105060008E239F238E0D9F1DEFCFF801E80FF91FB0
:105070008081852701C080818C9361507109C7CFE1
:105080000C811D818081AE81BF81A80FB11D8C91E3
:10509000B901680F711DCB016A817B818617970763
:1050A00074F0861B970BDC01088002C0B595A795AC
:1050B0000A94E2F7862397238A0F9B1FEFCFD8012C
:1050C000A80FB91F8C9180832F5F3F4F2633310586
:1050D00009F094CF80E090E0E885F985E80FF91FAA
:1050E0002081AE81BF81A20FB11D2C91208301963A
:1050F0008433910589F7D093ED04C093EC041092AA
:10510000D0041092CF0488EE93E0A0E0B0E080934A
:10511000D1049093D204A093D304B093D40485E532
:1051200092E09093CE048093CD041092E404109208
:10513000E3041092E6041092E5041092E804109241
:10514000E7041092EA041092E9046091EB046E7F88
:105150006D7F6093EB046695617081E0682783E062
:105160000E94251461E083E00E947114E4E0F4E001
:10517000E491E093DD04E0EFF3E0E491F0E0EE0F82
:10518000FF1FE752FC4F859194919093DF04809329
:10519000DE0460E082E00E9471148091EB0481FDE6
:1051A00004C061E082E00E94251482E08093D9046B
:1051B000E3E0F4E0E491E093DA04EFEEF3E0E4916D
:1051C000F0E0EE0FFF1FED51FC4F8591949190930D
:1051D000DC048093DB04DF91CF911F910F91FF904E
:1051E000EF9008958F929F92AF92BF92CF92DF92ED
:1051F000EF92FF92CF93DF93EC01688179818A81EE
:105200009B81611571058105910521F464E279EDB9
:105210008BE597E02DE133EF41E050E00E94C32A97
:1052200049015A019B01AC01A7EAB1E40E94E22ABC
:105230006B017C01ACEEB4EFA50194010E94F02A51
:10524000DC01CB018C0D9D1DAE1DBF1DB7FF03C042
:105250000197A109B04888839983AA83BB83BC01C5
:10526000CD019F77DF91CF91FF90EF90DF90CF90AE
:10527000BF90AF909F908F9008950E94F22808955C
:1052800080E091E00E94F2280895609300017093FD
:10529000010180930201909303010895FC01882786
:1052A0009927E89421912032E9F3293010F02E302B
:1052B000C8F32B3241F02D3239F4689404C00E94B7
:1052C0007529820F911D219120532A30C0F31EF4BD
:1052D000909581959F4F089591110C947D2980326E
:1052E00019F089508550C8F708957AE0979F902D5E
:1052F000879F802D910D112408959927882708955F
:10530000E89409C097FB3EF490958095709561955F
:105310007F4F8F4F9F4F9923A9F0F92F96E9BB2715
:105320009395F695879577956795B795F111F8CF91
:10533000FAF4BB0F11F460FF1BC06F5F7F4F8F4FFC
:105340009F4F16C0882311F096E911C0772321F0F2
:105350009EE8872F762F05C0662371F096E8862F8A
:1053600070E060E02AF09A95660F771F881FDAF7E1
:10537000880F9695879597F908950E94D0290C94E7
:10538000412A0E94332A38F00E943A2A20F09523BD
:1053900011F00C942A2A0C94302A11240C94752AAA
:1053A0000E94522A70F3959FC1F3950F50E0551F4C
:1053B000629FF001729FBB27F00DB11D639FAA276A
:1053C000F00DB11DAA1F649F6627B00DA11D661FB9
:1053D000829F2227B00DA11D621F739FB00DA11DDA
:1053E000621F839FA00D611D221F749F3327A00D94
:1053F000611D231F849F600D211D822F762F6A2F30
:1054000011249F5750409AF0F1F088234AF0EE0F94
:10541000FF1FBB1F661F771F881F91505040A9F7C1
:105420009E3F510580F00C942A2A0C94752A5F3F08
:10543000E4F3983ED4F3869577956795B795F795FD
:10544000E7959F5FC1F7FE2B880F911D9695879575
:1054500097F9089597F99F6780E870E060E00895F4
:105460009FEF80EC089500240A941616170618067C
:105470000906089500240A94121613061406050658
:105480000895092E0394000C11F4882352F0BB0FE9
:1054900040F4BF2B11F460FF04C06F5F7F4F8F4F4C
:1054A0009F4F089557FD9058440F551F59F05F3F87
:1054B00071F04795880F97FB991F61F09F3F79F036
:1054C00087950895121613061406551FF2CF4695B8
:1054D000F1DF08C0161617061806991FF1CF86953A
:1054E0007105610508940895E894BB27662777271E
:1054F000CB0197F90895F999FECF92BD81BDF89A35
:10550000992780B50895262FF999FECF1FBA92BD2D
:1055100081BD20BD0FB6F894FA9AF99A0FBE019694
:105520000895DB018F939F930E94E22ABF91AF9170
:10553000A29F800D911DA39F900DB29F900D1124ED
:105540000895A1E21A2EAA1BBB1BFD010DC0AA1FC4
:10555000BB1FEE1FFF1FA217B307E407F50720F0DC
:10556000A21BB30BE40BF50B661F771F881F991F57
:105570001A9469F760957095809590959B01AC01A0
:10558000BD01CF010895052E97FB1EF400940E94E3
:10559000DA2A57FD07D00E94A12A07FC03D04EF457
:1055A0000C94DA2A50954095309521953F4F4F4FF6
:1055B0005F4F089590958095709561957F4F8F4FBF
:1055C0009F4F08950E942C2BA59F900DB49F900D86
:1055D000A49F800D911D11240895B7FF0C94E22A19
:1055E0000E94E22A821B930B08952F923F924F92C2
:1055F0005F926F927F928F929F92AF92BF92CF9263
:10560000DF92EF92FF920F931F93CF93DF93CDB76B
:10561000DEB7CA1BDB0B0FB6F894DEBF0FBECDBFE3
:1056200009942A88398848885F846E847D848C84B4
:105630009B84AA84B984C884DF80EE80FD800C81BD
:105640001B81AA81B981CE0FD11D0FB6F894DEBFA0
:105650000FBECDBFED010895A29FB001B39FC00161
:10566000A39F700D811D1124911DB29F700D811D8E
:105670001124911D08955058BB27AA270E94532B2F
:105680000C94412A0E94332A38F00E943A2A20F0D2
:1056900039F49F3F19F426F40C94302A0EF4E09567
:1056A000E7FB0C942A2AE92F0E94522A58F3BA17D2
:1056B000620773078407950720F079F4A6F50C9428
:1056C000742A0EF4E0950B2EBA2FA02D0B01B90110
:1056D00090010C01CA01A0011124FF27591B99F068
:1056E000593F50F4503E68F11A16F040A22F232F74
:1056F000342F4427585FF3CF469537952795A795C4
:10570000F0405395C9F77EF41F16BA0B620B730B6A
:10571000840BBAF09150A1F0FF0FBB1F661F771FDB
:10572000881FC2F70EC0BA0F621F731F841F48F490
:10573000879577956795B795F7959E3F08F0B0CF19
:105740009395880F08F09927EE0F97958795089500
:105750000E94BC2B0C94412A0E943A2A58F00E94C5
:10576000332A40F029F45F3F29F00C942A2A511182
:105770000C94752A0C94302A0E94522A68F39923BB
:10578000B1F3552391F3951B550BBB27AA2762173D
:105790007307840738F09F5F5F4F220F331F441F4A
:1057A000AA1FA9F335D00E2E3AF0E0E832D091507E
:1057B0005040E695001CCAF72BD0FE2F29D0660F6B
:1057C000771F881FBB1F261737074807AB07B0E8AE
:1057D00009F0BB0B802DBF01FF2793585F4F3AF0B4
:1057E0009E3F510578F00C942A2A0C94752A5F3F4D
:1057F000E4F3983ED4F3869577956795B795F7953A
:105800009F5FC9F7880F911D9695879597F9089521
:10581000E1E0660F771F881FBB1F621773078407BD
:10582000BA0720F0621B730B840BBA0BEE1F88F7CC
:10583000E09508950E94212C6894B1110C94752A6A
:1058400008950E945A2A88F09F5798F0B92F9927F7
:10585000B751B0F0E1F0660F771F881F991F1AF05B
:10586000BA95C9F714C0B13091F00E94742AB1E022
:1058700008950C94742A672F782F8827B85F39F021
:10588000B93FCCF3869577956795B395D9F73EF4F4
:1058900090958095709561957F4F8F4F9F4F08959C
:1058A00097FB072E16F4009407D077FD09D00E94CD
:1058B0007E2D07FC05D03EF4909581959F4F08956D
:1058C000709561957F4F0895EE0FFF1F0590F4913D
:1058D000E02D0994DF93CF931F930F939A9DF02DA2
:1058E000219FF00D8B9DF00D8A9DE02DF10D039F02
:1058F000F00D029FE00DF11D4E9DE00DF11D5E9D2E
:10590000F00D4F9DF00D7F936F93BF92AF925F9319
:105910004F93D5010E942C2B8B01AC01D7010E9423
:105920002C2BEB01E80FF91FD6010E94BA2C2F9106
:105930003F91D6010E942C2BC60FD71FE81FF91FDD
:10594000AF91BF910E94BA2C2F913F910E942C2BB6
:10595000C60FD71FE81FF91FD6010E942C2BE60F98
:10596000F71F9801BE01CF0111240F911F91CF9114
:10597000DF9108950E942C2B460F571FC81FD91F77
:1059800008F43196089597FB57FF0C94D32C9F93FE
:105990008F930E94D32C6E1B7F0BAF91BF918A0B0C
:1059A0009B0B0895E894DF93CF93FC01DB010E94E9
:1059B0002C2B7F936F93E9019A01AC01BF93AF93B6
:1059C0003F932F93DF010E942C2B26F46C1B7D0B41
:1059D000820B930B9E01EB01FC010E94BA2CAF914C
:1059E000BF912F913F910E94BA2CBE01CF01F901C6
:1059F0002F913F91CF91DF910895689401C0E89471
:105A00008F929F92CF93DF930E940B2DDF91CF91C6
:105A10009F908F90089588249924F401E401B0E4C4
:105A20009F93AA279A158B049C04ED05FE05CF05CC
:105A3000D007A10798F4AD2FDC2FCF2FFE2FE92D33
:105A4000982C892E982F872F762F652F542F432F30
:105A5000322F2227B85031F7BF9127C01B2EBF919C
:105A6000BB27220F331F441F551F661F771F881F38
:105A7000991F881C991CEE1FFF1FCC1FDD1FAA1F3A
:105A8000BB1F8A149B04EC05FD05CE05DF05A007AE
:105A9000B10748F08A189B08EC09FD09CE09DF0917
:105AA000A00BB10B21601A94E1F62EF49401AF0122
:105AB000BE01CD01000C08950F93083090F0982F8F
:105AC000872F762F652F542F432F322F22270850F0
:105AD000F4CF220F331F441F551F661F771F881FE7
