:100000000C941F020C9447020C9447020C94B213F8
:100010000C94B2130C94B2130C9442140C94470237
:100020000C9447020C9447020C9447020C9447022C
:100030000C9447020C9447020C9447020C9447021C
:100040000C9404130C9447020C9419120C94F311A1
:100050000C9447020C9447020C9447020C944702FC
:100060000C9447020C9447029902A402AF02BA0210
:10007000C502D002DB02E602F102FC020B0316030A
:10008000C508EB08F4083F094209450967096A09F0
:100090006D09DB16DF16DC15FF15F61614161C1697
:1000A0008C172816DB161416DF16DC15FF15F6164E
:1000B000211735174B17801C901C971C9D1CA41CE6
:1000C000AA1CB11CB41CBF1C5458204F6666007B90
:1000D0004D494E7D2053657420796F7572204361C0
:1000E0006C6C7369676E20746F20656E61626C65FD
:1000F000207472616E736D697373696F6E007B4DEE
:10010000494E7D2043616C6C7369676E2069732072
:100110006E6F74206368616E6765642066726F6DD0
:10012000207468652064656661756C74206F6E6507
:100130002C205472616E736D697420697320646938
:100140007361626C6564007B4D494E7D205761721E
:100150006E696E672C20636F6E6669677572617475
:10016000696F6E206572726F722C207472616E6D91
:10017000697373696F6E206973206E6F7420656E8A
:1001800061626C6564206F6E20616E792062616EC1
:100190006421007B4D50537D20007B5446517D20CF
:1001A000007B4C50497D2044007B4C50497D2043CE
:1001B000007B4C50497D2042007B4C50497D2041C2
:1001C000007B544F4E7D2046007B544F4E7D205483
:1001D000007B5446517D20007B474C437D204600E8
:1001E0007B474C437D20540030003A0030003A00F9
:1001F00030007B47544D7D20007B474C347D2000F0
:100200007B544F4E7D20540053007B544F4E7D2035
:10021000460057007B544F4E7D2046004E007B43E6
:10022000434D7D20007B4D494E7D204E6F207573E0
:10023000657220646174612077617320666F756EEA
:10024000642C2073657474696E67206465666175DB
:100250006C742076616C756573007B4D494E7D2012
:100260004E6F20666163746F7279206461746120DF
:10027000666F756E6420666F72204D6F64656C20CA
:100280002320616E64205265666572656E63652029
:100290006672657175656E63792C20677565737319
:1002A000696E67206F6E2076616C756573002E0035
:1002B0004265746120007B4D494E7D204669726D18
:1002C000776172652076657273696F6E20007B4D71
:1002D000494E7D205A61636854656B2057535052D4
:1002E000204465736B746F70207472616E736D69F6
:1002F00074746572007B4D494E7D20466163746F56
:1003000072792064617461207361766564007B4654
:1003100052467D20007B464C507D204420007B4689
:100320004C507D204320007B464C507D20422000D5
:100330007B464C507D204120007B4653527D20005F
:100340007B4653567D20007B4648527D20007B46ED
:1003500048567D20007B46504E7D20007B4447461A
:100360007D20007B4450447D20007B444E4D7D2009
:10037000007B444C347D20007B4443537D2000208F
:10038000440020450030007B4F42447D20007B4FDD
:1003900054507D20007B4D494E7D20436F6E666931
:1003A0006775726174696F6E2073617665640000B1
:1003B000000000240027002A0000000008000201BD
:1003C000000003040700000000000000005A444140
:1003D0000056544700524D4300475356004753546C
:1003E0000047534100474C4C0047474100E903E5B3
:1003F00003E103DD03D903D503D103CD03000000DE
:1004000000250028002B0000000000230026002902
:1004100000040404040404040402020202020203AD
:1004200003030303030102040810204080010204B7
:100430000810200102040810200034252A25112468
:100440001FBECFEFD8E0DEBFCDBF12E0A0E0B1E02D
:10045000E8E8F1E602C005900D92A039B107D9F79E
:1004600025E0A0E9B2E001C01D92AF3DB207E1F77F
:1004700012E0CEE1D2E004C02197FE010E94852A5D
:10048000CD31D107C9F70E944A1D0C94B7300C94A6
:1004900000008093BB0084E88093BC008091BC0086
:1004A00087FFFCCF8091B900887F0895E6E9F3E0EB
:1004B00081E09191911180E093E0E33AF907C9F767
:1004C000882389F01092430310924403109245034D
:1004D000109246031092470310924803109249036A
:1004E00010924A0308958091B3038F5F8D3008F016
:1004F00080E0E82FF0E0E35AFC4F91AD9923A9F397
:100500008093B303482F50E0FA013197EC30F105A6
:1005100020F4EC5CFF4F0C94852A90EF90934303FA
:100520009EEC9093440391ED909345031092460303
:100530006FC090E5909343039CED9093440395ED39
:100540009093450392E062C090ED9093430397EB44
:100550009093440394EF909345039AE057C090E53D
:10056000909343039AE89093440397E49093450350
:1005700095E14CC090E19093430397E59093440339
:1005800096EF9093450399E241C090EA909343031C
:1005900097EB9093440390E7909345039CE336C018
:1005A00090EB9093430397E79093440396E09093E6
:1005B000450394E52BC090E59093430397EB90930C
:1005C00044039BEE909345039BE620C090E19093FB
:1005D000430398E1909344039EEB909345039DE77A
:1005E00015C090ED9093430395E39093440392E9F3
:1005F0009093450394E90AC090ED9093430395E0EE
:100600009093440395EA9093450397EA90934603A9
:10061000109247031AC090E19093430391E59093A1
:10062000440397EC909345039BE20AC090ED9093AE
:1006300043039AEA9093440398EC9093450391EA1C
:100640009093460391E090934703109248031092D1
:10065000490310924A030C9469154F925F926F926E
:100660007F928F929F92AF92BF92CF92DF92EF9242
:10067000FF920F931F93CF93DF93CDB7DEB7CB5588
:10068000D1400FB6F894DEBF0FBECDBF8BEAE0E9D4
:10069000F2E0DF011D928A95E9F7F09095038E0153
:1006A000005B1E4F67E873E0C8010E94002E5E01E8
:1006B000B9EAAB1ABEEFBB0A60E973E0C5010E945C
:1006C000002EF801818180538A3070F4828180533A
:1006D0008A3050F045E050E0B801C80101960E9410
:1006E000E72D80E2D8018C93F801828180538A3013
:1006F00010F080E38283680180E2882E96E0992ED4
:10070000900ED6018C91082E000C990B0E94D62DCC
:10071000E82E082E000C990B9C01205331092A3039
:10072000310518F4F601E08206C00E94CB2D892B1A
:10073000C9F7D6018C92BFEFCB1ADB0A9C10E1CF30
:1007400086E0F801A6EFB4E001900D928A95E1F7FA
:100750008501A5E0DA2EB4E0EB2EEA0CF8018081E9
:10076000082E000C990B0E94D62DD8018D938D0177
:10077000282F082E000C330B205331092A30310565
:1007800058F08154823140F0E3E6F2E0D5018D2D3E
:1007900001900D928A95E1F7E012E0CFF50180819A
:1007A0009181A281B3818093FD049093FE04A09374
:1007B000FF04B09300058F2D8D3308F08CE393E197
:1007C000EAE0F1E08E010F5F1F4FD80101900D921A
:1007D0009A95E1F7F0900205F80193E1900F2191CD
:1007E000821301C0F82E9E13FACFFE0132969E01AD
:1007F0002C5E3F4F9191891730F4DF0112979C9145
:10080000891708F0F92EE217F307A1F7F092020515
:100810008091F6040E94BA19282F30E0A4E2B0E0DB
:100820000E944D294B015C018091F7040E94BA1986
:10083000A5019401280F311D411D511DAAE0B0E012
:100840000E9403294B015C018091F8040E94BA19AF
:10085000A5019401280F311D411D511DABE1B0E0F0
:100860000E9403294B015C018091F9040E94BA198E
:1008700090E00A97092E000CAA0BBB0BA50194016E
:10088000280F391F4A1F5B1FABE1B0E00E9403290C
:100890004B015C018091FA040E94BA1990E00A971A
:1008A000092E000CAA0BBB0BA5019401280F391FC0
:1008B0004A1F5B1FABE1B0E00E9403294B015C01C2
:1008C0008091FB040E94BA19282F30E0C9010A97D1
:1008D000092E000CAA0BBB0B880D991DAA1DBB1D70
:1008E0004091FD0421E430E0241B310947FD33959C
:1008F000EAE0E29FB001E39F700D11249B012D54AB
:100900003F4F4091FF0460E370E0641B710947FDB5
:100910007395620F731F44EB469F9001479F300D04
:1009200011246091FE04062E000C770B61547109AE
:10093000E69FA001E79F500D1124420F531FE09145
:1009400000050E2E000CFF0BF0979A012E0F3F1F93
:100950004F2D50E060E070E06A017B01F0E4CF0EC3
:10096000D11CE11CF11CA901330F660B770B27E0AA
:10097000440F551F661F771F2A95D1F74C0D5D1D3B
:100980006E1D7F1D6C017D0134E0F694E794D794D1
:10099000C7943A95D1F7C95BDE4FC882C754D1409E
:1009A000CA5BDE4FD882C654D140CB5BDE4FE882B3
:1009B000C554D140242F2295220F220F207CC55BE5
:1009C000DE4F2883CB54D140E2E07695679557956A
:1009D0004795EA95D1F7C65BDE4F4883CA54D140AC
:1009E000C75BDE4F5883C954D1408295807F962FD4
:1009F0009F70892BC85BDE4F8883C854D140C45B8D
:100A0000DE4F1882CC54D140C35BDE4F1882CD54E8
:100A1000D140C25BDE4F1882CE54D140C15BDE4F65
:100A20001882CF54D140AE014B5B5E4F2A01F12CAE
:100A300080E090E0DC01FBE0EF2EE40EF20141915A
:100A40002F01642E712C20E030E04C015D01880CF8
:100A5000991CAA1CBB1CB301022E02C0660F771F93
:100A60000A94E2F7660F672F661F770B7195CB012B
:100A7000A0E0B0E081709927AA27BB27882999298F
:100A8000AA29BB294C015D0151E5852253E5952238
:100A900050EDA52252EFB52270E260E0E82DE17042
:100AA0006E27B694A794979487947150B9F753EA38
:100AB000C52ED12CCC0EDD1ECF0CD11CF6016083CF
:100AC000DD24D394DF0C4C015D01F7E48F22FCE3BD
:100AD0009F22F1E6AF22F4EEBF2270E260E0482DE3
:100AE00041706427B694A794979487947150B9F78E
:100AF000E3EAF0E0EC0FFD1FED0DF11D6083F394D0
:100B0000F394F1EAFF1538F4E41098CF90E040E058
:100B100061E070E027C02F5F3F4F2830310509F0BA
:100B200094CFF2CF50FF07C0FB01022E01C0EE0FA1
:100B30000A94EAF78E2B56952150310998F7823A9C
:100B400060F4F801E80FF11DA3EAB0E0AC0FBD1F9F
:100B5000A40FB11D8C9180834F5F423A40F49F5F98
:100B60009F3F29F0592F27E030E080E0DBCF82EA79
:100B7000F801DE01AD55BF4F01900D928A95E1F766
:100B800082EAEDE1F1E0D80101900D928A95E1F75A
:100B9000BE016D557F4F20E932E0F80142EA400F77
:100BA0009191DB018D91BD01880F890FD9018D9342
:100BB0009D014E13F5CFC55ADE4F0FB6F894DEBF38
:100BC0000FBECDBFDF91CF911F910F91FF90EF909E
:100BD000DF90CF90BF90AF909F908F907F906F905D
:100BE0005F904F900895EF92FF920F931F93CF93D2
:100BF000DF931F92CDB7DEB77C01FC01008111812C
:100C0000C80169830E949C286981681719F0C8018E
:100C10000E94A428C7010F90DF91CF911F910F91DF
:100C2000FF90EF9008954F925F926F927F928F9214
:100C30009F92AF92BF92EF92FF920F931F93CF9329
:100C4000DF93CDB7DEB7C054D1090FB6F894DEBF3D
:100C50000FBECDBF90E4EFEBF1E0DE011196019005
:100C60000D929A95E1F7811104C005E510E090E03E
:100C700004C00AE010E090E981E0E92EF82E442457
:100C80004A94542C32010E0D1F1DE016F1060CF093
:100C90005CC0C7010E949C28A30192012827DA01A9
:100CA000C9018F709927AA27BB27880F991F880F22
:100CB000991FE1E0F0E0EC0FFD1FE80FF91F8080C5
:100CC0009180A280B38034E07694679457944794DF
:100CD0003A95D1F784249524A624B724C7010E940D
:100CE0009C28482F50E064E0559547956A95E1F7B8
:100CF000052E000C660B770B482559256A257B25A8
:100D00004F70552766277727440F551F440F551FEF
:100D1000E1E0F0E0EC0FFD1FE40FF51F4080518093
:100D200062807380E4E0B694A79497948794EA95E0
:100D3000D1F7482459246A247B2440945094609429
:100D400070943FEFE31AF30AA0CFC301B201C05C75
:100D5000DF4F0FB6F894DEBF0FBECDBFDF91CF914E
:100D60001F910F91FF90EF90BF90AF909F908F9049
:100D70007F906F905F904F900895CF92DF92EF92A7
:100D8000FF920F931F93CF93DF9300D000D000D03A
:100D9000CDB7DEB7D82E8823E1F021E5E22E23E09F
:100DA000F22E00E911E0F70161917F011A830983B6
:100DB000CE0101960E94F3050F5F1F4F0A39F1E043
:100DC0001F0789F70AE010E090E9E92EFF24F39469
:100DD00018C08DE5E82E83E0F82E00E010E0F70162
:100DE00061917F011A830983CE0101960E94F30568
:100DF0000F5F1F4F0535110591F705E510E0E12C58
:100E0000F12C8D2D0E94130669837A838B839C833A
:100E1000E00EF11E6E01F5E0CF0ED11C8E010F5FCA
:100E20001F4FE01AF10AC701800F911FF80161916D
:100E30008F019E838D83C6010E94F3050C151D054D
:100E400091F726960FB6F894DEBF0FBECDBFDF91A7
:100E5000CF911F910F91FF90EF90DF90CF90089569
:100E6000CF93DF9394EA9093BC009091BC0097FFDE
:100E7000FCCF9091B900987F9830D9F4C62FD82F25
:100E800080EC0E9449028831B1F48D2F0E94490202
:100E9000883299F48C2F0E944902883281F484E9C7
:100EA0008093BC009091BC00892F807194FDFACF93
:100EB00007C081E005C082E003C083E001C084E098
:100EC000DF91CF9108952F923F924F925F926F9250
:100ED0007F928F929F92AF92BF92CF92DF92EF92CA
:100EE000FF920F931F93CF93DF93CDB7DEB7A097F9
:100EF0000FB6F894DEBF0FBECDBF4C01180129011B
:100F00004C8F5D8F6E8F7F8FE8A26FE872E00E943A
:100F1000DE1190E4A92E22E4B22E3FE0C32ED12CA4
:100F2000E12CF12C00E010E09101A2016C8D7D8D8F
:100F30008E8D9F8D0E94202B9F938F937F936F9315
:100F40005F934F933F932F93A8E6B2E0BF93AF9385
:100F50003E01F5E16F0E711C7F926F920E94162E7A
:100F60009101A2016C8D7D8D8E8D9F8D0E941E2B17
:100F70009F938F937F936F935F934F933F932F93A1
:100F8000A8E6B2E0BF93AF932E01FEE04F0E511CD6
:100F90005F924F920E94162EF30101900020E9F714
:100FA0003197AF0146195709B301C4010E94A1113D
:100FB0001A8219821C821B821E821D82B4018E013C
:100FC0000F5F1F4FC8010E94C211F2010190002063
:100FD000E9F73197E419F5096D807E800FB6F89432
:100FE000DEBF0FBECDBF3097A1F06E0E7F1EB301E6
:100FF000C8010E946811882309F494C029813A81AC
:101000008D819E81B201820F931F0E94002E7E82ED
:101010006D82B801C4010E94C211C8010E94D91199
:1010200098A1911183C0D40114966D907C9015976E
:101030006114710431F41982F80190E28CE0800FA0
:1010400016C0BCE06B16710418F08CE0682E712C91
:10105000F40160817181A301C8010E94072EF8018B
:10106000E60DF71D1082E8CF91938E1719F02081BD
:101070002033D1F3F80101900020E9F73197AF0157
:10108000401B510BB801C4010E94A111D4014D9025
:101090005C904114510409F449C0F40164807580E6
:1010A0006114710409F442C0820118010F5F1F4FDF
:1010B000D1018C91082E000C990B0E948D27892B51
:1010C000A1F7B1E06B1A7108640C751CD3018C9107
:1010D000082E000C990B0E948D27892B81F4A30107
:1010E0004F5F5F4F42195309F40155834483421403
:1010F000530460F4B101C2010E94DE2D07C06214E6
:10110000730468F3E1E06E1A7108E0CFD401ED9149
:10111000FC91119714968D919C911597E80FF91FEA
:10112000108204C0C8010E948F1173CFC401A09621
:101130000FB6F894DEBF0FBECDBFDF91CF911F91E8
:101140000F91FF90EF90DF90CF90BF90AF909F9066
:101150008F907F906F905F904F903F902F90089569
:10116000EF920F931F93CF93DF9300D000D000D066
:10117000CDB7DEB790E0FC013197E930F10508F01A
:10118000CCC0E05CFF4F0C94852A8EE192E00E9477
:10119000D51980915B0390915C0381309105A1F09A
:1011A0008230910551F0892B09F0B7C082E192E0BD
:1011B0000E94F6198AE092E0AEC08CE192E00E94B3
:1011C000F61984E192E0A7C088E092E00E94F61947
:1011D00080E092E0A0C089EF91E00E94D51980E9FB
:1011E00093E00E94881A99C082EF91E00E94D5197D
:1011F0008091B8039091B9030A9724F480EF91E0AD
:101200000E94D5196091B8037091B903072E000CA4
:10121000880B990B0E94561A8EEE91E00E94D51908
:101220008091B6039091B7030A9724F48CEE91E075
:101230000E94D5196091B6037091B703072E000C78
:10124000880B990B0E94561A8AEE91E00E94D519DC
:101250008091B4039091B5030A9724F488EE91E04D
:101260000E94D5196091B4037091B503072E000C4C
:10127000880B990B0E94561A0E94D1194EC080EE1D
:1012800091E049C088ED91E046C081ED91E00E9477
:10129000D5190091430310914403209145033091E7
:1012A0004603409147035091480360914903709170
:1012B0004A03E12CCE0101960E946307CE010196FC
:1012C0000E94021ACE0101960E94D91126C089EC13
:1012D00091E021C081EC91E01EC08091B2038111A8
:1012E00004C089EB91E00E94F6198091B20381302D
:1012F00021F481EB91E00E94F6198091B2038230D3
:1013000021F489EA91E00E94F6198091B2038330BA
:1013100021F481EA91E00E94F61926960FB6F8941E
:10132000DEBF0FBECDBFDF91CF911F910F91EF9028
:1013300008954F925F926F927F928F929F92AF9299
:10134000BF92CF92DF92EF92FF921F93CF93DF93E2
:10135000CDB7DEB76F970FB6F894DEBF0FBECDBF27
:101360006B017C010E94F812C60ED71EE81EF91E02
:1013700088EE482E83E0582E612C712C1FE10E94CC
:10138000A417882371F0CE0101960E94EE1CFE0185
:101390003196A3E0B5E0812F01900D928A95E1F797
:1013A000EECF0E94F81246015701861A970AA80A42
:1013B000B90A89EE881683E09806A104B1045CF1AD
:1013C00083E991E00E94D519C501B401A3019201FE
:1013D0000E94E428CA01B9010E94561A0E94D1193C
:1013E0000E944C1480911A0590E09093B903809369
:1013F000B8038091190590E09093B7038093B603EA
:101400008091180590E09093B5038093B40383E036
:101410000E94B00805C0181419041A041B043CF4F7
:1014200088E394E00E941210892B09F4A8CF6F96EC
:101430000FB6F894DEBF0FBECDBFDF91CF911F91E5
:10144000FF90EF90DF90CF90BF90AF909F908F90E4
:101450007F906F905F904F900895CF93DF93CFE48C
:10146000D3E061E088810E944B1264E670E080E086
:1014700090E00E94990960E088810E944B1264E626
:1014800070E080E090E0DF91CF910C94990982E0C8
:1014900090E090935C0380935B0360E080914F0346
:1014A0000E944B120E94941A81E00C94B0082F9273
:1014B0003F924F925F926F927F928F929F92AF92E4
:1014C000BF92CF92DF92EF92FF920F931F93CF9331
:1014D000DF93CDB7DEB76F970FB6F894DEBF0FBEC0
:1014E000CDBF2B873C874D875E876F87788B898B35
:1014F0009A8BE0905303F0905403009155031091A0
:101500005603EB8EFC8E0D8F1E8F211501EE3007DA
:1015100005EF400705E0500761057105810591055C
:1015200009F008F464C059016A017B018C0120E0D4
:1015300034E04BE654EF64E170E080E090E00E941C
:10154000202B2F83388749875A870E948B2A2B8B21
:101550003C8B4D8B5E8B6F8B788F898F9A8FA4E637
:10156000B0E02B8D3C8D4D8D5E8D0E9403291B01BB
:101570002C015B016201E12CF12C00E010E02B89D1
:101580003C894D895E896F89788D898D9A8D0E94FD
:10159000202B2F8F2B893C894D895E896F89788D0F
:1015A000898D9A8D0E941E2BB901CA010E94A12724
:1015B00020EF3FEF4FE759E40E94DE274B015C012B
:1015C0006B8D7C8D8D8D9E8D0E94A1279B01AC0122
:1015D000C501B4010E94C9290E94422A24E630E0D4
:1015E00040E050E00E94C22829013A0173C02B85D7
:1015F0003C854D855E856F85788989899A8907E064
:101600000E947D2B59016A017B018C0120E034E0AE
:101610004BE654EF64E170E080E090E00E94202B04
:101620002F83388749875A8760E070E080E090E038
:101630000E948B2A2B8B3C8B4D8B5E8B6F8B788F14
:10164000898F9A8FA4E6B0E02B8D3C8D4D8D5E8DF9
:101650000E9403291B012C015B016201E12CF12C8A
:1016600000E010E02B893C894D895E896F89788D77
:10167000898D9A8D0E94202B2F8F2B893C894D8933
:101680005E896F89788D898D9A8D0E941E2BB90194
:10169000CA010E94A12720EF3FEF4FE759E40E94C3
:1016A000DE274B015C016B8D7C8D8D8D9E8D0E94A4
:1016B000A1279B01AC01C501B4010E94C9290E9468
:1016C000422A24E630E040E050E00E94C22829018E
:1016D0003A0110E7C301B2010E94A12720EF3FEFBA
:1016E0004FE759E40E94C92920E030E040E053E48C
:1016F0000E94DE270E94422A9B01AC018F8D882E1A
:10170000912CA12CB12C87E0880C991CAA1CBB1C25
:101710008A95D1F7E2E09E1AA108B108820E931EC5
:10172000A41EB51E97E0440C551C661C771C9A95A8
:10173000D1F76FEF7FEF8FE090E00E94B228461A5A
:10174000570A680A790A6FEF8AE10E9430076FEF43
:101750008BE10E943007D501C40188279927A37027
:10176000BB27BD01882799278CE10E943007692D8E
:101770008DE10E943007682D8EE10E943007D30171
:10178000C20188279927AF70BB276A2F606F8FE14E
:101790000E943007652D80E20E943007642D81E2AF
:1017A0000E9430078F809884A984BA8437E0880C1F
:1017B000991CAA1CBB1C3A95D1F702E0901AA1080B
:1017C000B10860E08AE20E94300761E08BE20E948B
:1017D0003007D501C40188279927A370BB27612F43
:1017E0006A2B8CE20E943007692D8DE20E9430073F
:1017F000682D8EE20E94300760E08FE20E94300781
:1018000060E080E30E94300760E081E30E943007DF
:101810006FE480E10E9430071B8510933B038C85A9
:1018200080933C03ED85E0933D03EE84E0923E031C
:10183000FF84F0923F0308890093400319891093B5
:1018400041038A898093420361E088E00E944B1241
:101850008AE991E00E94D519E12C0B851C852D8524
:101860003E854F85588969897A89CE0101960E9403
:101870006307CE0101960E94021ACE0101960E94D2
:10188000D91187E00E94B0086F960FB6F894DEBFBA
:101890000FBECDBFDF91CF911F910F91FF90EF90C1
:1018A000DF90CF90BF90AF909F908F907F906F9080
:1018B0005F904F903F902F9008952F923F924F92BC
:1018C0005F926F927F928F929F92AF92BF92CF92D0
:1018D000DF92EF92FF920F931F93CF93DF93CDB7D9
:1018E000DEB7A4970FB6F894DEBF0FBECDBF10923F
:1018F0005C0310925B03E6E9F3E081E091919111C2
:1019000080E023E0E33AF207C9F7882329F087E46F
:1019100091E00E94F61966C00E945602A09043030F
:10192000B0904403C0904503D0904603E090470335
:10193000F09048030091490310914A030E946127E7
:1019400028EC30E040E050E00E94E4286456710941
:101950008109910924E630E040E050E00E94E42A49
:101960000E94962B209343033093440340934503F6
:101970005093460360934703709348038093490351
:1019800090934A030E94941A81E00E94B00880E973
:1019900092E032EA380F3CA33FC08091210583FDDD
:1019A00042C08091210583FF68C181FF66C182FF2B
:1019B00064C10E944C140E94A417882369F1CE01CF
:1019C00001960E94EE1CFE013196A3E0B5E08FE186
:1019D00001900D928A95E1F788E394E00E9412103D
:1019E000892BD9F2A4960FB6F894DEBF0FBECDBFF7
:1019F000DF91CF911F910F91FF90EF90DF90CF90EB
:101A0000BF90AF909F908F907F906F905F904F901E
:101A10003F902F900C94470A88E394E00E941210A4
:101A2000892B49F2DFCF80911A0590E09093B9039A
:101A30008093B80330901905832D90E09093B703FD
:101A40008093B6030091180510E01093B50300933E
:101A5000B40380918E0390918F03019709F086C0A3
:101A600060910705709108058091090590910A051C
:101A70000E94A32725E93FEB46ED53E30E94DE27B2
:101A800020E030E044E353E40E945D292B013C0157
:101A900020E030E040EA51E40E94C9290E943B2A3C
:101AA0006B017C016091030570910405809105052F
:101AB000909106050E94A32725E93FEB46ED53E3ED
:101AC0000E94DE2720E030E044EB52E40E945D29D2
:101AD0004B015C0120E030E040E251E40E94C92962
:101AE0000E943B2A68A379A38AA39BA381E48C0D5F
:101AF0008093900388A18F5B80939103B601DD0CE6
:101B0000880B990B0E94A32720E030E040EA51E4C3
:101B10000E94DE279B01AC01C301B2010E945C2937
:101B200020E030E040E05FE30E94DE270E943B2A95
:101B3000605D60939203E8A1F9A1BF01FF0F880BDC
:101B4000990B0E94A32720E030E040E251E40E947C
:101B5000DE279B01AC01C501B4010E945C290E94F3
:101B60003B2A605D6093930310929403012B09F06C
:101B700070C030FC6EC00E942D0361E080914F0365
:101B80000E944B12809187038134F1F48091880385
:101B90008134D1F4809189038033B1F480918A0338
:101BA000813491F480918B03813471F480918C03A2
:101BB000813451F48EEF90E00E94F6198FEC90E0A2
:101BC0000E94F619912C02C0992493940E94F81255
:101BD0001B012C01FBEA2F0EF2E03F1E411C511CA1
:101BE00080E9682E82E0782EA0904303B0904403F1
:101BF000C0904503D0904603E0904703F09048031F
:101C00000091490310914A03F30141913F0199204A
:101C100089F0F2E94F9FA0011124952F990F990B9C
:101C20009A01492F592F692F792F892F0E94962BBE
:101C30000E94570A0E94F8126215730584059505E3
:101C400008F03FC088E394E00E941210892B91F3C2
:101C500038C084E00E94B00883E00E94B00882E0AF
:101C60000E94B0080E942D0A0E942D0A68EC70E0C4
:101C700080E090E00E94990994CE0E942D0A85E0B0
:101C80000E94B00880911A0590E09093B903809368
:101C9000B8038091190590E09093B7038093B60341
:101CA0008091180590E09093B5038093B40383E08E
:101CB0000E94B00860E971E080E090E00E9499091C
:101CC00078CE88E394E00E941210892B49F42BEA25
:101CD000220E22E0321E411C511C3CA1361184CF41
:101CE0000E94941A60E080914F030E944B1288EC8E
:101CF00090E00E94F6198091B30390E08C3091053A
:101D000069F021E00196FC01E35AFC4F31AD31113D
:101D100020E08C309105B4F3222371F02091A603CA
:101D20003091A7034091A8035091A903A8EEB3E016
:101D30000E9403290E9499090E945602A090430321
:101D4000B0904403C0904503D0904603E090470311
:101D5000F09048030091490310914A030E946127C3
:101D600028EC30E040E050E00E94E428645671091D
:101D70008109910924E630E040E050E00E94E42A25
:101D80000E94962B209343033093440340934503D2
:101D9000509346036093470370934803809349032D
:101DA00090934A0368EB7BE080E090E063CF81E0B2
:101DB00090E090935C0380935B030E94E9140E947F
:101DC0006915EAEAF3E0208131814281538164811F
:101DD0007581868197812093430330934403409318
:101DE00045035093460360934703709348038093E1
:101DF000490390934A030E94570A61E080914F0380
:101E00000E944B1281E00E94B00886E00C94B0085A
:101E10002F923F924F925F926F927F928F929F92FA
:101E2000AF92BF92CF92DF92EF92FF920F931F93E8
:101E3000CF93DF9300D000D01F92CDB7DEB79B8346
:101E40008A83FC0124803580A0E0B0E020E030E00F
:101E500040E050E060E070E080E090E0A215B30563
:101E600009F444C0EA81FB8100811181011511054B
:101E700031F0F801EA0FFB1F10811D8301C01D82A4
:101E8000FD81F053FA3090F501E00E947D2BE22FA6
:101E9000432E542E652E762E872E982E9C8302E09C
:101EA0000E947D2B59016A017B018C012E2F342D5C
:101EB000452D562D672D782D892D9C810E94962BBE
:101EC00059016A017B018C018D81E82F880FFF0B7E
:101ED000F0979F2F990F990B9F01492F592F692F29
:101EE000792F892F0E94962B1196B8CF0F900F90C3
:101EF0000F900F900F90DF91CF911F910F91FF9056
:101F0000EF90DF90CF90BF90AF909F908F907F9099
:101F10006F905F904F903F902F900895FC0110823A
:101F20000895FC0114821582168217821082118294
:101F300012821382118610861386128615861486E5
:101F400017861686118A108A138A128A148A168AAC
:101F5000178A158A81E0818F828F138E87E0808FA8
:101F6000148E158ECF014E960C948E0FCF92DF9269
:101F7000EF92FF920F931F93CF93DF936C017A013F
:101F80008B01C0E0D0E0CE15DF0589F0D8016D915E
:101F90008D01D601ED91FC910190F081E02DC601FB
:101FA0000995892B11F47E0102C02196ECCFC7015F
:101FB000DF91CF911F910F91FF90EF90DF90CF9025
:101FC0000895FC01538D448D252F30E0842F90E03F
:101FD000821B930B541710F0CF9608950197089524
:101FE000FC01918D828D981761F0828DDF01A80F21
:101FF000B11D5D968C91928D9F5F9F73928F90E043
:1020000008958FEF9FEF0895FC01918D828D9817B1
:1020100031F0828DE80FF11D858D90E008958FEFEE
:102020009FEF0895FC01918D228D892F90E0805CB7
:102030009F4F821B91098F739927089588E394E03D
:102040000E94121021E0892B09F420E0822F0895CC
:10205000FC01848DDF01A80FB11DA35ABF4F2C9145
:10206000848D90E001968F739927848FA689B78914
:102070002C93A089B1898C9180648C93938D848DED
:10208000981306C00288F389E02D80818F7D8083BC
:102090000895EF92FF920F931F93CF93DF93EC017C
:1020A00081E0888F9B8D8C8D981305C0E889F98914
:1020B000808185FD24C0F62E0B8D10E00F5F1F4F31
:1020C0000F731127E02E8C8DE8120CC00FB607FCA1
:1020D000FACFE889F989808185FFF5CFCE010E948A
:1020E0002810F1CF8B8DFE01E80FF11DE35AFF4F51
:1020F000F0820B8FEA89FB898081806207C0EE89BC
:10210000FF896083E889F98980818064808381E028
:1021100090E0DF91CF911F910F91FF90EF90089584
:10212000CF93DF93EC01888D8823C9F0EA89FB897E
:10213000808185FD05C0A889B9898C9186FD0FC075
:102140000FB607FCF5CF808185FFF2CFA889B9894A
:102150008C9185FFEDCFCE010E942810E7CFDF9153
:10216000CF91089580E090E0892B29F00E941E1005
:1021700081110C940000089520914D0330914E037D
:102180002817390771F490914B0380914C039817ED
:1021900041F0E0914B03F0E0E151FC4F808190E091
:1021A00008958FEF9FEF089508951F93CF93DF93C6
:1021B000DC015C962D913C915D972115310539F438
:1021C00081E090E013969C938E9312973DC05196B8
:1021D000ED91FC91529750969C915097892F809544
:1021E0001FB75E964C915E9741FB772770F941FDD2
:1021F0006095F8944081772311F0492B01C0482362
:102200004083E9012197F1F748E0508160FF02C067
:10221000592B01C058235083E9012197F1F76695A6
:10222000415099F7772321F090818923808303C05F
:102230008081982B90831FBF5C968D919C915D97B8
:102240000197F1F721E030E0C901DF91CF911F91B3
:10225000089520914D0330914E032817390771F4EA
:1022600080914C0320914B0390E0805C9F4F821B38
:10227000910960E470E00E94712A089580E090E086
:10228000089520914D0330914E0328173907B9F472
:1022900090914B0380914C03981789F0E0914B0388
:1022A000F0E0E151FC4F808120914B0330E02F5F43
:1022B0003F4F2F73332720934B0390E008958FEF08
:1022C0009FEF0895089580E090E008950E94C62D44
:1022D0000F931F93CF93DF93EC018881998100972F
:1022E00029F02A813B812617370788F48B016F5F1D
:1022F0007F4F0E94FC2C009761F0998388831B8399
:102300000A832C813D81232B11F4FC01108281E092
:1023100001C080E0DF91CF911F910F910895CF937D
:10232000DF93EC0188819981009711F00E94642C61
:10233000198218821D821C821B821A82DF91CF9122
:102340000895EF92FF920F931F93CF93DF93EC01C9
:102350007B018A01BA010E946811811104C0CE017B
:102360000E948F1107C01D830C83B701888199815A
:102370000E94002ECE01DF91CF911F910F91FF900F
:10238000EF900895CF93DF93EC01FB018617970739
:1023900061F0608171816115710529F04481558179
:1023A0000E94A11102C00E948F11CE01DF91CF9136
:1023B0000895FC01808191810C94642CFC011182B0
:1023C000108213821282158214826115710551F0F8
:1023D000FB0101900020E9F73197AF01461B570B35
:1023E0000C94A11108951F920F920FB60F92112411
:1023F0002F933F934F935F936F937F938F939F930D
:10240000AF93BF93EF93FF9388E394E00E9428106B
:10241000FF91EF91BF91AF919F918F917F916F91BC
:102420005F914F913F912F910F900FBE0F901F9092
:1024300018951F920F920FB60F9211242F938F931E
:102440009F93EF93FF93E0914804F09149048081BA
:10245000E0914E04F0914F0482FD12C09081809172
:1024600051048F5F8F7320915204821751F0E091D5
:102470005104F0E0E85CFB4F958F8093510401C05C
:102480008081FF91EF919F918F912F910F900FBEBF
:102490000F901F90189590E0FC01E754FC4F349189
:1024A000FC01EB5DFB4F2491FC01EF5EFB4FE491DF
:1024B000EE2309F43BC0332339F1333091F038F483
:1024C0003130A9F0323001F584B58F7D12C037303C
:1024D00091F03830A1F03430B9F4809180008F7DD4
:1024E00003C0809180008F77809380000DC084B5F9
:1024F0008F7784BD09C08091B0008F7703C0809131
:10250000B0008F7D8093B000F0E0EE0FFF1FE3502E
:10251000FC4FA591B4918FB7F894EC91611103C071
:1025200020952E2301C02E2B2C938FBF0895CF937F
:10253000DF9390E0FC01EB5DFB4F2491FC01EF5E2B
:10254000FB4F8491882361F190E0880F991FFC0173
:10255000E155FC4FC591D491FC01E350FC4FA5918E
:10256000B491611109C09FB7F894888120958223A6
:102570008883EC912E230BC0623061F49FB7F894EE
:102580003881822F809583238883EC912E2B2C9386
:102590009FBF06C08FB7F894E8812E2B28838FBF8A
:1025A000DF91CF9108953FB7F894809134049091D2
:1025B0003504A0913604B091370426B5A89B05C018
:1025C0002F3F19F00196A11DB11D3FBFBA2FA92FB2
:1025D000982F8827820F911DA11DB11DBC01CD012F
:1025E00043E0660F771F881F991F4A95D1F708951A
:1025F0002FB7F894609130047091310480913204C7
:10260000909133042FBF08951F920F920FB60F922F
:1026100011242F933F938F939F93AF93BF938091F8
:10262000300490913104A0913204B0913304309180
:102630002F0426E0230F2D3720F40296A11DB11D93
:1026400005C029E8230F0396A11DB11D20932F0477
:102650008093300490933104A0933204B0933304F8
:102660008091340490913504A0913604B0913704E0
:102670000196A11DB11D8093340490933504A0935D
:102680003604B0933704BF91AF919F918F913F91E2
:102690002F910F900FBE0F901F9018958F929F92C1
:1026A000AF92BF92CF92DF92EF92FF924B015C010B
:1026B0006B017C0184E0F694E794D794C7948A95E3
:1026C000D1F7D501C40122E0B695A79597958795D6
:1026D0002A95D1F7C80ED91EEA1EFB1ED701C601E6
:1026E00034E0B695A795979587953A95D1F7C80E9A
:1026F000D91EEA1EFB1EBB27AF2D9E2D8D2DC80EA9
:10270000D91EEA1EFB1EC701AA27BB27C80ED91E69
:10271000EA1EFB1EA3E0B0E0A70196010E94032978
:10272000A5019401261B370B480B590BABE0B0E019
:102730000E940329DC01CB0165E0B695A79597952A
:1027400087956A95D1F7BC01CD016C0D7D1D8E1D5D
:102750009F1DFF90EF90DF90CF90BF90AF909F9024
:102760008F9008951F920F920FB60F9211242F93FE
:102770003F934F935F936F937F938F939F93AF9309
:10278000BF93EF93FF93E0914D03F0914E03309789
:1027900009F451C0968DA685B785858591FF04C043
:1027A0009C91892329F447C09C91892309F043C057
:1027B000A389B4899C918589809589238C93868986
:1027C00097890197F1F7608D718DA685B78555853D
:1027D00038E020E0CB010197F1F7822F90E095954A
:1027E0008795282F4C91452309F02068315091F7A7
:1027F000868D81FD209580914C0390E001968F732A
:10280000992730914B03381749F0A0914C03B0E061
:10281000A151BC4F2C9380934C0303C0868D8160E3
:10282000868F828D938D0197F1F7A389B4899C914E
:102830008589892B8C93FF91EF91BF91AF919F91E7
:102840008F917F916F915F914F913F912F910F9059
:102850000FBE0F901F901895E0914D03F0914E031D
:10286000E817F90769F4A389B4899C918589809553
:1028700089238C9310924E0310924D0381E00895AA
:1028800080E008951F920F920FB60F9211240F90BF
:102890000FBE0F901F901895CF92DF92FF920F936B
:1028A0001F93CF93DF93F12CD5E080919305F81619
:1028B00008F086C086E892E00E94B01A0F2D10E062
:1028C000D09FF001D19FF00D1124EE5DFA4F858568
:1028D0008A3020F486E692E00E94B01AD09FC001B0
:1028E000D19F900D11249C012E5D3A4F6901F90191
:1028F000658570E080E090E04AE00E94151A80E86B
:1029000092E00E94B01AF60187859089843691057D
:1029100020F486E692E00E94B01AD09FF001D19F89
:10292000F00D1124EE5DFA4F878590890A9720F407
:1029300086E692E00E94B01AD09FC001D19F900D10
:1029400011249C012E5D3A4F6901F9016785708958
:1029500080E090E04AE00E94151A80E892E00E9430
:10296000B01AF60186858A3020F486E692E00E944D
:10297000B01AD09F6001D19FD00C1124F601EE5DFA
:10298000FA4F668570E080E090E04AE00E94151AF8
:1029900080E892E00E94B01AF601ED5CFA4FC08127
:1029A000C7FF04C0CF77CA3030F401C0C0E086E66C
:1029B00092E00E94B01A8C2F0E949F1AF39475CF58
:1029C000DF91CF911F910F91FF90DF90CF900C94EA
:1029D000D1198091570320915803309159034091A8
:1029E0005A0392E6981751F0921739F0931729F08D
:1029F000941719F09150B1F70895892F089589E03F
:102A00000E94B008909151038091B2039130E1F59A
:102A1000909152039430C1F5813059F028F0823002
:102A2000C1F08330F9F0089560E085E00E949712CC
:102A300008C061E085E00E94971260E085E00E9496
:102A40004B1260E086E00E94971260E087E00C94F1
:102A5000971260E085E00E94971260E086E00E9495
:102A600097120CC060E085E00E94971261E086E05A
:102A70000E94971260E086E00E944B1261E087E0BE
:102A80000E94971260E022C0813041F028F082302D
:102A900071F0833091F0089560E001C061E085E05D
:102AA0000E944B1260E086E00E944B12EBCF60E088
:102AB00085E00E944B1260E005C060E085E00E9466
:102AC0004B1261E086E00E944B1261E087E00C94BB
:102AD0004B120F931F93CF93DF930091570308136B
:102AE00004C01092B20391E001C090E0109158032D
:102AF000181303C091E09093B203D0915903D813F7
:102B000004C092E09093B20391E0C0915A03C817B9
:102B1000E1F0992321F02AC08C17B9F08F5F83363A
:102B2000C0F0833619F50E94E914081302C0109210
:102B3000B203181303C091E09093B203D81303C0FB
:102B400092E09093B203C81311C083E08093B20364
:102B50000DC0801303C01092B20308C0811302C0DD
:102B600081E0F4CF8D13D8CF82E0F0CFDF91CF9109
:102B70001F910F910C94FF141F93CF93DF931F921B
:102B8000CDB7DEB7A82F10912205153009F474C017
:102B9000163009F402C1113009F0BEC1E091B4054C
:102BA0004E2F50E0FA013197E930F10508F0B4C139
:102BB000E75BFF4F0C94852A8091B70582FFACC17B
:102BC0008091B5058111A8C1A33509F0A5C18091F7
:102BD000940590919505A0919605B0919705B095B3
:102BE000A095909581959F4FAF4FBF4F80939405CF
:102BF00090939505A0939605B09397058DC1AC323F
:102C000049F48091B505811105C08091B7058B7F8E
:102C10008093B7058091B70582FF7EC16A2F88E94E
:102C200095E00E943B1B78C18091B505811174C16C
:102C30008A2F0E94441C70C1682F88EA95E00E9488
:102C4000CE1C882309F468C19091B205906820C118
:102C500042E0682F8CE995E00E94B21A882309F4BB
:102C60005BC121E09091B505911101C020E09091E8
:102C7000B20520FB94F90CC190919305943108F0B2
:102C80004BC18091B405843008F446C18370292F6C
:102C900030E08230C9F0833009F449C0813049F016
:102CA000129FC001139F900D11246A2F815D9A4FCE
:102CB00008C0129FC001139F900D11246A2F805DE0
:102CC0009A4F0E94CE1C28C1AC3219F18091B705F1
:102CD0008E7F8093B7058091B505129FF001139FF9
:102CE000F00D11246A2F70E0EE5DFA4F811103C0E0
:102CF000605371090BC0278530894AE0429FC001AB
:102D0000439F900D1124C097680F791F708B6787C0
:102D100003C1129FF001139FF00D1124ED5CFA4FD7
:102D200080818F7780839F5F90939305F5C02150BA
:102D30003109129FF001139FF00D1124ED5CFA4F41
:102D4000AC3201F180818F7789836A2FCE010196A1
:102D50000E94CE1C8091930590E00197189FF0018E
:102D6000199FF00D1124ED5CFA4F8981982F9F7700
:102D700080818078892B80838091B70582608093E1
:102D8000B705CAC091E08091B505811101C090E0FE
:102D9000808190FB87F98083BFC0E091B4054E2FFE
:102DA00050E0FA013197E930F10508F0B5C0EE5A6C
:102DB000FF4F0C94852A8A2F0E94731CAEC080910D
:102DC000B505882341F08091B70582FFA5C06A2F21
:102DD00084E995E026CF91E0AC3209F490E080914F
:102DE000B70590FB82F98093B705EDCF9091B705B9
:102DF00092FB882780F992FF8FC09091B5059111C1
:102E00008BC09091B20598609093B205A73509F0F8
:102E100083C0409198055091990560919A057091F1
:102E20009B0570956095509541955F4F6F4F7F4F13
:102E3000409398055093990560939A0570939B056C
:102E40006CC043E0682F80EA95E00E94B21A8823A4
:102E500009F462C021E09091B505911101C020E014
:102E60009091B20520FB95F913C042E0682F84EAE7
:102E700095E00E94B21A882309F44EC021E0909197
:102E8000B505911101C020E09091B20520FB96F9A3
:102E90009093B20542C09091B505923031F140F463
:102EA0009923B9F09130C1F56091AD05605319C017
:102EB000943049F108F1953079F56091AF05605390
:102EC000680F6093AF058091B20582608093B20570
:102ED00023C08C3209F1682F660F6056A62FAA0F07
:102EE000AA0F6A0F6093AD0517C0682F660F605672
:102EF000A62FAA0FAA0F03C06091AE0560536A0FF8
:102F00006093AE0509C0682F660F6056A62FAA0F02
:102F1000AA0F6A0F6093AF0581E00F90DF91CF9108
:102F20001F910895009769F0FC0101900020E9F7D6
:102F30003197AF01481B590BBC0188E394E00C9416
:102F4000B60F80E090E008958F929F92AF92BF926B
:102F5000CF92DF92EF92FF920F931F93CF93DF9365
:102F60001F92CDB7DEB701E0F8E0FF2E88248394EE
:102F7000A3E0EA2E12E0E091D504F091D60400849B
:102F8000F185E02D85ED94E00995892B09F4D9C1EF
:102F9000E091D504F091D6040284F385E02D85ED0F
:102FA00094E00995982E80912B0590912C05A09185
:102FB0002D05B0912E050196A11DB11D80932B0505
:102FC00090932C05A0932D05B0932E0584E29812C2
:102FD00017C08091B70584FF05C08F7E8093B70529
:102FE000109293051092B305109222058092B805B5
:102FF0001092B5058091B7058D7F8093B705BBCF43
:103000002091B805223061F5EAE29E1203C0E092F9
:10301000B8051DC080EE890D8F3508F0FCC0809189
:10302000B30589258093B305892D0E94BC1588239B
:1030300009F4F1C0FCE29F120DC08091B7058D7FAD
:103040008093B7058091B4058F5F8093B40510928B
:10305000B50591CF8091B5058F5F8093B5058BCF76
:10306000213009F062C08091B30589258093B305B2
:103070008CE2981212C080912205882309F475C150
:1030800082EB95E029830E948E0F29812093B4055D
:103090001092B5051093B8056ECF9091B50592309A
:1030A00008F45FC1EEEFBE2EB90E80912205882391
:1030B00019F08150883008F080E0E82FF0E0EE0F42
:1030C000FF1FE351FC4F259134914B2D50E0F90146
:1030D000E40FF51FE4919E1204C08F5F80932205D8
:1030E00040C19E160CF441C18F5F883009F43DC188
:1030F000E82FF0E0EE0FFF1FE351FC4FA591B491D4
:10310000B9016D01C21AD30AE62FE21BEB1510F0CC
:103110009D01DDCFFB01A490F601E60FF71FE491BE
:103120006F5F7F4FAE1681F3F3CF233009F078C085
:10313000992D90628FE9890F863010F4975501C060
:1031400090534091B5052091B305892F90E041112E
:103150000DC08092B50530E044E0359527954A953D
:10316000E1F72817390709F406CF42C02F7030E085
:1031700028173907E9F58091B70581FF09C08D7FD0
:103180008093B7054F5F4093B5058CE20E94BC1554
:103190008091230590912405A0912505B0912605E5
:1031A0000196A11DB11D8093230590932405A09342
:1031B0002505B093260591E080912205863009F01F
:1031C00090E08091B70590FB84F98093B705109249
:1031D000B8052091D805222341F188608093B70576
:1031E0001092D9058091D80581508093D8051DC0D3
:1031F0008091270590912805A0912905B0912A0575
:103200000196A11DB11D8093270590932805A093D9
:103210002905B0932A0582EB95E00E948E0FA5C088
:103220002111A9CE10922205A6CE8091B20580FF71
:103230000CC03091D7052091B10530FF04C030910A
:10324000D605321710F42093D60581FF0CC02091CB
:10325000AD052093D2052091AE052093D305209192
:10326000AF052093D40582FF10C02091AB052093B9
:10327000D0052091AA052093CF052091A905209380
:10328000CE052091B0052093D50583FF09C0E4E960
:10329000F5E0A9EBB5E08F2D01900D928A95E1F74D
:1032A0008091B20584FF10C040919C0550919D050E
:1032B00060919E0570919F054093C1055093C20592
:1032C0006093C3057093C40586FF10C04091A405A8
:1032D0005091A5056091A6057091A7054093C90579
:1032E0005093CA056093CB057093CC0585FF10C041
:1032F0004091A0055091A1056091A2057091A30590
:103300004093C5055093C6056093C7057093C805E3
:1033100087FF04C08091A8058093CD052091D70533
:103320008091B205822B8093D705992309F423CE8F
:103330001092DA058091D80581111DCE0093D80531
:1033400019CE8091D8050F90DF91CF911F910F91E9
:10335000FF90EF90DF90CF90BF90AF909F908F90B5
:1033600008959F5F9093B50506CE109222051092A6
:10337000B80501CE282F082E000C330B205331093D
:103380002A30310510F480530895803231F09FEBDC
:10339000980F9A3120F48753089584E208958FEFAF
:1033A00008958DE892E00C9492170F931F93CF939A
:1033B000DF938C01C0E0D0E0F801EC0FFD1F6491B9
:1033C000662371F0E0913804F09139040190F081A6
:1033D000E02D88E394E00995892B11F02196ECCF3C
:1033E000CE01DF91CF911F910F910895CF93DF937D
:1033F0000E94D519EC010E94D1198C0F9D1FDF91FD
:10340000CF910895CF93DF93FC0144815581608172
:10341000718188E394E00E94B60FEC010E94D119FB
:103420008C0F9D1FDF91CF9108958F929F92AF9245
:10343000BF920F931F93CF93DF93CDB7DEB7A197C2
:103440000FB6F894DEBF0FBECDBF19A2423008F40C
:103450004AE08E010F5D1F4F842E912CA12CB12CC0
:10346000A50194010E94C228E62FB901CA010150AA
:103470001109EA3014F4E05D01C0E95CD801EC9375
:10348000232B242B252B61F7C8010E949217A196AC
:103490000FB6F894DEBF0FBECDBFDF91CF911F9165
:1034A0000F91BF90AF909F908F900895CF92DF9231
:1034B000EF92FF92CF93DF9397FF21C06B017C01C6
:1034C000E0913804F09139040190F081E02D6DE233
:1034D00088E394E00995EC0166277727CB016C1906
:1034E0007D098E099F094AE00E94151A8C0F9D1FC5
:1034F000DF91CF91FF90EF90DF90CF9008954AE059
:10350000DF91CF91FF90EF90DF90CF900C94151A40
:10351000CF93DF930E949217EC010E94D1198C0F78
:103520009D1FDF91CF91089560E880E10E943007F0
:1035300060E088E00E944B1288E00C94B008CF93C2
:10354000DF93682F70E080E090E04AE00E94151A57
:10355000EC010E94D1198C0F9D1FDF91CF9108952E
:103560000C949217FC018091B505882321F06C32F0
:1035700009F04CC018C0118210821382128280910F
:10358000B70582608093B7051092B60581E06D3271
:1035900009F080E09091B70580FB90F99093B70512
:1035A000882329F366C08091B605811103C081E0AC
:1035B0008093B60582819381892B99F48091B70518
:1035C00080FF22C082819381919581959109938397
:1035D00082838081918191958195910991838083E6
:1035E00013C02AE08091B60591E0980F9093B6053C
:1035F000481720F362817381269FC001279F900D99
:10360000112493838283EECF81E008956E3221F4FA
:1036100081E08093B6052DC08091B605811112C05E
:10362000208131814AE0429FC001439F900D1124C7
:10363000062E000C770B60537109680F791F718398
:10364000608317C091E0980F9093B605481788F0F3
:10365000228133814AE0429FC001439F900D112493
:10366000062E000C770B60537109680F791F738366
:10367000628380E00895CF92DF92EF92FF921F93D2
:10368000CF93DF93EC01162F8091B50581110BC00C
:10369000188219821A821B821092B6058091B70592
:1036A00082608093B7051E3291F01C3209F07FC012
:1036B0008091B605882359F08091B605843099F53C
:1036C000288139814A815B81A4E6B0E046C081E06F
:1036D0008093B6052981822F82958F702F703AE0F2
:1036E000839F200D11248A8181112C598881982F64
:1036F00092959F708F703AE0939F800D112490E017
:103700003CE3239F800D911D1124092E000CAA0B70
:10371000BB0B88839983AA83BB831E3209F4A9C09B
:103720001C3251F244C0853039F4288139814A81F4
:103730005B81AAE0B0E011C08630F1F008F09BC0D8
:10374000288139814A815B81833019F4A8EEB3E086
:1037500004C0823029F4A0E1B7E20E94032908C026
:10376000813051F460EA76E881E090E00E94B2286E
:10377000688379838A839B83C880D980EA80FB80B1
:10378000D701C601880F991FAA1FBB1FBC01CD011D
:103790006F5F7F4F8F4F9F4F0E944E13C60ED71EF5
:1037A000E81EF91EC882D982EA82FB8264C0809139
:1037B000B605811118C0812F110F990BC097092EE2
:1037C000000CAA0BBB0B488159816A817B8134E0D4
:1037D000440F551F661F771F3A95D1F7842B952B01
:1037E000A62BB72B42C08F5F8093B6058730C0F4FD
:1037F000288139814A815B81AAE0B0E00E940329D7
:10380000212F110F330B205331096901330FEE08BB
:10381000FF08DC01CB018C0D9D1DAE1DBF1D25C019
:10382000873039F5C880D980EA80FB80D701C6018E
:10383000880F991FAA1FBB1FBC01CD016F5F7F4F6F
:103840008F4F9F4F0E944E13DC01CB018C0D9D1DAD
:10385000AE1DBF1D193324F00296A11DB11D05C078
:1038600014331CF00196A11DB11D88839983AA838E
:10387000BB8380E001C081E0DF91CF911F91FF9079
:10388000EF90DF90CF900895813311F0813411F4DF
:1038900083E020C0803321F08E3411F0863519F496
:1038A0001092B10519C0823311F0843411F484E010
:1038B00011C0833311F487E00DC0843311F486E026
:1038C00009C0853311F485E005C0863311F08534D5
:1038D00041F481E08093B1058091B20581608093CD
:1038E000B20580E00895E091B5054E2F50E04930D3
:1038F000510508F051C0FA01E55AFF4F0C94852A92
:103900001092B0058C3209F447C09091B7059260CF
:103910009093B705880F8056982F990F990F03C081
:103920009091AB059053890F8093AB0535C0880FFC
:103930008056982F990F990F03C09091AA05905324
:10394000890F8093AA0528C0880F8056982F990F59
:10395000990F03C09091A9059053890F8093A905F1
:103960001BC08C32C9F413C08C3289F0880F80568A
:10397000982F990F990F890F8093B0050DC08C3245
:1039800031F09091B0059053890F8093B0058091EC
:10399000B20584608093B20581E00895FC018091B6
:1039A000B7058E7F8093B70581E06C3209F080E027
:1039B0009091B505911104C081110CC0605308C0ED
:1039C00081110AC0605380819AE0899F600D1124A3
:1039D000608302C080E0089581E00895CF93DF9373
:1039E000EC010E94910F9091D8059923C1F091505C
:1039F0009093D8052091D9058FE1829F90011124E1
:103A0000F901E754FA4FDE0101900D928A95E1F732
:103A1000C90187549A4F0E94910F1092D905CE0187
:103A2000DF91CF9108958F929F92AF92BF92CF92E4
:103A3000DF92EF92FF920E94D3124B015C018EE164
:103A4000C82ED12CE12CF12C0E94D312DC01CB0129
:103A500088199909AA09BB09883E9340A105B105B7
:103A600058F021E0C21AD108E108F10888EE880E6A
:103A700083E0981EA11CB11CC114D104E104F1041F
:103A800019F7FF90EF90DF90CF90BF90AF909F908D
:103A90008F900895CF93DF93CDB7DEB7C756D10986
:103AA0000FB6F894DEBF0FBECDBF789484B58260A8
:103AB00084BD84B5816084BD85B5826085BD85B5D2
:103AC000816085BD80916E00816080936E00109250
:103AD00081008091810082608093810080918100CB
:103AE000816080938100809180008160809380005C
:103AF0008091B10084608093B1008091B0008160BA
:103B00008093B00080917A00846080937A008091E5
:103B10007A00826080937A0080917A008E7F809311
:103B20007A0080917A00806880937A001092C100B8
:103B30001092BB031092BA03E0914804F09149043B
:103B400082E08083E0914404F09145041082E0918A
:103B50004604F091470487E6808310925004E09178
:103B60004C04F0914D0486E08083E0914A04F0918A
:103B70004B04808180618083E0914A04F0914B0482
:103B8000808188608083E0914A04F0914B048081B9
:103B900080688083E0914A04F0914B0480818F7D9E
:103BA000808380ED97E0A0E0B0E080933C049093A8
:103BB0003D04A0933E04B0933F041092F004109291
:103BC000EF041092EE041092ED041092EC041092A7
:103BD000EB048DEC90E09093F2048093F1049091CB
:103BE000E104963108F057C025E530E03093EC044D
:103BF0002093EB042BEC30E03093EE042093ED04A3
:103C000020E930E03093F0042093EF042091680025
:103C1000983050F031E09E3008F430E081E001C08F
:103C2000880F3A95EAF701C084E0822B8093680000
:103C3000983038F09E3040F0963148F020E030E087
:103C400008C02DE630E005C02BE630E002C02CE6CF
:103C500030E03093E9042093E804983030F481E0B8
:103C600001C0880F9A95EAF70EC0292F30E09E30E8
:103C700018F42850310902C02E50310981E001C0EA
:103C8000880F2A95EAF78093EA048091F1049091D5
:103C9000F2040197F1F78091EF049091F004892BE1
:103CA00021F180914D0390914E0324E0853D9207D0
:103CB000E1F0009711F00E942C148091F3048E7FA4
:103CC0008093F30410924C0310924B0385ED94E023
:103CD00090934E0380934D03E091E804F091E90442
:103CE00090818091EA04892B80838EEC92E00E947F
:103CF000F61986EB92E00E94D51980EB92E00E94C3
:103D0000D5194AE060E070E0CB010E94151A8EEAF6
:103D100092E00E94D51989E40E949F1A81E5C82E7D
:103D200083E0D82E00E911E0C8010E949C28F6012A
:103D300081936F010F5F1F4F0A39F1E01F07A1F751
:103D400081E00E9413062B013C01CE0101965C012B
:103D50006C01C8010E949C28F50181935F010F5FEF
:103D60001F4F0E39F1E01F07A1F789819A81AB81BE
:103D7000BC8184159505A605B70509F181E08093FE
:103D8000510386E08093520340EC5CEF6BE971E0F5
:103D90004093530350935403609355037093560319
:103DA00094E09093570395E09093580380935903C0
:103DB00087E080935A038AE592E00E94F6190DE5A8
:103DC00013E0A12CB12CC5010E949C28F80181931D
:103DD0008F01FFEFAF1ABF0A25E5A216B10499F7CC
:103DE00080E00E9413062B013C018601C5010E9460
:103DF0009C28F80181938F01FFEFAF1ABF0A29E5D4
:103E0000A216B10499F789819A81AB81BC8184158E
:103E10009505A605B70569F4809185039091860301
:103E200090935C0380935B0310928D031092940334
:103E300071C021E030E030935C0320935B0387E5A1
:103E400080935D0383E580935E0380E580935F0349
:103E500082E58093600380E28093610384E5809330
:103E6000620388E5809363031092640382E090E02C
:103E7000909386038093850381E4809387038093E6
:103E8000880390E39093890380938A0380938B0344
:103E900080938C0310928D0330938F0320938E03B5
:103EA0008093900380939103909392039093930354
:103EB0001092940387E180939503E6E9F3E0119271
:103EC00083E0E73AF807D9F781E080939C0388E71D
:103ED00090E0A0E0B0E08093A6039093A703A093A6
:103EE000A803B093A9031092AA0384E98093AB03BB
:103EF00085E38093AC0387E78093AD031092AE0314
:103F00001092AF031092B0031092B10385E292E0D9
:103F10000E94F61984E090E09093500380934F0341
:103F200080915203843089F480915103813069F487
:103F300060E085E00E94971260E086E00E949712A0
:103F400060E087E00E94971218C061E085E00E945F
:103F5000971261E086E00E94971261E087E00E947C
:103F6000971260E085E00E944B1260E086E00E94BC
:103F70004B1260E087E00E944B1261E084E00E94F7
:103F8000971261E088E00E94971208E010E061E07B
:103F900084E00E944B120E94131D60E084E00E94A6
:103FA0004B120E94131D0150110989F780E4EFEFB5
:103FB000F1E0D60101900D928A95E1F724E630E018
:103FC00088248A94982C5401E0E4E0937C0080914A
:103FD0007A00806480937A0080917A0086FDFCCF1D
:103FE000809178004091790090E0942BB501A40174
:103FF00048274F70552766277727440F551F440FD2
:10400000551FD601A40FB51F4D915D916D917C9107
:10401000F4E0B694A79497948794FA95D1F748253D
:1040200059256A257B259927A4E095958795AA951A
:10403000E1F7092E000CAA0BBB0B84279527A627B6
:10404000B7278F709927AA27BB27880F991F880F3A
:10405000991FD601A80FB91F8D909D90AD90BC906F
:1040600014E076956795579547951A95D1F784266C
:104070009526A626B72680949094A094B0942150BB
:10408000310909F0A2CF89288A288B2811F00E94D3
:10409000612780915B0390915C038130910551F021
:1040A0008230910551F0892B51F41092B3030E9494
:1040B0005D0C05C00E94D70E02C00E94470A4E0147
:1040C0009AE0890E911CFE013D96A896FFAFEEAFD7
:1040D000A89788E394E00E941210892B11F41FE145
:1040E000A8C4AA24A394B12C93E0F92E22E0322E86
:1040F00088E394E00E9412101816190684F788E3EA
:1041000094E00E94F00F8A3019F08D3089F356C484
:10411000E091EE03F0E0E454FC4F10828091BC0388
:104120008B3509F048C48091C0038D3509F043C434
:104130008091BD03833409F05BC08091BE0383345A
:1041400001F58091BF038D34E1F48091C203833582
:10415000A9F48091C403833511F40E94D70E809195
:10416000C403873521F41092B3030E945D0C809143
:10417000C4038E3431F40E94470A03C081E00E94D8
:10418000B0088091BE03833579F48091BF038534F4
:1041900059F48091C203833539F480E00E94BD0652
:1041A00085E993E00E94F6198091BE03833501F5FD
:1041B0008091BF038C34E1F48091C2038335C1F454
:1041C0008091C403813419F41092B2030FC0823479
:1041D00021F481E08093B20309C0833419F4309252
:1041E000B20304C0843411F4F092B2030E94FF14AD
:1041F0008091BD038F3409F037C18091BE038435AF
:1042000009F07DC08091BF03803509F078C08091AE
:10421000C203833501F58091C40389838091C5036E
:104220008A838091C6038B838091C7038C8380919E
:10423000C8038D831E82C6010E946F27092E000CC1
:10424000AA0BBB0B8093A6039093A703A093A8038C
:10425000B093A90354C08EE893E00E94D5198091D1
:10426000A6039091A703A091A803B091A903803160
:104270009742A105B10520F486E692E00E94B01AAB
:104280008091A6039091A703A091A803B091A903E0
:10429000883E9340A105B10520F486E692E00E9495
:1042A000B01A8091A6039091A703A091A803B091A2
:1042B000A90384369105A105B10520F486E692E0B4
:1042C0000E94B01A8091A6039091A703A091A80321
:1042D000B091A9030A97A105B10520F486E692E002
:1042E0000E94B01A6091A6037091A7038091A80361
:1042F0009091A9034AE00E94151A0E94D119809159
:10430000BE03833599F58091BF038D3479F5809193
:10431000C203833589F48091C403833529F4B092B4
:104320008603A092850322C0873509F089C31092C5
:104330008603109285031AC08EE692E00E94B01A9E
:1043400080918503909186038130910559F08230E8
:10435000910529F0892B51F487E792E005C085E7A4
:1043600092E002C089E792E00E94881A8091BE0321
:10437000823409F04CC08091BF03843409F047C0F7
:104380008091C2038335B1F48091C4038983809105
:10439000C5038A831B821C82C6010E946F27FC0111
:1043A000E35AFC4F91E08091C703853409F090E017
:1043B00091AF2DC0412C512C320187E893E00E942F
:1043C000D5199AE0491651046104710420F485E876
:1043D00093E00E94D519C301B2010E94561AF2015E
:1043E000E35AFC4F81AD882319F082E893E002C0C4
:1043F0008FE793E00E94F619EFEF4E1A5E0A6E0AFD
:104400007E0AF0E14F16510461047104B1F6809107
:10441000BE038C3449F58091BF03833429F5809124
:10442000C203833581F48091C403873429F4B092A8
:104430008F03A0928E0318C08D34B1F410928F03B5
:1044400010928E0311C08BE792E00E94B01A809107
:104450008E0390918F03019719F482E892E002C0D5
:1044600084E892E00E94881A8091BD03843409F0A8
:104470000EC18091BE03833459F58091BF0383350B
:1044800039F58091C2038335D9F48091C4038093B8
:1044900087038091C503809388038091C60380932E
:1044A00089038091C70380938A038091C803809316
:1044B0008B038091C90380938C0310928D0308C0F5
:1044C00088E793E00E94D51987E893E00E94881A54
:1044D0008091BE038C3419F58091BF038433F9F4C5
:1044E0008091C203833599F48091C4038093900333
:1044F0008091C503809391038091C60380939203BA
:104500008091C703809393031092940308C081E7BE
:1045100093E00E94D51980E993E00E94881A809167
:10452000BE038E34E9F48091BF038D34C9F48091C9
:10453000C203833569F4A4ECB3E0EDE5F3E08D91BB
:10454000819323E0E438F207D1F71092840308C086
:104550008AE693E00E94D5198DE593E00E94881ABF
:104560008091BE03803539F58091BF03843419F5FD
:104570008091C203833579F48091C403898380914B
:10458000C5038A831B821C82CE0101960E946F277D
:104590008093950310C083E693E00E94D519809123
:1045A00095038A3020F486E692E00E94B01A80914A
:1045B00095030E949F1A8091BE03873409F067C05B
:1045C0008091BF03863409F062C08091C2038335B5
:1045D000C9F5A4ECB3E0FE0131968D918193A896C4
:1045E0008EAD9FADA897E817F907B9F71D86BE01F4
:1045F0006F5F7F4FCE018F5B9F4F0E94DE11CE0118
:104600008F5B9F4F0E94080F2093AA033093AB0348
:104610004093AC035093AD036093AE037093AF032C
:104620008093B0039093B103CE018F5B9F4F0E94A4
:10463000D91180915B0390915C03019741F50E9431
:10464000D70E25C08CE593E00E94D5190091AA03EE
:104650001091AB032091AC033091AD034091AE03B8
:104660005091AF036091B0037091B103EE24E394D5
:10467000CE018F5B9F4F0E946307CE018F5B9F4FE0
:104680000E94021ACE018F5B9F4F0E94D911809128
:10469000BD03863409F08FC18091BE038035C9F413
:1046A0008091BF038E34A9F48091C203873489F4CA
:1046B00085E593E00E94D51986E692E00E94B01A43
:1046C0004AE064EF73E080E090E00E94151A0E94D7
:1046D000D1198091BE03883489F58091BF03863556
:1046E00069F58091C203833589F48091C40389837D
:1046F0008091C5038A838091C6038B831C82CE017F
:1047000001960E946F278093510318C08EE493E0B6
:104710000E94D51980915103843620F486E692E0F8
:104720000E94B01A809151038A3020F486E692E00C
:104730000E94B01A809151030E949F1A8091BE037B
:10474000883489F58091BF03823569F58091C20371
:10475000833589F48091C40389838091C5038A835A
:104760008091C6038B831C82CE0101960E946F2725
:104770008093520318C087E493E00E94D51980917A
:104780005203843620F486E692E00E94B01A8091AB
:1047900052038A3020F486E692E00E94B01A80919B
:1047A00052030E949F1A8091BE03833579F4809151
:1047B000BF03863559F48091C203873439F480E40D
:1047C00093E00E94D51980E00E949F1A8091BE0359
:1047D000833579F48091BF03823559F48091C20307
:1047E000873439F489E393E00E94D51989E40E9463
:1047F0009F1A8091BE038C3409F079C08091BF0369
:10480000803509F074C08091C203833581F58091B1
:10481000C60389838091C7038A831B828091C40366
:104820008234B9F054F4813409F061C0CE010196AC
:104830000E946F27809357035AC0833489F08434D1
:1048400009F055C0CE0101960E946F2780935A034C
:104850004EC0CE0101960E946F278093580347C037
:10486000CE0101960E946F278093590340C080E3D8
:1048700093E00E94D519809157038A3020F486E690
:1048800092E00E94B01A809157030E949F1A87E21B
:1048900093E00E94D519809158038A3020F486E66F
:1048A00092E00E94B01A809158030E949F1A8EE1F4
:1048B00093E00E94D519809159038A3020F486E64E
:1048C00092E00E94B01A809159030E949F1A85E1DC
:1048D00093E00E94D51980915A038A3020F486E62D
:1048E00092E00E94B01A80915A030E949F1A809110
:1048F000BE03823509F04CC08091BF03863409F0B5
:1049000047C08091C203833501F5A4ECB3E0FE01FA
:1049100031968D918193E815F905D9F71A86BE0174
:104920006F5F7F4FCE018F5B9F4F0E94DE11CE01E4
:104930008F5B9F4F0E94080F2093530330935403C3
:1049400040935503509356031EC08EE093E00E949F
:10495000D5194091530350915403609155037091C0
:104960005603EE24E3948A019B0140E050E060E0AE
:1049700070E0CE018F5B9F4F0E946307CE018F5B7B
:104980009F4F0E94021ACE018F5B9F4F0E94D91148
:104990008091BE03833579F48091BF03853459F447
:1049A0008091C203833539F481E00E94BD0685EF12
:1049B00092E00E94F6191092EE039ACBE091EE037A
:1049C000E13308F095CB91E09E0F9093EE03F0E079
:1049D000E454FC4F80838CCBCE01895B9F4F0E94B7
:1049E000EE1CFE01E95BFF4FA3E0B5E0812F0190D3
:1049F0000D928A95E1F78091210582FF18C0809180
:104A00001A0590E09093B9038093B803809119053B
:104A100090E09093B7038093B6038091180590E0DF
:104A20009093B5038093B40383E00E94B0080E9482
:104A30004C140E94A4178111CFCF0E94B21049CB11
:104A40008E3409F0E4CC82E090E09093860380936A
:104A500085038CCC85E592E09093D6048093D504B1
:104A600085ED94E00C942C14EF92FF920F931F931A
:104A7000CF93DF9310923B0410923A0488EE93E0B8
:104A8000A0E0B0E080933C0490933D04A0933E04EA
:104A9000B0933F0483E492E0909339048093380408
:104AA00085EC90E0909345048093440484EC90E07E
:104AB000909347048093460480EC90E090934904DF
:104AC0008093480481EC90E090934B0480934A04D7
:104AD00082EC90E090934D0480934C0486EC90E03F
:104AE00090934F0480934E041092510410925204FC
:104AF000109253041092540484E995E00E94910F9F
:104B000089EB95E00E94910F1092230510922405E5
:104B1000109225051092260510922705109228055F
:104B20001092290510922A0510922B0510922C053F
:104B300010922D0510922E0584E995E00E94910FA8
:104B4000109293051092B80583E095E00E94910FB2
:104B500064E170E081E090E00E94B32BEC01892BCE
:104B600009F4EAC086E090E0998388838FE390E0BF
:104B70009B838A831B8A1A8A80E490E00E94CF2B51
:104B80008C019D838C83892B09F441C080E490E0E3
:104B90000E94CF2B9F838E83009711F4C80135C0EC
:104BA0002FE3FC012083F80117AE01E010E080E064
:104BB00090E02A813B8182179307B4F4EE81FF8154
:104BC000E00FF11F8083EC81FD81E80FF91F008366
:104BD000000F111F06FF02C0F3E40F272A813B815B
:104BE000022313230196E5CF0130110541F484E33C
:104BF00090E00E94CF2B99878887009771F48C8171
:104C00009D810E94642C8E819F810E94642CCE0124
:104C10000E94642CC0E0D0E08FC023E030E03D87EC
:104C20002C871F870E8723E330E03B872A87198B69
:104C3000088B21E0FC01208323E030E041E0E8859F
:104C4000F985E20FF31F32974083B901645071096F
:104C5000E885F9856F3F8FEF780799F1DB011196B1
:104C6000AE0FBF1F8C91E60FF71F882329F15081EB
:104C70000C811D81EE81FF81E80FF11D8081F9011A
:104C8000E80FF11DCF01EA81FB818E179F0774F0B9
:104C90008E1B9F0B7C01088002C0F594E7940A9458
:104CA000E2F78E239F238E0D9F1DEFCFF801E80FB3
:104CB000F91F8081852701C080818C936150710923
:104CC000C7CF0C811D818081AE81BF81A80FB11D2E
:104CD0008C91B901680F711DCB016A817B818617A8
:104CE000970774F0861B970BDC01088002C0B5950E
:104CF000A7950A94E2F7862397238A0F9B1FEFCF8D
:104D0000D801A80FB91F8C9180832F5F3F4F2633A6
:104D1000310509F094CF80E090E0E885F985E80F4F
:104D2000F91F2081AE81BF81A20FB11D2C9120837C
:104D300001968433910589F7D093F504C093F40468
:104D40001092D8041092D70488EE93E0A0E0B0E06F
:104D50008093D9049093DA04A093DB04B093DC042D
:104D600085E592E09093D6048093D5041092EC04EC
:104D70001092EB041092EE041092ED041092F004E5
:104D80001092EF041092F2041092F1046091F30477
:104D90006E7F6D7F6093F3046695617081E0682794
:104DA00083E00E944B1261E083E00E949712E8E2E8
:104DB000F4E0E491E093E504E4E1F4E0E491F0E070
:104DC000EE0FFF1FE350FC4F859194919093E70401
:104DD0008093E60460E082E00E9497128091F304E1
:104DE00081FD04C061E082E00E944B1282E080936A
:104DF000E104E7E2F4E0E491E093E204E3E1F4E0CB
:104E0000E491F0E0EE0FFF1FE95FFB4F8591949175
:104E10009093E4048093E304DF91CF911F910F916D
:104E2000FF90EF9008958F929F92AF92BF92CF9292
:104E3000DF92EF92FF92CF93DF93EC01688179814B
:104E40008A819B81611571058105910521F464E2D8
:104E500079ED8BE597E02DE133EF41E050E00E94E2
:104E6000E42849015A019B01AC01A7EAB1E40E9480
:104E700003296B017C01ACEEB4EFA50194010E9403
:104E80001129DC01CB018C0D9D1DAE1DBF1DB7FF8F
:104E900003C00197A109B04888839983AA83BB8383
:104EA000BC01CD019F77DF91CF91FF90EF90DF9014
:104EB000CF90BF90AF909F908F9008950E9413273E
:104EC000089580E091E00E94132708956093000107
:104ED0007093010180930201909303010895FC01F6
:104EE00088279927E89421912032E9F3293010F09E
:104EF0002E30C8F32B3241F02D3239F4689404C0BF
:104F00000E949627820F911D219120532A30C0F3D1
:104F10001EF4909581959F4F089591110C949E27B2
:104F2000803219F089508550C8F708957AE0979F2C
:104F3000902D879F802D910D112408959927882702
:104F40000895E89409C097FB3EF49095809570957C
:104F500061957F4F8F4F9F4F9923A9F0F92F96E9C5
:104F6000BB279395F695879577956795B795F1113A
:104F7000F8CFFAF4BB0F11F460FF1BC06F5F7F4FD7
:104F80008F4F9F4F16C0882311F096E911C07723E9
:104F900021F09EE8872F762F05C0662371F096E8F2
:104FA000862F70E060E02AF09A95660F771F881FC1
:104FB000DAF7880F9695879597F908950E94F1275B
:104FC0000C9462280E94542838F00E945B2820F03C
:104FD000952311F00C944B280C94512811240C9417
:104FE00096280E94732870F3959FC1F3950F50E0A7
:104FF000551F629FF001729FBB27F00DB11D639F8B
:10500000AA27F00DB11DAA1F649F6627B00DA11D30
:10501000661F829F2227B00DA11D621F739FB00DD6
:10502000A11D621F839FA00D611D221F749F332746
:10503000A00D611D231F849F600D211D822F762FDF
:105040006A2F11249F5750409AF0F1F088234AF0BC
:10505000EE0FFF1FBB1F661F771F881F9150504028
:10506000A9F79E3F510580F00C944B280C9496288C
:105070005F3FE4F3983ED4F3869577956795B795AF
:10508000F795E7959F5FC1F7FE2B880F911D9695C9
:10509000879597F9089597F99F6780E870E060E039
:1050A00008959FEF80EC089500240A9416161706C1
:1050B00018060906089500240A9412161306140609
:1050C00005060895092E0394000C11F4882352F06C
:1050D000BB0F40F4BF2B11F460FF04C06F5F7F4F24
:1050E0008F4F9F4F089557FD9058440F551F59F00B
:1050F0005F3F71F04795880F97FB991F61F09F3FC5
:1051000079F087950895121613061406551FF2CFED
:105110004695F1DF08C0161617061806991FF1CF3D
:1051200086957105610508940895E894BB27662764
:105130007727CB0197F90895F999FECF92BD81BDEC
:10514000F89A992780B50895262FF999FECF1FBAAE
:1051500092BD81BD20BD0FB6F894FA9AF99A0FBEA0
:1051600001960895DB018F939F930E940329BF91BD
:10517000AF91A29F800D911DA39F900DB29F900DA6
:1051800011240895A1E21A2EAA1BBB1BFD010DC01C
:10519000AA1FBB1FEE1FFF1FA217B307E407F507E7
:1051A00020F0A21BB30BE40BF50B661F771F881FC3
:1051B000991F1A9469F760957095809590959B0159
:1051C000AC01BD01CF010895052E97FB1EF400949C
:1051D0000E94FB2857FD07D00E94C22807FC03D07D
:1051E0004EF40C94FB2850954095309521953F4FF7
:1051F0004F4F5F4F089590958095709561957F4FC3
:105200008F4F9F4F08950E944D29A59F900DB49FE9
:10521000900DA49F800D911D11240895B7FF0C944B
:1052200003290E940329821B930B08952F923F921A
:105230004F925F926F927F928F929F92AF92BF92A6
:10524000CF92DF92EF92FF920F931F93CF93DF9352
:10525000CDB7DEB7CA1BDB0B0FB6F894DEBF0FBEAF
:10526000CDBF09942A88398848885F846E847D84FC
:105270008C849B84AA84B984C884DF80EE80FD80FE
:105280000C811B81AA81B981CE0FD11D0FB6F89474
:10529000DEBF0FBECDBFED010895A29FB001B39F49
:1052A000C001A39F700D811D1124911DB29F700D2F
:1052B000811D1124911D08955058BB27AA270E94D3
:1052C00074290C9462280E94542838F00E945B28AC
:1052D00020F039F49F3F19F426F40C9451280EF471
:1052E000E095E7FB0C944B28E92F0E94732858F3B4
:1052F000BA17620773078407950720F079F4A6F5BB
:105300000C9495280EF4E0950B2EBA2FA02D0B01CE
:10531000B90190010C01CA01A0011124FF27591BFA
:1053200099F0593F50F4503E68F11A16F040A22F00
:10533000232F342F4427585FF3CF46953795279571
:10534000A795F0405395C9F77EF41F16BA0B620B70
:10535000730B840BBAF09150A1F0FF0FBB1F661FB7
:10536000771F881FC2F70EC0BA0F621F731F841FFA
:1053700048F4879577956795B795F7959E3F08F020
:10538000B0CF9395880F08F09927EE0F97958795E2
:1053900008950E94DD290C9462280E945B2858F031
:1053A0000E94542840F029F45F3F29F00C944B28C8
:1053B00051110C9496280C9451280E94732868F37C
:1053C0009923B1F3552391F3951B550BBB27AA27BE
:1053D00062177307840738F09F5F5F4F220F331FF8
:1053E000441FAA1FA9F335D00E2E3AF0E0E832D0C0
:1053F00091505040E695001CCAF72BD0FE2F29D0C3
:10540000660F771F881FBB1F261737074807AB0794
:10541000B0E809F0BB0B802DBF01FF2793585F4F09
:105420003AF09E3F510578F00C944B280C94962846
:105430005F3FE4F3983ED4F3869577956795B795EB
:10544000F7959F5FC9F7880F911D9695879597F9F6
:105450000895E1E0660F771F881FBB1F621773076F
:105460008407BA0720F0621B730B840BBA0BEE1F84
:1054700088F7E09508950E94422A6894B1110C942F
:10548000962808950E947B2888F09F5798F0B92F9E
:105490009927B751B0F0E1F0660F771F881F991F69
:1054A0001AF0BA95C9F714C0B13091F00E9495284E
:1054B000B1E008950C949528672F782F8827B85F5E
:1054C00039F0B93FCCF3869577956795B395D9F7C1
:1054D0003EF490958095709561957F4F8F4F9F4FCB
:1054E000089597FB072E16F4009407D077FD09D096
:1054F0000E949F2B07FC05D03EF4909581959F4F0D
:105500000895709561957F4F0895EE0FFF1F0590E8
:10551000F491E02D0994DF93CF931F930F939A9DFD
:10552000F02D219FF00D8B9DF00D8A9DE02DF10D4A
:10553000039FF00D029FE00DF11D4E9DE00DF11D4A
:105540005E9DF00D4F9DF00D7F936F93BF92AF92D4
:105550005F934F93D5010E944D298B01AC01D70178
:105560000E944D29EB01E80FF91FD6010E94DB2AAA
:105570002F913F91D6010E944D29C60FD71FE81FDA
:10558000F91FAF91BF910E94DB2A2F913F910E949A
:105590004D29C60FD71FE81FF91FD6010E944D29BC
:1055A000E60FF71F9801BE01CF0111240F911F9143
:1055B000CF91DF9108950E944D29460F571FC81FB4
:1055C000D91F08F43196089597FB57FF0C94F42ADD
:1055D0009F938F930E94F42A6E1B7F0BAF91BF9114
:1055E0008A0B9B0B0895E894DF93CF93FC01DB01BA
:1055F0000E944D297F936F93E9019A01AC01BF93FB
:10560000AF933F932F93DF010E944D2926F46C1B2B
:105610007D0B820B930B9E01EB01FC010E94DB2AA8
:10562000AF91BF912F913F910E94DB2ABE01CF0124
:10563000F9012F913F91CF91DF910895689401C0B6
:10564000E8948F929F92CF93DF930E942C2BDF914F
:10565000CF919F908F90089588249924F401E401BC
:10566000B0E49F93AA279A158B049C04ED05FE05D0
:10567000CF05D007A10798F4AD2FDC2FCF2FFE2F39
:10568000E92D982C892E982F872F762F652F542F50
:10569000432F322F2227B85031F7BF9127C01B2E3E
:1056A000BF91BB27220F331F441F551F661F771F53
:1056B000881F991F881C991CEE1FFF1FCC1FDD1F20
:1056C000AA1FBB1F8A149B04EC05FD05CE05DF0550
:1056D000A007B10748F08A189B08EC09FD09CE091C
:1056E000DF09A00BB10B21601A94E1F62EF49401AE
:1056F000AF01BE01CD01000C08950F93083090F06A
:10570000982F872F762F652F542F432F322F222744
:105710000850F4CF220F331F441F551F661F771FF9
:10572000881F991F0A95B2F70F9108952A0D3B1D06
:105730004C1D5D1D6E1D7F1D801F911F0895AA1BAE
:10574000BB1B51E107C0AA1FBB1FA617B70710F06C
:10575000A61BB70B881F991F5A95A9F7809590959E
:10576000BC01CD0108950F931F93CF93DF93869FC4
:105770008001879F100D969F100D1124C8010E9473
:10578000CF2BEC01009729F0A80160E070E00E94A7
:10579000F92DCE01DF91CF911F910F910895CF93F5
:1057A000DF938230910510F482E090E0E091DD0516
:1057B000F091DE0520E030E0C0E0D0E0309711F15C
:1057C0004081518148175907C0F04817590761F4C3
:1057D00082819381209719F09B838A832BC09093B9
:1057E000DE058093DD0526C02115310519F042172D
:1057F000530718F49A01BE01DF01EF010280F38123
:10580000E02DDCCF2115310509F1281B390B24309F
:10581000310590F412968D919C9113976115710545
:1058200021F0FB019383828304C09093DE05809373
:10583000DD05FD01329644C0FD01E20FF31F8193A7
:105840009193225031092D933C933AC02091DB056E
:105850003091DC05232B41F42091060130910701A2
:105860003093DC052093DB05209104013091050184
:105870002115310541F42DB73EB7409108015091F3
:105880000901241B350BE091DB05F091DC05E217E3
:10589000F307A0F42E1B3F0B2817390778F0AC0153
:1058A0004E5F5F4F2417350748F04E0F5F1F509330
:1058B000DC054093DB058193919302C0E0E0F0E0CA
:1058C000CF01DF91CF9108950F931F93CF93DF9373
:1058D000009709F48CC0FC01329713821282009168
:1058E000DD051091DE050115110581F4208131815E
:1058F000820F931F2091DB053091DC0528173907B3
:1059000079F5F093DC05E093DB0571C0D80140E048
:1059100050E0AE17BF0750F412962D913C911397AB
:10592000AD012115310509F1D901F3CF9D01DA014E
:105930003383228360817181860F971F82179307BB
:1059400069F4EC0128813981260F371F2E5F3F4F04
:10595000318320838A819B8193838283452B29F421
:10596000F093DE05E093DD0542C01396FC93EE93C1
:105970001297ED01499159919E01240F351FE217AD
:10598000F30771F480819181840F951F029611961F
:105990009C938E938281938113969C938E931297FE
:1059A000E0E0F0E0D80112968D919C91139700975A
:1059B00019F0F8018C01F6CF8D919C9198012E5F22
:1059C0003F4F820F931F2091DB053091DC05281794
:1059D000390769F4309729F41092DE051092DD053D
:1059E00002C0138212821093DC050093DB05DF9165
:1059F000CF911F910F910895A0E0B0E0E2E0FDE2A9
:105A00000C941A29EC01009721F4CB010E94CF2BB2
:105A1000B8C0FC01E60FF71F9C0122503109E217C4
:105A2000F30708F4ACC0D9010D911C91119706172A
:105A30001707B0F00530110508F49FC0C80104979E
:105A40008617970708F499C002501109061B170B17
:105A5000019311936D937C93CF010E94642C8DC0B0
:105A60005B01A01AB10A4C01800E911EA091DD05C8
:105A7000B091DE0540E050E0E12CF12C109709F4E4
:105A80004AC0A815B905D1F56D907C9011976301B6
:105A900082E0C80ED11CCA14DB0480F1A3014A19AC
:105AA0005B096A0182E0C80ED11C1296BC90129765
:105AB0001396AC91B5E0CB16D10440F0B282A3832B
:105AC00051834083D9016D937C930AC00E5F1F4FB1
:105AD000C301800F911FF90191838083EB2DFA2F71
