:100000000C9461020C9489020C9489020C94442390
:100010000C9444230C9444230C94BC230C94890228
:100020000C9489020C9489020C9489020C94890224
:100030000C9489020C9489020C9489020C94890214
:100040000C94FA220C9489020C94C8220C94A222DB
:100050000C9489020C9489020C9489020C948902F4
:100060000C9489020C9489025A444100565447006A
:10007000524D4300475356004753540047534100E5
:10008000474C4C00474741007B4D494E7D486172CB
:100090006477617265204552524F5221204E6F2085
:1000A00053693533353120504C4C20646576696393
:1000B0006520666F756E64206F6E207468652049D8
:1000C0003243206275737321002450434153313011
:1000D0002C332A3146007B4D494E7D205265736595
:1000E0007474696E6720475053007B4D494E7D43C1
:1000F000616E206E6F742073746172742057535058
:100100005220426561636F6E007B4D494E7D4361B5
:100110006C6C205369676E206E6F74207365740079
:100120007B4D494E7D5472616E6D697373696F6E5C
:10013000206973206E6F7420656E61626C65642047
:100140006F6E20616E792062616E64007B4D494E56
:100150007D4861726477617265204552524F522129
:10016000204E6F2053693533353120504C4C20647C
:10017000657669636520666F756E64206F6E2074A6
:10018000686520493243206275737321007B5457A0
:10019000537D20007B4D50537D2030007B4D5053CC
:1001A0007D20007B5446517D20007B4C50497D20B2
:1001B000007B4D56437D20007B5443437D007B54A0
:1001C0004F4E7D2046007B544F4E7D2054007B5483
:1001D00046517D20007B474C437D2046007B474CA9
:1001E000437D2054003A003A007B47544D7D200067
:1001F0007B474C367D20007B474C347D20007B5470
:100200004F4E7D2054007B544F4E7D2046007B5442
:100210004F4E7D2046007B43434D7D20007B47535E
:10022000497D200000000000240027002A00000073
:1002300000080002010000030407000000000000A5
:1002400000007B4D494E7D204669726D7761726575
:100250002076657273696F6E20007B4D494E7D205C
:100260005A61636854656B2057535052204465733C
:100270006B746F70207472616E736D6974746572E3
:10028000007B4D494E7D204E6F2075736572206452
:100290006174612077617320666F756E642C2073C2
:1002A000657474696E672064656661756C74207628
:1002B000616C756573007B4D494E7D20596F7520CB
:1002C0006E65656420746F2072756E20666163745C
:1002D0006F727920736574757020746F20636F6D11
:1002E000706C6574652074686520636F6E666967FD
:1002F00075726174696F6E2C206775657373696EB2
:1003000067206F6E2063616C6962726174696F6EE1
:100310002076616C75657320666F72206E6F770052
:100320007B4D494E7D204E6F20666163746F7279FC
:10033000206461746120666F756E642021007B4DBE
:10034000494E7D20466163746F72792064617461E7
:10035000207361766564007B4652467D20007B46B3
:100360004C507D204420007B464C507D2043200093
:100370007B464C507D204220007B464C507D2041E6
:1003800020007B464C507D2041203035007B464C80
:10039000507D2041203037007B464C507D2041204D
:1003A0003038007B464C507D2041203039007B4660
:1003B00053527D20007B4653567D20007B46485299
:1003C0007D20007B4648567D20007B46504E7D2098
:1003D000007B4447467D20007B4450447D20007BC9
:1003E000444E4D7D20007B444C367D20007B444CA8
:1003F000347D20007B4443537D20007B4F50577D4C
:1004000020007B4F4C507D20007B4F4C507D2000C6
:100410007B4F4C437D20007B444C367D20007B4449
:100420004C347D20007B4F4C4320477D20007B4F88
:1004300042447D20007B4F534D7D20007B4F545024
:100440007D20007B4D494E7D20436F6E6669677548
:10045000726174696F6E207361766564007B4D49CB
:100460004E7D20526573657474696E6720475053E2
:1004700000840080007C007800740070006C0068CC
:1004800000000000002300260029000000000025D5
:100490000028002B000404040404040404020202E3
:1004A00002020203030303030301020408102040B5
:1004B0008001020408102001020408102000C62355
:1004C000282E11241FBECFEFD8E0DEBFCDBF12E033
:1004D000A0E0B1E0E8EAF0E702C005900D92A03597
:1004E000B107D9F725E0A0E5B2E001C01D92AF3910
:1004F000B207E1F712E0C0E6D2E004C02197FE01A6
:100500000E946532CF35D107C9F70E94A7240C9409
:1005100047380C940000FC018091750581111AC0C8
:1005200011821082138212828091770582608093FB
:1005300077051092760591E06D3209F090E0809198
:10054000770590FB80F9809377056D3209F06EC0D6
:1005500080E008956C3299F580917605811103C091
:1005600081E08093760582819381892B99F05AE00E
:100570008091760591E0980F90937605481750F09A
:1005800022813381529FC001539F900D1124938388
:100590008283EECF90917705892F817090FF44C0C0
:1005A0002281338131952195310933832283208142
:1005B00031813195219531093183208308956E323F
:1005C00021F481E080937605C3CF80917605811177
:1005D00012C0208131814AE0429FC001439F900DAB
:1005E0001124062E000C770B60537109680F791FD8
:1005F00071836083ADCF91E0980F90937605481793
:1006000008F4A6CF228133814AE0429FC001439F74
:10061000900D1124062E000C770B60537109680FA2
:10062000791F7383628394CF81E008956C3209F45B
:1006300097CF6E3271F6C5CF813311F0813421F43A
:1006400083E08093710508C0803321F08E3411F06F
:10065000863541F410927105809172058160809316
:1006600072050895823311F0843411F484E0E9CFE7
:10067000833311F487E0E5CF843311F486E0E1CFD2
:10068000853311F485E0DDCF863311F0853449F7E9
:1006900081E0D7CFE0917505E930F0F4F0E0ED5A54
:1006A000FC4F0C9465325C036E0373037B03800381
:1006B00088038D0395039F03109270058C3261F0BF
:1006C0009091770592609093770580539AE0899F87
:1006D000802D112480936B0581E0089590916B0526
:1006E0009053890FF7CF80539AE0899F802D112472
:1006F00080936A05F1CF90916A059053890FF8CFE6
:1007000080539AE0899F802D112480936905E4CF5E
:10071000909169059053890FF8CF8C32E9F680915A
:100720007205846080937205D7CF8C32C1F38053F9
:100730009AE0899F802D112480937005CDCF8C3253
:1007400071F3909170059053890F80937005E7CFF6
:10075000FC01809177058E7F8093770580917505E8
:10076000811106C06C3269F06053608381E00895A6
:100770006C32E1F3808160539AE0899F600D11240F
:10078000F4CF80E00895EF92FF920F931F93CF93E1
:10079000DF938C017B01D0E0C0E0F701EC0FFD1F7F
:1007A0006491662361F0D801ED91FC910190F08194
:1007B000E02DC8010995892B11F02196EECFCE01CD
:1007C000DF91CF911F910F91FF90EF900895AF921D
:1007D000BF92CF92DF92EF92FF920F931F93CF932E
:1007E000DF936C017B018B01040F151FEB015E0190
:1007F000AE18BF08C017D10759F06991D601ED9125
:10080000FC910190F081E02DC6010995892B79F7C3
:10081000C501DF91CF911F910F91FF90EF90DF9075
:10082000CF90BF90AF900895FC01538D448D252F3C
:1008300030E0842F90E0821B930B541710F0CF967A
:10084000089501970895FC01918D828D981761F0AC
:10085000A28DAE0FBF2FB11D5D968C91928D9F5FC3
:100860009F73928F90E008958FEF9FEF0895FC01A2
:10087000918D828D981731F0828DE80FF11D858D55
:1008800090E008958FEF9FEF0895FC01918D228DE8
:10089000892F90E0805C9F4F821B91098F7399276D
:1008A000089587E094E00E94450421E0892B09F433
:1008B00020E0822F089580E090E0892B29F00E94AB
:1008C000510481110C9400000895FC01A48DA80F1F
:1008D000B92FB11DA35ABF4F2C91848D90E0019682
:1008E0008F739927848FA689B7892C93A089B189A2
:1008F0008C91837080648C93938D848D981306C043
:100900000288F389E02D80818F7D80830895EF92A6
:10091000FF920F931F93CF93DF93EC0181E0888FB9
:100920009B8D8C8D98131AC0E889F989808185FF89
:1009300015C09FB7F894EE89FF896083E889F9892B
:1009400080818370806480839FBF81E090E0DF912D
:10095000CF911F910F91FF90EF900895F62E0B8D80
:1009600010E00F5F1F4F0F731127E02E8C8D8E113B
:100970000CC00FB607FCFACFE889F989808185FFA2
:10098000F5CFCE010E946504F1CFEB8DEC0FFD2F6A
:10099000F11DE35AFF4FF0829FB7F8940B8FEA895D
:1009A000FB8980818062CFCFCF93DF93EC01888D6C
:1009B0008823B9F0AA89BB89E889F9898C9185FDDA
:1009C00003C0808186FD0DC00FB607FCF7CF8C9168
:1009D00085FFF2CF808185FFEDCFCE010E946504B7
:1009E000E9CFDF91CF91089590E0FC01E25DFD4FEA
:1009F0002491FC01E755FB4F3491FC01EB56FB4F72
:100A0000E491EE23C9F0222339F0233001F1A8F458
:100A1000213019F1223029F1F0E0EE0FFF1FE557E8
:100A2000FB4FA591B4918FB7F894EC91611126C05A
:100A300030953E233C938FBF08952730A9F028308E
:100A4000C9F0243049F7809180008F7D03C08091E8
:100A500080008F7780938000DFCF84B58F7784BD4F
:100A6000DBCF84B58F7DFBCF8091B0008F778093F3
:100A7000B000D2CF8091B0008F7DF9CF3E2BDACF7E
:100A8000CF93DF9390E0FC01E755FB4F24918B5609
:100A90009B4FFC0184918823D1F090E0880F991F2F
:100AA000FC01EC5DFD4FA591B491FC01E557FB4FB6
:100AB000C591D49161110EC09FB7F8948C91E22F2B
:100AC000E0958E238C932881E223E8839FBFDF91FA
:100AD000CF9108958FB7F894EC91E22BEC938FBFF0
:100AE000F6CF3FB7F8948091A5029091A602A0910D
:100AF000A702B091A80226B5A89B05C02F3F19F008
:100B00000196A11DB11D3FBFBA2FA92F982F88278D
:100B1000BC01CD01620F711D811D911D43E0660F67
:100B2000771F881F991F4A95D1F708958F929F923A
:100B3000AF92BF92CF92DF92EF92FF924B015C0196
:100B40000E9471056B017C010E9471056C197D0981
:100B50008E099F09683E734081059105A8F321E045
:100B6000821A9108A108B10888EEC80E83E0D81E49
:100B7000E11CF11C81149104A104B10429F7FF9038
:100B8000EF90DF90CF90BF90AF909F908F9008959F
:100B90008F929F92AF92BF92CF92DF92EF92FF928D
:100BA0006B017C01BC01A60182E0769567955795A3
:100BB00047958A95D1F7D701C60124E0B695A79548
:100BC000979587952A95D1F7840F951FA61FB71F74
:100BD0004C015D0134E0B694A794979487943A95BC
:100BE000D1F7880D991DAA1DBB1D892E9A2EAB2EFB
:100BF000BB24880E991EAA1EBB1EC501AA27BB27AF
:100C0000880E991EAA1EBB1EA3E0B0E0A5019401A8
:100C10000E94A530A7019601261B370B480B590BE4
:100C2000ABE0B0E00E94A530E5E09695879577951A
:100C30006795EA95D1F7680D791D8A1D9B1DFF9078
:100C4000EF90DF90CF90BF90AF909F908F900895DE
:100C5000CF92DF92EF92FF921F93CF93DF93EC013D
:100C6000162F8091750581110BC0188219821A8286
:100C70001B821092760580917705826080937705BC
:100C80001E3291F11C3209F064C0809176058823F0
:100C900059F180917605843009F07CC02881398132
:100CA0004A815B81A4E6B0E00E94A5306883798325
:100CB0008A839B83C880D980EA80FB80C701B60104
:100CC000660F771F881F991F6F5F7F4F8F4F9F4F52
:100CD0000E94C805C60ED71EE81EF91EC882D9821A
:100CE000EA82FB8281E02AC081E080937605298137
:100CF000822F82958F702F703AE0839F200D1124F0
:100D00008A8181112C598881982F92959F708F70BC
:100D10003AE0939F800D11249CE3299F90011124B8
:100D2000820F932F911D092E000CAA0BBB0B8883F9
:100D30009983AA83BB831E3249F480E0DF91CF916F
:100D40001F91FF90EF90DF90CF9008951C3209F42F
:100D5000A0CF80917605811143C088819981AA81B5
:100D6000BB8134E0880F991FAA1FBB1F3A95D1F7AA
:100D7000412F110F550B40535109052E000C660BE6
:100D8000770B842B952BA62BB72B88839983AA836B
:100D9000BB83D3CF853039F4288139814A815B8187
:100DA000AAE0B0E081CF863009F484CF08F09ACF72
:100DB000288139814A815B81A8EEB3E0833009F450
:100DC00073CF823019F4A0E1B7E26ECF813009F021
:100DD00071CF60EA76E881E090E00E94543066CFFF
:100DE0008F5F809376058730C0F4288139814A81EE
:100DF0005B81AAE0B0E00E94A530212F110F330BD8
:100E0000205331096901330FEE08FF08DC01CB01E3
:100E10008C0D9D1DAE1DBF1DB8CF873009F08DCF45
:100E2000C880D980EA80FB80C701B601660F771FB2
:100E3000881F991F6F5F7F4F8F4F9F4F0E94C8057C
:100E40006C0D7D1D8E1D9F1D19334CF06E5F7F4F05
:100E50008F4F9F4F688379838A839B836ECF143330
:100E6000CCF36F5F7F4F8F4F9F4FF4CF1F93CF9384
:100E7000DF931F92CDB7DEB7682F1091E2041530D3
:100E800009F484C0163009F403C1113009F025C1FA
:100E9000E0917405E150E93008F01FC1F0E0ED5A2F
:100EA000F84F0C9465325C075B0869078C076F0884
:100EB0009E07A6076D08B307862F0E944A030F906E
:100EC000DF91CF911F91089584E595E00E94280657
:100ED00004C18091770582FF00C180917505811161
:100EE000FCC0633509F0F9C0809154059091550517
:100EF000A0915605B0915705B095A0959095819514
:100F00009F4FAF4FBF4F8093540590935505A093CB
:100F10005605B0935705E1C06C3249F480917505D0
:100F2000811105C0809177058B7F80937705809133
:100F3000770582FFD2C088E595E0C8CF809175051E
:100F40008111CBC0862F0E941C03C7C088E695E0A4
:100F50000E94A803909172059068882309F4BDC08F
:100F600090937205ACCF42E08CE595E00E948B0235
:100F7000882309F4B2C021E090917505911101C058
:100F800020E09091720520FB94F9EACF80915305FF
:100F9000843108F0A2C020917405243008F49DC06B
:100FA000482F50E02370223079F02330E9F1819FFF
:100FB000C0011124213029F081519B4F0E94A803C8
:100FC0008CC080519B4FFACF149FF001159FF00DFC
:100FD00011246C3201F1809177058E7F8093770523
:100FE00040917505862F90E0EE51FB4F411104C0F2
:100FF000C097908B878771C0278530894AE0429FD0
:10100000B001439F700D112460537109680F791F5F
:10101000708B678762C0ED50FB4F90819F77908304
:101020008F5F8093530559C041505109149FF001BF
:10103000159FF00D1124ED50FB4F6C32F1F08081C3
:101040008F778983CE0101960E94A8038091530572
:101050008150990B189FF001199FF00D1124ED504C
:10106000FB4F99819F7780818078892B8083809145
:10107000770582608093770530C091E08091750597
:10108000811101C090E0808190FB87F9808325C0A9
:10109000E0917405E150E93000F5F0E0EE5AF74FC9
:1010A0000C9465325C079E075B0869078C076F0824
:1010B0009908AB08BE088091750581110AC091E0BE
:1010C0006C3209F490E08091770590FB82F980936F
:1010D00077058091770582FDF7CE81E0F0CE909183
:1010E000770592FB882780F992FFF7CF90917505DD
:1010F0009111F3CF909172059860909372056735C6
:1011000061F7409158055091590560915A057091C9
:101110005B0570956095509541955F4F6F4F7F4F80
:10112000409358055093590560935A0570935B0599
:10113000C6CE43E080E695E00E948B02882369F2E8
:1011400021E090917505911101C020E09091720508
:1011500020FB95F905CF42E084E695E00E948B02E2
:10116000882309F4BACF21E090917505911101C04F
:1011700020E09091720520FB96F9F2CE80917505E2
:10118000823041F150F48823D1F0813009F0A5CFAD
:1011900080916D058053680F1AC0843041F110F1C1
:1011A000853009F09ACF80916F058053680F609366
:1011B0006F05809172058260809372058ECF6C32CC
:1011C00009F48BCF60538AE0689F602D11246093EF
:1011D0006D0583CF60538AE0689F602D1124609372
:1011E0006E057BCF80916E058053680FF8CF6053FA
:1011F0008AE0689F602D112460936F056ECF209167
:10120000AB023091AC022817390771F49091A90212
:101210008091AA02981741F0E091A902F0E0E05A0B
:10122000FD4F808190E008958FEF9FEF089508951E
:10123000EF92FF920F931F93CF93DF93DC015C96A5
:10124000ED90FC905D97E114F10479F481E090E079
:1012500013969C938E93129790E080E0DF91CF914C
:101260001F910F91FF90EF9008955196ED91FC9191
:10127000529750968C915097982F90950FB75E96F5
:101280002C915E97122F127021FD6095F8942081A9
:10129000112319F1282B2083E7012197F1F728E08A
:1012A000462F50E0308160FF1AC0382B3083E701B1
:1012B0002197F1F7BA0175956795215089F71123A8
:1012C00081F08081892380830FBF5C968D919C91F2
:1012D0000197F1F781E090E0C1CF2923DCCF3923DA
:1012E000E5CF9081892BEFCF2091AB023091AC02FA
:1012F0002817390771F48091AA022091A90290E081
:10130000805C9F4F821B910960E470E00E94513223
:10131000089590E080E008952091AB023091AC02F6
:1013200028173907B9F49091A9028091AA02981759
:1013300089F0E091A902F0E0E05AFD4F8081209110
:10134000A90230E02F5F3F4F2F7333272093A9026C
:1013500090E008958FEF9FEF08959F92AF92BF9214
:10136000CF92DF92EF92FF920F931F93CF93DF9371
:1013700011E0D1E003E092E0F92E84EA94E00E94CB
:101380007409892B09F4CEC184EA94E00E948C0987
:10139000C82F8091EB049091EC04A091ED04B091E2
:1013A000EE040196A11DB11D8093EB049093EC0413
:1013B000A093ED04B093EE04C432B9F480917705A4
:1013C00084FF05C08F7E809377051092530510929D
:1013D00073051092E204D093780510927505809100
:1013E00077058D7F80937705C8CF8091780582300F
:1013F00079F5CA3229F40093780510927505BDCFAE
:1014000080EE8C0F8F3550F4809173058C2780937C
:1014100073058C2F0E943607811107C01092720548
:101420001092E20410927805A8CFCC3259F4809142
:1014300077058D7F80937705809174058F5F80930A
:101440007405DBCF809175058F5F8093750595CF0F
:10145000813009F061C0909173059C2790937305CA
:10146000CC3269F49091E2049923D1F21092720582
:101470008093740510927505F09278057ECFE09008
:10148000750581E08E1508F05EC18EEFB82EBE0C9A
:101490008091E204882309F43DC08150E82FF0E0F8
:1014A000EE0FFF1FEF58FB4F2591349150E040E0C5
:1014B000CB2CD12C61E0680F70E0F901EC0DFD1D23
:1014C000E491CE1709F43CC1CE170CF4A9CFAA249D
:1014D000A394A80E873009F4A3CFFB01E40FF51FF6
:1014E000EE0FFF1FEF58FB4FA591B49190E080E005
:1014F0008B1558F4F901E80FF91F9490FD01E80FDE
:10150000F91FE49101969E1699F34F5F5F4F8A2D64
:101510009D01D3CF80E0C2CF833009F0F3C0C06219
:101520008FE98C0F863038F5C755909175058091FD
:101530007305911122C0D093750590E024E0959534
:1015400087952A95E1F7C817190609F416CF8091F7
:10155000E7049091E804A091E904B091EA040196AF
:10156000A11DB11D8093E7049093E804A093E904C2
:10157000B093EA0453CFC053D8CF8F7021E08C13BF
:1015800001C020E08C13E3C08091770581FF09C082
:101590008D7F809377059F5F909375058CE20E9405
:1015A00036078091E3049091E404A091E504B091A2
:1015B000E6040196A11DB11D8093E3049093E40419
:1015C000A093E504B093E6049091E20421E0963004
:1015D00009F020E08091770520FB84F9809377055E
:1015E0001092780520919805211191C08091720583
:1015F00080FF0CC0209171053091970530FF04C029
:1016000030919605321710F42093960581FF0CC097
:1016100020916D052093920520916E0520939305EE
:1016200020916F052093940582FF10C020916B05D7
:101630002093900520916A0520938F0520916905DC
:1016400020938E05209170052093950583FF09C096
:1016500088E0E4E5F5E0A9E7B5E001900D928A9510
:10166000E1F78091720584FF10C040915C055091B4
:101670005D0560915E0570915F0540938105509313
:101680008205609383057093840586FF10C04091A6
:1016900064055091650560916605709167054093FA
:1016A000890550938A0560938B0570938C0585FF9F
:1016B00010C0409160055091610560916205709184
:1016C0006305409385055093860560938705709365
:1016D000880587FF04C08091680580938D058091FF
:1016E000720520919705822B80939705963009F01B
:1016F00044CE10929A058091980581113ECE1093A8
:1017000098053BCE811139CE1092E20436CE886026
:101710008093770510929905809198058150809368
:10172000980564CF80919805DF91CF911F910F911B
:10173000FF90EF90DF90CF90BF90AF909F90089573
:101740008F5F8093E204E394E092750516CE211139
:10175000FECE13CE90E080E00895282F082E000CD6
:10176000330B205331092A30310510F4805308958A
:10177000803231F09FEB980F9A3120F4875308950F
:1017800084E208958FEF0895CF93DF93CDB7DEB74E
:1017900063970FB6F894DEBF0FBECDBF982F83E1DD
:1017A000EAE0F1E0DE01119601900D928A95E1F7F1
:1017B000892F9D3308F08CE3FE013196AE014C5E1B
:1017C0005F4F2191921708F0822FE417F507C9F7B0
:1017D00063960FB6F894DEBF0FBECDBFDF91CF91F9
:1017E00008958093BB0084E88093BC008091BC0086
:1017F00087FFFCCF8091B900887F089584E98093AA
:10180000BC008091BC0084FDFCCF089584EA8093E5
:10181000BC008091BC0087FFFCCF8091B900887F1D
:101820000895CF93DF93D82FC62F0E94060C8830DF
:10183000B9F48091AD02880F0E94F10B883191F4C8
:101840008D2F0E94F10B883279F48C2F0E94F10BBE
:10185000883261F40E94FE0B80E0DF91CF91089501
:1018600081E0FBCF82E0F9CF83E0F7CF84E0F5CFD2
:101870004F925F926F927F928F929F92AF92BF92A0
:10188000CF92DF92EF92FF92CF93DF93CDB7DEB787
:101890002C970FB6F894DEBF0FBECDBF4B015C0195
:1018A000CA01B90120E030E044E353E40E94FF3074
:1018B0002B013C0120E030E040EA51E40E946B3112
:1018C0000E94DD316B01072E000C880B990B0E94E2
:1018D000212F20E030E040EA51E40E94802F9B015C
:1018E000AC01C301B2010E94FE302B013C0120E09B
:1018F00030E040E05FE30E94802F0E94DD31698389
:101900007A838B839C8320E030E044EB52E4C50172
:10191000B4010E94FF304B015C0120E030E040E266
:1019200051E40E946B310E94DD316D837E838F8391
:1019300098872D813E81B901330F880B990B0E9446
:10194000212F20E030E040E251E40E94802F9B01F3
:10195000AC01C501B4010E94FE304B015C010E9444
:10196000DD3169877A878B879C8731E4C30EC0920B
:10197000CF038D818F5B8093D0032981205D2093DD
:10198000D1039985905D9093D2031092D303C092B6
:10199000D4038093D5032093D6039093D703298152
:1019A0003A81B901330F880B990B0E94212F9B01BB
:1019B000AC010E94FF309B01AC01C301B2010E9447
:1019C000FE3020E030E040E451E40E94802F0E948D
:1019D000DD316F5B6093D80329853A85B901330FF8
:1019E000880B990B0E94212F9B01AC01C501B4010A
:1019F0000E94FE3020E030E040EC51E40E94802F55
:101A00000E94DD316F5B6093D9031092DA032C964C
:101A10000FB6F894DEBF0FBECDBFDF91CF91FF9020
:101A2000EF90DF90CF90BF90AF909F908F907F907E
:101A30006F905F904F9008955F926F927F928F9218
:101A40009F92AF92BF92CF92DF92EF92FF920F934D
:101A50001F93CF93DF934C01DC0114966D907C9023
:101A6000D0E0C0E020E030E040E050E060E070E036
:101A700080E090E0C615D70571F1D401ED91FC919D
:101A8000512C309719F0EC0FFD1F5080E0EDE50D63
:101A9000EA3008F5EAE0AE2EB12CC12CD12CE12CB5
:101AA000F12C00E010E00E946B3259016A017B01C9
:101AB0008C01852D550C990BC097E92FEE0FEE0B7D
:101AC0009C014E2F5E2F6E2F7E2F8E2F9E2F0E94F9
:101AD00075332196CFCFDF91CF911F910F91FF905A
:101AE000EF90DF90CF90BF90AF909F908F907F90BE
:101AF0006F905F900895FC01148215821682178200
:101B00001082118212821382118610861386128629
:101B10001586148617861686118A108A138A128AE9
:101B2000148A168A178A158A81E0818F828F138E14
:101B300087E0808F148E158E168E0895CF93DF93D5
:101B4000EC010E947B0D809198058823B9F08150AB
:101B500080939805809199052FE1289FC001112459
:101B6000FC01E758FA4FDE0101900D922A95E1F74A
:101B700087589A4F0E947B0D10929905CE01DF91F4
:101B8000CF9108952F923F924F925F926F927F92E2
:101B90008F929F92AF92BF92CF92DF92EF92FF927D
:101BA0000F931F93CF93DF93CDB7DEB7CF55D140BF
:101BB0000FB6F894DEBF0FBECDBFD82EB62E65ECA3
:101BC00073E0CE01805B9E4F0E9490356FEC73E016
:101BD000CE01895A9E4F0E949035CF5ADE4F188110
:101BE000C155D140812F012E000C990BC0970A9747
:101BF000D8F5CE5ADE4F0881C255D140802F002E35
:101C0000000C990B0E947435892B71F1C05BDE4F7B
:101C10008881C055D140CC5ADE4F9881C455D140FF
:101C2000CB5ADE4F9883C555D140CD5ADE4F9881AF
:101C3000C355D140CC5ADE4F9883C455D140CD5ABC
:101C4000DE4F0883C355D140CE5ADE4F1883C255AC
:101C5000D140CF5ADE4F8883C155D14080E2C05B6E
:101C6000DE4F8883C055D1409E01205B3E4F7901F5
:101C700010E000E2D7018C91082E000C990B0E9415
:101C80007F35F70181937F01082E000C990B9C0191
:101C9000205331092A30310570F00E947435892BA8
:101CA00051F4F70131970083143029F4CB5ADE4FF9
:101CB0000883C555D1401F5F1630E1F686E0FE016E
:101CC000E05BFE4FA0E0B4E001900D928A95E1F751
:101CD0008E01095A1E4F7801F4E0EF0EF11CD80175
:101CE0008D918D01082E000C990B0E947F35F80113
:101CF00031978083282F082E000C330B2053310995
:101D00002A30310568F08154823150F085E0E3E2F9
:101D1000F2E0DE01A95ABE4F01900D928A95E1F7DB
:101D2000E016F106E1F684E0FE01E95AFE4FABEF62
:101D3000B3E001900D928A95E1F78D2D0E94C40BBE
:101D40008093FA03C82ED12CF12CE12CB2E0BB1603
:101D500009F401C2E3E0BE1609F46BC280910004ED
:101D60000E94AD0B282F30E0A4E2B0E00E94EF30DB
:101D70004B015C01809101040E94AD0BA50194010F
:101D8000280F311D411D511DAAE0B0E00E94A53071
:101D90004B015C01809102040E94AD0BA5019401EE
:101DA000280F311D411D511DABE1B0E00E94A5304F
:101DB0004B015C01809103040E94AD0B482F4A50F7
:101DC000550B9A01032E000C440B550B280D391DA1
:101DD0004A1D5B1DABE1B0E00E94A5304B015C01E8
:101DE000809104040E94AD0BA82FAA50BB0B9D014B
:101DF000032E000C440B550B280D391D4A1D5B1D8D
:101E0000ABE1B0E00E94A5304B015C01809105047C
:101E10000E94AD0B8A50990B092E000CAA0BBB0B2C
:101E2000880D991DAA1DBB1D4091FB03042E000CBB
:101E3000550B4154510966EF64039001659F300DC5
:101E400011244091FD03241B310947FD33952D5189
:101E50003F4F44EB429F4001439F900C112420913F
:101E6000FC03022E000C330B215431096AE0629FFF
:101E7000A001639F500D1124840E951E2091FE0336
:101E8000022E000C330B20533109820E931E092CB5
:101E9000000CAA08BB0807E0880C991CAA1CBB1CF4
:101EA0000A95D1F7E0E48E0E911CA11CB11CC80C60
:101EB000D91CEA1CFB1CAC01BD0114E076956795AA
:101EC000579547951A95D1F7C95BDE4F4883C7549C
:101ED000D140AC01BD010CE07695679557954795CB
:101EE0000A95D1F7CA5BDE4F4883C654D140AC0196
:101EF000BD0194E176956795579547959A95D1F7E9
:101F0000CB5BDE4F4883C554D1402C2D2295220F48
:101F1000220F207CC55BDE4F2883CB54D140B70114
:101F2000A60122E076956795579547952A95D1F7B2
:101F3000C65BDE4F4883CA54D140B701A6013AE0E0
:101F400076956795579547953A95D1F7C75BDE4FDC
:101F50004883C954D14042E1F694E794D794C7949A
:101F60004A95D1F74C2D4F70C42E8295807FC82A98
:101F7000C85BDE4FC882C854D140C45BDE4F1882B4
:101F8000CC54D140C35BDE4F1882CD54D140C25BEC
:101F9000DE4F1882CE54D140C15BDE4F1882CF5441
:101FA000D140FE01EB5BFE4F7F015BE0E50EF11CD3
:101FB00020E040E050E0BA01CE018D559F4F0191E5
:101FC00010E0312C212C4A015B01880C991CAA1CC1
:101FD000BB1CB801022C02C0660F771F0A94E2F7FF
:101FE000660F672F661F770B61702401462AB501C3
:101FF000A2014A0131E5832233E5932230EDA32289
:1020000032EFB322A0E2DA2E712CA82DA1707A262D
:10201000B694A79497948794DA94D110F6CF6C0174
:10202000C20ED11CD6017C92CC24C394C20E4A01AC
:102030005B01B7E48B22BCE39B22B1E6AB22B4EE9A
:10204000BB22B0E2DB2E30E0A82DA1703A27B69477
:10205000A79497948794DA94D110F6CFC80ED92E0E
:10206000D11CD6013C932E5F223A40F4BFEF2B1ACD
:102070003B0A38E02316310409F0A5CFEE16FF061F
:1020800009F09DCF30E020E001E010E0622F47E052
:1020900050E0E0E0A62FB0E060FF07C0B801042EDA
:1020A00001C0660F0A94EAF7E62BBD0175956795A6
:1020B0004150510978F7E23A68F4A1E0B0E0AC0F82
:1020C000BD1FAE0FB11DFD01DC01A30FB11D4C9171
:1020D00040833F5F323A18F42F5F2F3FB9F622EA70
:1020E000FE013196DC0101900D922A95E1F722EA7A
:1020F000EDE1F1E0DE01119601900D922A95E1F7F4
:10210000FE013196AC0169EF72E03191DA012D9157
:10211000AD01220F230FDB012D93BD018E179F0709
:10212000A1F7C15ADE4F0FB6F894DEBF0FBECDBF88
:10213000DF91CF911F910F91FF90EF90DF90CF90A3
:10214000BF90AF909F908F907F906F905F904F90D7
:102150003F902F900895809100040E94AD0B282F8E
:1021600030E0A4E2B0E00E94EF304B015C018091CE
:1021700001040E94AD0BA5019401280F311D411DE2
:10218000511DAAE0B0E00E94A5304B015C01809196
:1021900002040E94AD0BA5019401280F311D411DC1
:1021A000511DABE1B0E00E94A5304B015C01809174
:1021B00003040E94AD0B482F4A50550B9A01032E81
:1021C000000C440B550B280D391D4A1D5B1DABE15E
:1021D000B0E00E94A5304B015C01809104040E9494
:1021E000AD0BA82FAA50BB0B9D01032E000C440B76
:1021F000550B280D391D4A1D5B1DABE1B0E00E9457
:10220000A5304B015C01809105040E94AD0B8A5002
:10221000990B092E000CAA0BBB0B880D991DAA1D4A
:10222000BB1DE2E4CE0EEDE3DE1EE5E3EE1EF11C87
:1022300042CE8091D5030E94AD0B282F30E0A4E25E
:10224000B0E00E94EF304B015C018091D6030E9408
:10225000AD0BA5019401280F311D411D511DAAE0B0
:10226000B0E00E94A5304B015C018091D7030E9431
:10227000AD0BA5019401280F311D411D511DABE18E
:10228000B0E00E94A5304B015C018091D8030E9410
:10229000AD0B482F4A50550B9A01032E000C440BEE
:1022A000550B280D391D4A1D5B1DABE1B0E00E94A6
:1022B000A5304B015C018091D9030E94AD0BA82F82
:1022C000AA50BB0B9D01032E000C440B550B280D8F
:1022D000391D4A1D5B1DABE1B0E00E94A5304B01EA
:1022E0005C018091D4030E94AD0B8A50990B092E9A
:1022F000000CAA0BBB0B880D991DAA1DBB1DE5EC9C
:10230000F3E001900020E9F7E65CF3404F01B12CC7
:10231000A12C2FE7821A20E4920A22E5A20A21E2E8
:10232000B20A3397E830F10508F090C1EE55FE4E41
:102330000091C5031091C6032091C7033091C803D3
:102340000C9465321E131F1313130813FE12ED12A3
:10235000D612AA114090CD035090CE036090CF03C7
:102360007090D003662477244091C9035091CA032A
:102370006091CB037091CC03480D591D6A1D7B1DE4
:10238000080D191D2A1D3B1D840C951CA61CB71C8D
:102390002A013B01482459246A247B24C45ADE4F75
:1023A000488259826A827B82CC55D1404A015B01C6
:1023B000EEE0880C991CAA1CBB1CEA95D1F72A01F7
:1023C0003B01F2E17694679457944794FA95D1F7DC
:1023D00084289528A628B728C45ADE4F48805980FB
:1023E0006A807B80CC55D140481859086A087B0820
:1023F000530142014026512662267326C45ADE4FFD
:10240000488259826A827B82CC55D14095018401F1
:10241000EBE0000F111F221F331FEA95D1F72401B3
:102420003501F5E17694679457944794FA95D1F77E
:102430000429152926293729C45ADE4F4880598096
:102440006A807B80CC55D140401A510A620A730AD7
:10245000930182012A013B01402651266226732600
:10246000C45ADE4F488259826A827B82CC55D14061
:10247000B901A801E7E07695679557954795EA95E4
:10248000D1F728013901F9E1440C551C661C771C71
:10249000FA95D1F74429552966297729C45ADE4F80
:1024A000488059806A807B80CC55D140441A550AB7
:1024B000660A770AB301A20184249526A624B726CA
:1024C00032012B0184189508A608B70828013901A4
:1024D000482459246A247B24C45ADE4F48825982F6
:1024E0006A827B82CC55D14095018401E4E0000FE3
:1024F000111F221F331FEA95D1F724013501FCE19A
:102500007694679457944794FA95D1F7042915293E
:1025100026293729C45ADE4F488059806A807B803B
:10252000CC55D140401A510A620A730A93018201C4
:102530004425512766257327EEE0440C551C661C84
:10254000771CEA95D1F7F2E136952795179507950F
:10255000FA95D1F70429152926293729401B510B53
:10256000620B730B84269526A626B726562E672F58
:10257000742F452F552D841A950AA60AB70AAA2446
:10258000BB2417E0880C991CAA1CBB1C1A95D1F718
:10259000A50194012C193D094E095F0969017A01D1
:1025A0003FE3C30ED11CE11CF11C85CCE091CD03AF
:1025B0004091C9035091CA036091CB037091CC0341
:1025C000480D591D6A1D7B1D080D191D2A1D3B1D37
:1025D0008E0E911CA11CB11CDBCE4091C903509101
:1025E000CA036091CB037091CC03480D591D6A1D3D
:1025F0007B1D080D191D2A1D3B1DCACE4091C90324
:102600005091CA036091CB037091CC037727EDCF33
:102610004091C9035091CA036091CB037091CC03E0
:1026200066277727E2CF4091C90324013501440E84
:10263000511C611C711CB301A201DBCF3327080DB3
:10264000191D2A1D3B1DB501A401A2CEB501A4018F
:10265000950184019DCEFB0101900020E9F731979F
:10266000AF01461B570BDC01ED91FC910280F38119
:10267000E02D09948F929F92AF92BF920F931F9378
:10268000CF93DF93CDB7DEB7A1970FB6F894DEBF37
:102690000FBECDBF19A2423008F44AE08E010F5D93
:1026A0001F4F842E912CB12CA12CA50194010E94C6
:1026B0006430E62FB901CA01EA3004F5E05DD801C3
:1026C000EE938D01232B242B252B79F790E080E0CE
:1026D000109729F0BD0187E094E00E942B13A1968A
:1026E0000FB6F894DEBF0FBECDBFDF91CF911F9123
:1026F0000F91BF90AF909F908F900895E95CDFCFCE
:10270000CF92DF92EF92FF92CF93DF9397FF1BC0A0
:102710006B017C016DE287E094E00E948704EC018C
:1027200066277727CB016C197D098E099F094AE03E
:102730000E943A138C0F9D1FDF91CF91FF90EF9075
:10274000DF90CF9008954AE0DF91CF91FF90EF9016
:10275000DF90CF900C943A1368E272E00C942B1344
:10276000CF93DF93BC0187E094E00E942B13EC0130
:1027700087E094E00E94AC138C0F9D1FDF91CF91F6
:102780000895CF93DF93FC0144815581608171816D
:1027900087E094E00E94E703EC0187E094E00E9468
:1027A000AC138C0F9D1FDF91CF910895CF93DF93D2
:1027B000682F70E090E080E04AE00E943A13EC015C
:1027C00087E094E00E94AC138C0F9D1FDF91CF91A6
:1027D00008950F931F93CF93DF93EC010E94C303DF
:1027E0008C01CE010E94AC13800F911FDF91CF911D
:1027F0001F910F9108954F925F926F927F928F92E7
:102800009F92AF92BF92CF92DF92EF92FF920F937F
:102810001F93CF93DF93CDB7DEB7A3970FB6F8948E
:10282000DEBF0FBECDBF6B017C012FB7F894809146
:10283000A1029091A202A091A302B091A4022FBF85
:10284000A7019B01280F391F4A1F5B1F28A339A32B
:102850004AA35BA310E000E088EE482E83E0582EE8
:10286000612C712C0E94AD09882371F0CE01019674
:102870000E949E0D8FE1FE013196A3ECB4E0019021
:102880000D928A95E1F7EECF2FB7F8948091A102CF
:102890009091A202A091A302B091A4022FBF88A0A0
:1028A00099A0AAA0BBA0881A990AAA0ABB0A31EA71
:1028B00083163FE09306A104B104A4F16CE971E032
:1028C00087E094E00E94C303C501B401A301920113
:1028D0000E948630CA01B9010E94801387E094E00B
:1028E0000E94AC1368EE73E080E090E00E949605D1
:1028F00041E1C41647E2D406E104F10458F00F5F49
:102900001F4F0530110534F081E090E00E94D11492
:1029100010E000E087E094E00E944504892B09F470
:10292000A1CF05C0181419041A041B049CF351EA22
:10293000C5165FE0D506E104F104E0F064E971E05A
:1029400087E094E0A3960FB6F894DEBF0FBECDBF2C
:10295000DF91CF911F910F91FF90EF90DF90CF907B
:10296000BF90AF909F908F907F906F905F904F90AF
:102970000C94E913A3960FB6F894DEBF0FBECDBF3B
:10298000DF91CF911F910F91FF90EF90DF90CF904B
:10299000BF90AF909F908F907F906F905F904F907F
:1029A00008950F931F93CF93DF938C01D0E0C0E085
:1029B00061E08091AF020E94F40462E370E080E085
:1029C00090E00E94FB1360E08091AF020E94F4044B
:1029D00062E370E080E090E00E94FB1321960C1708
:1029E0001D0731F7DF91CF911F910F91089566E296
:1029F00072E087E094E00C942B13CF92DF92FF9269
:102A00000F931F93CF93DF93F12CD5E08091530563
:102A1000F81608F084C06DE172E087E094E00E944F
:102A2000C3030F2D10E0D09FF001D19FF00D1124B2
:102A3000EE51FB4F85858A3010F40E94F714D09F29
:102A4000C001D19F900D11249C012E513B4F690173
:102A5000F901658570E090E080E04AE00E943A1359
:102A600062E472E087E094E00E942B13F601878510
:102A700090898436910510F40E94F714D09FF001DC
:102A8000D19FF00D1124EE51FB4F878590890A9755
:102A900010F40E94F714D09FC001D19F900D112413
:102AA0009C012E513B4F6901F9016785708990E0C7
:102AB00080E04AE00E943A1362E472E087E094E02A
:102AC0000E942B13F60186858A3010F40E94F714B9
:102AD000D09F6001D19FD00C1124F601EE51FB4F25
:102AE000668570E090E080E04AE00E943A1362E47C
:102AF00072E087E094E00E942B13F601ED50FB4F4B
:102B0000C081C7FF0AC0CF77CA3010F40E94F71403
:102B10008C2F0E94D613F39479CFC0E0F7CF87E0D3
:102B200094E0DF91CF911F910F91FF90DF90CF90B4
:102B30000C94AC130F931F93CF93DF93EC01888118
:102B40009981009759F02A813B812617370730F089
:102B500081E0DF91CF911F910F9108958B016F5FFD
:102B60007F4F0E94B734009759F0998388831B8365
:102B70000A832C813D81232B59F7FC011082E8CF79
:102B800080E0E7CFCF93DF93EC01888199810097B4
:102B900011F00E942E34198218821D821C821B8221
:102BA0001A82DF91CF910895EF92FF920F931F93B6
:102BB000CF93DF93EC017B018A01BA010E949A1541
:102BC00081110BC0CE010E94C215CE01DF91CF91C1
:102BD0001F910F91FF90EF9008951D830C83B70113
:102BE000888199810E949035F0CFCF93DF93EC01DB
:102BF000FB018617970749F06081718161157105A6
:102C000041F0448155810E94D415CE01DF91CF91CE
:102C100008950E94C215F9CFFC011182108213821F
:102C2000128215821482FB0101900020E9F731978E
:102C3000AF01461B570B0C94D415FC018081918188
:102C4000009711F00C942E3408954F925F926F927A
:102C50007F928F929F92AF92BF92EF92FF920F93CB
:102C60001F93CF93DF93CDB7DEB7C054D1090FB612
:102C7000F894DEBF0FBECDBF90E4EFEBF1E0DE01D4
:102C8000119601900D929A95E1F781116CC08FE534
:102C900090E030E020E0032F122F44244A94542C7B
:102CA00032017801E80EF91E0E151F050CF060C008
:102CB000C8010E943E3092012827D301C9018F70BC
:102CC0009927AA27BB27880F991F880F991F41E0D2
:102CD00050E04C0F5D1F840F951FFC018080918098
:102CE000A280B38034E076946794579447943A95E1
:102CF000D1F784249524A624B724C8010E943E302D
:102D000090E044E0959587954A95E1F7092E000CEF
:102D1000AA0BBB0B88259925AA25BB258F7099275F
:102D2000AA27BB27880F991F880F991F21E030E041
:102D30002C0F3D1F820F931FFC0140805180628049
:102D4000738064E0B694A794979487946A95D1F7BA
:102D5000482459246A247B244094509460947094AD
:102D60000F5F1F4FA1CF8AE090E030E921E093CFC1
:102D7000C301B201C05CDF4F0FB6F894DEBF0FBED7
:102D8000CDBFDF91CF911F910F91FF90EF90BF903A
:102D9000AF909F908F907F906F905F904F9008952D
:102DA0008F929F92AF92BF92CF92DF92EF92FF925B
:102DB0000F931F93CF93DF9300D000D0CDB7DEB732
:102DC000882309F44DC091EBE92E92E0F92E00E939
:102DD00011E0C8010E943E30F70181937F010F5F2F
:102DE0001F4F0A39F1E01F07A1F781E00E94251665
:102DF0004B015C010AE010E080E991E0080F191F27
:102E00006E01F5E0CF0ED11CCE0101967C01081BAE
:102E1000190BC8018E0D9F1D0E943E30F701819352
:102E20007F01CE16DF06A9F781E049815A816B81C7
:102E30007C81481559056A057B0509F080E00F90F3
:102E40000F900F900F90DF91CF911F910F91FF90F6
:102E5000EF90DF90CF90BF90AF909F908F900895AC
:102E60008BE9E82E83E0F82E10E000E0C8010E9414
:102E70003E30F70181937F010F5F1F4F0F35110522
:102E8000A9F780E00E9425164B015C010FE510E0D8
:102E900090E080E0B3CF2F923F924F925F926F927B
:102EA0007F928F929F92AF92BF92CF92DF92EF92DA
:102EB000FF920F931F93CF93DF93CDB7DEB7A09709
:102EC0000FB6F894DEBF0FBECDBF4C01180129012B
:102ED0004C8F5D8F6E8F7F8FE8A26AE272E00E9456
:102EE0000C1690E4A92E22E4B22E3FE0C32ED12C82
:102EF000E12CF12C00E010E09101A2016C8D7D8DA0
:102F00008E8D9F8D0E94FF329F938F937F936F933F
:102F10005F934F933F932F938BE292E09F938F9316
:102F20003E01BEE06B0E711C7F926F920E94A6352F
:102F30009101A2016C8D7D8D8E8D9F8D0E94FD3241
:102F40009F938F937F936F935F934F933F932F93B1
:102F5000EBE2F2E0FF93EF932E0185E1480E511C66
:102F60005F924F920E94A635F30101900020E9F78D
:102F70003197AF0146195709B301C4010E94D41516
:102F80001A8219821C821B821E821D82B4018E014C
:102F90000F5F1F4FC8010E94F515F201019000203C
:102FA000E9F73197E419F5090FB6F894DEBF0FBEC3
:102FB000CDBFB1F06D807E806E0E7F1EB301C80163
:102FC0000E949A15882309F45CC029813A818D8179
:102FD0009E81B201820F931F0E9490357E826D8286
:102FE000B801C4010E94F515C8010E941D16B8A1C0
:102FF000B1112DC0F401648075806114710409F071
:1030000044C01982F801CE010D9620E2319130338F
:1030100031F4DF0111972C938E179F07B9F7F80150
:1030200001900020E9F73197AF01401B510BB80127
:10303000C4010E94D415F401208031802114310490
:1030400031F06480758021016114710491F5C4012F
:10305000A0960FB6F894DEBF0FBECDBFDF91CF9123
:103060001F910F91FF90EF90DF90CF90BF90AF90A6
:103070009F908F907F906F905F904F903F902F9098
:103080000895C8010E94C215ABCFFCE06F16710411
:1030900018F08CE0682E712CD4016D917C91A30105
:1030A000C8010E949735F801E60DF71D1082AACFDE
:1030B000280182010F5F1F4FD2018C91082E000C56
:1030C000990B0E94062F892B99F7B1E06B1A7108B2
:1030D000620C731CF3018081082E000C990B0E9476
:1030E000062F892B39F06414750420F0F1E06F1A73
:1030F0007108F0CFA3014F5F5F4F44195509D40108
:1031000015965C934E9314972414350420F4B20161
:10311000C1010E948735D401ED91FC91119714965D
:103120008D919C91E80FF91F108291CFEF920F9330
:103130001F93CF93DF9300D000D000D0CDB7DEB780
:1031400082508A3080F4E82FF0E0E755F74E0C9477
:103150006532E718FC185E196119641988198B1912
:10316000BE1991198E1966E172E087E094E00E9421
:10317000C3038091F7029091F8028130910501F12B
:10318000C0F0029751F481E392E00E94B0136EE028
:1031900072E087E094E00E94E91326960FB6F89457
:1031A000DEBF0FBECDBFDF91CF911F910F91EF908A
:1031B000089583E392E00E94B01366E072E0E9CFE5
:1031C00085E392E00E94B0136EEF71E0E2CF67EF0B
:1031D00071E087E094E00E94C3038FEC93E00E94CB
:1031E000B01360EF71E087E094E00E94C30384EDC8
:1031F00093E00E94B013D1CF8091DA0490E09093D5
:10320000BE028093BD028091D90490E09093BC02ED
:103210008093BB028091D80490E09093F402809355
:10322000F30269EE71E087E094E00E94C3038091AD
:10323000BD029091BE020A9714F40E94F7146091A7
:10324000BD027091BE02072E000C880B990B0E94E4
:10325000801367EE71E087E094E00E94C3038091E1
:10326000BB029091BC020A9714F40E94F71460917B
:10327000BB027091BC02072E000C880B990B0E94B8
:10328000801365EE71E087E094E00E94C3038091B3
:10329000F3029091F4020A9714F40E94F7146091DB
:1032A000F3027091F402072E000C880B990B0E9418
:1032B000801387E094E00E94AC136FCF6DED71E056
:1032C00068CF65ED71E065CF6EEC71E087E094E06A
:1032D0000E94C303009158021091590220915A0292
:1032E00030915B0240915C0250915D0260915E0200
:1032F00070915F02E12CCE0101960E944B17CE0126
:1033000001960E94C113CE0101960E941D1645CF61
:1033100066EC71E03ECF6EEB71E03BCF68EB71E0A5
:1033200038CF61EB71E087E094E00E94C3038EE444
:1033300080937C0062E070E080E090E00E9496055F
:1033400080917A00806480937A0080917A0086FD73
:10335000FCCF8091780020917900322F282F032E06
:10336000000C440B550B64EB7BE281E190E00E9482
:103370008630B901330F880B990B99CF6AEA71E057
:1033800087E094E00E94C3038091BF02811104C0D2
:1033900087E392E00E94B0138091BF02813021F454
:1033A00089E392E00E94B0138091BF02823021F441
:1033B0008BE392E00E94B0138091BF02833009F04A
:1033C000ECCE8AE492E015CF60E880E10E94110C17
:1033D00060E088E00E94F40488E00C94961889E08C
:1033E0000E9496189091B1028091BF029130F1F540
:1033F0009091B2029430D1F5813091F028F0823072
:10340000C1F0833031F1089560E085E00E9440050D
:1034100060E086E00E94400560E087E00C94400593
:1034200061E085E00E94400560E085E00E94F404D0
:10343000EFCF60E085E00E94400560E086E00E94FA
:10344000400561E087E00E94400560E087E00C9461
:10345000F40460E085E00E94400561E086E00E949F
:10346000400560E086E00E94F404EBCF813079F003
:1034700028F0823071F08330B1F0089560E085E08B
:103480000E94F40460E086E00E94F404DECF61E074
:10349000F6CF60E085E00E94F40460E086E00E94E0
:1034A000F40461E0D3CF60E085E00E94F40461E0C1
:1034B000F5CF4091B70250E0481303C01092BF020D
:1034C00051E03091B802381304C091E09093BF02EC
:1034D00051E02091B902281304C092E09093BF02FA
:1034E00051E09091BA02981304C083E08093BF0228
:1034F00008C0511106C0833690F4481304C01092DE
:10350000BF020C94EF19381302C081E0EFCF2813EB
:1035100002C082E0EBCF981741F38F5FECCF833688
:1035200081F782E6481749F0381759F0281771F0EB
:10353000981751F08150B1F7842F1092BF023813C1
:1035400003C031E03093BF02281303C022E0209370
:10355000BF029813D6CFC9CFEEEDF3E02BEE33E0E8
:1035600081E09191911180E02E173F07D1F7E09112
:10357000AE02882389F010925802109259021092DC
:103580005A0210925B0210925C0210925D0210923D
:103590005E0210925F020895EF5FED3008F0E0E008
:1035A000AE2FB0E0A252BC4F8C918823A9F3E093D8
:1035B000AE02E150EC3088F4F0E0EF51F54E0C949F
:1035C0006532141B211B2C1B371B421B4D1B581B28
:1035D000631B6E1B791B841B941B80EF8093580226
:1035E0008EEC8093590281ED80935A0210925B0217
:1035F00010925C0210925D0210925E0210925F02C5
:103600006DE372E087E094E00E942B138091AE029C
:103610008A3010F40E94F7148091AE020E94D613F3
:103620008091AE020C94591A80E5809358028CED7B
:103630008093590285ED80935A0282E080935B0269
:10364000D7CF80ED8093580287EB8093590284EFA7
:1036500080935A028AE0F2CF80E5809358028AE88C
:103660008093590287E480935A0285E1E7CF80E195
:103670008093580287E58093590286EF80935A021F
:1036800089E2DCCF80EA8093580287EB809359026D
:1036900080E780935A028CE3D1CF80EB809358026D
:1036A00087E78093590286E080935A0284E5C6CF6B
:1036B00080E58093580287EB809359028BEE8093CC
:1036C0005A028BE6BBCF80E18093580288E1809359
:1036D00059028EEB80935A028DE7B0CF80ED809334
:1036E000580285E38093590282E980935A0284E963
:1036F000A5CF80ED8093580285E08093590285EA3A
:1037000080935A0287EA9ACF80E18093580281E53C
:103710008093590287EC80935A028BE280935B027C
:1037200081E080935C0266CF80ED809358028AEA44
:103730008093590288EC80935A0281EAEFCF82E0AD
:1037400090E09093F8028093F70260E08091AF02DE
:103750000E94F4040E94E41981E00C9496182F92C0
:103760003F924F925F926F927F928F929F92AF9211
:10377000BF92CF92DF92EF92FF920F931F93CF935E
:10378000DF93CDB7DEB76F970FB6F894DEBF0FBEED
:10379000CDBF2F83388749875A876B877C878D8772
:1037A0009E878090B3029090B402A090B502B09032
:1037B000B602A4E6B0E0A50194010E94A5307B0109
:1037C0008C0120E030E0A9016F87F88A898B1A8B81
:1037D0002B8B3C8B4D8B5E8BC501B4010E941F2F40
:1037E0006C8F7D8F8E8F9F8F2F81388549855A856D
:1037F0006B857C858D859E85211501EE300705EF53
:10380000400705E05007610571058105910509F044
:1038100008F455C159016A017B018C0120E034E0B4
:103820004BE654EF64E170E080E090E00E94FF32EC
:103830002F8B388F498F5A8F0E946B3219012A01C2
:103840003B014C01AF84B888C988DA88E12CF12C9F
:1038500000E010E00E94FF322B8F9101A201B30122
:10386000C4010E94FD32B901CA010E941F2F20EF3E
:103870003FEF4FE759E40E94802F2C8D3D8D4E8DF8
:103880005F8D0E946B310E94E43124E630E040E01D
:1038900050E00E94643049015A01C501B4010E9400
:1038A0001F2F20EF3FEF4FE759E40E946B3120E0DC
:1038B00030E040E053E40E94802F0E94E4319B01FD
:1038C000AC018B8D482E512C712C612C87E0440C5F
:1038D000551C661C771C8A95D1F7E2E05E1A6108D8
:1038E0007108420E531E641E751E97E0880C991CC9
:1038F000AA1CBB1C9A95D1F76FEF7FEF8FE090E089
:103900000E945430861A970AA80AB90A6FEF8AE112
:103910000E94110C6FEF8BE10E94110C662D6370F9
:103920008CE10E94110C9927872D762D652D8DE154
:103930000E94110C642D8EE10E94110C6A2D606FA3
:103940008FE10E94110C99278B2D7A2D692D80E231
:103950000E94110C682D81E20E94110C8F88988CB6
:10396000A98CBA8C04E0801A9108A1080EEFB00A65
:1039700047E0880C991CAA1CBB1C4A95D1F760E053
:103980008AE20E94110C61E08BE20E94110C6A2D08
:103990006370612B8CE20E94110C99278B2D7A2D7C
:1039A000692D8DE20E94110C682D8EE20E94110C8F
:1039B00060E08FE20E94110C60E080E30E94110C35
:1039C00060E081E30E94110C8091500290915102BD
:1039D000A0915202B09153022F81388549855A85B2
:1039E000281B390B4A0B5B0BDA01C901B7FF07C073
:1039F000B095A095909581959F4FAF4FBF4F813A5D
:103A00009648A140B10524F060EA81EB0E94110CB8
:103A10006FE480E10E94110C4F8140935002588561
:103A200050935102898580935202EA85E0935302B4
:103A3000EB84E0925402FC84F09255020D850093D1
:103A400056021E851093570261E088E00E94F4043C
:103A500063EA71E087E094E00E94C303E12C0F81E8
:103A6000188529853A854B855C856D857E85CE01D7
:103A700001960E944B17CE0101960E94C113CE0100
:103A800001960E941D1687E00E9496186F960FB649
:103A9000F894DEBF0FBECDBFDF91CF911F910F9184
:103AA000FF90EF90DF90CF90BF90AF909F908F905E
:103AB0007F906F905F904F903F902F9008952F814F
:103AC000388549855A856B857C858D859E8507E07F
:103AD0000E945C3359016A017B018C0120E034E0D3
:103AE0004BE654EF64E170E080E090E00E94FF322A
:103AF0002F8B388F498F5A8F60E070E080E090E024
:103B00000E946B3219012A013B014C01AF84B88835
:103B1000C988DA88E12CF12C00E010E00E94FF3225
:103B20002B8F9101A201B301C4010E94FD32B901A2
:103B3000CA010E941F2F20EF3FEF4FE759E40E9478
:103B4000802F2C8D3D8D4E8D5F8D0E946B310E949C
:103B5000E43124E630E040E050E00E946430490166
:103B60005A0110E79ACE3F924F925F926F927F92E6
:103B70008F929F92AF92BF92CF92DF92EF92FF927D
:103B80000F931F93CF93DF93D82FE9EFF2E082EAF0
:103B9000DF011D928A95E9F76D2F8091DD030E9468
:103BA000C20D61E08091AF020E94F4048FB7F894D7
:103BB0004090A1025090A2026090A3027090A402D3
:103BC0008FBF89EF882E82E0982EBBEA4B0EB2E0C1
:103BD0005B1E611C711CC0E092E9392EF401419119
:103BE0004F01439DA0011124952F990F990B9A0124
:103BF000492F592F692F792F892FA0905802B09003
:103C00005902C0905A02D0905B02E0905C02F090A2
:103C10005D0200915E0210915F020E9475330E9466
:103C2000AF1B2FB7F8948091A1029091A202A091AE
:103C3000A302B091A4022FBF84159505A605B70570
:103C400030F487E094E00E944504892B51F36DE83D
:103C500071E087E094E00E94C3038091AE028A3055
:103C600010F40E94F7146091AE0270E090E080E0E2
:103C70004AE00E943A1362E472E087E094E00E9416
:103C80002B138091CE031C2F863009F41695D33068
:103C900009F04DC01F5A143608F44EC0812F0E94FF
:103CA000D61306E010E0F090AF0261E08F2D0E9485
:103CB000F40465E070E080E090E00E94960560E02A
:103CC0008F2D0E94F40462E370E080E090E00E9497
:103CD00096050150110939F787E094E00E944504E8
:103CE0008C01892B61F5CF5FFBEA4F0EF2E05F1E7E
:103CF000611C711CC23A09F071CF0E94E41960E0A6
:103D00008091AF020E94F404C801DF91CF911F910E
:103D10000F91FF90EF90DF90CF90BF90AF909F906A
:103D20008F907F906F905F904F903F9008951A30E2
:103D300008F0B1CF0E94F7140E94F714AFCF01E052
:103D400010E0DBCF2F923F924F925F926F927F9263
:103D50008F929F92AF92BF92CF92DF92EF92FF929B
:103D60000F931F93CF93DF93CDB7DEB7A0970FB616
:103D7000F894DEBF0FBECDBF8091AD0281111EC091
:103D80006CE471E087E094E0A0960FB6F894DEBF93
:103D90000FBECDBFDF91CF911F910F91FF90EF909C
:103DA000DF90CF90BF90AF909F908F907F906F905B
:103DB0005F904F903F902F900C94E9131092F8026F
:103DC0001092F702EEEDF3E02BEE33E081E09191FB
:103DD000911180E02E173F07D1F7882309F445C0E1
:103DE00060E271E087E094E00E94E91381E0909145
:103DF000C5039134E1F59091C6039134C1F59091DA
:103E0000C7039033A1F59091C803913481F5909147
:103E1000C903913461F59091CA03913441F569E089
:103E200071E087E094E00E94E9136AEE70E087E0B9
:103E300094E00E94E913A0960FB6F894DEBF0FBE7F
:103E4000CDBFDF91CF911F910F91FF90EF90DF9049
:103E5000CF90BF90AF909F908F907F906F905F902A
:103E60004F903F902F900C949F1B80E0C0CF81110A
:103E7000DCCF1092AE020E94AC1A0E94902E28EC69
:103E800030E040E050E00E948630645671098109BC
:103E9000910924E630E040E050E00E94C332A09057
:103EA0005802B0905902C0905A02D0905B02E09044
:103EB0005C02F0905D0200915E0210915F020E9430
:103EC0007533209358023093590240935A0250930D
:103ED0005B0260935C0270935D0280935E0290933C
:103EE0005F020E94E41981E00E9496188CE2682E1D
:103EF0007724739494E1292E312C412C512C87E0A6
:103F000094E00E944504892B09F0F9C00E94AD0994
:103F1000882309F475C1CE0101960E949E0D8FE1A0
:103F2000FE013196A3ECB4E001900D928A95E1F781
:103F300083E00E94961887E094E00E9445044C01BB
:103F4000892B09F0DCC08091E10483FF4BC182FB27
:103F5000FF24F0F882FF46C18091DA0490E090934C
:103F6000BE028093BD02E090D9048E2D90E0909324
:103F7000BC028093BB020091D80410E01093F402BD
:103F80000093F3028091CC039091CD03019731F51A
:103F90006091C7047091C8048091C9049091CA04CB
:103FA0000E94212F25E93FEB46ED53E30E94802F2D
:103FB0005B016C016091C3047091C4048091C504DD
:103FC0009091C6040E94212F25E93FEB46ED53E373
:103FD0000E94802FA60195010E94380C0115110541
:103FE00009F0ECC0E0FCEDC08091DB039091DC03B4
:103FF000019709F04BC06091CD047091CE04072E5B
:10400000000C880B990B0E94212F2AE037ED43E228
:104010005CE30E94802F5B016C016091CB04709186
:10402000CC04072E000C880B990B0E94212F9B01BA
:10403000AC01C601B5010E94FF300E94E4315B0172
:104040006C012CE231E040E050E00E946430822FAD
:104050000E94C40B182F169DC001179D900D1124AE
:10406000092E000CAA0BBB0BA6019501281B390BCE
:104070004A0B5B0BCA01B901A20191010E94643095
:10408000822F0E94C40B88A31093DD0381E00E945D
:10409000B31D892BA1F58091CE038630E1F080918C
:1040A000AE0290E0FC01E152FC4F8C30910509F02A
:1040B0003FC02091EE033091EF034091F003509107
:1040C000F103A8EEB3E00E94A5300E94FB138BE041
:1040D0000E94961836C068E273E280E090E00E9489
:1040E00096058091DB039091DC03019719F438A1C8
:1040F0003093DD0383E00E94B31D892B81F2A096EB
:104100000FB6F894DEBF0FBECDBFDF91CF911F91E8
:104110000F91FF90EF90DF90CF90BF90AF909F9066
:104120008F907F906F905F904F903F902F90089569
:10413000019621912111F12C8C309105CCF3F110D5
:10414000B8CF0E94AC1A0E94902E28EC30E040E0DC
:1041500050E00E948630645671098109910924E675
:1041600030E040E050E00E94C332A0905802B0908E
:104170005902C0905A02D0905B02E0905C02F0902D
:104180005D0200915E0210915F020E9475332093E0
:1041900058023093590240935A0250935B02609345
:1041A0005C0270935D0280935E0290935F0268EB05
:1041B0007BE080E090E00E94FB13A8CE093311055C
:1041C00044F484E00E94961882E00E9496180E94AF
:1041D000FD1482E090E00E94D11464E670E080E07B
:1041E00090E0E9CF0E94FD1481E090E00E94D1149C
:1041F00085E00E94961860E971E080E090E0DBCFF6
:104200004FEF841A940A51E3851655E795060CF48E
:1042100076CE66ED70E087E094E00E94E91369ECE9
:1042200070E084EA94E00E94E91360ED77E080E0BA
:1042300090E00E94FB13912C812C61CECF92DF92F3
:10424000EF92FF92CF938091AD0281110BC068E88D
:1042500070E087E094E0CF91FF90EF90DF90CF90F7
:104260000C94E91381E090E09093F8028093F702B8
:104270002091F2033091F3034091F4035091F50340
:104280006091F6037091F7038091F8039091F90320
:10429000209358023093590240935A0250935B0284
:1042A00060935C0270935D0280935E0290935F0264
:1042B0000E9413326B017C012CEF30E441E451E5A4
:1042C0000E941A2FCEE087FFCFE028E430E341E8D8
:1042D00050E5C701B6010E941A2F87FDCDE02AE9FB
:1042E0003BEA4AEF5FE4C701B6010E941A2F87FD3F
:1042F000CCE02EEF3DED43EB5FE4C701B6010E9439
:104300001A2F87FDCBE02EE63CE249E45FE4C701CB
:10431000B6010E941A2F87FDCAE02EE039E442E37D
:104320005FE4C701B6010E941A2F87FDC9E02DE1A5
:1043300034EE46E15FE4C701B6010E941A2F87FD03
:10434000C8E02AEF3CE64DEE5EE4C701B6010E94EC
:104350001A2F87FDC7E02FE139EA49EC5EE4C70177
:10436000B6010E941A2F87FDC6E026E83EE041E92B
:104370005EE4C701B6010E941A2F87FDC5E02CE359
:104380003BE649E45EE4C701B6010E941A2F87FDAF
:10439000C4E023E638E44CEC5DE4C701B6010E94BA
:1043A0001A2F87FDC3E027E93AE542E55DE4C7013E
:1043B000B6010E941A2F87FDC2E029E132EC49E5DF
:1043C0005CE4C701B6010E941A2F87FDC1E021E21B
:1043D00035EC4BE75BE4C701B6010E941A2F87FD5D
:1043E000C0E08C2F0E94591A209158023091590236
:1043F00040915A0250915B0260915C0270915D02A3
:1044000080915E0290915F020E94AF1B61E08091FB
:10441000AF020E94F40481E00E94961886E0CF91DA
:10442000FF90EF90DF90CF900C949618FF920F932F
:104430001F93CF93DF93EC01F62E08811981C801F9
:104440000E943E30F81621F06F2DC8010E944630C0
:10445000CE01DF91CF911F910F91FF900895CF92E0
:10446000DF92EF92FF920F931F93CF93DF9300D0D1
:1044700000D000D0CDB7DEB7D82E2BE9E22E23E056
:10448000F22E10E000E08823D9F031EBE32E32E089
:10449000F32E00E911E01A830983F70161917F018E
:1044A000CE0101960E9416220F5F1F4F0A39F1E0DC
:1044B0001F0789F78AE0E82EF12C00E911E013C00C
:1044C0001A830983F70161917F01CE0101960E9451
:1044D00016220F5F1F4F0F35110591F79FE5E92E4B
:1044E000F12C10E000E08D2D0E94251669837A835F
:1044F0008B839C83E00EF11E6E01F5E0CF0ED11C84
:104500008E010F5F1F4FE01AF10AC701800F911F44
:104510009E838D83F80161918F01C6010E9416224E
:10452000C016D10691F726960FB6F894DEBF0FBEDF
:10453000CDBFDF91CF911F910F91FF90EF90DF9052
:10454000CF9008951F920F920FB60F9211242F93C0
:104550003F934F935F936F937F938F939F93AF930B
:10456000BF93EF93FF9387E094E00E946504FF916F
:10457000EF91BF91AF919F918F917F916F915F91DB
:104580004F913F912F910F900FBE0F901F90189554
:104590001F920F920FB60F9211242F938F939F9318
:1045A000EF93FF93E0911704F09118048081E0915C
:1045B0001D04F0911E0482FD1BC090818091200497
:1045C0008F5F8F7320912104821741F0E0912004C6
:1045D000F0E0E95FFB4F958F80932004FF91EF910E
:1045E0009F918F912F910F900FBE0F901F90189554
:1045F0008081F4CF1F920F920FB60F9211242F9348
:104600003F938F939F93AF93BF938091A10290911B
:10461000A202A091A302B091A4023091A00226E0D0
:10462000230F2D3758F50296A11DB11D2093A0022E
:104630008093A1029093A202A093A302B093A4023C
:104640008091A5029091A602A091A702B091A80224
:104650000196A11DB11D8093A5029093A602A0937F
:10466000A702B093A802BF91AF919F918F913F9104
:104670002F910F900FBE0F901F90189529E8230FD0
:104680000396A11DB11DD2CF1F920F920FB60F92AC
:1046900011242F933F934F935F936F937F938F9347
:1046A0009F93AF93BF93EF93FF93E091AB02F09191
:1046B000AC02309749F0A685B7858585968D91FF28
:1046C00014C09C918923A1F4FF91EF91BF91AF9108
:1046D0009F918F917F916F915F914F913F912F911A
:1046E0000F900FBE0F901F9018959C91892361F732
:1046F000A389B4899C918589809589238C93868927
:1047000097890197F1F7608D718DA685B7855585DD
:1047100038E020E0CB010197F1F7822F90E09595EA
:104720008795282F4C91452309F02068315091F747
:10473000868D81FD20958091AA0290E001968F736D
:1047400099273091A902381799F0A091AA02B0E0F8
:10475000A05ABD4F2C938093AA02828D938D01970E
:10476000F1F7A389B4898C919589892B8C93ACCF6F
:10477000868D8160868FF1CF1F920F920FB60F92B8
:1047800011240F900FBE0F901F901895CF92DF92BB
:10479000EF92FF9210920A041092090498EEC92E2B
:1047A00093E0D92EE12CF12CC0920B04D0920C0492
:1047B000E0920D04F0920E0483E092E090930804DE
:1047C0008093070485EC90E0909314048093130485
:1047D00084EC90E0909316048093150480EC90E0B4
:1047E000909318048093170481EC90E090931A043E
:1047F0008093190482EC90E090931C0480931B0436
:1048000086EC90E090931E0480931D041092200487
:1048100010922104109222041092230484E595E062
:104820000E947B0D89E795E00E947B0D1092E304C6
:104830001092E4041092E5041092E6041092E7044A
:104840001092E8041092E9041092EA041092EB042A
:104850001092EC041092ED041092EE0484E595E0C1
:104860000E947B0D109253051092780583EC94E022
:104870000E947B0D1092A7041092A604C092A80477
:10488000D092A904E092AA04F092AB0485E192E0F0
:104890009093A5048093A4041092BB041092BA04D0
:1048A0001092BD041092BC041092BF041092BE047A
:1048B0001092C1041092C0046091C2046E7F6D7F9B
:1048C0006093C2046695617081E0682783E00E946E
:1048D000F40461E083E00E944005ECEAF4E0E49136
:1048E000E093B404E8E9F4E0E491F0E0EE0FFF1F98
:1048F000E557FB4F859194919093B6048093B5044E
:1049000060E082E00E9440058091C20481FD04C005
:1049100061E082E00E94F40482E08093B004EBEA5C
:10492000F4E0E491E093B104E7E9F4E0E491F0E02D
:10493000EE0FFF1FEF57FB4F859194919093B304B7
:104940008093B204FF90EF90DF90CF900895CF93C3
:10495000DF93CDB7DEB7C556D1090FB6F894DEBFE9
:104960000FBECDBF789484B5826084BD84B581606C
:1049700084BD85B5826085BD85B5816085BD80912A
:104980006E00816080936E001092810080918100A2
:10499000826080938100809181008160809381009A
:1049A000809180008160809380008091B10084605C
:1049B0008093B1008091B00081608093B0008091BD
:1049C0007A00846080937A0080917A00826080937C
:1049D0007A0080917A008E7F80937A0080917A00AD
:1049E000806880937A001092C1008CE58093B800B3
:1049F0001092B9008FEF8093BB0010926400E09199
:104A00001704F091180482E08083E0911304F09180
:104A100014041082E0911504F091160487E6808357
:104A200010921F04E0911B04F0911C0486E0808327
:104A3000E0911904F0911A04808180618083E091F3
:104A40001904F0911A04808188608083E091190430
:104A5000F0911A04808180688083E0911904F091BC
:104A60001A0480818F7D808380ED97E0A0E0B0E024
:104A700080930B0490930C04A0930D04B0930E0448
:104A80001092BF041092BE041092BD041092BC0498
:104A90001092BB041092BA048DEC90E09093C10484
:104AA0008093C0049091B004963108F047C025E58A
:104AB00030E03093BB042093BA042BEC30E0309309
:104AC000BD042093BC0420E930E03093BF04209360
:104AD000BE042091680084E0983048F031E09E30B8
:104AE00008F430E081E001C0880F3A95EAF7822BA4
:104AF000809368002DE630E0983050F02BE630E0EF
:104B00009E3030F02CE630E0963110F030E020E0BE
:104B10003093B8042093B704292F30E0983008F080
:104B20009DC181E001C0880F9A95EAF78093B9048E
:104B30008091C0049091C1040197F1F78091BE0467
:104B40009091BF04892B49F1E091AB02F091AC0246
:104B500024E0E43AF20709F1309739F0A389B489E7
:104B60009C918589809589238C938091C2048E7F46
:104B70008093C2041092AA021092A90284EA94E0DF
:104B80009093AC028093AB02E091B704F091B8042B
:104B900080819091B904892B808381E00E94D01696
:104BA00081112AC060E273E087E094E00E94E9137B
:104BB00066EB72E087E094E00E94E91381E0809365
:104BC000B1028CE298E7ADE7B1E08093B302909335
:104BD000B402A093B502B093B60284E18093B2020E
:104BE0008AE08093B70283E08093B80284E08093E8
:104BF000B90286E08093BA0280E00E94D016882332
:104C000009F439C18091C3039091C4039093F802D1
:104C10008093F7021092CB031092D3031092DA0321
:104C200084E090E09093B0028093AF026AE572E076
:104C300087E094E00E94E9138091B102813009F08D
:104C4000A5C18091B202843009F0A0C160E085E086
:104C50000E94400560E086E00E94400560E087E039
:104C60000E94400561E08091AF020E94400561E032
:104C700088E00E94400562E472E087E094E00E94D0
:104C8000C3034AE061E070E080E090E00E943A13E4
:104C900064E472E087E094E00E942B1382E00E94BB
:104CA000D61380E190E00E94D11480E4EFEBF1E0B4
:104CB000DE01119601900D928A95E1F724E630E02D
:104CC00088248A94982C5401E0E4E0937C0080913D
:104CD0007A00806480937A0080917A0086FDFCCF10
:104CE0008091780090917900B501A40148274F7018
:104CF000552766277727440F551F440F551FA1E0FE
:104D0000B0E0AC0FBD1F4A0F5B1FDA014D915D9102
:104D10006D917C91F4E0B694A79497948794FA955A
:104D2000D1F7482559256A257B25A4E095958795D7
:104D3000AA95E1F78F709927092E000CAA0BBB0BDF
:104D400084279527A627B7278F709927AA27BB27DF
:104D5000880F991F880F991FA1E0B0E0AC0FBD1F0D
:104D60008A0F9B1FDC018D909D90AD90BC9014E04C
:104D700076956795579547951A95D1F78426952688
:104D8000A626B72680949094A094B094215031091F
:104D900009F09BCF89288A288B2811F00E94902E39
:104DA00080E68093AD020E94060C80EC0E94F10B1D
:104DB000182F0E94FE0B183179F082E68093AD0225
:104DC0000E94060C84EC0E94F10B182F0E94FE0B2F
:104DD000183111F01092AD028091F7029091F80213
:104DE0008130910509F4EBC008F4ECC0029709F496
:104DF000EEC05E01BAE0AB0EB11C4E012DE0820E9A
:104E0000911C92E0692E712CCC24C394D12C87E0A4
:104E100094E00E944504892B09F47AC683E0F82EB9
:104E200087E094E00E944504181619060CF070C63D
:104E300087E094E00E9423048A3009F4CBC08D30CF
:104E400079F3E091F202E13358F791E09E0F9093ED
:104E5000F202F0E0E054FD4F8083E2CF9E3040F458
:104E60002850310981E001C0880F2A95EAF75ECE0B
:104E70002E503109F7CF21E030E03093F802209333
:104E8000F70287E580939B0383E580939C0380E58D
:104E900080939D0382E580939E0380E280939F032D
:104EA00084E58093A00388E58093A1031092A20378
:104EB00082E090E09093C4038093C30381E48093E5
:104EC000C5038093C60390E39093C7038093C80300
:104ED0008093C9038093CA031092CB033093CD0310
:104EE0002093CC038093CF038093D0039093D1037E
:104EF0009093D2031092D3038093D4038093D5036D
:104F00009093D6039093D7038093D8038093D903CB
:104F10001092DA0384E08093CE031092DC031092A7
:104F2000DB0387E18093DD03EEEDF3E0119263E0B4
:104F3000EE3EF607D9F781E08093E3038093E40324
:104F400080EE91E0A0E0B0E08093EE039093EF0359
:104F5000A093F003B093F1031092F2038AEC8093D4
:104F6000F3038AE98093F4038BE38093F5031092B3
:104F7000F6031092F7031092F8031092F90361E818
:104F800072E087E094E00E94E9134ACE61E085E098
:104F90000E94400561E086E00E94400561E087E0F4
:104FA0000E94400560E085E00E94F40460E086E035
:104FB0000E94F40460E087E00E94F40453CE0E9453
:104FC0001E2117CF1092AE020E94A21E12CF0E9485
:104FD0009F1B0FCFE091F202F0E0E054FD4F1082F2
:104FE0008091C0028B3509F04CC38091C4028D358D
:104FF00009F047C38091C102833409F049C0809110
:10500000C2028334D9F48091C3028D34B9F4809103
:10501000C602833509F038C38091C802833511F484
:105020000E941E218091C802873511F40E94A21EA1
:105030008091C8028E3411F40E949F1B8091C2029D
:10504000833589F48091C302853469F48091C60266
:10505000833549F480E00E942F2263E474E087E006
:1050600094E00E94E9138091C202833589F4809113
:10507000C3028C3469F48091C602833549F480916F
:10508000C802813409F004C31092BF020E94EF19D4
:105090008091C1028F3409F021C18091C202843510
:1050A00099F58091C302803579F58091C6028335E8
:1050B00009F0FEC28091C80289838091C9028A8367
:1050C0008091CA028B838091CB028C838091CC0229
:1050D0008D831E82BE016F5F7F4FCE018F5B9F4F1E
:1050E0000E940C16CE018F5B9F4F0E941C0D2093D7
:1050F000EE033093EF034093F0035093F103CE019E
:105100008F5B9F4F0E941D168091C202833591F4E0
:105110008091C3028D3471F48091C602833509F009
:1051200027C38091C802833509F013C3D092C4030A
:10513000C092C3038091C2028234F9F48091C30209
:105140008434D9F49091C8028091C9022091C6029A
:1051500099838A831B821C82233509F025C3CE01E3
:1051600001960E94E82EFC01E252FC4F91E08091F2
:10517000CB02853409F090E090838091C2028C3498
:1051800009F096C08091C302833409F075C0809104
:10519000C602833509F032C38091C802873409F012
:1051A0005FC0D092CD03C092CC0365E274E087E08B
:1051B00094E00E94E9138091E10483FF51C082FFD3
:1051C0004FC08091DA0490E09093BE028093BD02BC
:1051D0008091D90490E09093BC028093BB028091AF
:1051E000D80490E09093F4028093F3026091C70496
:1051F0007091C8048091C9049091CA040E94212F23
:1052000025E93FEB46ED53E30E94802F1B012C0163
:105210006091C3047091C4048091C5049091C60448
:105220000E94212F25E93FEB46ED53E30E94802F9A
:10523000A20191010E94380C6EE174E087E094E0D5
:105240000E94C3038FEC93E00E94B01367E174E007
:1052500087E094E00E94C30384ED93E00E94B013C2
:105260008091C8028D3421F41092CD031092CC03AA
:105270008091C2028C34E1F48091C3028035C1F484
:105280008091C60262E074E0833551F48091C802D7
:10529000863309F0C7C2A6E0A093CE0369E074E0AC
:1052A00087E094E00E94C3038091CE030E94D6134E
:1052B0008091C202803591F48091C302873571F4E8
:1052C0008091C602833509F0B9C28091C8028E343C
:1052D00009F0ACC21092DC031092DB038091C10292
:1052E000843409F0E2C08091C202833419F58091C0
:1052F000C3028335F9F48091C602833509F0B2C246
:105300008091C8028093C5038091C9028093C6032F
:105310008091CA028093C7038091CB028093C80317
:105320008091CC028093C9038091CD028093CA03FF
:105330001092CB038091C2028C34D9F48091C302C5
:105340008433B9F48091C602833509F096C2809106
:10535000C8028093CF038091C9028093D0038091CB
:10536000CA028093D1038091CB028093D203109222
:10537000D3038091C2028C3419F58091C302863325
:10538000F9F48091C602833509F082C28091C80287
:105390008093D4038091C9028093D5038091CA027F
:1053A0008093D6038091CB028093D7038091CC0267
:1053B0008093D8038091CD028093D9031092DA03B1
:1053C0008091C2028E34A9F48091C3028D3489F495
:1053D0008091C602833509F066C2A8ECB2E0EBE921
:1053E000F3E08D91819323E0E23CF207D1F7109234
:1053F000C2038091C2028035B9F48091C302843423
:1054000099F48091C602833509F058C28091C80290
:1054100089838091C9028A831B821C82CE010196F6
:105420000E94E82E8093DD038091C2028734E9F563
:105430008091C3028634C9F58091C602833509F094
:105440004EC2A8ECB2E0FE0131968D9181938E168A
:105450009F06D9F71D86BE016F5F7F4FCE018F5B20
:105460009F4F0E940C16CE018F5B9F4F0E941C0D18
:105470002093F2033093F3034093F4035093F50326
:105480006093F6037093F7038093F8039093F90306
:10549000CE018F5B9F4F0E941D168091F702909165
:1054A000F802019711F40E941E218091C1028634F6
:1054B00009F0E7C08091C2028035D9F48091C3021F
:1054C0008E34B9F48091C602873499F46AEC73E0A3
:1054D00087E094E00E94C3030E94F7144AE064EF5F
:1054E00073E080E090E00E943A1387E094E00E942D
:1054F000AC138091C2028834C9F48091C30286350E
:10550000A9F48091C602833509F011C28091C802C6
:1055100089838091C9028A838091CA028B831C820D
:10552000CE0101960E94E82E8093B1028091C202C2
:105530008834C9F48091C3028235A9F48091C602EF
:10554000833509F00BC28091C80289838091C9021A
:105550008A838091CA028B831C82CE0101960E94AD
:10556000E82E8093B2028091C202833589F4809143
:10557000C302863569F48091C602873449F465EB2D
:1055800073E087E094E00E94C30381E00E94D61399
:105590008091C202833589F48091C302823569F417
:1055A0008091C602873449F46EEA73E087E094E0A4
:1055B0000E94C30382E00E94D6138091C2028C3401
:1055C000D1F48091C3028035B1F48091C602833555
:1055D00009F0FCC18091CA0289838091CB028A8341
:1055E0001B828091C802823409F4E2C10CF0CDC163
:1055F000813409F4D6C18091C202823569F5809167
:10560000C302863449F58091C602833509F05FC232
:10561000A8ECB2E0FE0131968D918193AE16BF06E3
:10562000D9F71A86BE016F5F7F4FCE018F5B9F4F08
:105630000E940C16CE018F5B9F4F0E941C0D209381
:10564000B3023093B4024093B5025093B602CE0138
:105650008F5B9F4F0E941D168091C202833589F493
:105660008091C302853469F48091C602833549F480
:1056700081E00E942F226EE373E087E094E00E94B5
:10568000E9131092F202CCCB81E00E949618D6CC9E
:10569000823421F481E08093BF02F8CC833411F48A
:1056A00082E0F9CF843409F0F1CCF092BF02EECC65
:1056B0006CE374E087E094E00E94C3038091EE0302
:1056C0009091EF03A091F003B091F10380319742E4
:1056D000A105B10510F40E94F7148091EE0390919A
:1056E000EF03A091F003B091F103883E9340A10530
:1056F000B10510F40E94F7148091EE039091EF032E
:10570000A091F003B091F10384369105A105B10594
:1057100010F40E94F7148091EE039091EF03A09192
:10572000F003B091F1030A97A105B10510F40E94AE
:10573000F7146091EE037091EF038091F003909164
:10574000F1034AE00E943A1387E094E00E94AC1310
:10575000DBCC873529F41092C4031092C303EACC42
:105760008E3409F0E7CC7092C4036092C303E2CC9C
:1057700065E374E087E094E00E94C3038091C30373
:105780009091C4038130910561F040F0029709F0D7
:10579000D1CC81E392E00E94B013CCCC83E392E0C1
:1057A000FACF85E392E0F7CF6EE274E087E094E011
:1057B0000E94C303CE0101960E94E82E8C011C01B9
:1057C000990F440855088AE0281631044104510411
:1057D00010F40E94F7144AE0C201B1010E943A138A
:1057E000F801E252FC4F8081882329F086E492E0A0
:1057F0000E94B013C2CC89E492E0FACF60E174E079
:1058000087E094E00E94C3038091CC039091CD0384
:10581000019729F48CE492E00E94B01329CD8EE424
:1058200092E0FACFB4E0B093CE0338CD813409F0E2
:1058300055CDD092DC03C092DB0350CD6BEF73E00B
:1058400087E094E00E94C3038091DB039091DC0326
:10585000892B29F481E392E00E94B0133FCD87E3C6
:1058600092E0FACF64EF73E087E094E00E94C30314
:1058700085EC93E00E94B0135DCD6DEE73E087E0A0
:1058800094E00E94C3038FEC93E00E94B01371CDAB
:1058900066EE73E087E094E00E94C30384ED93E03A
:1058A0000E94B0138DCD6FED73E087E094E00E940D
:1058B000C3038BE993E00E94B0139BCD68ED73E0C6
:1058C00087E094E00E94C3038091DD038A3010F4E6
:1058D0000E94F7148091DD030E94D613A5CD61EDDF
:1058E00073E087E094E00E94C3030091F2031091FB
:1058F000F3032091F4033091F5034091F6035091A6
:10590000F7036091F8037091F903EE24E394CE015C
:105910008F5B9F4F0E944B17CE018F5B9F4F0E9462
:10592000C113CE018F5B9F4F0E941D16BECD63EC4D
:1059300073E087E094E00E94C3038091B102843653
:1059400010F40E94F7148091B1028A3010F40E9482
:10595000F7148091B1020E94D613E8CD6CEB73E08E
:1059600087E094E00E94C3038091B202843610F471
:105970000E94F7148091B2028A3010F40E94F7144A
:105980008091B2020E94D613EECD8334C1F08434EC
:1059900009F031CECE0101960E94E82E8093BA0222
:1059A0002ACECE0101960E94E82E8093B70223CE24
:1059B000CE0101960E94E82E8093B8021CCECE0143
:1059C00001960E94E82E8093B90215CE8091B10213
:1059D0008130E1F58091B2028A30C0F18091B70246
:1059E0008A3061F08091B8028A3041F08091B9022A
:1059F0008A3021F08091BA028A3091F463EA73E030
:105A000087E094E00E94E91368E973E087E094E09E
:105A10000E94E9136DE873E087E094E00E94E913C7
:105A20008091B702863061F08091B802863041F0F3
:105A30008091B902863021F08091BA02863031F42B
:105A400062E873E087E094E00E94E91369E773E09D
:105A500087E094E00E94C3038091B7028A3010F47B
:105A60000E94F7148091B7020E94D61360E773E09A
:105A700087E094E00E94C3038091B8028A3010F45A
:105A80000E94F7148091B8020E94D61367E673E073
:105A900087E094E00E94C3038091B9028A3010F439
:105AA0000E94F7148091B9020E94D6136EE573E04C
:105AB00087E094E00E94C3038091BA028A3010F418
:105AC0000E94F7148091BA020E94D61394CD67E524
:105AD00073E087E094E00E94C3034091B3025091C9
