:100000000C9456020C947E020C947E020C94AF2346
:100010000C94AF230C94AF230C947E020C947E02BC
:100020000C947E020C947E020C947E020C947E0250
:100030000C947E020C947E020C947E020C947E0240
:100040000C9465230C947E020C9433230C940D23A2
:100050000C947E020C947E020C947E020C947E0220
:100060000C947E020C947E025A4441005654470080
:10007000524D4300475356004753540047534100E5
:10008000474C4C00474741007B4D494E7D486172CB
:100090006477617265204552524F5221204E6F2085
:1000A00053693533353120504C4C20646576696393
:1000B0006520666F756E64206F6E207468652049D8
:1000C0003243206275737321002450434153313011
:1000D0002C332A3146007B4D494E7D205265736595
:1000E0007474696E6720475053007B4D494E7D43C1
:1000F000616E206E6F742073746172742057535058
:100100005220426561636F6E007B4D494E7D4361B5
:100110006C6C205369676E206E6F74207365740079
:100120007B4D494E7D5472616E6D697373696F6E5C
:10013000206973206E6F7420656E61626C65642047
:100140006F6E20616E792062616E64007B4D494E56
:100150007D4861726477617265204552524F522129
:10016000204E6F2053693533353120504C4C20647C
:10017000657669636520666F756E64206F6E2074A6
:10018000686520493243206275737321007B5457A0
:10019000537D20007B4D50537D2030007B4D5053CC
:1001A0007D20007B5446517D20007B4C50497D20B2
:1001B000007B4D56437D20007B5443437D007B54A0
:1001C0004F4E7D2046007B544F4E7D2054007B5483
:1001D00046517D20007B474C437D2046007B474CA9
:1001E000437D2054007B47544D7D20007B474C3697
:1001F0007D20007B474C347D20007B544F4E7D207A
:1002000054007B544F4E7D2046007B544F4E7D2042
:1002100046007B43434D7D20007B4753497D2000B2
:1002200000000000240027002A000000000800024F
:1002300001000003040700000000000000007B4DE7
:10024000494E7D204669726D7761726520766572D0
:1002500073696F6E20007B4D494E7D205A61636843
:1002600054656B20575350522D54585F4C503120D9
:100270007472616E736D6974746572007B4D494E62
:100280007D204E6F207573657220646174612077E4
:10029000617320666F756E642C2073657474696E6B
:1002A000672064656661756C742076616C75657332
:1002B000007B4D494E7D20596F75206E6565642029
:1002C000746F2072756E20666163746F727920732B
:1002D0006574757020746F20636F6D706C657465E4
:1002E0002074686520636F6E6669677572617469F2
:1002F0006F6E2C206775657373696E67206F6E2053
:1003000063616C6962726174696F6E2076616C758D
:10031000657320666F72206E6F77007B4D494E7D4E
:10032000204E6F20666163746F727920646174611E
:1003300020666F756E642021007B4D494E7D2046FE
:100340006163746F72792064617461207361766592
:1003500064007B4652467D20007B464C507D204405
:1003600020007B464C507D204320007B464C507D36
:10037000204220007B464C507D204120007B46538C
:10038000527D20007B4653567D20007B4648527D9F
:1003900020007B4648567D20007B46504E7D200045
:1003A0007B4447467D20007B4450447D20007B44B5
:1003B0004E4D7D20007B444C367D20007B444C34E8
:1003C0007D20007B4450467D20007B4453467D20A9
:1003D000007B4443537D20007B4F50537D20007BA6
:1003E0004F54537D20007B4F50577D20007B4F4C56
:1003F000507D20007B4F4C507D20007B4F4C437D37
:1004000020007B444C367D20007B444C347D200012
:100410007B4F4C4320477D20007B4F42447D200092
:100420007B4F534D7D20007B4F54507D20007B4DF2
:10043000494E7D20436F6E66696775726174696F9E
:100440006E207361766564007B4D494E7D20526558
:1004500073657474696E6720475053008400800090
:100460007C007800740070006C00680000000000E0
:1004700023002600290000000000250028002B0092
:10048000040404040404040402020202020203033A
:100490000303030301020408102040800102040842
:1004A00010200102040810202724F12E11241FBE61
:1004B000CFEFD8E0DEBFCDBF12E0A0E0B1E0EAE3CD
:1004C000F2E702C005900D92AC35B107D9F725E0EF
:1004D000ACE5B2E001C01D92A33BB207E1F712E028
:1004E000C5E5D2E004C02197FE010E942E33C43539
:1004F000D107C9F70E9408250C9410390C9400000C
:10050000FC018091890581111AC011821082138229
:10051000128280918B05826080938B0510928A05F0
:1005200091E06D3209F090E080918B0590FB80F9AD
:1005300080938B056D3209F06EC080E008956C32B7
:1005400099F580918A05811103C081E080938A0525
:1005500082819381892B99F05AE080918A0591E0FC
:10056000980F90938A05481750F022813381529F4B
:10057000C001539F900D112493838283EECF9091FD
:100580008B05892F817090FF44C022813381319582
:100590002195310933832283208131813195219541
:1005A00031093183208308956E3221F481E08093F4
:1005B0008A05C3CF80918A05811112C020813181C3
:1005C0004AE0429FC001439F900D1124062E000C6B
:1005D000770B60537109680F791F71836083ADCF0A
:1005E00091E0980F90938A05481708F4A6CF2281CE
:1005F00033814AE0429FC001439F900D1124062E93
:10060000000C770B60537109680F791F7383628345
:1006100094CF81E008956C3209F497CF6E3271F671
:10062000C5CF813311F0813421F483E080938505B7
:1006300008C0803321F08E3411F0863541F41092D9
:1006400085058091860581608093860508958233B3
:1006500011F0843411F484E0E9CF833311F487E09E
:10066000E5CF843311F486E0E1CF853311F485E0E2
:10067000DDCF863311F0853449F781E0D7CFE091A3
:100680008905E930F0F4F0E0E85BFC4F0C942E3380
:10069000510363036803700375037D0382038A03B8
:1006A0009403109284058C3261F090918B059260D6
:1006B00090938B0580539AE0899F802D112480931D
:1006C0007F0581E0089590917F059053890FF7CFC2
:1006D00080539AE0899F802D112480937E05F1CF6D
:1006E00090917E059053890FF8CF80539AE0899FAF
:1006F000802D112480937D05E4CF90917D0590534A
:10070000890FF8CF8C32E9F680918605846080935A
:100710008605D7CF8C32C1F380539AE0899F802D14
:10072000112480938405CDCF8C3271F39091840590
:100730009053890F80938405E7CFFC0180918B054E
:100740008E7F80938B0580918905811106C06C3264
:1007500069F06053608381E008956C32E1F3808139
:1007600060539AE0899F600D1124F4CF80E00895D2
:10077000EF92FF920F931F93CF93DF938C017B0136
:10078000D0E0C0E0F701EC0FFD1F6491662361F03B
:10079000D801ED91FC910190F081E02DC8010995FF
:1007A000892B11F02196EECFCE01DF91CF911F91D1
:1007B0000F91FF90EF900895AF92BF92CF92DF928A
:1007C000EF92FF920F931F93CF93DF936C017B0106
:1007D0008B01040F151FEB015E01AE18BF08C01797
:1007E000D10759F06991D601ED91FC910190F0810A
:1007F000E02DC6010995892B79F7C501DF91CF91CD
:100800001F910F91FF90EF90DF90CF90BF90AF902E
:100810000895FC01538D448D252F30E0842F90E006
:10082000821B930B541710F0CF96089501970895EB
:10083000FC01918D828D981761F0A28DAE0FBF2FB4
:10084000B11D5D968C91928D9F5F9F73928F90E00A
:1008500008958FEF9FEF0895FC01918D828D981779
:1008600031F0828DE80FF11D858D90E008958FEFB6
:100870009FEF0895FC01918D228D892F90E0805C7F
:100880009F4F821B91098F73992708958BE194E004
:100890000E943A0421E0892B09F420E0822F089578
:1008A00080E090E0892B29F00E94460481110C948D
:1008B00000000895FC01A48DA80FB92FB11DA35A03
:1008C000BF4F2C91848D90E001968F739927848F70
:1008D000A689B7892C93A089B1898C918370806493
:1008E0008C93938D848D981306C00288F389E02D34
:1008F00080818F7D80830895EF92FF920F931F93E5
:10090000CF93DF93EC0181E0888F9B8D8C8D9813C2
:100910001AC0E889F989808185FF15C09FB7F894CE
:10092000EE89FF896083E889F9898081837080641A
:1009300080839FBF81E090E0DF91CF911F910F9165
:10094000FF90EF900895F62E0B8D10E00F5F1F4F74
:100950000F731127E02E8C8D8E110CC00FB607FC83
:10096000FACFE889F989808185FFF5CFCE010E9411
:100970005A04F1CFEB8DEC0FFD2FF11DE35AFF4F21
:10098000F0829FB7F8940B8FEA89FB89808180629F
:10099000CFCFCF93DF93EC01888D8823B9F0AA895C
:1009A000BB89E889F9898C9185FD03C0808186FD2A
:1009B0000DC00FB607FCF7CF8C9185FFF2CF808179
:1009C00085FFEDCFCE010E945A04E9CFDF91CF9190
:1009D000089590E0FC01E65DFD4F2491FC01EC568A
:1009E000FB4F3491FC01E058FB4FE491EE23C9F03A
:1009F000222339F0233001F1A8F4213019F12230FB
:100A000029F1F0E0EE0FFF1FEA58FB4FA591B491DA
:100A10008FB7F894EC91611126C030953E233C933A
:100A20008FBF08952730A9F02830C9F0243049F746
:100A3000809180008F7D03C0809180008F778093AC
:100A40008000DFCF84B58F7784BDDBCF84B58F7D09
:100A5000FBCF8091B0008F778093B000D2CF809190
:100A6000B0008F7DF9CF3E2BDACFCF93DF9390E0AC
:100A7000FC01EC56FB4F249180589B4FFC01849164
:100A80008823D1F090E0880F991FFC01E05EFD4FB4
:100A9000A591B491FC01EA58FB4FC591D491611125
:100AA0000EC09FB7F8948C91E22FE0958E238C9323
:100AB0002881E223E8839FBFDF91CF9108958FB70C
:100AC000F894EC91E22BEC938FBFF6CF3FB7F894FC
:100AD0008091B1029091B202A091B302B091B402A0
:100AE00026B5A89B05C02F3F19F00196A11DB11D89
:100AF0003FBFBA2FA92F982F8827BC01CD01620FC5
:100B0000711D811D911D43E0660F771F881F991F7E
:100B10004A95D1F708958F929F92AF92BF92CF924C
:100B2000DF92EF92FF924B015C010E9466056B0120
:100B30007C010E9466056C197D098E099F09683E3B
:100B4000734081059105A8F321E0821A9108A1085C
:100B5000B10888EEC80E83E0D81EE11CF11C811498
:100B60009104A104B10429F7FF90EF90DF90CF909A
:100B7000BF90AF909F908F9008958F929F92AF9269
:100B8000BF92CF92DF92EF92FF926B017C01BC018A
:100B9000A60182E076956795579547958A95D1F796
:100BA000D701C60124E0B695A795979587952A9514
:100BB000D1F7840F951FA61FB71F4C015D0134E0CC
:100BC000B694A794979487943A95D1F7880D991D78
:100BD000AA1DBB1D892E9A2EAB2EBB24880E991EF2
:100BE000AA1EBB1EC501AA27BB27880E991EAA1ED6
:100BF000BB1EA3E0B0E0A50194010E946E31A701E5
:100C00009601261B370B480B590BABE0B0E00E9456
:100C10006E31E5E09695879577956795EA95D1F7DA
:100C2000680D791D8A1D9B1DFF90EF90DF90CF907E
:100C3000BF90AF909F908F900895CF92DF92EF92E8
:100C4000FF921F93CF93DF93EC01162F80918905BC
:100C500081110BC0188219821A821B8210928A0598
:100C600080918B05826080938B051E3291F11C323E
:100C700009F064C080918A05882359F180918A0522
:100C8000843009F07CC0288139814A815B81A4E6E7
:100C9000B0E00E946E31688379838A839B83C88029
:100CA000D980EA80FB80C701B601660F771F881FD5
:100CB000991F6F5F7F4F8F4F9F4F0E94BD05C60EDC
:100CC000D71EE81EF91EC882D982EA82FB8281E023
:100CD0002AC081E080938A052981822F82958F70B6
:100CE0002F703AE0839F200D11248A8181112C59A5
:100CF0008881982F92959F708F703AE0939F800D16
:100D000011249CE3299F90011124820F932F911DA0
:100D1000092E000CAA0BBB0B88839983AA83BB8383
:100D20001E3249F480E0DF91CF911F91FF90EF9048
:100D3000DF90CF9008951C3209F4A0CF80918A05EE
:100D4000811143C088819981AA81BB8134E0880FD9
:100D5000991FAA1FBB1F3A95D1F7412F110F550BB1
:100D600040535109052E000C660B770B842B952BF5
:100D7000A62BB72B88839983AA83BB83D3CF8530D7
:100D800039F4288139814A815B81AAE0B0E081CFC2
:100D9000863009F484CF08F09ACF288139814A81BE
:100DA0005B81A8EEB3E0833009F473CF823019F48D
:100DB000A0E1B7E26ECF813009F071CF60EA76E84A
:100DC00081E090E00E941D3166CF8F5F80938A059D
:100DD0008730C0F4288139814A815B81AAE0B0E084
:100DE0000E946E31212F110F330B205331096901FD
:100DF000330FEE08FF08DC01CB018C0D9D1DAE1DED
:100E0000BF1DB8CF873009F08DCFC880D980EA8068
:100E1000FB80C701B601660F771F881F991F6F5FA0
:100E20007F4F8F4F9F4F0E94BD056C0D7D1D8E1D06
:100E30009F1D19334CF06E5F7F4F8F4F9F4F68831C
:100E400079838A839B836ECF1433CCF36F5F7F4F9C
:100E50008F4F9F4FF4CF1F93CF93DF931F92CDB748
:100E6000DEB7682F1091F604153009F484C01630EF
:100E700009F403C1113009F025C1E0918805E15062
:100E8000E93008F01FC1F0E0E85BF84F0C942E3316
:100E9000510750085E078107640893079B076208A3
:100EA000A807862F0E943F030F90DF91CF911F91DB
:100EB000089588E695E00E941D0604C180918B0587
:100EC00082FF00C1809189058111FCC0633509F062
:100ED000F9C08091680590916905A0916A05B0916B
:100EE0006B05B095A095909581959F4FAF4FBF4FE3
:100EF0008093680590936905A0936A05B0936B058C
:100F0000E1C06C3249F480918905811105C080915E
:100F10008B058B7F80938B0580918B0582FFD2C0E0
:100F20008CE695E0C8CF809189058111CBC0862FD2
:100F30000E941103C7C08CE795E00E949D03909129
:100F400086059068882309F4BDC090938605ACCFD0
:100F500042E080E795E00E948002882309F4B2C055
:100F600021E090918905911101C020E090918605C2
:100F700020FB94F9EACF80916705843108F0A2C084
:100F800020918805243008F49DC0482F50E023703C
:100F9000223079F02330E9F1819FC0011124213002
:100FA00029F08D5F9A4F0E949D038CC08C5F9A4FF1
:100FB000FACF149FF001159FF00D11246C3201F14E
:100FC00080918B058E7F80938B0540918905862FBC
:100FD00090E0EA50FB4F411104C0C097908B878787
:100FE00071C0278530894AE0429FB001439F700D50
:100FF000112460537109680F791F708B678762C075
:10100000E95FFA4F90819F7790838F5F80936705A8
:1010100059C041505109149FF001159FF00D112442
:10102000E95FFA4F6C32F1F080818F778983CE01CE
:1010300001960E949D03809167058150990B189F2E
:10104000F001199FF00D1124E95FFA4F99819F7704
:1010500080818078892B808380918B05826080934A
:101060008B0530C091E080918905811101C090E02D
:10107000808190FB87F9808325C0E0918805E1504D
:10108000E93000F5F0E0E95BF74F0C942E3351079F
:10109000930750085E07810764088E08A008B3080C
:1010A0008091890581110AC091E06C3209F490E0C9
:1010B00080918B0590FB82F980938B0580918B0545
:1010C00082FDF7CE81E0F0CE90918B0592FB8827D0
:1010D00080F992FFF7CF909189059111F3CF90910C
:1010E0008605986090938605673561F740916C0599
:1010F00050916D0560916E0570916F0570956095CA
:10110000509541955F4F6F4F7F4F40936C055093C3
:101110006D0560936E0570936F05C6CE43E084E75E
:1011200095E00E948002882369F221E09091890570
:10113000911101C020E09091860520FB95F905CF23
:1011400042E088E795E00E948002882309F4BACF44
:1011500021E090918905911101C020E090918605D0
:1011600020FB96F9F2CE80918905823041F150F44E
:101170008823D1F0813009F0A5CF8091810580537B
:10118000680F1AC0843041F110F1853009F09ACF10
:10119000809183058053680F609383058091860555
:1011A0008260809386058ECF6C3209F48BCF6053BA
:1011B0008AE0689F602D11246093810583CF60537E
:1011C0008AE0689F602D1124609382057BCF809117
:1011D00082058053680FF8CF60538AE0689F602DC6
:1011E0001124609383056ECF2091B7023091B8022D
:1011F0002817390771F49091B5028091B6029817BB
:1012000041F0E091B502F0E0E459FD4F808190E0BB
:1012100008958FEF9FEF08950895EF92FF920F9337
:101220001F93CF93DF93DC015C96ED90FC905D976C
:10123000E114F10479F481E090E013969C938E938D
:10124000129790E080E0DF91CF911F910F91FF9076
:10125000EF9008955196ED91FC91529750968C9194
:101260005097982F90950FB75E962C915E97122FFE
:10127000127021FD6095F8942081112319F1282B1B
:101280002083E7012197F1F728E0462F50E03081D5
:1012900060FF1AC0382B3083E7012197F1F7BA01BC
:1012A00075956795215089F7112381F080818923F5
:1012B00080830FBF5C968D919C910197F1F781E03F
:1012C00090E0C1CF2923DCCF3923E5CF9081892B52
:1012D000EFCF2091B7023091B8022817390771F487
:1012E0008091B6022091B50290E0805C9F4F821BF6
:1012F000910960E470E00E941A33089590E080E064
:1013000008952091B7023091B80228173907B9F42F
:101310009091B5028091B602981789F0E091B502DC
:10132000F0E0E459FD4F80812091B50230E02F5F5D
:101330003F4F2F7333272093B50290E008958FEF2E
:101340009FEF08959F92AF92BF92CF92DF92EF925C
:10135000FF920F931F93CF93DF9311E0D1E003E04F
:1013600092E0F92E88EB94E00E946909892B09F438
:10137000CEC188EB94E00E948109C82F8091FF04C0
:1013800090910005A0910105B09102050196A11D63
:10139000B11D8093FF0490930005A0930105B093C5
:1013A0000205C432B9F480918B0584FF05C08F7E9D
:1013B00080938B0510926705109287051092F604B2
:1013C000D0938C051092890580918B058D7F809339
:1013D0008B05C8CF80918C05823079F5CA3229F40B
:1013E00000938C0510928905BDCF80EE8C0F8F3550
:1013F00050F4809187058C27809387058C2F0E945D
:101400002B07811107C0109286051092F6041092E6
:101410008C05A8CFCC3259F480918B058D7F8093B9
:101420008B05809188058F5F80938805DBCF809145
:1014300089058F5F8093890595CF813009F061C060
:10144000909187059C2790938705CC3269F4909101
:10145000F6049923D1F210928605809388051092A4
:101460008905F0928C057ECFE090890581E08E158C
:1014700008F05EC18EEFB82EBE0C8091F604882372
:1014800009F43DC08150E82FF0E0EE0FFF1FE45A51
:10149000FB4F2591349150E040E0CB2CD12C61E002
:1014A000680F70E0F901EC0DFD1DE491CE1709F411
:1014B0003CC1CE170CF4A9CFAA24A394A80E873060
:1014C00009F4A3CFFB01E40FF51FEE0FFF1FE45A51
:1014D000FB4FA591B49190E080E08B1558F4F90191
:1014E000E80FF91F9490FD01E80FF91FE4910196B0
:1014F0009E1699F34F5F5F4F8A2D9D01D3CF80E0F9
:10150000C2CF833009F0F3C0C0628FE98C0F863000
:1015100038F5C7559091890580918705911122C0B2
:10152000D093890590E024E0959587952A95E1F779
:10153000C817190609F416CF8091FB049091FC049A
:10154000A091FD04B091FE040196A11DB11D8093F0
:10155000FB049093FC04A093FD04B093FE0453CFCE
:10156000C053D8CF8F7021E08C1301C020E08C13C2
:10157000E3C080918B0581FF09C08D7F80938B052F
:101580009F5F909389058CE20E942B078091F7045E
:101590009091F804A091F904B091FA040196A11D6C
:1015A000B11D8093F7049093F804A093F904B093CD
:1015B000FA049091F60421E0963009F020E0809141
:1015C0008B0520FB84F980938B0510928C0520916C
:1015D000AC05211191C08091860580FF0CC020913F
:1015E00085053091AB0530FF04C03091AA05321754
:1015F00010F42093AA0581FF0CC02091810520934F
:10160000A605209182052093A705209183052093AC
:10161000A80582FF10C020917F052093A40520918A
:101620007E052093A30520917D052093A20520919E
:1016300084052093A90583FF09C088E0E8E6F5E06A
:10164000ADE8B5E001900D928A95E1F780918605AD
:1016500084FF10C040917005509171056091720532
:101660007091730540939505509396056093970587
:101670007093980586FF10C04091780550917905C8
:1016800060917A0570917B0540939D0550939E056E
:1016900060939F057093A00585FF10C0409174056D
:1016A0005091750560917605709177054093990585
:1016B00050939A0560939B0570939C0587FF04C027
:1016C00080917C058093A105809186052091AB05D2
:1016D000822B8093AB05963009F044CE1092AE0574
:1016E0008091AC0581113ECE1093AC053BCE8111AB
:1016F00039CE1092F60436CE886080938B05109216
:10170000AD058091AC0581508093AC0564CF80918C
:10171000AC05DF91CF911F910F91FF90EF90DF907B
:10172000CF90BF90AF909F9008958F5F8093F60405
:10173000E394E092890516CE2111FECE13CE90E0FF
:1017400080E00895282F082E000C330B2053310918
:101750002A30310510F480530895803231F09FEB28
:10176000980F9A3120F48753089584E208958FEFFB
:101770000895CF93DF93CDB7DEB763970FB6F89494
:10178000DEBF0FBECDBF982F83E1EAE0F1E0DE01BE
:10179000119601900D928A95E1F7892F9D3308F0FB
:1017A0008CE3FE013196AE014C5E5F4F21919217A2
:1017B00008F0822FE417F507C9F763960FB6F8947F
:1017C000DEBF0FBECDBFDF91CF910895803269F0AB
:1017D000282F082E000C330B205331092A303105F5
:1017E00010F4805308958753089584E208958093F8
:1017F000BB0084E88093BC008091BC0087FFFCCFD5
:101800008091B900887F089584E98093BC0080911D
:10181000BC0084FDFCCF089584EA8093BC008091D5
:10182000BC0087FFFCCF8091B900887F0895CF93DB
:10183000DF93D82FC62F0E940C0C8830B9F480910A
:10184000B902880F0E94F70B883191F48D2F0E9406
:10185000F70B883279F48C2F0E94F70B883261F4F1
:101860000E94040C80E0DF91CF91089581E0FBCFCE
:1018700082E0F9CF83E0F7CF84E0F5CF4F925F921B
:101880006F927F928F929F92AF92BF92CF92DF9290
:10189000EF92FF92CF93DF93CDB7DEB72C970FB6C1
:1018A000F894DEBF0FBECDBF4B015C01CA01B90188
:1018B00020E030E044E353E40E94C8312B013C01B6
:1018C00020E030E040EA51E40E9434320E94A63227
:1018D0006B01072E000C880B990B0E94EA2F20E069
:1018E00030E040EA51E40E9449309B01AC01C30161
:1018F000B2010E94C7312B013C0120E030E040E002
:101900005FE30E9449300E94A63269837A838B8309
:101910009C8320E030E044EB52E4C501B4010E9416
:10192000C8314B015C0120E030E040E251E40E940C
:1019300034320E94A6326D837E838F8398872D81F7
:101940003E81B901330F880B990B0E94EA2F20E0EA
:1019500030E040E251E40E9449309B01AC01C501F6
:10196000B4010E94C7314B015C010E94A632698715
:101970007A878B879C8731E4C30EE7EAF3E0C3AE36
:101980008D818F5B84AF2981205D25AF9985905D26
:1019900096AF17AEC092E7038093E8032093E90364
:1019A0009093EA0329813A81B901330F880B990B8F
:1019B0000E94EA2F9B01AC010E94C8319B01AC013F
:1019C000C301B2010E94C73120E030E040E451E49D
:1019D0000E9449300E94A6326F5B6093EB03298519
:1019E0003A85B901330F880B990B0E94EA2F9B01AE
:1019F000AC01C501B4010E94C73120E030E040ECE9
:101A000051E40E9449300E94A6326F5B6093EC0360
:101A10001092ED032C960FB6F894DEBF0FBECDBF2B
:101A2000DF91CF91FF90EF90DF90CF90BF90AF907C
:101A30009F908F907F906F905F904F9008955F92EE
:101A40006F927F928F929F92AF92BF92CF92DF92CE
:101A5000EF92FF920F931F93CF93DF934C01DC0122
:101A600014966D907C90D0E0C0E020E030E040E043
:101A700050E060E070E080E090E0C615D70571F1BD
:101A8000D401ED91FC91512C309719F0EC0FFD1F12
:101A90005080E0EDE50DEA3008F5EAE0AE2EB12C1D
:101AA000C12CD12CE12CF12C00E010E00E94343349
:101AB00059016A017B018C01852D550C990BC0974A
:101AC000E92FEE0FEE0B9C014E2F5E2F6E2F7E2F17
:101AD0008E2F9E2F0E943E342196CFCFDF91CF9143
:101AE0001F910F91FF90EF90DF90CF90BF90AF903C
:101AF0009F908F907F906F905F900895FC0114826B
:101B00001582168217821082118212821382118628
:101B10001086138612861586148617861686118AF5
:101B2000108A138A128A148A168A178A158A81E003
:101B3000818F828F138E87E0808F148E158E168E84
:101B40000895CF93DF93EC010E947E0D8091AC0548
:101B50008823B9F081508093AC058091AD052FE1C9
:101B6000289FC0011124FC01E357FA4FDE010190C8
:101B70000D922A95E1F783579A4F0E947E0D10929D
:101B8000AD05CE01DF91CF910895FB0101900020BA
:101B9000E9F73197AF01461B570BDC01ED91FC9142
:101BA0000280F381E02D09948F929F92AF92BF92B1
:101BB0000F931F93CF93DF93CDB7DEB7A1970FB6E7
:101BC000F894DEBF0FBECDBF19A2423008F44AE040
:101BD0008E010F5D1F4F842E912CB12CA12CA501DD
:101BE00094010E942D31E62FB901CA01EA3004F5B3
:101BF000E05DD801EE938D01232B242B252B79F763
:101C000090E080E0109729F0BD018BE194E00E9404
:101C1000C50DA1960FB6F894DEBF0FBECDBFDF9104
:101C2000CF911F910F91BF90AF909F908F9008958B
:101C3000E95CDFCFCF92DF92EF92FF92CF93DF93F9
:101C400097FF1BC06B017C016DE28BE194E00E9469
:101C50007C04EC0166277727CB016C197D098E097E
:101C60009F094AE00E94D40D8C0F9D1FDF91CF91F8
:101C7000FF90EF90DF90CF9008954AE0DF91CF91F1
:101C8000FF90EF90DF90CF900C94D40D682F70E010
:101C900090E080E04AE00C94D40DBC018BE194E02C
:101CA0000C94C50D4F925F926F927F928F929F928C
:101CB000AF92BF92CF92DF92EF92FF920F931F935A
:101CC000CF93DF93CDB7DEB7CB55D1400FB6F894A5
:101CD000DEBF0FBECDBFC82ED62E61ED73E0CE01A4
:101CE000805B9E4F0E94593662EE73E0CE01895AA6
:101CF0009E4F0E945936CF5ADE4F1881C155D140B0
:101D0000812F012E000C990BC0970A97D8F5CE5A57
:101D1000DE4F0881C255D140802F002E000C990B58
:101D20000E943D36892B71F1C05BDE4F8881C05522
:101D3000D140CC5ADE4F9881C455D140CB5ADE4FAA
:101D40009883C555D140CD5ADE4F9881C355D140B7
:101D5000CC5ADE4F9883C455D140CD5ADE4F08830C
:101D6000C355D140CE5ADE4F1883C255D140CF5A09
:101D7000DE4F8883C155D14080E2C05BDE4F88834F
:101D8000C055D1409E01205B3E4F790110E000E23A
:101D9000D7018C91082E000C990B0E944836F70150
:101DA00081937F01082E000C990B9C01205331096F
:101DB0002A30310570F00E943D36892B51F4F7012D
:101DC00031970083143029F4CB5ADE4F0883C55570
:101DD000D1401F5F1630E1F686E0FE01E05BFE4F6A
:101DE000A4E1B4E001900D928A95E1F78E01095AC1
:101DF0001E4F7801F4E0EF0EF11CD8018D918D019A
:101E0000082E000C990B0E944836F8013197808308
:101E1000282F082E000C330B205331092A303105AE
:101E200068F08154823150F085E0EBE2F2E0DE01AF
:101E3000A95ABE4F01900D928A95E1F7E016F1067E
:101E4000E1F684E0FE01E95AFE4FAFE0B4E0019014
:101E50000D928A95E1F78C2D0E94B90B882E809304
:101E60000E04B2E0DB1609F4F4C1E3E0DE1609F477
:101E7000C3C2809114040E94A20B282F30E0A4E278
:101E8000B0E00E94B8316B017C01809115040E9482
:101E9000A20BA7019601280F311D411D511DAAE07B
:101EA000B0E00E946E316B017C01809116040E94AB
:101EB000A20BA7019601280F311D411D511DABE159
:101EC000B0E00E946E316B017C01809117040E948A
:101ED000A20B482F4A50550B9A01032E000C440BBD
:101EE000550B2C0D3D1D4E1D5F1DABE1B0E00E945A
:101EF0006E316B017C01809118040E94A20BA82F07
:101F0000AA50BB0B9D01032E000C440B550B2C0D4E
:101F10003D1D4E1D5F1DABE1B0E00E946E312B01F7
:101F20003C01809119040E94A20B8A50990B092E42
:101F3000000CAA0BBB0B6C017D01C40CD51CE61C6C
:101F4000F71C20910F04022E000C330B2154310991
:101F500046EF4203C001439F900D112420911104CC
:101F6000821B910927FD93958D519F4F24EB289F4C
:101F7000A001299F500D112480911004082E000CFF
:101F8000990B815491096AE0689F9001699F300D17
:101F90001124420F531F80911204082E000C990B3C
:101FA000C097480F591F052E000C660B770B27E0D2
:101FB000440F551F661F771F2A95D1F7405C5F4F6E
:101FC0006F4F7F4F480D511D611D711DD701C60117
:101FD00014E0B695A795979587951A95D1F7C95BA3
:101FE000DE4F8883C754D140D701C6010CE0B695B7
:101FF000A795979587950A95D1F7CA5BDE4F888399
:10200000C654D140D701C60124E1B695A79597954E
:1020100087952A95D1F7CB5BDE4F8883C554D14095
:10202000842F8295880F880F807CC55BDE4F888364
:10203000CB54D140DB01CA0132E0B695A795979504
:1020400087953A95D1F7C65BDE4F8883CA54D14055
:10205000DB01CA01EAE0B695A79597958795EA95C1
:10206000D1F7C75BDE4F8883C954D140F2E1769542
:10207000679557954795FA95D1F74F70C294A0EFA1
:10208000CA224C29C85BDE4F4883C854D140C45B88
:10209000DE4F1882CC54D140C35BDE4F1882CD5442
:1020A000D140C25BDE4F1882CE54D140C15BDE4FBF
:1020B0001882CF54D140FE01EB5BFE4F2F012BE085
:1020C000420E511C10E0C12CD12C76019E012D55E1
:1020D0003F4F619170E050E040E0CC0CDD1CEE1C05
:1020E000FF1CCB01042E02C0880F991F0A94E2F74F
:1020F000880F892F881F990B8170C82A46015701C4
:1021000081E5882283E5982280EDA82282EFB8221B
:1021100080E200E0982D91700927B694A7949794D7
:1021200087948150B9F7C901810F911DDC010C938F
:1021300081E0810F46015701B7E48B22BCE39B226B
:10214000B1E6AB22B4EEBB2290E200E0A82DA17074
:102150000A27B694A794979487949150B9F7820F61
:10216000932F911DDC010C931E5F123A30F44F5FE8
:102170005F4F4830510509F0B0CF4E165F0609F0A9
:10218000A8CF90E080E001E010E0682F47E050E049
:10219000E0E0A62FB0E060FF07C0B801042E01C048
:1021A000660F0A94EAF7E62BBD01759567954150D5
:1021B000510978F7E23A70F488248394912C8C0EBC
:1021C0009D1E8E0E911CF401D901A90FB11D4C91D9
:1021D00040839F5F923A18F48F5F8F3FB1F682EA97
:1021E000FE013196D90101900D928A95E1F782EABC
:1021F000EDE1F1E0DE01119601900D928A95E1F793
:10220000FE013196A90165E073E09191DA018D91AB
:10221000AD01880F890FDB018D93BD012E173F079C
:10222000A1F7C55ADE4F0FB6F894DEBF0FBECDBF83
:10223000DF91CF911F910F91FF90EF90DF90CF90A2
:10224000BF90AF909F908F907F906F905F904F90D6
:102250000895809114040E94A20B282F30E0A4E27C
:10226000B0E00E94B8316B017C01809115040E949E
:10227000A20BA7019601280F311D411D511DAAE097
:10228000B0E00E946E316B017C01809116040E94C7
:10229000A20BA7019601280F311D411D511DABE175
:1022A000B0E00E946E316B017C01809117040E94A6
:1022B000A20BE82FEA50FF0B9F01032E000C440BEA
:1022C000550B2C0D3D1D4E1D5F1DABE1B0E00E9476
:1022D0006E316B017C01809118040E94A20B482F83
:1022E0004A50550B9A01032E000C440B550B2C0D34
:1022F0003D1D4E1D5F1DABE1B0E00E946E312B0114
:102300003C01809119040E94A20B8A50990B092E5E
:10231000000CAA0BBB0B6C017D01C40CD51CE61C88
:10232000F71C912CB12CA12C8091D8039091D9034A
:10233000892BC9F44091DE0350E0405A5549052EDF
:10234000000C660B770B97E0440F551F661F771F35
:102350009A95D1F74E5B5F4F6F4F7F4F480D591DD8
:102360006A1D7B1D33CE8091DA030E94E60B282F75
:1023700030E0A5E2B0E00E94B8312B013C01809131
:10238000DB030E94E60BA3019201280F311D411DC2
:10239000511DA5E2B0E00E946E312B013C018091FD
:1023A000DC030E94E60BB301A201480F511D611D21
:1023B000711D411580E858076105710580F050587E
:1023C0006109710987E0440F551F661F771F8A95C1
:1023D000D1F792E4890E911CA11CB11CBFCF07E07C
:1023E000440F551F661F771F0A95D1F7A1E48A0E87
:1023F000911CA11CB11CB2CF8091E8030E94A20BDA
:10240000282F30E0A4E2B0E00E94B8316B017C01DB
:102410008091E9030E94A20BA7019601280F311DAC
:10242000411D511DAAE0B0E00E946E316B017C019C
:102430008091EA030E94A20BA7019601280F311D8B
:10244000411D511DABE1B0E00E946E316B017C017A
:102450008091EB030E94A20BE82FEA50FF0B9F0133
:10246000032E000C440B550B2C0D3D1D4E1D5F1D06
:10247000ABE1B0E00E946E316B017C018091EC0316
:102480000E94A20B482F4A50550B9A01032E000CB4
:10249000440B550B2C0D3D1D4E1D5F1DABE1B0E0F7
:1024A0000E946E314B015C018091E7030E94A20BF8
:1024B0008A50990B092E000CAA0BBB0B6C017D01F5
:1024C000C80CD91CEA1CFB1C81ED93E0DC010D90CB
:1024D0000020E9F7FD01E25DF3405F019E2E83E2FB
:1024E00092E00E944D0E8A2D0E94460E61ED73E02F
:1024F0008E010F5F1F4FC8010E9459368091D8038B
:102500009091D903009709F03EC0C5019927F801C1
:10251000E80FF91F2FE220832091DE03243260F4BC
:10252000FE01E80FF91F13820196F801E80FF91F69
:102530002A3038F5205D2083F80101900020E9F76A
:102540003197E01BF10B4E2F50E070E060E04F57E9
:10255000504462457142E350FF0BE830F10508F04A
:1025600042C1E754FD4E89819A81AB81BC810C94B4
:102570002E33EB13EC13E113DA13D413C713B51393
:10258000DC12295CD8CF0197B9F68091DA038983F0
:102590008091DB038A838091DC038B838FE28C83C1
:1025A000A1EDB3E0FE01359680E0891508F0C4CFB7
:1025B0009D9191938F5FF9CF89849A84AB84BC8479
:1025C000AA24BB240D811E812F813885040F151F7D
:1025D000261F371F840F951FA61FB71F480D591DB3
:1025E0006A1D7B1D40275127622773274801590127
:1025F000EEE0880C991CAA1CBB1CEA95D1F72801B7
:102600003901F2E17694679457944794FA95D1F79B
:1026100084289528A628B728481959096A097B09EA
:1026200084279527A627B7274A015B01EBE0880C92
:10263000991CAA1CBB1CEA95D1F72A013B01F5E1C4
:102640007694679457944794FA95D1F784289528FF
:10265000A628B72888199909AA09BB0908271927A4
:102660002A273B274C015D01E7E0B694A794979495
:102670008794EA95D1F72C013D01F9E1440C551CF2
:10268000661C771CFA95D1F784289528A628B728C8
:10269000081919092A093B0940275127622773277E
:1026A00058014901481959096A097B098427952766
:1026B000A627B7274A015B01E4E0880C991CAA1CF5
:1026C000BB1CEA95D1F72A013B01FCE176946794A3
:1026D00057944794FA95D1F784289528A628B728C7
:1026E00088199909AA09BB09082719272A273B270E
:1026F0004C015D01EEE0880C991CAA1CBB1CEA95FC
:10270000D1F7F2E1B695A79597958795FA95D1F708
:1027100088299929AA29BB29081B190B2A0B3B0BCD
:102720004027512762277327F22F232F302F012FA5
:102730001F2F401B510B620B730B20910E048FE374
:1027400090E0A0E0B0E0821B9109A109B1096627E1
:10275000772717E0440F551F661F771F1A95D1F78B
:10276000480F591F6A1F7B1F31CCE9850D811E81DF
:102770002F813885040F151F261F371F840F951FC3
:10278000A61FB71F4E0F511D611D711D2BCF0D814F
:102790001E812F813885040F151F261F371F840FB8
:1027A000951FA61FB71F1ECF0D811E812F81388553
:1027B0003327F1CF0D811E812F81388522273327C2
:1027C000EACF2D814A015B01820E911CA11CB11C34
:1027D00095018401E4CFBB27840F951FA61FB71F67
:1027E0008A019B01FFCE8A019B01DB01CA01FACE5F
:1027F0008EE292E00C944D0E60E372E00C94C50DF5
:10280000CF93DF93BC018BE194E00E94C50DEC01F6
:102810008BE194E00E94FC138C0F9D1FDF91CF9100
:102820000895CF93DF93FC014481558160817181CC
:102830008BE194E00E94DC03EC018BE194E00E94C8
:10284000FC138C0F9D1FDF91CF910895CF93DF93E1
:102850000E94460EEC018BE194E00E94FC138C0F69
:102860009D1FDF91CF9108950F931F93CF93DF9317
:10287000EC010E94B8038C01CE010E94FC13800F72
:10288000911FDF91CF911F910F910895CF92DF9209
:10289000FF920F931F93CF93DF93F12CD5E080919C
:1028A0006705F81608F076C069E172E08BE194E004
:1028B0000E94B8030F2D10E0D09FF001D19FF00DC2
:1028C0001124EA50FB4F85858A3010F40E94F813DA
:1028D000D09FC001D19F900D11249C012A503B4FE5
:1028E0006901F90185850E94460E89E292E00E9405
:1028F0004D0EF601878590898436910510F40E946B
:10290000F813D09FF001D19FF00D1124EA50FB4F36
:10291000878590890A9710F40E94F813D09FC00110
:10292000D19F900D11249C012A503B4F6901F90160
:102930006785708990E080E04AE00E94D40D89E2CA
:1029400092E00E944D0EF60186858A3010F40E94B6
:10295000F813D09F6001D19FD00C1124F601EA50EA
:10296000FB4F86850E94460E89E292E00E944D0E42
:10297000F601E95FFA4FC081C7FF0AC0CF77CA30BE
:1029800010F40E94F8138C2F0E942614F39487CF22
:10299000C0E0F7CF8BE194E0DF91CF911F910F91D1
:1029A000FF90DF90CF900C94FC134F925F926F9248
:1029B0007F928F929F92AF92BF92CF92DF92EF92CF
:1029C000FF920F931F93CF93DF93CDB7DEB7A397FB
:1029D0000FB6F894DEBF0FBECDBF6B017C012FB7E1
:1029E000F8948091AD029091AE02A091AF02B091A7
:1029F000B0022FBFA7019B01280F391F4A1F5B1F81
:102A000028A339A34AA35BA310E000E088EE482E78
:102A100083E0582E612C712C0E94A209882371F04A
:102A2000CE0101960E94A10D8FE1FE013196A7ED26
:102A3000B4E001900D928A95E1F7EECF2FB7F894AC
:102A40008091AD029091AE02A091AF02B091B00220
:102A50002FBF88A099A0AAA0BBA0881A990AAA0A89
:102A6000BB0A31EA83163FE09306A104B104A4F146
:102A70006CE971E08BE194E00E94B803C501B401F8
:102A8000A30192010E944F31CA01B9010E941A0E9E
:102A90008BE194E00E94FC1368EE73E080E090E02C
:102AA0000E948B0541E1C41647E2D406E104F1041B
:102AB00058F00F5F1F4F0530110534F081E090E0B2
:102AC0000E94AB1510E000E08BE194E00E943A0414
:102AD000892B09F4A1CF05C0181419041A041B048A
:102AE0009CF351EAC5165FE0D506E104F104E0F07D
:102AF00064E971E08BE194E0A3960FB6F894DEBF31
:102B00000FBECDBFDF91CF911F910F91FF90EF903E
:102B1000DF90CF90BF90AF909F908F907F906F90FD
:102B20005F904F900C943414A3960FB6F894DEBFC8
:102B30000FBECDBFDF91CF911F910F91FF90EF900E
:102B4000DF90CF90BF90AF909F908F907F906F90CD
:102B50005F904F9008950F931F93CF93DF938C0155
:102B6000D0E0C0E061E08091BB020E94E90462E332
:102B700070E080E090E00E94D51460E08091BB029C
:102B80000E94E90462E370E080E090E00E94D514C6
:102B900021960C171D0731F7DF91CF911F910F91EF
:102BA00008950F931F93CF93DF93EC018881998150
:102BB000009759F02A813B812617370730F081E0D2
:102BC000DF91CF911F910F9108958B016F5F7F4F20
:102BD0000E948035009759F0998388831B830A836C
:102BE0002C813D81232B59F7FC011082E8CF80E036
:102BF000E7CFCF93DF93EC0188819981009711F0A3
:102C00000E94F734198218821D821C821B821A824C
:102C1000DF91CF910895EF92FF920F931F93CF937F
:102C2000DF93EC017B018A01BA010E94D115811169
:102C30000BC0CE010E94F915CE01DF91CF911F91FB
:102C40000F91FF90EF9008951D830C83B701888149
:102C500099810E945936F0CFCF93DF93EC01FB01AD
:102C60008617970749F0608171816115710541F000
:102C7000448155810E940B16CE01DF91CF910895BA
:102C80000E94F915F9CFFC01118210821382128281
:102C900015821482FB0101900020E9F73197AF0102
:102CA000461B570B0C940B16FC01808191810097F9
:102CB00011F00C94F73408954F925F926F927F92C7
:102CC0008F929F92AF92BF92EF92FF920F931F93BA
:102CD000CF93DF93CDB7DEB7C054D1090FB6F894C8
:102CE000DEBF0FBECDBF90E4EFEBF1E0DE01119649
:102CF00001900D929A95E1F781116CC087E690E002
:102D000030E020E0032F122F44244A94542C320147
:102D10007801E80EF91E0E151F050CF060C0C80101
:102D20000E94073192012827D301C9018F7099278A
:102D3000AA27BB27880F991F880F991F41E050E0F1
:102D40004C0F5D1F840F951FFC0180809180A28035
:102D5000B38034E076946794579447943A95D1F7CA
:102D600084249524A624B724C8010E94073190E04A
:102D700044E0959587954A95E1F7092E000CAA0B3A
:102D8000BB0B88259925AA25BB258F709927AA27D3
:102D9000BB27880F991F880F991F21E030E02C0F67
:102DA0003D1F820F931FFC01408051806280738021
:102DB00064E0B694A794979487946A95D1F74824D1
:102DC00059246A247B2440945094609470940F5F3B
:102DD0001F4FA1CF8AE090E030E921E093CFC301FB
:102DE000B201C05CDF4F0FB6F894DEBF0FBECDBF9F
:102DF000DF91CF911F910F91FF90EF90BF90AF9017
:102E00009F908F907F906F905F904F9008958F92DA
:102E10009F92AF92BF92CF92DF92EF92FF920F9369
:102E20001F93CF93DF9300D000D0CDB7DEB78823B8
:102E300009F44DC09DEBE92E92E0F92E00E911E076
:102E4000C8010E940731F70181937F010F5F1F4F77
:102E50000A39F1E01F07A1F781E00E945C164B01DF
:102E60005C010AE010E080E991E0080F191F6E0193
:102E7000F5E0CF0ED11CCE0101967C01081B190B89
:102E8000C8018E0D9F1D0E940731F70181937F01BC
:102E9000CE16DF06A9F781E049815A816B817C81DA
:102EA000481559056A057B0509F080E00F900F90E1
:102EB0000F900F90DF91CF911F910F91FF90EF90A6
:102EC000DF90CF90BF90AF909F908F90089587EA4A
:102ED000E82E83E0F82E10E000E0C8010E940731E0
:102EE000F70181937F010F5F1F4F07361105A9F787
:102EF00080E00E945C164B015C0107E610E090E068
:102F000080E0B3CF2F923F924F925F926F927F9269
:102F10008F929F92AF92BF92CF92DF92EF92FF92E9
:102F20000F931F93CF93DF93CDB7DEB7A0970FB664
:102F3000F894DEBF0FBECDBF4C01180129014C8FA4
:102F40005D8F6E8F7F8FE8A262E372E00E9443166E
:102F500090E4A92E22E4B22E3FE0C32ED12CE12C26
:102F6000F12C00E010E09101A2016C8D7D8D8E8D21
:102F70009F8D0E94C8339F938F937F936F935F932E
:102F80004F933F932F9383E392E09F938F933E0160
:102F9000BEE06B0E711C7F926F920E946F369101A2
:102FA000A2016C8D7D8D8E8D9F8D0E94C6339F9367
:102FB0008F937F936F935F934F933F932F93E3E3AD
:102FC000F2E0FF93EF932E0185E1480E511C5F92D2
:102FD0004F920E946F36F30101900020E9F731977C
:102FE000AF0146195709B301C4010E940B161A829A
:102FF00019821C821B821E821D82B4018E010F5F0A
:103000001F4FC8010E942C16F20101900020E9F721
:103010003197E419F5090FB6F894DEBF0FBECDBFA6
:10302000B1F06D807E806E0E7F1EB301C8010E94DC
:10303000D115882309F45CC029813A818D819E8154
:10304000B201820F931F0E9459367E826D82B801B1
:10305000C4010E942C16C8010E945416B8A1B111D7
:103060002DC0F401648075806114710409F044C0BE
:103070001982F801CE010D9620E23191303331F4FE
:10308000DF0111972C938E179F07B9F7F801019074
:103090000020E9F73197AF01401B510BB801C40183
:1030A0000E940B16F401208031802114310431F08C
:1030B0006480758021016114710491F5C401A096AA
:1030C0000FB6F894DEBF0FBECDBFDF91CF911F9139
:1030D0000F91FF90EF90DF90CF90BF90AF909F90B7
:1030E0008F907F906F905F904F903F902F900895BA
:1030F000C8010E94F915ABCFFCE06F16710418F0FF
:103100008CE0682E712CD4016D917C91A301C801D3
:103110000E946036F801E60DF71D1082AACF280143
:1031200082010F5F1F4FD2018C91082E000C990B6A
:103130000E94CF2F892B99F7B1E06B1A7108620CAE
:10314000731CF3018081082E000C990B0E94CF2F75
:10315000892B39F06414750420F0F1E06F1A7108BE
:10316000F0CFA3014F5F5F4F44195509D401159665
:103170005C934E9314972414350420F4B201C101DA
:103180000E945036D401ED91FC91119714968D91C7
:103190009C91E80FF91F108291CFEF920F931F932C
:1031A000CF93DF9300D000D000D0CDB7DEB78250F0
:1031B0008A3080F4E82FF0E0E052F74E0C942E3382
:1031C0001E193319911994199719BB19BE19F119C0
:1031D000C419C11962E172E08BE194E00E94B80366
:1031E00080910303909104038130910501F1C0F0B7
:1031F000029751F489E392E00E9400146AE072E0C1
:103200008BE194E00E94341426960FB6F894DEBF4A
:103210000FBECDBFDF91CF911F910F91EF90089519
:103220008BE392E00E94001462E072E0E9CF8DE34C
:1032300092E00E9400146AEF71E0E2CF63EF71E068
:103240008BE194E00E94B80382EE93E00E940014A8
:103250006CEE71E08BE194E00E94B80387EE93E09E
:103260000E940014D1CF8091EE0490E09093CA02A6
:103270008093C9028091ED0490E09093C8028093FE
:10328000C7028091EC0490E0909300038093FF02CA
:1032900065EE71E08BE194E00E94B8038091C90271
:1032A0009091CA020A9714F40E94F8136091C9021F
:1032B0007091CA02072E000C880B990B0E941A0EFF
:1032C0008FE392E00E944D0E8091C7029091C80258
:1032D0000A9714F40E94F8136091C7027091C80213
:1032E000072E000C880B990B0E941A0E8FE392E0B8
:1032F0000E944D0E8091FF02909100030A9714F4F2
:103300000E94F8136091FF0270910003072E000CD9
:10331000880B990B0E941A0E8BE194E00E94FC131B
:1033200073CF6DED71E06CCF65ED71E069CF6EEC40
:1033300071E08BE194E00E94B80300916402109167
:1033400065022091660230916702409168025091B7
:10335000690260916A0270916B02E12CCE010196C4
:103360000E948217CE0101960E941114CE0101968F
:103370000E94541649CF66EC71E042CF6EEB71E0CB
:103380003FCF68EB71E03CCF61EB71E08BE194E003
:103390000E94B8038EE480937C0062E070E080E0DD
:1033A00090E00E948B0580917A00806480937A007F
:1033B00080917A0086FDFCCF809178002091790081
:1033C000322F282F032E000C440B550B64EB7BE2AD
:1033D00081E190E00E944F31B901330F880B990BC6
:1033E00099CF6AEA71E08BE194E00E94B803809182
:1033F000CB02811104C081E492E00E94001480910C
:10340000CB02813021F483E492E00E940014809189
:10341000CB02823021F485E492E00E940014809176
:10342000CB02833009F0F0CE84E592E019CF60E85A
:1034300080E10E94170C60E088E00E94E90488E0C7
:103440000C94CD1889E00E94CD188091CB02813078
:1034500071F028F0823069F0833089F0089560E0DF
:1034600086E00E94E90460E087E00C94E90461E0F2
:10347000F7CF60E086E00E94E90461E0F5CF61E00B
:10348000F9CF4091C30250E0481303C01092CB0221
:1034900051E03091C402381304C091E09093CB0204
:1034A00051E02091C502281304C092E09093CB0212
:1034B00051E09091C602981304C083E08093CB0240
:1034C00008C0511106C0833690F4481304C010920E
:1034D000CB020C94221A381302C081E0EFCF2813DC
:1034E00002C082E0EBCF981741F38F5FECCF8336B9
:1034F00081F782E6481749F0381759F0281771F01C
:10350000981751F08150B1F7842F1092CB023813E5
:1035100003C031E03093CB02281303C022E0209394
:10352000CB029813D6CFC9CFE2EFF3E081E09191BF
:10353000911180E093E0EF3FF907C9F7E091BA02FB
:10354000882389F01092640210926502109266023C
:1035500010926702109268021092690210926A0239
:1035600010926B020895EF5FED3008F0E0E0AE2FAF
:10357000B0E0AE50BC4F8C918823A9F3E093BA021F
:10358000E150EC3088F4F0E0E853F54E0C942E3323
:10359000F91A061B111B1C1B271B321B3D1B481B4A
:1035A000531B5E1B691B791B80EF809364028EECBA
:1035B0008093650281ED80936602109267021092FB
:1035C00068021092690210926A0210926B0287E4FC
:1035D00092E00E944D0E8091BA028A3010F40E944F
:1035E000F8138091BA020E9426148091BA020C94BA
:1035F000411A80E5809364028CED8093650285ED2D
:103600008093660282E080936702D9CF80ED809339
:10361000640287EB8093650284EF809366028AE000
:10362000F2CF80E5809364028AE88093650287E4A4
:103630008093660285E1E7CF80E18093640287E5AD
:103640008093650286EF8093660289E2DCCF80EA90
:103650008093640287EB8093650280E78093660223
:103660008CE3D1CF80EB8093640287E7809365027F
:1036700086E08093660284E5C6CF80E5809364028D
:1036800087EB809365028BEE809366028BE6BBCF5F
:1036900080E18093640288E1809365028EEB8093E1
:1036A00066028DE7B0CF80ED8093640285E380935E
:1036B000650282E98093660284E9A5CF80ED80935C
:1036C000640285E08093650285EA8093660287EA5A
:1036D0009ACF80E18093640281E58093650287EC54
:1036E000809366028BE28093670281E08093680298
:1036F00068CF80ED809364028AEA8093650288EC4B
:103700008093660281EAEFCF82E090E09093040319
:103710008093030360E08091BB020E94E9040E9451
:10372000171A81E00C94CD182F923F924F925F921E
:103730006F927F928F929F92AF92BF92CF92DF92C1
:10374000EF92FF920F931F93CF93DF93CDB7DEB726
:103750006F970FB6F894DEBF0FBECDBF2F833887AB
:1037600049875A876B877C878D879E878090BF02A9
:103770009090C002A090C102B090C202A4E6B0E056
:10378000A50194010E946E317B018C0120E030E0A4
:10379000A9016F87F88A898B1A8B2B8B3C8B4D8BF9
:1037A0005E8BC501B4010E94E82F6C8F7D8F8E8FD8
:1037B0009F8F2F81388549855A856B857C858D85BE
:1037C0009E85211501EE300705EF400705E0500703
:1037D000610571058105910509F008F455C159018C
:1037E0006A017B018C0120E034E04BE654EF64E198
:1037F00070E080E090E00E94C8332F8B388F498FB3
:103800005A8F0E94343319012A013B014C01AF84C5
:10381000B888C988DA88E12CF12C00E010E00E9419
:10382000C8332B8F9101A201B301C4010E94C6339A
:10383000B901CA010E94E82F20EF3FEF4FE759E49A
:103840000E9449302C8D3D8D4E8D5F8D0E9434320B
:103850000E94AD3224E630E040E050E00E942D317D
:1038600049015A01C501B4010E94E82F20EF3FEF42
:103870004FE759E40E94343220E030E040E053E466
:103880000E9449300E94AD329B01AC018B8D482EC5
:10389000512C712C612C87E0440C551C661C771C44
:1038A0008A95D1F7E2E05E1A61087108420E531E54
:1038B000641E751E97E0880C991CAA1CBB1C9A9567
:1038C000D1F76FEF7FEF8FE090E00E941D31861AF5
:1038D000970AA80AB90A6FEF8AE10E94170C6FEFE6
:1038E0008BE10E94170C662D63708CE10E94170C0F
:1038F0009927872D762D652D8DE10E94170C642D5B
:103900008EE10E94170C6A2D606F8FE10E94170CE8
:1039100099278B2D7A2D692D80E20E94170C682D36
:1039200081E20E94170C8F88988CA98CBA8C04E0D5
:10393000801A9108A1080EEFB00A47E0880C991C84
:10394000AA1CBB1C4A95D1F760E08AE20E94170CC2
:1039500061E08BE20E94170C6A2D6370612B8CE290
:103960000E94170C99278B2D7A2D692D8DE20E94CC
:10397000170C682D8EE20E94170C60E08FE20E9407
:10398000170C60E080E30E94170C60E081E30E9466
:10399000170C80915C0290915D02A0915E02B09143
:1039A0005F022F81388549855A85281B390B4A0BC0
:1039B0005B0BDA01C901B7FF07C0B095A0959095E0
:1039C00081959F4FAF4FBF4F813A9648A140B105B7
:1039D00024F060EA81EB0E94170C6FE480E10E9402
:1039E000170C4F8140935C02588550935D02898586
:1039F00080935E02EA85E0935F02EB84E0926002CE
:103A0000FC84F09261020D85009362021E85109382
:103A1000630261E088E00E94E90463EA71E08BE1FF
:103A200094E00E94B803E12C0F81188529853A851E
:103A30004B855C856D857E85CE0101960E9482173F
:103A4000CE0101960E941114CE0101960E945416D7
:103A500087E00E94CD186F960FB6F894DEBF0FBEB8
:103A6000CDBFDF91CF911F910F91FF90EF90DF902D
:103A7000CF90BF90AF909F908F907F906F905F900E
:103A80004F903F902F9008952F81388549855A8512
:103A90006B857C858D859E8507E00E9425345901C4
:103AA0006A017B018C0120E034E04BE654EF64E1D5
:103AB00070E080E090E00E94C8332F8B388F498FF0
:103AC0005A8F60E070E080E090E00E94343319018A
:103AD0002A013B014C01AF84B888C988DA88E12CFF
:103AE000F12C00E010E00E94C8332B8F9101A2015D
:103AF000B301C4010E94C633B901CA010E94E82F74
:103B000020EF3FEF4FE759E40E9449302C8D3D8D67
:103B10004E8D5F8D0E9434320E94AD3224E630E03B
:103B200040E050E00E942D3149015A0110E79ACE41
:103B30003F924F925F926F927F928F929F92AF923D
:103B4000BF92CF92DF92EF92FF920F931F93CF938A
:103B5000DF93D82FE5E0F3E082EADF011D928A953A
:103B6000E9F76D2F8091F0030E94520E61E0809181
:103B7000BB020E94E9048FB7F8944090AD025090C8
:103B8000AE026090AF027090B0028FBF85E0882EC9
:103B900083E0982EBBEA4B0EB2E05B1E611C711CE9
:103BA000C0E092E9392EF40141914F01439DA001FB
:103BB0001124952F990F990B9A01492F592F692F8D
:103BC000792F892FA0906402B0906502C0906602A0
:103BD000D0906702E0906802F090690200916A025A
:103BE00010916B020E943E340E94941B2FB7F894F0
:103BF0008091AD029091AE02A091AF02B091B0025F
:103C00002FBF84159505A605B70530F48BE194E028
:103C10000E943A04892B51F36DE871E08BE194E046
:103C20000E94B8038091BA028A3010F40E94F813FF
:103C30008091BA020E94460E89E292E00E944D0EE7
:103C40008091E1031C2F863009F41695D33009F0DA
:103C50004DC01F5A143608F44EC0812F0E942614FE
:103C600006E010E0F090BB0261E08F2D0E94E904B5
:103C700065E070E080E090E00E948B0560E08F2DB1
:103C80000E94E90462E370E080E090E00E948B050E
:103C90000150110939F78BE194E00E943A048C013C
:103CA000892B61F5CF5FFBEA4F0EF2E05F1E611CCE
:103CB000711CC23A09F077CF0E94171A60E0809118
:103CC000BB020E94E904C801DF91CF911F910F91BF
:103CD000FF90EF90DF90CF90BF90AF909F908F902C
:103CE0007F906F905F904F903F9008951A3008F04A
:103CF000B1CF0E94F8130E94F813AFCF01E010E09B
:103D0000DBCF2F923F924F925F926F927F928F9272
:103D10009F92AF92BF92CF92DF92EF92FF920F935A
:103D20001F93CF93DF93CDB7DEB76F970FB6F8949D
:103D3000DEBF0FBECDBF8091D8039091D90342E082
:103D4000642E029711F4662463948091B902811164
:103D50001EC06CE471E08BE194E06F960FB6F894AE
:103D6000DEBF0FBECDBFDF91CF911F910F91FF90AE
:103D7000EF90DF90CF90BF90AF909F908F907F900B
:103D80006F905F904F903F902F900C94341410924E
:103D9000040310920303E2EFF3E02FEF33E081E03E
:103DA0009191911180E02E173F07D1F7882309F4F4
:103DB00045C060E271E08BE194E00E94341481E040
:103DC0009091D1039134E1F59091D2039134C1F5F2
:103DD0009091D3039033A1F59091D403913481F560
:103DE0009091D503913461F59091D603913441F5CA
:103DF00069E071E08BE194E00E9434146AEE70E0B7
:103E00008BE194E00E9434146F960FB6F894DEBFF5
:103E10000FBECDBFDF91CF911F910F91FF90EF901B
:103E2000DF90CF90BF90AF909F908F907F906F90DA
:103E30005F904F903F902F900C94841B80E0C0CFF8
:103E40008111DCCF1092BA020E94941A0E94592F5D
:103E500028EC30E040E050E00E944F316456710998
:103E60008109910924E630E040E050E00E948C3363
:103E7000A0906402B0906502C0906602D090670284
:103E8000E0906802F090690200916A0210916B0262
:103E90000E943E3420936402309365024093660290
:103EA00050936702609368027093690280936A027C
:103EB00090936B020E94171A81E00E94CD1834E1A2
:103EC000232E312C412C512C8BE194E00E943A049A
:103ED000892B09F093C10E94A209882309F4FBC130
:103EE000CE0101960E94A10D8FE1FE013196A7ED52
:103EF000B4E001900D928A95E1F783E00E94CD181D
:103F00008BE194E00E943A044C01892B09F076C1C0
:103F10008091F50483FFD1C182FB002700F982FF65
:103F2000CCC18091EE0490E09093CA028093C902C4
:103F30001091ED04812F90E09093C8028093C70206
:103F4000E090EC04F12CF0920003E092FF028091EB
:103F5000DF039091E003019731F56091DB047091EC
:103F6000DC048091DD049091DE040E94EA2F25E9B3
:103F70003FEB46ED53E30E9449305B016C016091D9
:103F8000D7047091D8048091D9049091DA040E94EA
:103F9000EA2F25E93FEB46ED53E30E944930A601A5
:103FA00095010E943E0CE114F10409F005C110FDD9
:103FB000A5C08091F1038031E9F08F3009F0E7C0AE
:103FC000E091BA02E250E930A8F4F0E0E651F04E98
:103FD0000C942E33F31F7520872090209920A22067
:103FE000AB20B420BD20112329F0143119F0183270
:103FF00009F084C08091EE039091EF03019709F0DE
:104000004DC06091E1047091E204072E000C880B12
:10401000990B0E94EA2F2AE037ED43E25CE30E940D
:1040200049306B017C016091DF047091E004072E40
:10403000000C880B990B0E94EA2F9B01AC01C70171
:10404000B6010E94C8310E94AD326B017C012CE2A6
:1040500031E040E050E00E942D31822F0E94B90BE8
:10406000182F4CE251E0149FC001159F900D1124B0
:10407000092E000CAA0BBB0BA7019601281B390BBC
:104080004A0B5B0BCA01B901A20191010E942D31BB
:10409000822F0E94B90B782E1093F003862D0E9478
:1040A000981D892B09F0AAC08091E103863009F49C
:1040B00091C08091BA0290E0FC01ED50FC4F8C3031
:1040C000910509F0B4C0209102043091030440919D
:1040D000040450910504A8EEB3E00E946E310E94E2
:1040E000D5148BE00E94CD18ABC0123009F482CFFA
:1040F000163109F47FCF1A3209F47CCF84E00E9494
:10410000CD1882E00E94CD180E9446145AC0163085
:1041100009F470CF1A3109F46DCF1E3279F76ACFE6
:10412000183009F467CF1C3109F464CF103331F72C
:1041300061CF1A3009F45ECF1E3109F45BCF123320
:10414000E9F658CF1C3009F455CF103209F452CF9C
:104150001433A1F64FCF1E3009F44CCF123209F4BC
:1041600049CF163359F646CF103109F443CF1432F4
:1041700009F440CF183311F63DCF123109F43ACF8C
:10418000163209F437CF1A3309F0B8CF33CF8F3056
:1041900008F0B4CF9AE0853010F0855094E11917FB
:1041A00018F0191B1917D8F790E0880F991F1817E6
:1041B000190609F41FCFA2CF29E3E216F1040CF48B
:1041C0009DCF82E090E00E94AB1564E670E080E055
:1041D00090E070C068E273E280E090E00E948B059E
:1041E0008091EE039091EF03019711F47092F00328
:1041F00083E00E94981D892B09F45BCF6F960FB660
:10420000F894DEBF0FBECDBFDF91CF911F910F910C
:10421000FF90EF90DF90CF90BF90AF909F908F90E6
:104220007F906F905F904F903F902F9008950196F0
:104230002191211100E08C309105CCF3011143CF85
:104240000E94941A0E94592F28EC30E040E050E080
:104250000E944F31645671098109910924E630E0CA
:1042600040E050E00E948C33A0906402B090650260
:10427000C0906602D0906702E0906802F0906902F8
:1042800000916A0210916B020E943E3420936402F6
:104290003093650240936602509367026093680210
:1042A0007093690280936A0290936B0268EB7BE0E3
:1042B00080E090E00E94D5140ECE0E94461481E06A
:1042C00090E00E94AB1585E00E94CD1860E971E096
:1042D00080E090E0EFCF3FEF831A930A41E384162A
:1042E00045E794060CF4F0CD66ED70E08BE194E0C8
:1042F0000E94341469EC70E088EB94E00E9434145E
:1043000060ED77E080E090E00E94D514912C812C44
:10431000DBCDCF92DF92EF92FF92CF938091B902E3
:1043200081110BC068E870E08BE194E0CF91FF90C1
:10433000EF90DF90CF900C94341481E090E0909354
:1043400004038093030320910604309107044091F5
:1043500008045091090460910A0470910B04809143
:104360000C0490910D0420936402309365024093F5
:1043700066025093670260936802709369028093AB
:104380006A0290936B020E94DC326B017C012CEF7D
:1043900030E441E451E50E94E32FCEE087FFCFE017
:1043A00028E430E341E850E5C701B6010E94E32F5D
:1043B00087FDCDE02AE93BEA4AEF5FE4C701B60199
:1043C0000E94E32F87FDCCE02EEF3DED43EB5FE451
:1043D000C701B6010E94E32F87FDCBE02EE63CE249
:1043E00049E45FE4C701B6010E94E32F87FDCAE0FC
:1043F0002EE039E442E35FE4C701B6010E94E32FF7
:1044000087FDC9E02DE134EE46E15FE4C701B60166
:104410000E94E32F87FDC8E02AEF3CE64DEE5EE404
:10442000C701B6010E94E32F87FDC7E02FE139EAFB
:1044300049EC5EE4C701B6010E94E32F87FDC6E0A8
:1044400026E83EE041E95EE4C701B6010E94E32FA1
:1044500087FDC5E02CE33BE649E45EE4C701B60115
:104460000E94E32F87FDC4E023E638E44CEC5DE4D2
:10447000C701B6010E94E32F87FDC3E027E93AE5B3
:1044800042E55DE4C701B6010E94E32F87FDC2E06B
:1044900029E132EC49E55CE4C701B6010E94E32F53
:1044A00087FDC1E021E235EC4BE75BE4C701B601D3
:1044B0000E94E32F87FDC0E08C2F0E94411A2091BB
:1044C00064023091650240916602509167026091EA
:1044D00068027091690280916A0290916B020E9459
:1044E000941B61E08091BB020E94E90481E00E947C
:1044F000CD1886E0CF91FF90EF90DF90CF900C9495
:10450000CD18FF920F931F93CF93DF93EC01F62EFC
:1045100008811981C8010E940731F81621F06F2D1A
:10452000C8010E940F31CE01DF91CF911F910F91F1
:10453000FF900895CF92DF92EF92FF920F931F9317
:10454000CF93DF9300D000D000D0CDB7DEB7D82E08
:1045500027EAE22E23E0F22E10E000E08823D9F0D3
:104560003DEBE32E32E0F32E00E911E01A830983DC
:10457000F70161917F01CE0101960E9481220F5FB8
:104580001F4F0A39F1E01F0789F78AE0E82EF12C66
:1045900000E911E013C01A830983F70161917F01DB
:1045A000CE0101960E9481220F5F1F4F0736110531
:1045B00091F797E6E92EF12C10E000E08D2D0E9496
:1045C0005C1669837A838B839C83E00EF11E6E01F7
:1045D000F5E0CF0ED11C8E010F5F1F4FE01AF10ADC
:1045E000C701800F911F9E838D83F80161918F0118
:1045F000C6010E948122C016D10691F726960FB6F9
:10460000F894DEBF0FBECDBFDF91CF911F910F9108
:10461000FF90EF90DF90CF9008951F920F920FB60A
:104620000F9211242F933F934F935F936F937F9338
:104630008F939F93AF93BF93EF93FF938BE194E09E
:104640000E945A04FF91EF91BF91AF919F918F917A
:104650007F916F915F914F913F912F910F900FBE7E
:104660000F901F9018951F920F920FB60F92112462
:104670002F938F939F93EF93FF93E0912B04F091EF
:104680002C048081E0913104F091320482FD1BC042
:104690009081809134048F5F8F732091350482174D
:1046A00041F0E0913404F0E0E55EFB4F958F80939C
:1046B0003404FF91EF919F918F912F910F900FBE36
:1046C0000F901F9018958081F4CF1F920F920FB614
:1046D0000F9211242F933F938F939F93AF93BF9388
:1046E0008091AD029091AE02A091AF02B091B00264
:1046F0003091AC0226E0230F2D3758F50296A11D0C
:10470000B11D2093AC028093AD029093AE02A093B2
:10471000AF02B093B0028091B1029091B202A09129
:10472000B302B091B4020196A11DB11D8093B102F4
:104730009093B202A093B302B093B402BF91AF9131
:104740009F918F913F912F910F900FBE0F901F90CF
:10475000189529E8230F0396A11DB11DD2CF1F92F2
:104760000F920FB60F9211242F933F934F935F93A5
:104770006F937F938F939F93AF93BF93EF93FF9329
:10478000E091B702F091B802309749F0A685B7855D
:104790008585968D91FF14C09C918923A1F4FF918A
:1047A000EF91BF91AF919F918F917F916F915F91A9
:1047B0004F913F912F910F900FBE0F901F90189522
:1047C0009C91892361F7A389B4899C9185898095FF
:1047D00089238C93868997890197F1F7608D718D74
:1047E000A685B785558538E020E0CB010197F1F724
:1047F000822F90E095958795282F4C91452309F0BD
:104800002068315091F7868D81FD20958091B60208
:1048100090E001968F7399273091B502381799F07F
:10482000A091B602B0E0A459BD4F2C938093B6027C
:10483000828D938D0197F1F7A389B4898C91958925
:10484000892B8C93ACCF868D8160868FF1CFCF92F0
:10485000DF92EF92FF9210921E0410921D0498EEC8
:10486000C92E93E0D92EE12CF12CC0921F04D092D6
:104870002004E0922104F092220483E092E09093DD
:104880001C0480931B0485EC90E090932804809393
:10489000270484EC90E090932A048093290480EC10
:1048A00090E090932C0480932B0481EC90E0909303
:1048B0002E0480932D0482EC90E09093300480933A
:1048C0002F0486EC90E09093320480933104109290
:1048D000340410923504109236041092370488E69E
:1048E00095E00E947E0D8DE895E00E947E0D10926D
:1048F000F7041092F8041092F9041092FA0410923E
:10490000FB041092FC041092FD041092FE0410921D
:10491000FF0410920005109201051092020588E62E
:1049200095E00E947E0D1092670510928C0587ED30
:1049300094E00E947E0D1092BB041092BA04C092C3
:10494000BC04D092BD04E092BE04F092BF0485E1A5
:1049500092E09093B9048093B8041092CF0410921F
:10496000CE041092D1041092D0041092D30410926D
:10497000D2041092D5041092D4046091D6046E7FB4
:104980006D7F6093D6046695617081E0682783E04F
:104990000E94E90461E083E00E943505E7E9F4E064
:1049A000E491E093C804E3E8F4E0E491F0E0EE0F72
:1049B000FF1FEA58FB4F859194919093CA0480930E
:1049C000C90460E082E00E9435058091D60481FD33
:1049D00004C061E082E00E94E90482E08093C404A4
:1049E000E6E9F4E0E491E093C504E2E8F4E0E49160
:1049F000F0E0EE0FFF1FE459FB4F859194919093E7
:104A0000C7048093C604FF90EF90DF90CF90089585
:104A1000CF93DF93CDB7DEB7C556D1090FB6F89463
:104A2000DEBF0FBECDBF789484B5826084BD84B5EF
:104A3000816084BD85B5826085BD85B5816085BD99
:104A400080916E00816080936E0010928100809151
:104A500081008260809381008091810081608093D9
:104A60008100809180008160809380008091B100FE
:104A700084608093B1008091B00081608093B00029
:104A800080917A00846080937A0080917A008260BD
:104A900080937A0080917A008E7F80937A00809153
:104AA0007A00806880937A001092C1008CE5809330
:104AB000B8001092B9008FEF8093BB001092640091
:104AC000E0912B04F0912C0482E08083E091270494
:104AD000F09128041082E0912904F0912A0487E6DD
:104AE000808310923304E0912F04F091300486E02B
:104AF0008083E0912D04F0912E0480818061808379
:104B0000E0912D04F0912E04808188608083E091F3
:104B10002D04F0912E04808180688083E0912D0423
:104B2000F0912E0480818F7D808380ED97E0A0E05E
:104B3000B0E080931F0490932004A0932104B093CD
:104B400022041092D3041092D2041092D104109235
:104B5000D0041092CF041092CE048DEC90E090938C
:104B6000D5048093D4049091C404963108F047C0D2
:104B700025E530E03093CF042093CE042BEC30E0D9
:104B80003093D1042093D00420E930E03093D30453
:104B90002093D2042091680084E0983048F031E0FE
:104BA0009E3008F430E081E001C0880F3A95EAF7C2
:104BB000822B809368002DE630E0983050F02BE691
:104BC00030E09E3030F02CE630E0963110F030E0EE
:104BD00020E03093CC042093CB04292F30E0983090
:104BE00008F08FC181E001C0880F9A95EAF78093A1
:104BF000CD048091D4049091D5040197F1F7809170
:104C0000D2049091D304892B49F1E091B702F0913D
:104C1000B80224E0E83BF20709F1309739F0A389A4
:104C2000B4899C918589809589238C938091D60441
:104C30008E7F8093D6041092B6021092B50288EB54
:104C400094E09093B8028093B702E091CB04F09186
:104C5000CC0480819091CD04892B808381E00E94D7
:104C60000717811128C06BE173E08BE194E00E948B
:104C7000341461EB72E08BE194E00E94341481E023
:104C80008093BD028CE298E7ADE7B1E08093BF026C
:104C90009093C002A093C102B093C20281E18093BD
:104CA000BE0282E68093C30283E68093C4028093AF
:104CB000C5028093C60280E00E940717882309F48A
:104CC0002DC18091CF039091D003909304038093E2
:104CD00003031092D7031092E6031092ED0384E0D1
:104CE00090E09093BC028093BB0266E572E08BE19A
:104CF00094E00E94341461E086E00E94350561E092
:104D000087E00E94350560E086E00E94E90460E0EB
:104D100087E00E94E90461E08091BB020E943505B2
:104D200061E088E00E9435056EE372E08BE194E07B
:104D30000E94B80381E00E94460E8EE492E00E9439
:104D40004D0E8AE00E94261480E190E00E94AB158F
:104D500080E4EFEBF1E0DE01119601900D928A956F
:104D6000E1F724E630E088248A94982C5401E0E4AA
:104D7000E0937C0080917A00806480937A00809137
:104D80007A0086FDFCCF8091780090917900B50182
:104D9000A40148274F70552766277727440F551FD2
:104DA000440F551F61E070E06C0F7D1F460F571FC9
:104DB000DA014D915D916D917C91F4E0B694A794E8
:104DC00097948794FA95D1F7482559256A257B252C
:104DD000A4E095958795AA95E1F78F709927092EFC
:104DE000000CAA0BBB0B84279527A627B7278F702B
:104DF0009927AA27BB27880F991F880F991FA1E021
:104E0000B0E0AC0FBD1F8A0F9B1FDC018D909D9001
:104E1000AD90BC9014E076956795579547951A9597
:104E2000D1F784269526A626B72680949094A09440
:104E3000B0942150310909F09BCF89288A288B280A
:104E400011F00E94592F80E68093B9020E940C0C49
:104E500080EC0E94F70B182F0E94040C183179F097
:104E600082E68093B9020E940C0C84EC0E94F70B3E
:104E7000182F0E94040C183111F01092B902809181
:104E80000303909104038130910509F4DAC008F41A
:104E9000DBC0029709F4DDC04E01BAE08B0E911C15
:104EA0003E012DE0620E711C22E0A22EB12C8BE19E
:104EB00094E00E943A04892B09F4F3C6CC24C394ED
:104EC000D12C92E0F92E8BE194E00E943A0418165E
:104ED00019060CF0E6C68BE194E00E9418048A30B3
:104EE00009F4BAC08D3079F3E091FE02E13358F74E
:104EF00091E09E0F9093FE02F0E0E453FD4F80831B
:104F0000E2CF9E3040F42850310981E001C0880F83
:104F10002A95EAF76CCE2E503109F7CF41E050E0E8
:104F2000509304034093030387E58093A70383E52D
:104F30008093A80380E58093A90382E58093AA0368
:104F400080E28093AB0384E58093AC0388E5809393
:104F5000AD031092AE0322E030E03093D0032093F3
:104F6000CF0381E48093D1038093D20390E39093A5
:104F7000D3038093D4038093D5038093D6031092F8
:104F8000D7035093E0034093DF038093E2038093C1
:104F9000E3039093E4039093E5031092E603809378
:104FA000E7038093E8039093E9039093EA038093E7
:104FB000EB038093EC031092ED0384E08093E10314
:104FC0001092EF031092EE0387E18093F00380E1EB
:104FD0008093F1033093D9032093D803E2EFF3E0F9
:104FE00082E094E011928E179F07E1F781E08093B1
:104FF000F7038093F80380EE91E0A0E0B0E08093A7
:10500000020490930304A0930404B0930504109247
:1050100006048AEC809307048AE9809308048BE3F2
:105020008093090410920A0410920B0410920C044D
:1050300010920D046CE772E08BE194E00E9434144E
:105040004ECE0E94892128CF1092BA020E94811E62
:1050500023CF0E94841B20CFE091FE02F0E0E453B6
:10506000FD4F10828091CC028B3509F0B6C3809140
:10507000D0028D3509F0B1C38091CD02833409F09F
:1050800049C08091CE028334D9F48091CF028D340F
:10509000B9F48091D202833509F0A2C38091D40281
:1050A000833511F40E9489218091D402873511F44F
:1050B0000E94811E8091D4028E3411F40E94841BC0
:1050C0008091CE02833589F48091CF02853469F4D2
:1050D0008091D202833549F480E00E949A226EE2E8
:1050E00074E08BE194E00E9434148091CE02833509
:1050F00089F48091CF028C3469F48091D202833597
:1051000049F48091D402813409F06EC31092CB022D
:105110000E94221A8091CD028F3409F052C18091F1
:10512000CE02843599F58091CF02803579F5809152
:10513000D202833509F06AC38091D40289838091B9
:10514000D5028A838091D6028B838091D7028C838B
:105150008091D8028D831E82BE016F5F7F4FCE018A
:105160008F5B9F4F0E944316CE018F5B9F4F0E9423
:105170001F0D2093020430930304409304045093C2
:105180000504CE018F5B9F4F0E9454168091CE0282
:10519000833591F48091CF028D3471F48091D202E5
:1051A000833509F093C38091D402833509F07FC31E
:1051B000D092D003C092CF038091CE028234F9F412
:1051C0008091CF028434D9F49091D4028091D50299
:1051D0002091D20299838A831B821C82233509F095
:1051E00091C3CE0101960E94B12FFC01EE50FC4FFD
:1051F00091E08091D702853409F090E0908380910E
:10520000CE028C3409F096C08091CF02833409F02D
:1052100075C08091D202833509F09EC38091D4027B
:10522000873409F05FC0D092E003C092DF0360E1F1
:1052300074E08BE194E00E9434148091F50483FFC4
:1052400051C082FF4FC08091EE0490E09093CA025B
:105250008093C9028091ED0490E09093C8028093FE
:10526000C7028091EC0490E0909300038093FF02CA
:105270006091DB047091DC048091DD049091DE0488
:105280000E94EA2F25E93FEB46ED53E30E944930A7
:105290001B012C016091D7047091D8048091D9042E
:1052A0009091DA040E94EA2F25E93FEB46ED53E3A3
:1052B0000E944930A20191010E943E0C69E074E015
:1052C0008BE194E00E94B80382EE93E00E94001408
:1052D00062E074E08BE194E00E94B80387EE93E013
:1052E0000E9400148091D4028D3421F41092E003C6
:1052F0001092DF038091CE028C34E1F48091CF02D2
:105300008035C1F48091D2026DEE73E0833551F4A3
:105310008091D402863309F033C376E07093E103C1
:1053200064EF73E08BE194E00E94B8038091E103A5
:105330000E9426148091CE02803591F48091CF0294
:10534000873571F48091D202833509F025C38091AD
:10535000D4028E3409F018C31092EF031092EE03BA
:105360008091CE028435B9F48091CF02833599F4CF
:105370008091D202833509F023C38091D4028983BE
:105380008091D5028A831B821C82CE0101960E94E5
:10539000B12F8093F1038091CE02803591F48091FA
:1053A000CF02833571F48091D202833509F028C38E
:1053B0008091D402803509F014C3D092D903C092F1
:1053C000D8038091CD02843409F01BC18091CE02B4
:1053D000833419F58091CF028335F9F48091D2029C
:1053E000833509F029C38091D4028093D103809141
:1053F000D5028093D2038091D6028093D30380910B
:10540000D7028093D4038091D8028093D5038091F2
:10541000D9028093D6031092D7038091CE028335B0
:10542000C9F48091CF028634A9F48091D2028335E9
:1054300009F00DC38091D40289838091D5028A83BB
:105440008091D6028B831C82CE0101960E94B12FDF
:105450008093DE038091CE028035B9F48091CF0233
:10546000863499F48091D202833509F007C3809184
:10547000D4028093DA038091D5028093DB0380917C
:10548000D6028093DC031092DD038091CE028C342F
:10549000D9F48091CF028433B9F48091D20283355C
:1054A00009F0F7C28091D4028093E2038091D50283
:1054B0008093E3038091D6028093E4038091D70226
:1054C0008093E5031092E6038091CE028C3419F5A7
:1054D0008091CF028633F9F48091D202833509F0AE
:1054E000E3C28091D4028093E7038091D502809338
:1054F000E8038091D6028093E9038091D7028093DC
:10550000EA038091D8028093EB038091D9028093C3
:10551000EC031092ED038091CE028E34B1F48091B1
:10552000CF028D3491F48091D202833509F0C7C245
:10553000A4EDB2E0E7EAF3E08D9181936EEC73E0C5
:105540006E177F07C9F71092CE038091CE02803587
:10555000B9F48091CF02843499F48091D2028335DA
:1055600009F0B8C28091D40289838091D5028A83E0
:105570001B821C82CE0101960E94B12F8093F00302
:105580008091CE028734E9F58091CF028634C9F547
:105590008091D202833509F0AEC2A4EDB2E0FE01E3
:1055A00031968D918193E615F705D9F71D86BE01D9
:1055B0006F5F7F4FCE018F5B9F4F0E944316CE01DE
:1055C0008F5B9F4F0E941F0D2093060430930704AA
:1055D000409308045093090460930A0470930B04E9
:1055E00080930C0490930D04CE018F5B9F4F0E941B
:1055F00054168091030390910403019711F40E94C3
:1056000089218091CD02863409F0E7C08091CE02D5
:105610008035D9F48091CF028E34B9F48091D202D2
:10562000873499F469E973E08BE194E00E94B80350
:105630000E94F8134AE063EF73E080E090E00E947C
:10564000D40D8BE194E00E94FC138091CE0288344B
:10565000C9F48091CF028635A9F48091D2028335B6
:1056600009F071C28091D40289838091D5028A8326
:105670008091D6028B831C82CE0101960E94B12FAD
:105680008093BD028091CE028834C9F48091CF020C
:105690008235A9F48091D202833509F06BC28091E2
:1056A000D40289838091D5028A838091D6028B832C
:1056B0001C82CE0101960E94B12F8093BE02809180
:1056C000CE02833589F48091CF02863569F48091CA
:1056D000D202873449F464E873E08BE194E00E94DD
:1056E000B80381E00E9426148091CE02833589F4AC
:1056F0008091CF02823569F48091D202873449F4D7
:105700006DE773E08BE194E00E94B8038AE00E94A9
:1057100026148091CE028C34D1F48091CF02803552
:10572000B1F48091D202833509F059C28091D6023A
:1057300089838091D7028A831B828091D40282342C
:1057400009F43FC20CF02AC2813409F433C28091BB
:10575000CE02823569F58091CF02863449F5809179
:10576000D202833509F07CC2A4EDB2E0FE0131968D
:105770008D918193E815F905D9F71A86BE016F5FFF
:105780007F4FCE018F5B9F4F0E944316CE018F5BF0
:105790009F4F0E941F0D2093BF023093C002409381
:1057A000C1025093C202CE018F5B9F4F0E945416DC
:1057B0008091CE02833589F48091CF02853469F4DB
:1057C0008091D202833549F481E00E949A2269E3F4
:1057D00073E08BE194E00E9434141092FE0273CBCC
:1057E00081E00E94CD186CCC823421F481E080935A
:1057F000CB028ECC833419F4F092CB0289CC843462
:1058000009F086CC63E06093CB0282CC67E274E05F
:105810008BE194E00E94B80380910204909103040C
:10582000A0910404B091050480319742A105B1050F
:1058300010F40E94F8138091020490910304A09147
:105840000404B0910504883E9340A105B10510F40D
:105850000E94F8138091020490910304A091040423
:10586000B091050484369105A105B10510F40E949C
:10587000F8138091020490910304A0910404B09164
:1058800005040A97A105B10510F40E94F813609170
:1058900002047091030480910404909105044AE08D
:1058A0000E94D40D8BE194E00E94FC136FCC8735ED
:1058B00029F41092D0031092CF037ECC8E3409F0DD
:1058C0007BCCB092D003A092CF0376CC60E274E0A0
:1058D0008BE194E00E94B8038091CF039091D003B4
:1058E0008130910561F040F0029709F065CC89E3C1
:1058F00092E00E94001460CC8BE392E0FACF8DE33B
:1059000092E0F7CF69E174E08BE194E00E94B80384
:10591000CE0101960E94B12F8C011C01990F440801
:1059200055086AE0261631044104510410F40E941F
:10593000F8134AE0C201B1010E94D40DF801EE5003
:10594000FC4F8081882329F080E592E00E940014BA
:1059500056CC83E592E0FACF6BEF73E08BE194E0F5
:105960000E94B8038091DF039091E003019729F42E
:1059700086E592E00E940014BDCC88E592E0FACF63
:1059800084E08093E103CCCC813409F0E9CCD0925F
:10599000EF03C092EE03E4CC66EE73E08BE194E09B
:1059A0000E94B8038091EE039091EF03892B29F4B4
:1059B00089E392E00E940014D3CC81E492E0FACF14
:1059C0006FED73E08BE194E00E94B8038091F103E6
:1059D0008A3010F40E94F8138091F1030E9426147B
:1059E000DACC833529F41092D9031092D803E9CC8C
:1059F0008E3409F0E6CCB092D903A092D803E1CC62
:105A000068ED73E08BE194E00E94B8038091D803C5
:105A10009091D9038130910539F058F0029709F03F
:105A2000D0CC89E392E002C08AE592E00E940014A3
:105A3000C8CC8DE392E0FACF61ED73E08BE194E0A6
:105A40000E94B80381ED93E00E940014E6CC6AEC5A
:105A500073E08BE194E00E94B8038091DE0384360A
:105A600010F40E94F8138091DE038A3010F40E9433
:105A7000F8138091DE030E942614ECCC63EC73E0F3
:105A80008BE194E00E94B8038AED93E00E94001439
:105A9000FCCC6CEB73E08BE194E00E94B80382EEE7
:105AA00093E00E94001410CD65EB73E08BE194E06D
:105AB0000E94B80387EE93E00E9400142CCD6EEA9A
:105AC00073E08BE194E00E94B80387EA93E00E94C0
:105AD00000143BCD67EA73E08BE194E00E94B803C9
