:100000000C945C020C9484020C9484020C940A24D8
:100010000C940A240C940A240C9484020C948402F8
:100020000C9484020C9484020C9484020C94840238
:100030000C9484020C9484020C9484020C94840228
:100040000C94C0230C9484020C948E230C9468238B
:100050000C9484020C9484020C9484020C94840208
:100060000C9484020C9484025A4441005654470074
:10007000524D4300475356004753540047534100E5
:10008000474C4C00474741007B4D494E7D486172CB
:100090006477617265204552524F5221204E6F2085
:1000A00053693533353120504C4C20646576696393
:1000B0006520666F756E64206F6E207468652049D8
:1000C00032432062757373210024504D544B3136F6
:1000D000312C302A323800245043415331302C33F4
:1000E0002A3146007B4D494E7D20526573657474FC
:1000F000696E6720475053007B4D494E7D43616ECA
:10010000206E6F74207374617274205753505220A4
:10011000426561636F6E007B4D494E7D43616C6C3F
:10012000205369676E206E6F7420736574007B4D79
:10013000494E7D5472616E6D697373696F6E20698B
:1001400073206E6F7420656E61626C6564206F6EE3
:1001500020616E792062616E64007B4D494E7D485E
:1001600061726477617265204552524F5221204E70
:100170006F2053693533353120504C4C20646576FF
:1001800069636520666F756E64206F6E20746865A4
:1001900020493243206275737321007B5457537D8D
:1001A00020007B4D50537D2030007B4D50537D20EF
:1001B000007B5446517D20007B4C50497D20007BC4
:1001C0004D56437D20007B5443437D007B544F4E6E
:1001D0007D2046007B544F4E7D2054007B54465179
:1001E0007D20007B474C437D2046007B474C437D70
:1001F0002054007B47544D7D20007B474C367D20AA
:10020000007B474C347D20007B544F4E7D205400B2
:100210007B544F4E7D2046007B544F4E7D20460040
:100220007B43434D7D20007B4753497D20000000E8
:100230000000240027002A0000000008000201003E
:100240000003040700000000000000007B4D494E41
:100250007D204669726D776172652076657273697B
:100260006F6E20007B4D494E7D205A616368546556
:100270006B2057535052204D696E69207472616E25
:10028000736D6974746572007B4D494E7D204E6FAD
:1002900020757365722064617461207761732066D4
:1002A0006F756E642C2073657474696E6720646565
:1002B0006661756C742076616C756573007B4D4961
:1002C0004E7D20596F75206E65656420746F2072B5
:1002D000756E20666163746F7279207365747570D2
:1002E00020746F20636F6D706C6574652074686531
:1002F00020636F6E66696775726174696F6E2C201A
:100300006775657373696E67206F6E2063616C69D2
:1003100062726174696F6E2076616C7565732066B8
:100320006F72206E6F77007B4D494E7D204E6F209F
:10033000666163746F7279206461746120666F75A1
:100340006E642021007B4D494E7D20466163746FB1
:1003500072792064617461207361766564007B4604
:1003600052467D20007B464C507D204420007B4639
:100370004C507D204320007B464C507D2042200085
:100380007B464C507D204120007B4653527D20000F
:100390007B4653567D20007B4648527D20007B469D
:1003A00048567D20007B46504E7D20007B444746CA
:1003B0007D20007B4450447D20007B444E4D7D20B9
:1003C000007B444C367D20007B444C347D20007BF8
:1003D0004450467D20007B4453467D20007B4443AF
:1003E000537D20007B4F50537D20007B4F54537D25
:1003F00020007B4F50577D20007B4F4C507D2000CC
:100400007B4F4C507D20007B4F4C437D20007B4434
:100410004C367D20007B444C347D20007B4F4C4388
:1004200020477D20007B4F42447D20007B4F534D71
:100430007D20007B4F54507D20007B4D494E7D2018
:10044000436F6E66696775726174696F6E20736160
:10045000766564007B4D494E7D20526573657474EA
:10046000696E672047505300840080007C0078004C
:10047000740070006C00680000000000230026007B
:10048000290000000000250028002B0004040404BB
:10049000040404040202020202020303030303032E
:1004A000010204081020408001020408102001020B
:1004B0000408102082245A2F11241FBECFEFD8E049
:1004C000DEBFCDBF12E0A0E0B1E0ECE0F3E702C098
:1004D00005900D92AC35B107D9F725E0ACE5B2E057
:1004E00001C01D92A43BB207E1F712E0CBE5D2E0D8
:1004F00004C02197FE010E949733CA35D107C9F77E
:100500000E9463250C9479390C940000FC018091C1
:100510008A0581111AC01182108213821282809181
:100520008C05826080938C0510928B0591E06D3272
:1005300009F090E080918C0590FB80F980938C0508
:100540006D3209F06EC080E008956C3299F58091AB
:100550008B05811103C081E080938B05828193819B
:10056000892B99F05AE080918B0591E0980F909338
:100570008B05481750F022813381529FC001539F51
:10058000900D112493838283EECF90918C05892F57
:10059000817090FF44C022813381319521953109CA
:1005A0003383228320813181319521953109318333
:1005B000208308956E3221F481E080938B05C3CFB0
:1005C00080918B05811112C0208131814AE0429FC8
:1005D000C001439F900D1124062E000C770B605331
:1005E0007109680F791F71836083ADCF91E0980F17
:1005F00090938B05481708F4A6CF228133814AE0F7
:10060000429FC001439F900D1124062E000C770BD2
:1006100060537109680F791F7383628394CF81E0FF
:1006200008956C3209F497CF6E3271F6C5CF8133DD
:1006300011F0813421F483E08093860508C0803373
:1006400021F08E3411F0863541F4109286058091A8
:1006500087058160809387050895823311F0843483
:1006600011F484E0E9CF833311F487E0E5CF8433DC
:1006700011F486E0E1CF853311F485E0DDCF8633D8
:1006800011F0853449F781E0D7CFE0918A05E93050
:10069000F0F4F0E0E25BFC4F0C94973357036903EE
:1006A0006E0376037B038303880390039A031092FF
:1006B00085058C3261F090918C05926090938C0549
:1006C00080539AE0899F802D11248093800581E0DA
:1006D0000895909180059053890FF7CF80539AE049
:1006E000899F802D112480937F05F1CF90917F0504
:1006F0009053890FF8CF80539AE0899F802D112461
:1007000080937E05E4CF90917E059053890FF8CFBA
:100710008C32E9F680918705846080938705D7CF76
:100720008C32C1F380539AE0899F802D11248093ED
:100730008505CDCF8C3271F3909185059053890F4B
:1007400080938505E7CFFC0180918C058E7F809397
:100750008C0580918A05811106C06C3269F0605366
:10076000608381E008956C32E1F3808160539AE008
:10077000899F600D1124F4CF80E00895EF92FF92DD
:100780000F931F93CF93DF938C017B01D0E0C0E0E8
:10079000F701EC0FFD1F6491662361F0D801ED9124
:1007A000FC910190F081E02DC8010995892B11F091
:1007B0002196EECFCE01DF91CF911F910F91FF9047
:1007C000EF900895AF92BF92CF92DF92EF92FF9297
:1007D0000F931F93CF93DF936C017B018B01040F69
:1007E000151FEB015E01AE18BF08C017D10759F005
:1007F0006991D601ED91FC910190F081E02DC60147
:100800000995892B79F7C501DF91CF911F910F9140
:10081000FF90EF90DF90CF90BF90AF900895FC01D4
:10082000538D448D252F30E0842F90E0821B930B55
:10083000541710F0CF96089501970895FC01918DFB
:10084000828D981761F0A28DAE0FBF2FB11D5D96FE
:100850008C91928D9F5F9F73928F90E008958FEFA0
:100860009FEF0895FC01918D828D981731F0828D54
:10087000E80FF11D858D90E008958FEF9FEF0895AB
:10088000FC01918D228D892F90E0805C9F4F821B0F
:1008900091098F73992708958CE194E00E94400498
:1008A00021E0892B09F420E0822F089580E090E078
:1008B000892B29F00E944C0481110C9400000895AA
:1008C000FC01A48DA80FB92FB11DA35ABF4F2C91C5
:1008D000848D90E001968F739927848FA689B789BC
:1008E0002C93A089B1898C91837080648C93938DB3
:1008F000848D981306C00288F389E02D80818F7D56
:1009000080830895EF92FF920F931F93CF93DF930D
:10091000EC0181E0888F9B8D8C8D98131AC0E8893B
:10092000F989808185FF15C09FB7F894EE89FF890A
:100930006083E889F98980818370806480839FBFA8
:1009400081E090E0DF91CF911F910F91FF90EF90A8
:100950000895F62E0B8D10E00F5F1F4F0F731127B8
:10096000E02E8C8D8E110CC00FB607FCFACFE889F3
:10097000F989808185FFF5CFCE010E946004F1CF17
:10098000EB8DEC0FFD2FF11DE35AFF4FF0829FB767
:10099000F8940B8FEA89FB8980818062CFCFCF9357
:1009A000DF93EC01888D8823B9F0AA89BB89E88997
:1009B000F9898C9185FD03C0808186FD0DC00FB63D
:1009C00007FCF7CF8C9185FFF2CF808185FFEDCFBB
:1009D000CE010E946004E9CFDF91CF91089590E0AD
:1009E000FC01E85CFD4F2491FC01E056FB4F349183
:1009F000FC01E457FB4FE491EE23C9F0222339F0C8
:100A0000233001F1A8F4213019F1223029F1F0E06E
:100A1000EE0FFF1FEE57FB4FA591B4918FB7F894DF
:100A2000EC91611126C030953E233C938FBF089511
:100A30002730A9F02830C9F0243049F78091800090
:100A40008F7D03C0809180008F7780938000DFCFFF
:100A500084B58F7784BDDBCF84B58F7DFBCF80914C
:100A6000B0008F778093B000D2CF8091B0008F7D9F
:100A7000F9CF3E2BDACFCF93DF9390E0FC01E05625
:100A8000FB4F249184579B4FFC0184918823D1F024
:100A900090E0880F991FFC01E25DFD4FA591B49194
:100AA000FC01EE57FB4FC591D49161110EC09FB769
:100AB000F8948C91E22FE0958E238C932881E22389
:100AC000E8839FBFDF91CF9108958FB7F894EC91A1
:100AD000E22BEC938FBFF6CF3FB7F8948091B10231
:100AE0009091B202A091B302B091B40226B5A89B36
:100AF00005C02F3F19F00196A11DB11D3FBFBA2FB0
:100B0000A92F982F8827BC01CD01620F711D811D6F
:100B1000911D43E0660F771F881F991F4A95D1F7F3
:100B200008958F929F92AF92BF92CF92DF92EF92F1
:100B3000FF924B015C010E946C056B017C010E94DD
:100B40006C056C197D098E099F09683E734081050B
:100B50009105A8F321E0821A9108A108B10888EE56
:100B6000C80E83E0D81EE11CF11C81149104A1047D
:100B7000B10429F7FF90EF90DF90CF90BF90AF9036
:100B80009F908F9008958F929F92AF92BF92CF9235
:100B9000DF92EF92FF926B017C01BC01A60182E023
:100BA00076956795579547958A95D1F7D701C601F0
:100BB00024E0B695A795979587952A95D1F7840F48
:100BC000951FA61FB71F4C015D0134E0B694A79492
:100BD000979487943A95D1F7880D991DAA1DBB1D4E
:100BE000892E9A2EAB2EBB24880E991EAA1EBB1EE0
:100BF000C501AA27BB27880E991EAA1EBB1EA3E00B
:100C0000B0E0A50194010E94D731A7019601261BEF
:100C1000370B480B590BABE0B0E00E94D731E5E051
:100C20009695879577956795EA95D1F7680D791D23
:100C30008A1D9B1DFF90EF90DF90CF90BF90AF90EB
:100C40009F908F900895CF92DF92EF92FF921F9323
:100C5000CF93DF93EC01162F80918A0581110BC091
:100C6000188219821A821B8210928B0580918C0542
:100C7000826080938C051E3291F11C3209F064C0B1
:100C800080918B05882359F180918B05843009F080
:100C90007CC0288139814A815B81A4E6B0E00E9452
:100CA000D731688379838A839B83C880D980EA801F
:100CB000FB80C701B601660F771F881F991F6F5F02
:100CC0007F4F8F4F9F4F0E94C305C60ED71EE81E51
:100CD000F91EC882D982EA82FB8281E02AC081E0C3
:100CE00080938B052981822F82958F702F703AE037
:100CF000839F200D11248A8181112C598881982F7E
:100D000092959F708F703AE0939F800D11249CE321
:100D1000299F90011124820F932F911D092E000C01
:100D2000AA0BBB0B88839983AA83BB831E3249F429
:100D300080E0DF91CF911F91FF90EF90DF90CF90F7
:100D400008951C3209F4A0CF80918B05811143C016
:100D500088819981AA81BB8134E0880F991FAA1FDD
:100D6000BB1F3A95D1F7412F110F550B4053510935
:100D7000052E000C660B770B842B952BA62BB72B1F
:100D800088839983AA83BB83D3CF853039F42881A4
:100D900039814A815B81AAE0B0E081CF863009F4D5
:100DA00084CF08F09ACF288139814A815B81A8EEEF
:100DB000B3E0833009F473CF823019F4A0E1B7E2D5
:100DC0006ECF813009F071CF60EA76E881E090E083
:100DD0000E94863166CF8F5F80938B058730C0F489
:100DE000288139814A815B81AAE0B0E00E94D73135
:100DF000212F110F330B205331096901330FEE08F6
:100E0000FF08DC01CB018C0D9D1DAE1DBF1DB8CFB1
:100E1000873009F08DCFC880D980EA80FB80C70178
:100E2000B601660F771F881F991F6F5F7F4F8F4F27
:100E30009F4F0E94C3056C0D7D1D8E1D9F1D193394
:100E40004CF06E5F7F4F8F4F9F4F688379838A830B
:100E50009B836ECF1433CCF36F5F7F4F8F4F9F4FC9
:100E6000F4CF1F93CF93DF931F92CDB7DEB7682FD8
:100E70001091F704153009F484C0163009F403C149
:100E8000113009F025C1E0918905E150E93008F001
:100E90001FC1F0E0E25BF84F0C94973357075608F8
:100EA000640787076A089907A1076808AE07862FB5
:100EB0000E9445030F90DF91CF911F91089589E61D
:100EC00095E00E94230604C180918C0582FF00C139
:100ED00080918A058111FCC0633509F0F9C08091C9
:100EE000690590916A05A0916B05B0916C05B0956C
:100EF000A095909581959F4FAF4FBF4F8093690507
:100F000090936A05A0936B05B0936C05E1C06C32B9
:100F100049F480918A05811105C080918C058B7FF1
:100F200080938C0580918C0582FFD2C08DE695E080
:100F3000C8CF80918A058111CBC0862F0E941703EC
:100F4000C7C08DE795E00E94A30390918705906844
:100F5000882309F4BDC090938705ACCF42E081E7B8
:100F600095E00E948602882309F4B2C021E09091A6
:100F70008A05911101C020E09091870520FB94F92A
:100F8000EACF80916805843108F0A2C020918905DC
:100F9000243008F49DC0482F50E02370223079F0AF
:100FA0002330E9F1819FC0011124213029F08C5FA9
:100FB0009A4F0E94A3038CC08B5F9A4FFACF149F65
:100FC000F001159FF00D11246C3201F180918C0518
:100FD0008E7F80938C0540918A05862F90E0E950A2
:100FE000FB4F411104C0C097908B878771C0278544
:100FF00030894AE0429FB001439F700D1124605335
:101000007109680F791F708B678762C0E85FFA4FBC
:1010100090819F7790838F5F8093680559C041507E
:101020005109149FF001159FF00D1124E85FFA4F4C
:101030006C32F1F080818F778983CE0101960E9416
:10104000A303809168058150990B189FF001199FA7
:10105000F00D1124E85FFA4F99819F7780818078A5
:10106000892B808380918C05826080938C0530C0B1
:1010700091E080918A05811101C090E0808190FB10
:1010800087F9808325C0E0918905E150E93000F5BA
:10109000F0E0E35BF74F0C94973357079907560836
:1010A000640787076A089408A608B90880918A052A
:1010B00081110AC091E06C3209F490E080918C05B6
:1010C00090FB82F980938C0580918C0582FDF7CE90
:1010D00081E0F0CE90918C0592FB882780F992FFF9
:1010E000F7CF90918A059111F3CF90918705986081
:1010F00090938705673561F740916D0550916E05B6
:1011000060916F057091700570956095509541954F
:101110005F4F6F4F7F4F40936D0550936E05609307
:101120006F0570937005C6CE43E085E795E00E9499
:101130008602882369F221E090918A05911101C00D
:1011400020E09091870520FB95F905CF42E089E7E3
:1011500095E00E948602882309F4BACF21E090919D
:101160008A05911101C020E09091870520FB96F936
:10117000F2CE80918A05823041F150F48823D1F07B
:10118000813009F0A5CF809182058053680F1AC085
:10119000843041F110F1853009F09ACF80918405B7
:1011A0008053680F609384058091870582608093E7
:1011B00087058ECF6C3209F48BCF60538AE0689F2D
:1011C000602D11246093820583CF60538AE0689F6D
:1011D000602D1124609383057BCF8091830580531C
:1011E000680FF8CF60538AE0689F602D11246093E8
:1011F00084056ECF2091B7023091B80228173907C5
:1012000071F49091B5028091B602981741F0E09187
:10121000B502F0E0E459FD4F808190E008958FEF32
:101220009FEF08950895EF92FF920F931F93CF932E
:10123000DF93DC015C96ED90FC905D97E114F10486
:1012400079F481E090E013969C938E93129790E04E
:1012500080E0DF91CF911F910F91FF90EF90089563
:101260005196ED91FC91529750968C915097982FF2
:1012700090950FB75E962C915E97122F127021FDFC
:101280006095F8942081112319F1282B2083E70120
:101290002197F1F728E0462F50E0308160FF1AC017
:1012A000382B3083E7012197F1F7BA0175956795DF
:1012B000215089F7112381F08081892380830FBF1A
:1012C0005C968D919C910197F1F781E090E0C1CF00
:1012D0002923DCCF3923E5CF9081892BEFCF2091D3
:1012E000B7023091B8022817390771F48091B6021D
:1012F0002091B50290E0805C9F4F821B910960E4D1
:1013000070E00E948333089590E080E0089520917A
:10131000B7023091B80228173907B9F49091B50295
:101320008091B602981789F0E091B502F0E0E45997
:10133000FD4F80812091B50230E02F5F3F4F2F732A
:1013400033272093B50290E008958FEF9FEF089523
:101350009F92AF92BF92CF92DF92EF92FF920F9344
:101360001F93CF93DF9311E0D1E003E092E0F92ED9
:1013700089EB94E00E946F09892B09F4CEC189EBB7
:1013800094E00E948709C82F809100059091010583
:10139000A0910205B09103050196A11DB11D809396
:1013A000000590930105A0930205B0930305C43294
:1013B000B9F480918C0584FF05C08F7E80938C05E5
:1013C00010926805109288051092F704D0938D054D
:1013D00010928A0580918C058D7F80938C05C8CFF3
:1013E00080918D05823079F5CA3229F400938D05FC
:1013F00010928A05BDCF80EE8C0F8F3550F480910E
:1014000088058C27809388058C2F0E9431078111D5
:1014100007C0109287051092F70410928D05A8CF8F
:10142000CC3259F480918C058D7F80938C0580910E
:1014300089058F5F80938905DBCF80918A058F5F57
:1014400080938A0595CF813009F061C0909188051D
:101450009C2790938805CC3269F49091F7049923E6
:10146000D1F2109287058093890510928A05F09237
:101470008D057ECFE0908A0581E08E1508F05EC173
:101480008EEFB82EBE0C8091F704882309F43DC07E
:101490008150E82FF0E0EE0FFF1FE859FB4F259138
:1014A000349150E040E0CB2CD12C61E0680F70E02B
:1014B000F901EC0DFD1DE491CE1709F43CC1CE17E6
:1014C0000CF4A9CFAA24A394A80E873009F4A3CFC3
:1014D000FB01E40FF51FEE0FFF1FE859FB4FA5912D
:1014E000B49190E080E08B1558F4F901E80FF91FF2
:1014F0009490FD01E80FF91FE49101969E1699F36F
:101500004F5F5F4F8A2D9D01D3CF80E0C2CF8330E4
:1015100009F0F3C0C0628FE98C0F863038F5C755EB
:1015200090918A0580918805911122C0D0938A05F7
:1015300090E024E0959587952A95E1F7C81719065C
:1015400009F416CF8091FC049091FD04A091FE0453
:10155000B091FF040196A11DB11D8093FC049093EE
:10156000FD04A093FE04B093FF0453CFC053D8CF23
:101570008F7021E08C1301C020E08C13E3C08091B8
:101580008C0581FF09C08D7F80938C059F5F9093B0
:101590008A058CE20E9431078091F8049091F90449
:1015A000A091FA04B091FB040196A11DB11D809396
:1015B000F8049093F904A093FA04B093FB0490917B
:1015C000F70421E0963009F020E080918C0520FBA3
:1015D00084F980938C0510928D052091AD05211121
:1015E00091C08091870580FF0CC0209186053091C5
:1015F000AC0530FF04C03091AB05321710F42093D6
:10160000AB0581FF0CC0209182052093A705209196
:1016100083052093A805209184052093A90582FFC6
:1016200010C0209180052093A50520917F0520936F
:10163000A40520917E052093A30520918505209384
:10164000AA0583FF09C088E0E9E6F5E0AEE8B5E069
:1016500001900D928A95E1F78091870584FF10C073
:1016600040917105509172056091730570917405F8
:10167000409396055093970560939805709399054C
:1016800086FF10C04091790550917A0560917B05E5
:1016900070917C0540939E0550939F056093A00533
:1016A0007093A10585FF10C0409175055091760596
:1016B000609177057091780540939A0550939B054A
:1016C00060939C0570939D0587FF04C080917D0504
:1016D0008093A205809187052091AC05822B809391
:1016E000AC05963009F044CE1092AF058091AD055F
:1016F00081113ECE1093AD053BCE811139CE1092B3
:10170000F70436CE886080938C051092AE058091E8
:10171000AD0581508093AD0564CF8091AD05DF911B
:10172000CF911F910F91FF90EF90DF90CF90BF90DE
:10173000AF909F9008958F5F8093F704E394E092B9
:101740008A0516CE2111FECE13CE90E080E00895DA
:10175000282F082E000C330B205331092A30310575
:1017600010F480530895803231F09FEB980F9A3136
:1017700020F48753089584E208958FEF0895CF935E
:10178000DF93CDB7DEB763970FB6F894DEBF0FBE19
:10179000CDBF982F83E1EAE0F1E0DE0111960190E0
:1017A0000D928A95E1F7892F9D3308F08CE3FE01B5
:1017B0003196AE014C5E5F4F2191921708F0822F57
:1017C000E417F507C9F763960FB6F894DEBF0FBEAE
:1017D000CDBFDF91CF910895803269F0282F082E78
:1017E000000C330B205331092A30310510F480539B
:1017F00008958753089584E208954091C30250E00C
:10180000481303C01092CB0251E03091C402381348
:1018100004C091E09093CB0251E02091C5022813BF
:1018200004C092E09093CB0251E09091C6029813CD
:1018300004C083E08093CB02089551112FC08336FA
:1018400088F4481303C01092CB020895381302C0E5
:1018500081E0F0CF281302C082E0ECCF981749F363
:101860008F5FEDCF8336D1F482E6481749F0381701
:1018700059F0281771F0981751F08150B1F7842F63
:101880001092CB02381303C031E03093CB022813FF
:1018900003C022E02093CB02981759F20895809359
:1018A000BB0084E88093BC008091BC0087FFFCCF24
:1018B0008091B900887F089584E98093BC0080916D
:1018C000BC0084FDFCCF089584EA8093BC00809125
:1018D000BC0087FFFCCF8091B900887F0895CF932B
:1018E000DF93D82FC62F0E94640C8830B9F4809102
:1018F000B902880F0E944F0C883191F48D2F0E94FD
:101900004F0C883279F48C2F0E944F0C883261F48E
:101910000E945C0C80E0DF91CF91089581E0FBCFC5
:1019200082E0F9CF83E0F7CF84E0F5CF4F925F926A
:101930006F927F928F929F92AF92BF92CF92DF92DF
:10194000EF92FF92CF93DF93CDB7DEB72C970FB610
:10195000F894DEBF0FBECDBF4B015C01CA01B901D7
:1019600020E030E044E353E40E9431322B013C019B
:1019700020E030E040EA51E40E949D320E940F33A3
:101980006B01072E000C880B990B0E94533020E04E
:1019900030E040EA51E40E94B2309B01AC01C30147
:1019A000B2010E9430322B013C0120E030E040E0E7
:1019B0005FE30E94B2300E940F3369837A838B8386
:1019C0009C8320E030E044EB52E4C501B4010E9466
:1019D00031324B015C0120E030E040E251E40E94F2
:1019E0009D320E940F336D837E838F8398872D8174
:1019F0003E81B901330F880B990B0E94533020E0D0
:101A000030E040E251E40E94B2309B01AC01C501DC
:101A1000B4010E9430324B015C010E940F33698790
:101A20007A878B879C8731E4C30EE8EAF3E0C3AE84
:101A30008D818F5B84AF2981205D25AF9985905D75
:101A400096AF17AEC092E8038093E9032093EA03B0
:101A50009093EB0329813A81B901330F880B990BDD
:101A60000E9453309B01AC010E9431329B01AC01BA
:101A7000C301B2010E94303220E030E040E451E482
:101A80000E94B2300E940F336F5B6093EC03298594
:101A90003A85B901330F880B990B0E9453309B0193
:101AA000AC01C501B4010E94303220E030E040ECCE
:101AB00051E40E94B2300E940F336F5B6093ED03DC
:101AC0001092EE032C960FB6F894DEBF0FBECDBF7A
:101AD000DF91CF91FF90EF90DF90CF90BF90AF90CC
:101AE0009F908F907F906F905F904F9008955F923E
:101AF0006F927F928F929F92AF92BF92CF92DF921E
:101B0000EF92FF920F931F93CF93DF934C01DC0171
:101B100014966D907C90D0E0C0E020E030E040E092
:101B200050E060E070E080E090E0C615D70571F10C
:101B3000D401ED91FC91512C309719F0EC0FFD1F61
:101B40005080E0EDE50DEA3008F5EAE0AE2EB12C6C
:101B5000C12CD12CE12CF12C00E010E00E949D332F
:101B600059016A017B018C01852D550C990BC09799
:101B7000E92FEE0FEE0B9C014E2F5E2F6E2F7E2F66
:101B80008E2F9E2F0E94A7342196CFCFDF91CF9129
:101B90001F910F91FF90EF90DF90CF90BF90AF908B
:101BA0009F908F907F906F905F900895FC011482BA
:101BB0001582168217821082118212821382118678
:101BC0001086138612861586148617861686118A45
:101BD000108A138A128A148A168A178A158A81E053
:101BE000818F828F138E87E0808F148E158E168ED4
:101BF0000895CF93DF93EC010E94D60D8091AD053F
:101C00008823B9F081508093AD058091AE052FE116
:101C1000289FC0011124FC01E257FA4FDE01019018
:101C20000D922A95E1F782579A4F0E94D60D109295
:101C3000AE05CE01DF91CF910895FB010190002008
:101C4000E9F73197AF01461B570BDC01ED91FC9191
:101C50000280F381E02D09948F929F92AF92BF9200
:101C60000F931F93CF93DF93CDB7DEB7A1970FB636
:101C7000F894DEBF0FBECDBF19A2423008F44AE08F
:101C80008E010F5D1F4F842E912CB12CA12CA5012C
:101C900094010E949631E62FB901CA01EA3004F599
:101CA000E05DD801EE938D01232B242B252B79F7B2
:101CB00090E080E0109729F0BD018CE194E00E9453
:101CC0001D0EA1960FB6F894DEBF0FBECDBFDF91FB
:101CD000CF911F910F91BF90AF909F908F900895DB
:101CE000E95CDFCF682F70E090E080E04AE00C9480
:101CF0002C0ECF92DF92EF92FF92CF93DF9397FF5C
:101D00001BC06B017C016DE28CE194E00E948204B7
:101D1000EC0166277727CB016C197D098E099F0995
:101D20004AE00E942C0E8C0F9D1FDF91CF91FF90F7
:101D3000EF90DF90CF9008954AE0DF91CF91FF9030
:101D4000EF90DF90CF900C942C0EBC018CE194E0CE
:101D50000C941D0E4F925F926F927F928F929F9282
:101D6000AF92BF92CF92DF92EF92FF920F931F93A9
:101D7000CF93DF93CDB7DEB7CB55D1400FB6F894F4
:101D8000DEBF0FBECDBFC82ED62E62ED73E0CE01F2
:101D9000805B9E4F0E94C23663EE73E0CE01895A8B
:101DA0009E4F0E94C236CF5ADE4F1881C155D14096
:101DB000812F012E000C990BC0970A97D8F5CE5AA7
:101DC000DE4F0881C255D140802F002E000C990BA8
:101DD0000E94A636892B71F1C05BDE4F8881C05509
:101DE000D140CC5ADE4F9881C455D140CB5ADE4FFA
:101DF0009883C555D140CD5ADE4F9881C355D14007
:101E0000CC5ADE4F9883C455D140CD5ADE4F08835B
:101E1000C355D140CE5ADE4F1883C255D140CF5A58
:101E2000DE4F8883C155D14080E2C05BDE4F88839E
:101E3000C055D1409E01205B3E4F790110E000E289
:101E4000D7018C91082E000C990B0E94B136F70136
:101E500081937F01082E000C990B9C0120533109BE
:101E60002A30310570F00E94A636892B51F4F70113
:101E700031970083143029F4CB5ADE4F0883C555BF
:101E8000D1401F5F1630E1F686E0FE01E05BFE4FB9
:101E9000A5E1B4E001900D928A95E1F78E01095A0F
:101EA0001E4F7801F4E0EF0EF11CD8018D918D01E9
:101EB000082E000C990B0E94B136F80131978083EF
:101EC000282F082E000C330B205331092A303105FE
:101ED00068F08154823150F085E0EBE2F2E0DE01FF
:101EE000A95ABE4F01900D928A95E1F7E016F106CE
:101EF000E1F684E0FE01E95AFE4FA0E1B4E0019072
:101F00000D928A95E1F78C2D0E94BF0B882E80934D
:101F10000F04B2E0DB1609F4F4C1E3E0DE1609F4C5
:101F2000C3C2809115040E94A80B282F30E0A4E2C0
:101F3000B0E00E9421326B017C01809116040E9466
:101F4000A80BA7019601280F311D411D511DAAE0C4
:101F5000B0E00E94D7316B017C01809117040E9490
:101F6000A80BA7019601280F311D411D511DABE1A2
:101F7000B0E00E94D7316B017C01809118040E946F
:101F8000A80B482F4A50550B9A01032E000C440B06
:101F9000550B2C0D3D1D4E1D5F1DABE1B0E00E94A9
:101FA000D7316B017C01809119040E94A80BA82FE6
:101FB000AA50BB0B9D01032E000C440B550B2C0D9E
:101FC0003D1D4E1D5F1DABE1B0E00E94D7312B01DE
:101FD0003C0180911A040E94A80B8A50990B092E8B
:101FE000000CAA0BBB0B6C017D01C40CD51CE61CBC
:101FF000F71C20911004022E000C330B21543109E0
:1020000046EF4203C001439F900D1124209112041A
:10201000821B910927FD93958D519F4F24EB289F9B
:10202000A001299F500D112480911104082E000C4D
:10203000990B815491096AE0689F9001699F300D66
:102040001124420F531F80911304082E000C990B8A
:10205000C097480F591F052E000C660B770B27E021
:10206000440F551F661F771F2A95D1F7405C5F4FBD
:102070006F4F7F4F480D511D611D711DD701C60166
:1020800014E0B695A795979587951A95D1F7C95BF2
:10209000DE4F8883C754D140D701C6010CE0B69506
:1020A000A795979587950A95D1F7CA5BDE4F8883E8
:1020B000C654D140D701C60124E1B695A79597959E
:1020C00087952A95D1F7CB5BDE4F8883C554D140E5
:1020D000842F8295880F880F807CC55BDE4F8883B4
:1020E000CB54D140DB01CA0132E0B695A795979554
:1020F00087953A95D1F7C65BDE4F8883CA54D140A5
:10210000DB01CA01EAE0B695A79597958795EA9510
:10211000D1F7C75BDE4F8883C954D140F2E1769591
:10212000679557954795FA95D1F74F70C294A0EFF0
:10213000CA224C29C85BDE4F4883C854D140C45BD7
:10214000DE4F1882CC54D140C35BDE4F1882CD5491
:10215000D140C25BDE4F1882CE54D140C15BDE4F0E
:102160001882CF54D140FE01EB5BFE4F2F012BE0D4
:10217000420E511C10E0C12CD12C76019E012D5530
:102180003F4F619170E050E040E0CC0CDD1CEE1C54
:10219000FF1CCB01042E02C0880F991F0A94E2F79E
:1021A000880F892F881F990B8170C82A4601570113
:1021B00081E5882283E5982280EDA82282EFB8226B
:1021C00080E200E0982D91700927B694A794979427
:1021D00087948150B9F7C901810F911DDC010C93DF
:1021E00081E0810F46015701B7E48B22BCE39B22BB
:1021F000B1E6AB22B4EEBB2290E200E0A82DA170C4
:102200000A27B694A794979487949150B9F7820FB0
:10221000932F911DDC010C931E5F123A30F44F5F37
:102220005F4F4830510509F0B0CF4E165F0609F0F8
:10223000A8CF90E080E001E010E0682F47E050E098
:10224000E0E0A62FB0E060FF07C0B801042E01C097
:10225000660F0A94EAF7E62BBD0175956795415024
:10226000510978F7E23A70F488248394912C8C0E0B
:102270009D1E8E0E911CF401D901A90FB11D4C9128
:1022800040839F5F923A18F48F5F8F3FB1F682EAE6
:10229000FE013196D90101900D928A95E1F782EA0B
:1022A000EDE1F1E0DE01119601900D928A95E1F7E2
:1022B000FE013196A90166E073E09191DA018D91FA
:1022C000AD01880F890FDB018D93BD012E173F07EC
:1022D000A1F7C55ADE4F0FB6F894DEBF0FBECDBFD3
:1022E000DF91CF911F910F91FF90EF90DF90CF90F2
:1022F000BF90AF909F908F907F906F905F904F9026
:102300000895809115040E94A80B282F30E0A4E2C4
:10231000B0E00E9421326B017C01809116040E9482
:10232000A80BA7019601280F311D411D511DAAE0E0
:10233000B0E00E94D7316B017C01809117040E94AC
:10234000A80BA7019601280F311D411D511DABE1BE
:10235000B0E00E94D7316B017C01809118040E948B
:10236000A80BE82FEA50FF0B9F01032E000C440B33
:10237000550B2C0D3D1D4E1D5F1DABE1B0E00E94C5
:10238000D7316B017C01809119040E94A80B482F62
:102390004A50550B9A01032E000C440B550B2C0D83
:1023A0003D1D4E1D5F1DABE1B0E00E94D7312B01FA
:1023B0003C0180911A040E94A80B8A50990B092EA7
:1023C000000CAA0BBB0B6C017D01C40CD51CE61CD8
:1023D000F71C912CB12CA12C8091D9039091DA0398
:1023E000892BC9F44091DF0350E0405A5549052E2E
:1023F000000C660B770B97E0440F551F661F771F85
:102400009A95D1F74E5B5F4F6F4F7F4F480D591D27
:102410006A1D7B1D33CE8091DB030E94EC0B282FBD
:1024200030E0A5E2B0E00E9421322B013C01809116
:10243000DC030E94EC0BA3019201280F311D411D0A
:10244000511DA5E2B0E00E94D7312B013C018091E3
:10245000DD030E94EC0BB301A201480F511D611D69
:10246000711D411580E858076105710580F05058CD
:102470006109710987E0440F551F661F771F8A9510
:10248000D1F792E4890E911CA11CB11CBFCF07E0CB
:10249000440F551F661F771F0A95D1F7A1E48A0ED6
:1024A000911CA11CB11CB2CF8091E9030E94A80B22
:1024B000282F30E0A4E2B0E00E9421326B017C01C1
:1024C0008091EA030E94A80BA7019601280F311DF5
:1024D000411D511DAAE0B0E00E94D7316B017C0183
:1024E0008091EB030E94A80BA7019601280F311DD4
:1024F000411D511DABE1B0E00E94D7316B017C0161
:102500008091EC030E94A80BE82FEA50FF0B9F017B
:10251000032E000C440B550B2C0D3D1D4E1D5F1D55
:10252000ABE1B0E00E94D7316B017C018091ED03FB
:102530000E94A80B482F4A50550B9A01032E000CFD
:10254000440B550B2C0D3D1D4E1D5F1DABE1B0E046
:102550000E94D7314B015C018091E8030E94A80BD7
:102560008A50990B092E000CAA0BBB0B6C017D0144
:10257000C80CD91CEA1CFB1C82ED93E0DC010D9019
:102580000020E9F7FD01E35DF3405F019E2E83E249
:1025900092E00E94A50E8A2D0E94720E62ED73E0F9
:1025A0008E010F5F1F4FC8010E94C2368091D90370
:1025B0009091DA03009709F03EC0C5019927F80110
:1025C000E80FF91F2FE220832091DF03243260F40B
:1025D000FE01E80FF91F13820196F801E80FF91FB9
:1025E0002A3038F5205D2083F80101900020E9F7BA
:1025F0003197E01BF10B4E2F50E070E060E04F5739
:10260000504462457142E350FF0BE830F10508F099
:1026100042C1EF5EFC4E89819A81AB81BC810C94F2
:10262000973343144414391432142C141F140D140A
:102630003413295CD8CF0197B9F68091DB038983E5
:102640008091DC038A838091DD038B838FE28C830E
:10265000A2EDB3E0FE01359680E0891508F0C4CF05
:102660009D9191938F5FF9CF89849A84AB84BC84C8
:10267000AA24BB240D811E812F813885040F151FCC
:10268000261F371F840F951FA61FB71F480D591D02
:102690006A1D7B1D40275127622773274801590176
:1026A000EEE0880C991CAA1CBB1CEA95D1F7280106
:1026B0003901F2E17694679457944794FA95D1F7EB
:1026C00084289528A628B728481959096A097B093A
:1026D00084279527A627B7274A015B01EBE0880CE2
:1026E000991CAA1CBB1CEA95D1F72A013B01F5E114
:1026F0007694679457944794FA95D1F7842895284F
:10270000A628B72888199909AA09BB0908271927F3
:102710002A273B274C015D01E7E0B694A7949794E4
:102720008794EA95D1F72C013D01F9E1440C551C41
:10273000661C771CFA95D1F784289528A628B72817
:10274000081919092A093B094027512762277327CD
:1027500058014901481959096A097B0984279527B5
:10276000A627B7274A015B01E4E0880C991CAA1C44
:10277000BB1CEA95D1F72A013B01FCE176946794F2
:1027800057944794FA95D1F784289528A628B72816
:1027900088199909AA09BB09082719272A273B275D
:1027A0004C015D01EEE0880C991CAA1CBB1CEA954B
:1027B000D1F7F2E1B695A79597958795FA95D1F758
:1027C00088299929AA29BB29081B190B2A0B3B0B1D
:1027D0004027512762277327F22F232F302F012FF5
:1027E0001F2F401B510B620B730B20910F048FE3C3
:1027F00090E0A0E0B0E0821B9109A109B109662731
:10280000772717E0440F551F661F771F1A95D1F7DA
:10281000480F591F6A1F7B1F31CCE9850D811E812E
:102820002F813885040F151F261F371F840F951F12
:10283000A61FB71F4E0F511D611D711D2BCF0D819E
:102840001E812F813885040F151F261F371F840F07
:10285000951FA61FB71F1ECF0D811E812F813885A2
:102860003327F1CF0D811E812F8138852227332711
:10287000EACF2D814A015B01820E911CA11CB11C83
:1028800095018401E4CFBB27840F951FA61FB71FB6
:102890008A019B01FFCE8A019B01DB01CA01FACEAE
:1028A0008EE292E00C94A50E60E372E00C941D0E93
:1028B000CF93DF930E94720EEC018CE194E00E94B2
:1028C00054148C0F9D1FDF91CF910895E3EFF3E037
:1028D00081E09191911180E094E0E030F907C9F72F
:1028E000E091BA02882389F0109264021092650286
:1028F00010926602109267021092680210926902AA
:1029000010926A0210926B020895EF5FED3008F0AA
:10291000E0E0AE2FB0E0AD50BC4F8C918823A9F31E
:10292000E093BA02E150EC3088F4F0E0E656FB4E5A
:102930000C949733CB14D814E314EE14F914041543
:102940000F151A15251530153B154B1580EF809383
:1029500064028EEC8093650281ED80936602109292
:102960006702109268021092690210926A02109235
:102970006B0283E392E00E94A50E8091BA028A3036
:1029800010F40E9450148091BA020E945814809151
:10299000BA020C94FD0B80E5809364028CED809369
:1029A000650285ED8093660282E080936702D9CF4D
:1029B00080ED8093640287EB8093650284EF8093BF
:1029C00066028AE0F2CF80E5809364028AE8809311
:1029D000650287E48093660285E1E7CF80E180931A
:1029E000640287E58093650286EF8093660289E240
:1029F000DCCF80EA8093640287EB8093650280E7F6
:102A0000809366028CE3D1CF80EB8093640287E7EA
:102A10008093650286E08093660284E5C6CF80E5F8
:102A20008093640287EB809365028BEE809366024D
:102A30008BE6BBCF80E18093640288E180936502DE
:102A40008EEB809366028DE7B0CF80ED80936402B9
:102A500085E38093650282E98093660284E9A5CFCD
:102A600080ED8093640285E08093650285EA80931F
:102A7000660287EA9ACF80E18093640281E58093C1
:102A8000650287EC809366028BE28093670281E0A7
:102A90008093680268CF80ED809364028AEA809315
:102AA000650288EC8093660281EAEFCFCF93DF93D3
:102AB000FC0144815581608171818CE194E00E9428
:102AC000E203EC018CE194E00E9454148C0F9D1FF2
:102AD000DF91CF9108950F931F93CF93DF93EC0174
:102AE0000E941D0E8C01CE010E945414800F911F74
:102AF000DF91CF911F910F91089569E272E089EB08
:102B000094E00E946B1564E670E080E090E00C9425
:102B100091050F931F93CF93DF93EC010E94BE03A7
:102B20008C01CE010E945414800F911FDF91CF9130
:102B30001F910F910895CF92DF92FF920F931F93F1
:102B4000CF93DF93F12CD5E080916805F81608F05B
:102B500076C067E272E08CE194E00E94BE030F2D24
:102B600010E0D09FF001D19FF00D1124E950FB4FF0
:102B700085858A3010F40E945014D09FC001D19FE7
:102B8000900D11249C0129503B4F6901F901858565
:102B90000E94720E89E292E00E94A50EF6018785DE
:102BA00090898436910510F40E945014D09FF00152
:102BB000D19FF00D1124E950FB4F878590890A972A
:102BC00010F40E945014D09FC001D19F900D112489
:102BD0009C0129503B4F6901F9016785708990E09C
:102BE00080E04AE00E942C0E89E292E00E94A50E4D
:102BF000F60186858A3010F40E945014D09F60013F
:102C0000D19FD00C1124F601E950FB4F86850E941C
:102C1000720E89E292E00E94A50EF601E85FFA4F7B
:102C2000C081C7FF0AC0CF77CA3010F40E94501489
:102C30008C2F0E945814F39487CFC0E0F7CF8CE11B
:102C400094E0DF91CF911F910F91FF90DF90CF9093
:102C50000C9454144F925F926F927F928F929F9236
:102C6000AF92BF92CF92DF92EF92FF920F931F939A
:102C7000CF93DF93CDB7DEB7A3970FB6F894DEBF3F
:102C80000FBECDBF6B017C012FB7F8948091AD02D0
:102C90009091AE02A091AF02B091B0022FBFA701F8
:102CA0009B01280F391F4A1F5B1F28A339A34AA382
:102CB0005BA310E000E088EE482E83E0582E612CE4
:102CC000712C0E94A809882371F0CE0101960E9400
:102CD000F90D8FE1FE013196A8EDB4E001900D925F
:102CE0008A95E1F7EECF2FB7F8948091AD029091DD
:102CF000AE02A091AF02B091B0022FBF88A099A000
:102D0000AAA0BBA0881A990AAA0ABB0A31EA8316AC
:102D10003FE09306A104B104A4F16AEA71E08CE1FA
:102D200094E00E94BE03C501B401A30192010E9478
:102D3000B831CA01B9010E94790E8CE194E00E9479
:102D4000541468EE73E080E090E00E94910541E148
:102D5000C41647E2D406E104F10458F00F5F1F4F98
:102D60000530110534F081E090E00E94001710E07A
:102D700000E08CE194E00E944004892B09F4A1CF8B
:102D800005C0181419041A041B049CF351EAC51653
:102D90005FE0D506E104F104E0F062EA71E08CE165
:102DA00094E0A3960FB6F894DEBF0FBECDBFDF91BF
:102DB000CF911F910F91FF90EF90DF90CF90BF9038
:102DC000AF909F908F907F906F905F904F900C94FA
:102DD0008915A3960FB6F894DEBF0FBECDBFDF9165
:102DE000CF911F910F91FF90EF90DF90CF90BF9008
:102DF000AF909F908F907F906F905F904F900895CD
:102E00000F931F93CF93DF938C01D0E0C0E061E07C
:102E10008091BB020E94EF0462E370E080E090E0EA
:102E20000E942A1660E08091BB020E94EF0462E3D8
:102E300070E080E090E00E942A1621960C171D0792
:102E400031F7DF91CF911F910F9108950F931F9349
:102E5000CF93DF93EC0188819981009759F02A8103
:102E60003B812617370730F081E0DF91CF911F912A
:102E70000F9108958B016F5F7F4F0E94E935009796
:102E800059F0998388831B830A832C813D81232BEE
:102E900059F7FC011082E8CF80E0E7CFCF93DF93B2
:102EA000EC0188819981009711F00E9460351982A8
:102EB00018821D821C821B821A82DF91CF91089595
:102EC000EF92FF920F931F93CF93DF93EC017B015F
:102ED0008A01BA010E94261781110BC0CE010E94FF
:102EE0004E17CE01DF91CF911F910F91FF90EF9080
:102EF00008951D830C83B701888199810E94C23691
:102F0000F0CFCF93DF93EC01FB018617970749F0D1
:102F1000608171816115710541F0448155810E9484
:102F20006017CE01DF91CF9108950E944E17F9CF1F
:102F3000FC01118210821382128215821482FB011D
:102F400001900020E9F73197AF01461B570B0C9415
:102F50006017FC0180819181009711F00C9460351D
:102F600008954F925F926F927F928F929F92AF924D
:102F7000BF92EF92FF920F931F93CF93DF93CDB742
:102F8000DEB7C054D1090FB6F894DEBF0FBECDBF77
:102F900090E4EFEBF1E0DE01119601900D929A952D
:102FA000E1F781116CC087E690E030E020E0032F6C
:102FB000122F44244A94542C32017801E80EF91E51
:102FC0000E151F050CF060C0C8010E9470319201FF
:102FD0002827D301C9018F709927AA27BB27880FFB
:102FE000991F880F991F41E050E04C0F5D1F840F1F
:102FF000951FFC0180809180A280B38034E076949C
:103000006794579447943A95D1F784249524A6243D
:10301000B724C8010E94703190E044E095958795EF
:103020004A95E1F7092E000CAA0BBB0B88259925C0
:10303000AA25BB258F709927AA27BB27880F991F20
:10304000880F991F21E030E02C0F3D1F820F931F46
:10305000FC01408051806280738064E0B694A79444
:10306000979487946A95D1F7482459246A247B243D
:1030700040945094609470940F5F1F4FA1CF8AE0EA
:1030800090E030E921E093CFC301B201C05CDF4F93
:103090000FB6F894DEBF0FBECDBFDF91CF911F9169
:1030A0000F91FF90EF90BF90AF909F908F907F9087
:1030B0006F905F904F9008958F929F92AF92BF92C2
:1030C000CF92DF92EF92FF920F931F93CF93DF93F4
:1030D00000D000D0CDB7DEB7882309F44DC09DEBFA
:1030E000E92E92E0F92E00E911E0C8010E9470314A
:1030F000F70181937F010F5F1F4F0A39F1E01F072E
:10310000A1F781E00E94B1174B015C010AE010E0D9
:1031100080E991E0080F191F6E01F5E0CF0ED11C78
:10312000CE0101967C01081B190BC8018E0D9F1D55
:103130000E947031F70181937F01CE16DF06A9F757
:1031400081E049815A816B817C81481559056A0566
:103150007B0509F080E00F900F900F900F90DF91AA
:10316000CF911F910F91FF90EF90DF90CF90BF9084
:10317000AF909F908F90089588EAE82E83E0F82E14
:1031800010E000E0C8010E947031F70181937F01D7
:103190000F5F1F4F07361105A9F780E00E94B11796
:1031A0004B015C0107E610E090E080E0B3CF2F9286
:1031B0003F924F925F926F927F928F929F92AF92C7
:1031C000BF92CF92DF92EF92FF920F931F93CF9314
:1031D000DF93CDB7DEB7A0970FB6F894DEBF0FBE72
:1031E000CDBF4C01180129014C8F5D8F6E8F7F8FF1
:1031F000E8A262E372E00E94981790E4A92E22E40C
:10320000B22E3FE0C32ED12CE12CF12C00E010E0D7
:103210009101A2016C8D7D8D8E8D9F8D0E94313428
:103220009F938F937F936F935F934F933F932F93CE
:103230008AE392E09F938F933E01BEE06B0E711C78
:103240007F926F920E94D8369101A2016C8D7D8D84
:103250008E8D9F8D0E942F349F938F937F936F93BA
:103260005F934F933F932F93EAE3F2E0FF93EF9343
:103270002E0185E1480E511C5F924F920E94D83674
:10328000F30101900020E9F73197AF014619570982
:10329000B301C4010E9460171A8219821C821B822A
:1032A0001E821D82B4018E010F5F1F4FC8010E9454
:1032B0008117F20101900020E9F73197E419F5092F
:1032C0000FB6F894DEBF0FBECDBFB1F06D807E802B
:1032D0006E0E7F1EB301C8010E942617882309F4D1
:1032E0005CC029813A818D819E81B201820F931F3A
:1032F0000E94C2367E826D82B801C4010E9481178D
:10330000C8010E94A917B8A1B1112DC0F4016480B1
:1033100075806114710409F044C01982F801CE016E
:103320000D9620E23191303331F4DF0111972C9367
:103330008E179F07B9F7F80101900020E9F7319740
:10334000AF01401B510BB801C4010E946017F4018A
:10335000208031802114310431F064807580210196
:103360006114710491F5C401A0960FB6F894DEBF04
:103370000FBECDBFDF91CF911F910F91FF90EF90C6
:10338000DF90CF90BF90AF909F908F907F906F9085
:103390005F904F903F902F900895C8010E944E1764
:1033A000ABCFFCE06F16710418F08CE0682E712C26
:1033B000D4016D917C91A301C8010E94C936F80126
:1033C000E60DF71D1082AACF280182010F5F1F4F63
:1033D000D2018C91082E000C990B0E943830892B59
:1033E00099F7B1E06B1A7108620C731CF3018081CC
:1033F000082E000C990B0E943830892B39F0641488
:10340000750420F0F1E06F1A7108F0CFA3014F5F4F
:103410005F4F44195509D40115965C934E93149748
:103420002414350420F4B201C1010E94B936D4013C
:10343000ED91FC91119714968D919C91E80FF91FD5
:10344000108291CFEF920F931F93CF93DF9300D011
:1034500000D000D0CDB7DEB782508A3080F4E82F9C
:10346000F0E0EB5CF54E0C949733791A921AF01A4F
:10347000F31AF61A1A1B1D1B501B231B201B60E29C
:1034800072E08CE194E00E94BE038091040390916D
:1034900005038130910521F1D0F0029761F460E4D9
:1034A00072E08CE194E00E946B1568E172E08CE1BF
:1034B00094E00E94891526960FB6F894DEBF0FBEE1
:1034C000CDBFDF91CF911F910F91EF90089562E4EE
:1034D00072E08CE194E00E946B1560E172E0E7CF4E
:1034E00064E472E08CE194E00E946B1568E072E0A5
:1034F000DECF61E072E08CE194E00E94BE0363EEF7
:1035000073E08CE194E00E946B156AEF71E08CE14E
:1035100094E00E94BE0368EE73E08CE194E00E94A8
:103520006B15C9CF8091EF0490E09093CA0280930D
:10353000C9028091EE0490E09093C8028093C70284
:103540008091ED0490E0909301038093000363EF7A
:1035500071E08CE194E00E94BE038091C9029091D9
:10356000CA020A9714F40E9450146091C902709123
:10357000CA02072E000C880B990B0E94790E86E474
:1035800092E00E94A50E8091C7029091C8020A970E
:1035900014F40E9450146091C7027091C802072E63
:1035A000000C880B990B0E94790E86E492E00E9431
:1035B000A50E80910003909101030A9714F40E94D4
:1035C00050146091000370910103072E000C880BCA
:1035D000990B0E94790E8CE194E00E9454146BCFF9
:1035E0006BEE71E064CF63EE71E061CF6CED71E082
:1035F0008CE194E00E94BE03009164021091650288
:1036000020916602309167024091680250916902F0
:1036100060916A0270916B02E12CCE0101960E94CA
:10362000D718CE0101960E945615CE0101960E9430
:10363000A91741CF64ED71E03ACF6CEC71E037CF60
:1036400066EC71E034CF6FEB71E08CE194E00E94A6
:10365000BE038EE480937C0062E070E080E090E046
:103660000E94910580917A00806480937A00809115
:103670007A0086FDFCCF8091780020917900322F6E
:10368000282F032E000C440B550B64EB7BE281E1E9
:1036900090E00E94B831B901330F880B990B99CF94
:1036A00068EB71E08CE194E00E94BE038091CB0254
:1036B000811106C068E472E08CE194E00E946B1511
:1036C0008091CB02813031F46AE472E08CE194E0C5
:1036D0000E946B158091CB02823031F46CE472E071
:1036E0008CE194E00E946B158091CB02833009F04D
:1036F000E2CE64E572E011CF60E880E10E946F0CD9
:1037000060E088E00E94EF0488E00C94221A60E0F8
:1037100081E10E94EF0464E670E080E090E00E94A6
:1037200091058CE58093B8001092B9008FEF8093DB
:10373000BB00109264000C947C1B0E947D150E94BB
:10374000871B82E090E0909305038093040360E080
:103750008091BB020E94EF040E947C1B81E00C94CC
:10376000221A2F923F924F925F926F927F928F9286
:103770009F92AF92BF92CF92DF92EF92FF920F9300
:103780001F93CF93DF93CDB7DEB76F970FB6F89443
:10379000DEBF0FBECDBF2F83388749875A876B871F
:1037A0007C878D879E878090BF029090C002A090FA
:1037B000C102B090C202A4E6B0E0A50194010E944B
:1037C000D7317B018C0120E030E0A9016F87F88AB6
:1037D000898B1A8B2B8B3C8B4D8B5E8BC501B40177
:1037E0000E9451306C8F7D8F8E8F9F8F2F813885F7
:1037F00049855A856B857C858D859E85211501EED1
:10380000300705EF400705E05007610571058105A8
:10381000910509F008F455C159016A017B018C0139
:1038200020E034E04BE654EF64E170E080E090E0AB
:103830000E9431342F8B388F498F5A8F0E949D33CD
:1038400019012A013B014C01AF84B888C988DA8884
:10385000E12CF12C00E010E00E9431342B8F91011B
:10386000A201B301C4010E942F34B901CA010E9410
:10387000513020EF3FEF4FE759E40E94B2302C8DDA
:103880003D8D4E8D5F8D0E949D320E94163324E641
:1038900030E040E050E00E94963149015A01C501F4
:1038A000B4010E94513020EF3FEF4FE759E40E94EE
:1038B0009D3220E030E040E053E40E94B2300E94AC
:1038C00016339B01AC018B8D482E512C712C612C31
:1038D00087E0440C551C661C771C8A95D1F7E2E002
:1038E0005E1A61087108420E531E641E751E97E031
:1038F000880C991CAA1CBB1C9A95D1F76FEF7FEF1F
:103900008FE090E00E948631861A970AA80AB90AC9
:103910006FEF8AE10E946F0C6FEF8BE10E946F0CDA
:10392000662D63708CE10E946F0C9927872D762D90
:10393000652D8DE10E946F0C642D8EE10E946F0C4D
:103940006A2D606F8FE10E946F0C99278B2D7A2D65
:10395000692D80E20E946F0C682D81E20E946F0C3D
:103960008F88988CA98CBA8C04E0801A9108A108E1
:103970000EEFB00A47E0880C991CAA1CBB1C4A95A4
:10398000D1F760E08AE20E946F0C61E08BE20E9456
:103990006F0C6A2D6370612B8CE20E946F0C99276B
:1039A0008B2D7A2D692D8DE20E946F0C682D8EE291
:1039B0000E946F0C60E08FE20E946F0C60E080E379
:1039C0000E946F0C60E081E30E946F0C80915C02AA
:1039D00090915D02A0915E02B0915F022F813885C7
:1039E00049855A85281B390B4A0B5B0BDA01C90143
:1039F000B7FF07C0B095A095909581959F4FAF4FA9
:103A0000BF4F813A9648A140B10524F060EA81EBAE
:103A10000E946F0C6FE480E10E946F0C4F81409315
:103A20005C02588550935D02898580935E02EA8529
:103A3000E0935F02EB84E0926002FC84F09261020A
:103A40000D85009362021E851093630261E088E099
:103A50000E94EF0461EB71E08CE194E00E94BE03F0
:103A6000E12C0F81188529853A854B855C856D850C
:103A70007E85CE0101960E94D718CE0101960E9444
:103A80005615CE0101960E94A91787E00E94221ABE
:103A90006F960FB6F894DEBF0FBECDBFDF91CF910A
:103AA0001F910F91FF90EF90DF90CF90BF90AF905C
:103AB0009F908F907F906F905F904F903F902F904E
:103AC00008952F81388549855A856B857C858D853C
:103AD0009E8507E00E948E3459016A017B018C01AA
:103AE00020E034E04BE654EF64E170E080E090E0E9
:103AF0000E9431342F8B388F498F5A8F60E070E0ED
:103B000080E090E00E949D3319012A013B014C01A5
:103B1000AF84B888C988DA88E12CF12C00E010E085
:103B20000E9431342B8F9101A201B301C4010E9484
:103B30002F34B901CA010E94513020EF3FEF4FE707
:103B400059E40E94B2302C8D3D8D4E8D5F8D0E94C8
:103B50009D320E94163324E630E040E050E00E949F
:103B6000963149015A0110E79ACE3F924F925F92E7
:103B70006F927F928F929F92AF92BF92CF92DF927D
:103B8000EF92FF920F931F93CF93DF93D82FE6E02E
:103B9000F3E082EADF011D928A95E9F76D2F8091AB
:103BA000F1030E94AA0E61E08091BB020E94EF0423
:103BB0008FB7F8944090AD025090AE026090AF0283
:103BC0007090B0028FBF86E0882E83E0982EBBEA0B
:103BD0004B0EB2E05B1E611C711CC0E092E9392EF5
:103BE000F40141914F01439DA0011124952F990F9C
:103BF000990B9A01492F592F692F792F892FA0905E
:103C00006402B0906502C0906602D0906702E090B6
:103C10006802F090690200916A0210916B020E94A2
:103C2000A7340E94B11B2FB7F8948091AD029091F8
:103C3000AE02A091AF02B091B0022FBF84159505DE
:103C4000A605B70530F48CE194E00E944004892B6E
:103C500051F36BE971E08CE194E00E94BE03809126
:103C6000BA028A3010F40E9450148091BA020E9465
:103C7000720E89E292E00E94A50E8091E2031C2F51
:103C8000863009F41695D33009F04DC01F5A14360A
:103C900008F44EC0812F0E94581406E010E0F09006
:103CA000BB0261E08F2D0E94EF0465E070E080E0D0
:103CB00090E00E94910560E08F2D0E94EF0462E386
:103CC00070E080E090E00E9491050150110939F701
:103CD0008CE194E00E9440048C01892B61F5CF5F58
:103CE000FBEA4F0EF2E05F1E611C711CC23A09F044
:103CF00077CF0E947C1B60E08091BB020E94EF04A2
:103D0000C801DF91CF911F910F91FF90EF90DF904D
:103D1000CF90BF90AF909F908F907F906F905F906B
:103D20004F903F9008951A3008F0B1CF0E94501480
:103D30000E945014AFCF01E010E0DBCF2F923F92F2
:103D40004F925F926F927F928F929F92AF92BF92AB
:103D5000CF92DF92EF92FF920F931F93CF93DF9357
:103D6000CDB7DEB76F970FB6F894DEBF0FBECDBFED
:103D70008091D9039091DA0342E0642E029711F406
:103D8000662463948091B90281111EC06AE571E0D6
:103D90008CE194E06F960FB6F894DEBF0FBECDBFF6
:103DA000DF91CF911F910F91FF90EF90DF90CF9017
:103DB000BF90AF909F908F907F906F905F904F904B
:103DC0003F902F900C9489151092050310920403D4
:103DD000E3EFF3E081E09191911180E024E0E030A5
:103DE000F207C9F7882309F445C06EE271E08CE15F
:103DF00094E00E94891581E09091D2039134E1F51D
:103E00009091D3039134C1F59091D4039033A1F5EF
:103E10009091D503913481F59091D603913461F559
:103E20009091D703913441F567E171E08CE194E022
:103E30000E94891568EF70E08CE194E00E9489157A
:103E40006F960FB6F894DEBF0FBECDBFDF91CF9156
:103E50001F910F91FF90EF90DF90CF90BF90AF90A8
:103E60009F908F907F906F905F904F903F902F909A
:103E70000C949D1B80E0C0CF8111DCCF1092BA0260
:103E80000E9466140E94C22F28EC30E040E050E00F
:103E90000E94B831645671098109910924E630E025
:103EA00040E050E00E94F533A0906402B0906502BB
:103EB000C0906602D0906702E0906802F0906902BC
:103EC00000916A0210916B020E94A7342093640251
:103ED00030936502409366025093670260936802D4
:103EE0007093690280936A0290936B020E947C1B1C
:103EF00081E00E94221A34E1232E312C412C512CD6
:103F00008CE194E00E944004892B09F0B1C10E9429
:103F1000A809882309F420C2CE0101960E94F90D58
:103F20008FE1FE013196A8EDB4E001900D928A95E3
:103F3000E1F783E00E94221A8CE194E00E944004A1
:103F40004C01892B09F094C18091F60483FFF6C1DE
:103F500082FB002700F982FFF1C18091EF0490E01D
:103F60009093CA028093C9021091EE04812F90E0D1
:103F70009093C8028093C702E090ED04F12CF09278
:103F80000103E09200038091E0039091E103019727
:103F900031F56091DC047091DD048091DE04909134
:103FA000DF040E94533025E93FEB46ED53E30E94C6
:103FB000B2305B016C016091D8047091D90480919A
:103FC000DA049091DB040E94533025E93FEB46ED83
:103FD00053E30E94B230A60195010E94960CE114B1
:103FE000F10409F023C110FDC3C08091F2038031B8
:103FF000E9F08F3009F005C1E091BA02E250E930F2
:10400000A8F4F0E0EA5FFF4D0C9497330F20AF2047
:10401000C120CA20D320DC20E520EE20F720112388
:1040200029F0143119F0183209F0A2C069EC70E0DF
:1040300089EB94E00E9489158091EF039091F00341
:10404000019709F04DC06091E2047091E304072EDE
:10405000000C880B990B0E9453302AE037ED43E2A5
:104060005CE30E94B2306B017C016091E0047091CE
:10407000E104072E000C880B990B0E9453309B0122
:10408000AC01C701B6010E9431320E9416336B01A8
:104090007C012CE231E040E050E00E949631822F1A
:1040A0000E94BF0B182F4CE251E0149FC001159FD6
:1040B000900D1124092E000CAA0BBB0BA701960131
:1040C000281B390B4A0B5B0BCA01B901A2019101F4
:1040D0000E949631822F0E94BF0B782E1093F1031D
:1040E000862D0E94B51D892B09F0C2C08091E20384
:1040F000863009F4A9C08091BA0290E0FC01EC502E
:10410000FC4F8C30910509F0CCC020910304309114
:10411000040440910504509106042D3331054105F6
:10412000510508F406C18091FF02811102C168E5C2
:1041300072E080E090E00E94910561E081E10E94E0
:10414000EF040E947D150E94871B60ED77E080E000
:1041500090E00E942A168BE00E94221AABC0123017
:1041600009F464CF163109F461CF1A3209F45ECF35
:1041700084E00E94221A82E00E94221A0E949B156B
:104180005AC0163009F452CF1A3109F44FCF1E32FB
:1041900079F74CCF183009F449CF1C3109F446CFD8
:1041A000103331F743CF1A3009F440CF1E3109F4F0
:1041B0003DCF1233E9F63ACF1C3009F437CF103235
:1041C00009F434CF1433A1F631CF1E3009F42ECFC9
:1041D000123209F42BCF163359F628CF103109F4D7
:1041E00025CF143209F422CF183311F61FCF123124
:1041F00009F41CCF163209F419CF1A3309F0B8CFDD
:1042000015CF8F3008F0B4CF9AE0853010F085508C
:1042100094E1191718F0191B1917D8F790E0880FB7
:10422000991F1817190609F401CFA2CF39E3E31635
:10423000F1040CF49DCF82E090E00E94001764E648
:1042400070E080E090E072C068E273E280E090E0AD
:104250000E9491058091EF039091F003019711F472
:104260007092F10383E00E94B51D892B09F443CFBE
:104270006F960FB6F894DEBF0FBECDBFDF91CF9122
:104280001F910F91FF90EF90DF90CF90BF90AF9074
:104290009F908F907F906F905F904F903F902F9066
:1042A000089501962191211100E08C309105CCF305
:1042B00001112BCF0E947D150E9466140E94C22F0F
:1042C00028EC30E040E050E00E94B83164567109BB
:1042D0008109910924E630E040E050E00E94F53386
:1042E000A0906402B0906502C0906602D090670210
:1042F000E0906802F090690200916A0210916B02EE
:104300000E94A734209364023093650240936602B2
:1043100050936702609368027093690280936A0207
:1043200090936B0268EB7BE080E090E00E942A169D
:10433000EECDA8EEB3E00E94D7310BCF0E949B15C3
:1043400081E090E00E94001785E00E94221A60E957
:1043500071E080E090E0EACF3FEF831A930A41E3F7
:10436000841645E794060CF4CBCD64EE70E08CE146
:1043700094E00E9489150E947D1567ED70E089EB3D
:1043800094E00E94891560ED77E080E090E00E9463
:104390002A16912C812CB4CD7F928F929F92AF924E
:1043A000BF92CF92DF92EF92FF920F931F93CF9322
:1043B000DF938091B902811113C068E870E08CE14D
:1043C00094E0DF91CF911F910F91FF90EF90DF90DC
:1043D000CF90BF90AF909F908F907F900C94891555
:1043E00081E090E0909305038093040370900704AC
:1043F0008090080490900904A0900A04B0900B04E7
:1044000000910C0410910D04D0910E04709264027E
:104410008092650290926602A0926702B092680252
:104420000093690210936A02D0936B02272D382DF6
:10443000492D5A2D6B2D702F812F9D2F0E944533B2
:104440006B017C012CEF30E441E451E50E944C30DB
:10445000CEE087FFCFE028E430E341E850E5C70134
:10446000B6010E944C3087FDCDE02AE93BEA4AEFD5
:104470005FE4C701B6010E944C3087FDCCE02EEF0F
:104480003DED43EB5FE4C701B6010E944C3087FD70
:10449000CBE02EE63CE249E45FE4C701B6010E94AE
:1044A0004C3087FDCAE02EE039E442E35FE4C70107
:1044B000B6010E944C3087FDC9E02DE134EE46E1A3
:1044C0005FE4C701B6010E944C3087FDC8E02AEFC7
:1044D0003CE64DEE5EE4C701B6010E944C3087FD1C
:1044E000C7E02FE139EA49EC5EE4C701B6010E945A
:1044F0004C3087FDC6E026E83EE041E95EE4C701B6
:10450000B6010E944C3087FDC5E02CE33BE649E450
:104510005EE4C701B6010E944C3087FDC4E023E68B
:1045200038E44CEC5DE4C701B6010E944C3087FDD5
:10453000C3E027E93AE542E55DE4C701B6010E9420
:104540004C3087FDC2E029E132EC49E55CE4C7016B
:10455000B6010E944C3087FDC1E021E235EC4BE70B
:104560005BE4C701B6010E944C3087FDC0E08C2F90
:104570000E94FD0B272D382D492D5A2D6B2D702FA4
:10458000812F9D2F0E94B11B61E08091BB020E9490
:10459000EF0481E00E94221A86E0DF91CF911F9103
:1045A0000F91FF90EF90DF90CF90BF90AF909F90D2
:1045B0008F907F900C94221AFF920F931F93CF93AA
:1045C000DF93EC01F62E08811981C8010E94703139
:1045D000F81621F06F2DC8010E947831CE01DF91CD
:1045E000CF911F910F91FF900895CF92DF92EF929C
:1045F000FF920F931F93CF93DF9300D000D000D092
:10460000CDB7DEB7D82E28EAE22E23E0F22E10E056
:1046100000E08823D9F03DEBE32E32E0F32E00E9F1
:1046200011E01A830983F70161917F01CE010196A0
:104630000E94DC220F5F1F4F0A39F1E01F0789F744
:104640008AE0E82EF12C00E911E013C01A830983F7
:10465000F70161917F01CE0101960E94DC220F5F7C
:104660001F4F0736110591F797E6E92EF12C10E060
:1046700000E08D2D0E94B11769837A838B839C8320
:10468000E00EF11E6E01F5E0CF0ED11C8E010F5F22
:104690001F4FE01AF10AC701800F911F9E838D837F
:1046A000F80161918F01C6010E94DC22C016D1067B
:1046B00091F726960FB6F894DEBF0FBECDBFDF91FF
:1046C000CF911F910F91FF90EF90DF90CF900895C1
:1046D0001F920F920FB60F9211242F933F934F9377
:1046E0005F936F937F938F939F93AF93BF93EF935A
:1046F000FF938CE194E00E946004FF91EF91BF91E1
:10470000AF919F918F917F916F915F914F913F9169
:104710002F910F900FBE0F901F9018951F920F9220
:104720000FB60F9211242F938F939F93EF93FF93C4
:10473000E0912C04F0912D048081E0913204F091FD
:10474000330482FD1BC09081809135048F5F8F738D
:1047500020913604821741F0E0913504F0E0E45EE8
:10476000FB4F958F80933504FF91EF919F918F912F
:104770002F910F900FBE0F901F9018958081F4CF4E
:104780001F920F920FB60F9211242F933F938F9386
:104790009F93AF93BF938091AD029091AE02A09191
:1047A000AF02B091B0023091AC0226E0230F2D375A
:1047B00058F50296A11DB11D2093AC028093AD0265
:1047C0009093AE02A093AF02B093B0028091B10279
:1047D0009091B202A091B302B091B4020196A11DD2
:1047E000B11D8093B1029093B202A093B302B09333
:1047F000B402BF91AF919F918F913F912F910F90F4
:104800000FBE0F901F90189529E8230F0396A11D46
:10481000B11DD2CF1F920F920FB60F9211242F937A
:104820003F934F935F936F937F938F939F93AF9338
:10483000BF93EF93FF93E091B702F091B8023097E6
:1048400049F0A685B7858585968D91FF14C09C910A
:104850008923A1F4FF91EF91BF91AF919F918F9127
:104860007F916F915F914F913F912F910F900FBE6C
:104870000F901F9018959C91892361F7A389B489A3
:104880009C918589809589238C9386899789019746
:10489000F1F7608D718DA685B785558538E020E0EC
:1048A000CB010197F1F7822F90E095958795282FFE
:1048B0004C91452309F02068315091F7868D81FD98
:1048C00020958091B60290E001968F7399273091E0
:1048D000B502381799F0A091B602B0E0A459BD4FC7
:1048E0002C938093B602828D938D0197F1F7A38963
:1048F000B4898C919589892B8C93ACCF868D8160FE
:10490000868FF1CFCF92DF92EF92FF9210921F0429
:1049100010921E0498EEC92E93E0D92EE12CF12CB2
:10492000C0922004D0922104E0922204F092230449
:1049300083E092E090931D0480931C0485EC90E04A
:10494000909329048093280484EC90E090932B04A6
:1049500080932A0480EC90E090932D0480932C04A3
:1049600081EC90E090932F0480932E0482EC90E0F1
:10497000909331048093300486EC90E0909333045C
:10498000809332041092350410923604109237044A
:104990001092380489E695E00E94D60D8EE895E0E5
:1049A0000E94D60D1092F8041092F9041092FA04A5
:1049B0001092FB041092FC041092FD041092FE046D
:1049C0001092FF041092000510920105109202054A
:1049D0001092030589E695E00E94D60D10926805B5
:1049E00010928D0588ED94E00E94D60D1092BC04C3
:1049F0001092BB04C092BD04D092BE04E092BF04EA
:104A0000F092C00485E192E09093BA048093B904D7
:104A10001092D0041092CF041092D2041092D104BC
:104A20001092D4041092D3041092D6041092D5049C
:104A30006091D7046E7F6D7F6093D7046695617037
:104A400081E0682783E00E94EF0461E083E00E9438
:104A50003B05E3EAF4E0E491E093C904EFE8F4E015
:104A6000E491F0E0EE0FFF1FEE57FB4F859194911C
:104A70009093CB048093CA0460E082E00E943B05DF
:104A80008091D70481FD04C061E082E00E94EF04C0
:104A900082E08093C504E2EAF4E0E491E093C60486
:104AA000EEE8F4E0E491F0E0EE0FFF1FE858FB4F72
:104AB000859194919093C8048093C704FF90EF90E0
:104AC000DF90CF900895CF93DF93CDB7DEB7C55673
:104AD000D1090FB6F894DEBF0FBECDBF789484B570
:104AE000826084BD84B5816084BD85B5826085BDEA
:104AF00085B5816085BD80916E00816080936E0078
:104B00001092810080918100826080938100809169
:104B1000810081608093810080918000816080931A
:104B200080008091B10084608093B1008091B000DA
:104B300081608093B00080917A00846080937A00D5
:104B400080917A00826080937A0080917A008E7FD3
:104B500080937A0080917A00806880937A00109226
:104B6000C1008CE58093B8001092B9008FEF80935C
:104B7000BB00109264001092FF02E0912C04F091AF
:104B80002D0482E08083E0912804F09129041082B2
:104B9000E0912A04F0912B0487E68083109234047C
:104BA000E0913004F091310486E08083E0912E049E
:104BB000F0912F04808180618083E0912E04F09138
:104BC0002F04808188608083E0912E04F0912F046F
:104BD000808180688083E0912E04F0912F04808191
:104BE0008F7D808380ED97E0A0E0B0E0809320048B
:104BF00090932104A0932204B09323041092D40430
:104C00001092D3041092D2041092D1041092D004C6
:104C10001092CF048DEC90E09093D6048093D5044D
:104C20009091C504963108F047C025E530E03093F7
:104C3000D0042093CF042BEC30E03093D2042093A7
:104C4000D10420E930E03093D4042093D3042091A0
:104C5000680084E0983048F031E09E3008F430E09D
:104C600081E001C0880F3A95EAF7822B80936800B3
:104C70002DE630E0983050F02BE630E09E3030F0FA
:104C80002CE630E0963110F030E020E03093CD0497
:104C90002093CC04292F30E0983008F086C181E0C1
:104CA00001C0880F9A95EAF78093CE048091D504CD
:104CB0009091D6040197F1F78091D3049091D40498
:104CC000892B49F1E091B702F091B80224E0E93B69
:104CD000F20709F1309739F0A389B4899C9185894D
:104CE000809589238C938091D7048E7F8093D704FD
:104CF0001092B6021092B50289EB94E09093B8023C
:104D00008093B702E091CC04F091CD048081909122
:104D1000CE04892B808381E00E945C1881111BC026
:104D200067E273E08CE194E00E9489156DEB72E01C
:104D30008CE194E00E94891581E08093BD028CE2B1
:104D400098E7ADE7B1E08093BF029093C002A093D3
:104D5000C102B093C20280E00E945C18882309F46B
:104D600031C18091D0039091D1039093050380933A
:104D700004031092D8031092E7031092EE0384E02C
:104D800090E09093BC028093BB0264E672E08CE1F9
:104D900094E00E94891580E190E09093BC0280939A
:104DA000BB0261E081E10E943B0560E081E10E947D
:104DB000EF0461E080E10E943B0561E088E00E9431
:104DC0003B056CE472E08CE194E00E94BE0381E05C
:104DD0000E94720E8EE492E00E94A50E8AE00E946C
:104DE000581480E190E00E94001780E4EFEBF1E0BE
:104DF000DE01119601900D928A95E1F724E630E0EC
:104E000088248A94982C5401E0E4E0937C008091FB
:104E10007A00806480937A0080917A0086FDFCCFCE
:104E20008091780090917900B501A40148274F70D6
:104E3000552766277727440F551F440F551F61E0FC
:104E400070E06C0F7D1F460F571FDA014D915D9189
:104E50006D917C91F4E0B694A79497948794FA9519
:104E6000D1F7482559256A257B25A4E09595879596
:104E7000AA95E1F78F709927092E000CAA0BBB0B9E
:104E800084279527A627B7278F709927AA27BB279E
:104E9000880F991F880F991FA1E0B0E0AC0FBD1FCC
:104EA0008A0F9B1FDC018D909D90AD90BC9014E00B
:104EB00076956795579547951A95D1F78426952647
:104EC000A626B72680949094A094B09421503109DE
:104ED00009F09BCF89288A288B2811F00E94C22FC5
:104EE0000E947D150E94871B80E68093B9020E9474
:104EF000640C80EC0E944F0C182F0E945C0C18313F
:104F000079F082E68093B9020E94640C84EC0E94DE
:104F10004F0C182F0E945C0C183111F01092B9023E
:104F200080910403909105038130910509F4DDC05F
:104F300008F4DEC0029709F4E0C04E01BAE08B0E1F
:104F4000911C3E012DE0620E711C22E0A22EB12CBC
:104F50008CE194E00E944004892B09F409C781E0A8
:104F60008093FF02CC24C394D12C92E0F92E8CE1E3
:104F700094E00E944004181619060CF0F9C68CE162
:104F800094E00E941E048A3009F4BAC08D3079F38F
:104F9000E091FE02E13358F791E09E0F9093FE02FC
:104FA000F0E0E453FD4F8083E2CF9E3040F4285080
:104FB000310981E001C0880F2A95EAF775CE2E509D
:104FC0003109F7CF41E050E05093050340930403CB
:104FD00087E58093A80383E58093A90380E5809308
:104FE000AA0382E58093AB0380E28093AC0384E55F
:104FF0008093AD0388E58093AE031092AF0322E067
:1050000030E03093D1032093D00381E48093D20326
:105010008093D30390E39093D4038093D50380933C
:10502000D6038093D7031092D8035093E1034093A3
:10503000E0038093E3038093E4039093E50390936C
:10504000E6031092E7038093E8038093E9039093CB
:10505000EA039093EB038093EC038093ED031092AB
:10506000EE0384E08093E2031092F0031092EF03CA
:1050700080E18093F2033093DA032093D9038DE02B
:105080008093F103E3EFF3E083E094E011928E1755
:105090009F07E1F781E08093F8038093F90380EEA6
:1050A00091E0A0E0B0E08093030490930404A09307
:1050B0000504B0930604109207048AEC8093080458
:1050C0008AE9809309048BE380930A0410920B040D
:1050D00010920C0410920D0410920E0468E872E015
:1050E0008CE194E00E9489154ACE0E94CC2125CF04
:1050F0001092BA020E949E1E20CF0E949D1B1DCFBF
:10510000E091FE02F0E0E453FD4F10828091CC026A
:105110008B3509F0B8C38091D0028D3509F0B3C347
:105120008091CD02833409F047C08091CE02833450
:10513000D9F48091CF028D34B9F48091D2028335B5
:1051400009F0A4C38091D402833511F40E94CC21CC
:105150008091D402873511F40E949E1E8091D40262
:105160008E3411F40E949D1B8091CE02833589F408
:105170008091CF02853469F48091D202833549F45D
:1051800080E00E94F5226AE374E08CE194E00E94E2
:1051900089158091CE02833579F48091CF028C34C9
:1051A00059F48091D202833539F48091D40281344C
:1051B00009F070C31092CB028091CD028F3409F0B8
:1051C00056C18091CE02843599F58091CF02803509
:1051D00079F58091D202833509F06EC38091D402B3
:1051E00089838091D5028A838091D6028B838091B6
:1051F000D7028C838091D8028D831E82BE016F5F9F
:105200007F4FCE018F5B9F4F0E949817CE018F5B1F
:105210009F4F0E94770D2093030430930404409322
:10522000050450930604CE018F5B9F4F0E94A9177F
:105230008091CE02833591F48091CF028D3471F448
:105240008091D202833509F097C38091D4028335CF
:1052500009F083C3D092D103C092D0038091CE02D3
:105260008234F9F48091CF028434D9F49091D4023D
:105270008091D5022091D20299838A831B821C825D
:10528000233509F097C3CE0101960E941A30FC0124
:10529000ED50FC4F91E08091D702853409F090E009
:1052A00090838091CE028C3409F09AC08091CF0215
:1052B000833409F079C08091D202833509F0A5C307
:1052C0008091D402873409F063C0D092E103C09288
:1052D000E0036CE174E08CE194E00E948915809118
:1052E000F60483FF55C082FF53C08091EF0490E025
:1052F0009093CA028093C9028091EE0490E090934B
:10530000C8028093C7028091ED0490E0909301035E
:10531000809300036091DC047091DD048091DE04D1
:105320009091DF040E94533025E93FEB46ED53E3B3
:105330000E94B2301B012C016091D8047091D904F5
:105340008091DA049091DB040E94533025E93FEB11
:1053500046ED53E30E94B230A20191010E94960CE7
:1053600065E174E08CE194E00E94BE0363EE73E0BB
:105370008CE194E00E946B156EE074E08CE194E0A7
:105380000E94BE0368EE73E08CE194E00E946B150E
:105390008091D4028D3421F41092E1031092E00345
:1053A0008091CE028C34E1F48091CF028035C1F43B
:1053B0008091D20269EF73E0833551F48091D40279
:1053C000863309F037C376E07093E20360E074E05F
:1053D0008CE194E00E94BE038091E2030E94581485
:1053E0008091CE02803591F48091CF02873571F49F
:1053F0008091D202833509F029C38091D4028E3482
:1054000009F01CC31092F0031092EF038091CE02BA
:105410008435B9F48091CF02833599F48091D2021A
:10542000833509F028C38091D40289838091D50205
:105430008A831B821C82CE0101960E941A308093BF
:10544000F2038091CE02803591F48091CF028335B2
:1054500071F48091D202833509F02DC38091D4027A
:10546000803509F019C3D092DA03C092D903809134
:10547000CD02843409F01BC18091CE02833419F52A
:105480008091CF028335F9F48091D202833509F0FF
:1054900030C38091D4028093D2038091D50280934F
:1054A000D3038091D6028093D4038091D702809356
:1054B000D5038091D8028093D6038091D90280933E
:1054C000D7031092D8038091CE028335C9F480911E
:1054D000CF028634A9F48091D202833509F016C335
:1054E0008091D40289838091D5028A838091D602EB
:1054F0008B831C82CE0101960E941A308093DF03B9
:105500008091CE028035B9F48091CF02863499F42F
:105510008091D202833509F010C38091D402809328
:10552000DB038091D5028093DC038091D6028093C7
:10553000DD031092DE038091CE028C34D9F4809189
:10554000CF028433B9F48091D202833509F002C3CB
:105550008091D4028093E3038091D5028093E40389
:105560008091D6028093E5038091D7028093E60371
:105570001092E7038091CE028C3419F58091CF020E
:105580008633F9F48091D202833509F0F0C280911C
:10559000D4028093E8038091D5028093E90380913F
:1055A000D6028093EA038091D7028093EB03809127
:1055B000D8028093EC038091D9028093ED0310927E
:1055C000EE038091CE028E34B1F48091CF028D34FF
:1055D00091F48091D202833509F0D6C2A4EDB2E0F5
:1055E000E8EAF3E08D9181936FEC73E06E177F072B
:1055F000C9F71092CF038091CE028035B9F4809123
:10560000CF02843499F48091D202833509F0C9C263
:105610008091D40289838091D5028A831B821C8267
:10562000CE0101960E941A308093F1038091CE0240
:105630008734E9F58091CF028634C9F58091D20292
:10564000833509F0BFC2A4EDB2E0FE0131968D9121
:105650008193E615F705D9F71D86BE016F5F7F4F71
:10566000CE018F5B9F4F0E949817CE018F5B9F4F9B
:105670000E94770D20930704309308044093090497
:1056800050930A0460930B0470930C0480930D04F0
:1056900090930E04CE018F5B9F4F0E94A9178091BB
:1056A000040390910503019711F40E94CC2180918D
:1056B000CD02863409F0E7C08091CE028035D9F45E
:1056C0008091CF028E34B9F48091D202873499F45C
:1056D00065EA73E08CE194E00E94BE030E945014DE
:1056E0004AE069EF73E080E090E00E942C0E8CE1CC
:1056F00094E00E9454148091CE028834C9F48091C1
:10570000CF028635A9F48091D202833509F082C296
:105710008091D40289838091D5028A838091D602B8
:105720008B831C82CE0101960E941A308093BD02A9
:105730008091CE028834C9F48091CF028235A9F4D9
:105740008091D202833509F07CC28091D402898392
:105750008091D5028A838091D6028B831C82CE01F0
:1057600001960E941A308093BE028091CE0283354A
:1057700089F48091CF02863569F48091D202873412
:1057800049F460E973E08CE194E00E94BE0381E09B
:105790000E9458148091CE02833589F48091CF0203
:1057A000823569F48091D202873449F469E873E064
:1057B0008CE194E00E94BE038AE00E94581480911C
:1057C000CE028C34D1F48091CF028035B1F4809137
:1057D000D202833509F06AC28091D6028983809112
:1057E000D7028A831B828091D402823409F450C28A
:1057F0000CF03BC2813409F444C28091CE02823560
:1058000069F58091CF02863449F58091D2028335C3
:1058100009F08DC2A4EDB2E0FE0131968D91819325
:10582000E815F905D9F71A86BE016F5F7F4FCE01E3
:105830008F5B9F4F0E949817CE018F5B9F4F0E94F6
:10584000770D2093BF023093C0024093C102509362
:10585000C202CE018F5B9F4F0E94A9178091CE029A
:10586000833589F48091CF02853469F48091D20226
:10587000833549F481E00E94F52265E473E08CE110
:1058800094E00E9489151092FE0271CB81E00E9483
:10589000221A6ACC823421F481E08093CB028CCC32
:1058A000833419F4F092CB0287CC843409F084CC91
:1058B00063E06093CB0280CC63E374E08CE194E01E
:1058C0000E94BE038091030490910404A0910504FA
:1058D000B091060480319742A105B10510F40E94F1
:1058E00050148091030490910404A0910504B09198
:1058F0000604883E9340A105B10510F40E9450149F
:105900008091030490910404A0910504B0910604D1
:1059100084369105A105B10510F40E9450148091C0
:10592000030490910404A0910504B09106040A9721
:10593000A105B10510F40E94501460910304709108
:10594000040480910504909106044AE00E942C0E04
:105950008CE194E00E9454146BCC873529F41092AA
:10596000D1031092D0037ACC8E3409F077CCB09268
:10597000D103A092D00372CC6CE274E08CE194E08D
:105980000E94BE038091D0039091D1038130910594
:1059900071F050F060E472E0029709F05FCC8CE1A6
:1059A00094E00E946B155ACC62E472E0F8CF64E494
:1059B00072E0F5CF65E274E08CE194E00E94BE03F2
:1059C000CE0101960E941A308C011C01990F4408E7
:1059D00055086AE0261631044104510410F40E946F
:1059E00050144AE0C201B1010E942C0EF801ED50A2
:1059F000FC4F808160E572E0811102C063E572E0D6
:105A00008CE194E00E946B154CCC67E074E08CE173
:105A100094E00E94BE038091E0039091E10366E56B
:105A200072E0019711F068E572E08CE194E00E9469
:105A30006B15B6CC84E08093E203C8CC813409F0C6
:105A4000E5CCD092F003C092EF03E0CC62EF73E0BC
:105A50008CE194E00E94BE038091EF039091F003EB
:105A600060E472E0892B11F068E472E08CE194E06C
:105A70000E946B15CBCC6BEE73E08CE194E00E943E
:105A8000BE038091F2038A3010F40E94501480917A
:105A9000F2030E945814D5CC833529F41092DA030E
:105AA0001092D903E4CC8E3409F0E1CCB092DA0341
:105AB000A092D903DCCC64EE73E08CE194E00E9408
:105AC000BE038091D9039091DA038130910539F0BA
:105AD00068F0029709F0CBCC60E472E002C06AE59E
